{"abi":[{"inputs":[{"internalType":"address","name":"_VRFCoordinator","type":"address"},{"internalType":"address","name":"_LinkToken","type":"address"},{"internalType":"bytes32","name":"_keyhash","type":"bytes32"},{"internalType":"uint256","name":"_link_fee","type":"uint256"}],"stateMutability":"nonpayable","type":"constructor","name":"constructor"},{"anonymous":false,"inputs":[{"indexed":true,"internalType":"address","name":"owner","type":"address"},{"indexed":true,"internalType":"address","name":"approved","type":"address"},{"indexed":true,"internalType":"uint256","name":"tokenId","type":"uint256"}],"name":"Approval","type":"event"},{"anonymous":false,"inputs":[{"indexed":true,"internalType":"address","name":"owner","type":"address"},{"indexed":true,"internalType":"address","name":"operator","type":"address"},{"indexed":false,"internalType":"bool","name":"approved","type":"bool"}],"name":"ApprovalForAll","type":"event"},{"anonymous":false,"inputs":[{"indexed":true,"internalType":"address","name":"previousOwner","type":"address"},{"indexed":true,"internalType":"address","name":"newOwner","type":"address"}],"name":"OwnershipTransferred","type":"event"},{"anonymous":false,"inputs":[{"indexed":true,"internalType":"uint256","name":"tokenId","type":"uint256"}],"name":"PokemonCreated","type":"event"},{"anonymous":false,"inputs":[{"indexed":true,"internalType":"address","name":"from","type":"address"},{"indexed":true,"internalType":"address","name":"to","type":"address"},{"indexed":true,"internalType":"uint256","name":"tokenId","type":"uint256"}],"name":"Transfer","type":"event"},{"anonymous":false,"inputs":[{"indexed":true,"internalType":"bytes32","name":"requestId","type":"bytes32"}],"name":"requestedPokemon","type":"event"},{"inputs":[{"internalType":"address","name":"to","type":"address"},{"internalType":"uint256","name":"tokenId","type":"uint256"}],"name":"approve","outputs":[],"stateMutability":"nonpayable","type":"function"},{"inputs":[{"internalType":"address","name":"owner","type":"address"}],"name":"balanceOf","outputs":[{"internalType":"uint256","name":"","type":"uint256"}],"stateMutability":"view","type":"function"},{"inputs":[],"name":"baseURI","outputs":[{"internalType":"string","name":"","type":"string"}],"stateMutability":"view","type":"function"},{"inputs":[{"internalType":"string","name":"pokemonName","type":"string"},{"internalType":"uint256","name":"hp","type":"uint256"},{"internalType":"uint256","name":"atk","type":"uint256"},{"internalType":"uint256","name":"def","type":"uint256"},{"internalType":"uint256","name":"spa","type":"uint256"},{"internalType":"uint256","name":"spd","type":"uint256"},{"internalType":"uint256","name":"spe","type":"uint256"},{"internalType":"string","name":"type1","type":"string"},{"internalType":"string","name":"type2","type":"string"},{"internalType":"uint256","name":"number","type":"uint256"}],"name":"createBaseStatPokemon","outputs":[],"stateMutability":"nonpayable","type":"function"},{"inputs":[{"internalType":"uint256","name":"userProvidedSeed","type":"uint256"}],"name":"createRandomPokemon","outputs":[{"internalType":"bytes32","name":"","type":"bytes32"}],"stateMutability":"nonpayable","type":"function"},{"inputs":[{"internalType":"uint256","name":"tokenId","type":"uint256"}],"name":"getApproved","outputs":[{"internalType":"address","name":"","type":"address"}],"stateMutability":"view","type":"function"},{"inputs":[{"internalType":"uint256","name":"randomValue","type":"uint256"},{"internalType":"uint256","name":"n","type":"uint256"}],"name":"getManyRandomNumbers","outputs":[{"internalType":"uint256[]","name":"expandedValues","type":"uint256[]"}],"stateMutability":"pure","type":"function"},{"inputs":[{"internalType":"string","name":"pokemonName","type":"string"}],"name":"getTypeFromName","outputs":[{"internalType":"string","name":"","type":"string"},{"internalType":"string","name":"","type":"string"}],"stateMutability":"nonpayable","type":"function"},{"inputs":[{"internalType":"address","name":"owner","type":"address"},{"internalType":"address","name":"operator","type":"address"}],"name":"isApprovedForAll","outputs":[{"internalType":"bool","name":"","type":"bool"}],"stateMutability":"view","type":"function"},{"inputs":[{"internalType":"uint256","name":"","type":"uint256"}],"name":"listOfPokemonNames","outputs":[{"internalType":"string","name":"","type":"string"}],"stateMutability":"view","type":"function"},{"inputs":[],"name":"name","outputs":[{"internalType":"string","name":"","type":"string"}],"stateMutability":"view","type":"function"},{"inputs":[{"internalType":"uint256","name":"","type":"uint256"}],"name":"natures","outputs":[{"internalType":"string","name":"","type":"string"}],"stateMutability":"view","type":"function"},{"inputs":[],"name":"owner","outputs":[{"internalType":"address","name":"","type":"address"}],"stateMutability":"view","type":"function"},{"inputs":[{"internalType":"uint256","name":"tokenId","type":"uint256"}],"name":"ownerOf","outputs":[{"internalType":"address","name":"","type":"address"}],"stateMutability":"view","type":"function"},{"inputs":[{"internalType":"string","name":"","type":"string"}],"name":"pokemonNameToImageURI","outputs":[{"internalType":"string","name":"","type":"string"}],"stateMutability":"view","type":"function"},{"inputs":[{"internalType":"string","name":"","type":"string"}],"name":"pokemonNameToPokemonBaseStats","outputs":[{"internalType":"uint256","name":"hp","type":"uint256"},{"internalType":"uint256","name":"atk","type":"uint256"},{"internalType":"uint256","name":"def","type":"uint256"},{"internalType":"uint256","name":"spa","type":"uint256"},{"internalType":"uint256","name":"spd","type":"uint256"},{"internalType":"uint256","name":"spe","type":"uint256"},{"internalType":"string","name":"type1","type":"string"},{"internalType":"string","name":"type2","type":"string"},{"internalType":"uint256","name":"number","type":"uint256"},{"internalType":"string","name":"pokemonName","type":"string"}],"stateMutability":"view","type":"function"},{"inputs":[{"internalType":"bytes32","name":"requestId","type":"bytes32"},{"internalType":"uint256","name":"randomness","type":"uint256"}],"name":"rawFulfillRandomness","outputs":[],"stateMutability":"nonpayable","type":"function"},{"inputs":[],"name":"renounceOwnership","outputs":[],"stateMutability":"nonpayable","type":"function"},{"inputs":[{"internalType":"bytes32","name":"","type":"bytes32"}],"name":"requestIdToSender","outputs":[{"internalType":"address","name":"","type":"address"}],"stateMutability":"view","type":"function"},{"inputs":[{"internalType":"bytes32","name":"","type":"bytes32"}],"name":"requestIdToTokenId","outputs":[{"internalType":"uint256","name":"","type":"uint256"}],"stateMutability":"view","type":"function"},{"inputs":[{"internalType":"address","name":"from","type":"address"},{"internalType":"address","name":"to","type":"address"},{"internalType":"uint256","name":"tokenId","type":"uint256"}],"name":"safeTransferFrom","outputs":[],"stateMutability":"nonpayable","type":"function"},{"inputs":[{"internalType":"address","name":"from","type":"address"},{"internalType":"address","name":"to","type":"address"},{"internalType":"uint256","name":"tokenId","type":"uint256"},{"internalType":"bytes","name":"_data","type":"bytes"}],"name":"safeTransferFrom","outputs":[],"stateMutability":"nonpayable","type":"function"},{"inputs":[{"internalType":"address","name":"operator","type":"address"},{"internalType":"bool","name":"approved","type":"bool"}],"name":"setApprovalForAll","outputs":[],"stateMutability":"nonpayable","type":"function"},{"inputs":[{"internalType":"string","name":"pokemonName","type":"string"},{"internalType":"uint256","name":"tokenId","type":"uint256"}],"name":"setBattleStats","outputs":[],"stateMutability":"nonpayable","type":"function"},{"inputs":[{"internalType":"uint256","name":"tokenId","type":"uint256"},{"internalType":"string","name":"_tokenURI","type":"string"}],"name":"setTokenURI","outputs":[],"stateMutability":"nonpayable","type":"function"},{"inputs":[{"internalType":"bytes4","name":"interfaceId","type":"bytes4"}],"name":"supportsInterface","outputs":[{"internalType":"bool","name":"","type":"bool"}],"stateMutability":"view","type":"function"},{"inputs":[],"name":"symbol","outputs":[{"internalType":"string","name":"","type":"string"}],"stateMutability":"view","type":"function"},{"inputs":[{"internalType":"uint256","name":"index","type":"uint256"}],"name":"tokenByIndex","outputs":[{"internalType":"uint256","name":"","type":"uint256"}],"stateMutability":"view","type":"function"},{"inputs":[],"name":"tokenCounter","outputs":[{"internalType":"uint256","name":"","type":"uint256"}],"stateMutability":"view","type":"function"},{"inputs":[{"internalType":"uint256","name":"","type":"uint256"}],"name":"tokenIdToBattleStats","outputs":[{"internalType":"uint256","name":"hp","type":"uint256"},{"internalType":"uint256","name":"atk","type":"uint256"},{"internalType":"uint256","name":"def","type":"uint256"},{"internalType":"uint256","name":"spa","type":"uint256"},{"internalType":"uint256","name":"spd","type":"uint256"},{"internalType":"uint256","name":"spe","type":"uint256"},{"internalType":"string","name":"type1","type":"string"},{"internalType":"string","name":"type2","type":"string"},{"internalType":"uint256","name":"number","type":"uint256"},{"internalType":"string","name":"pokemonName","type":"string"}],"stateMutability":"view","type":"function"},{"inputs":[{"internalType":"uint256","name":"","type":"uint256"}],"name":"tokenIdToEvs","outputs":[{"internalType":"uint256","name":"hp","type":"uint256"},{"internalType":"uint256","name":"atk","type":"uint256"},{"internalType":"uint256","name":"def","type":"uint256"},{"internalType":"uint256","name":"spa","type":"uint256"},{"internalType":"uint256","name":"spd","type":"uint256"},{"internalType":"uint256","name":"spe","type":"uint256"},{"internalType":"string","name":"type1","type":"string"},{"internalType":"string","name":"type2","type":"string"},{"internalType":"uint256","name":"number","type":"uint256"},{"internalType":"string","name":"pokemonName","type":"string"}],"stateMutability":"view","type":"function"},{"inputs":[{"internalType":"uint256","name":"","type":"uint256"}],"name":"tokenIdToIvs","outputs":[{"internalType":"uint256","name":"hp","type":"uint256"},{"internalType":"uint256","name":"atk","type":"uint256"},{"internalType":"uint256","name":"def","type":"uint256"},{"internalType":"uint256","name":"spa","type":"uint256"},{"internalType":"uint256","name":"spd","type":"uint256"},{"internalType":"uint256","name":"spe","type":"uint256"},{"internalType":"string","name":"type1","type":"string"},{"internalType":"string","name":"type2","type":"string"},{"internalType":"uint256","name":"number","type":"uint256"},{"internalType":"string","name":"pokemonName","type":"string"}],"stateMutability":"view","type":"function"},{"inputs":[{"internalType":"uint256","name":"","type":"uint256"}],"name":"tokenIdToMoves","outputs":[{"internalType":"string","name":"move1","type":"string"},{"internalType":"string","name":"move2","type":"string"},{"internalType":"string","name":"move3","type":"string"},{"internalType":"string","name":"move4","type":"string"}],"stateMutability":"view","type":"function"},{"inputs":[{"internalType":"address","name":"owner","type":"address"},{"internalType":"uint256","name":"index","type":"uint256"}],"name":"tokenOfOwnerByIndex","outputs":[{"internalType":"uint256","name":"","type":"uint256"}],"stateMutability":"view","type":"function"},{"inputs":[{"internalType":"uint256","name":"tokenId","type":"uint256"}],"name":"tokenURI","outputs":[{"internalType":"string","name":"","type":"string"}],"stateMutability":"view","type":"function"},{"inputs":[],"name":"totalSupply","outputs":[{"internalType":"uint256","name":"","type":"uint256"}],"stateMutability":"view","type":"function"},{"inputs":[{"internalType":"address","name":"from","type":"address"},{"internalType":"address","name":"to","type":"address"},{"internalType":"uint256","name":"tokenId","type":"uint256"}],"name":"transferFrom","outputs":[],"stateMutability":"nonpayable","type":"function"},{"inputs":[{"internalType":"address","name":"newOwner","type":"address"}],"name":"transferOwnership","outputs":[],"stateMutability":"nonpayable","type":"function"},{"inputs":[{"internalType":"uint256","name":"","type":"uint256"}],"name":"uniquePokemon","outputs":[{"internalType":"string","name":"nickname","type":"string"},{"internalType":"string","name":"item","type":"string"},{"internalType":"bool","name":"shiny","type":"bool"},{"internalType":"string","name":"ability","type":"string"},{"internalType":"string","name":"nature","type":"string"},{"internalType":"uint256","name":"level","type":"uint256"}],"stateMutability":"view","type":"function"}],"bytecode":"60c06040523480156200001157600080fd5b50604051620052a2380380620052a2833981810160405260808110156200003757600080fd5b5080516020808301516040808501516060909501518151808301835260088152672837b5e1d4b6b7b760c11b81860152825180840190935260058352642825a6a7a760d91b948301949094529394919391928591859190620000a96301ffc9a760e01b6001600160e01b03620004ce16565b8151620000be90600690602085019062000558565b508051620000d490600790602084019062000558565b50620000f06380ac58cd60e01b6001600160e01b03620004ce16565b6200010b635b5e139f60e01b6001600160e01b03620004ce16565b6200012663780e9d6360e01b6001600160e01b03620004ce16565b50506001600160601b0319606092831b811660a052911b166080526000620001566001600160e01b036200055316565b600b80546001600160a01b0319166001600160a01b038316908117909155604051919250906000907f8be0079c531659141344cd1fd0a4f28419497f9722a3daafe3b4186f6b6457e0908290a3506000601055600e829055600f81905560408051610360810182526005610320820181815264486172647960d81b6103408401528252825180840184526006808252654c6f6e656c7960d01b602083810191909152808501929092528451808601865283815264427261766560d81b8184015284860152845180860186526007808252661059185b585b9d60ca1b82850152606086019190915285518087018752818152664e61756768747960c81b81850152608086015285518087018752600480825263109bdb1960e21b8286015260a08701919091528651808801885283815265446f63696c6560d01b8186015260c0870152865180880188528281526614995b185e195960ca1b8186015260e08701528651808801885283815265092dae0d2e6d60d31b81860152610100870152865180880188526003815262098c2f60eb1b818601526101208701528651808801885285815264151a5b5a5960da1b818601526101408701528651808801885285815264486173747960d81b818601526101608701528651808801885282815266536572696f757360c81b8186015261018087015286518088018852858152644a6f6c6c7960d81b818601526101a087015286518088018852858152644e6169766560d81b818601526101c08701528651808801885283815265135bd9195cdd60d21b818601526101e08701528651808801885281815263135a5b1960e21b818601526102008701528651808801885285815264145d5a595d60da1b81860152610220870152865180880188528281526610985cda199d5b60ca1b8186015261024087015286518088018852818152630a4c2e6d60e31b81860152610260870152865180880188529081526343616c6d60e01b81850152610280860152855180870187528281526547656e746c6560d01b818501526102a08601528551808701875293845264536173737960d81b848401526102c0850193909352845180860186529283526610d85c99599d5b60ca1b838301526102e0840192909252835180850190945290835265517569726b7960d01b90830152610300810191909152620004c3906017906019620005dd565b5050505050620006cd565b6001600160e01b031980821614156200052e576040805162461bcd60e51b815260206004820152601c60248201527f4552433136353a20696e76616c696420696e7465726661636520696400000000604482015290519081900360640190fd5b6001600160e01b0319166000908152602081905260409020805460ff19166001179055565b335b90565b828054600181600116156101000203166002900490600052602060002090601f016020900481019282601f106200059b57805160ff1916838001178555620005cb565b82800160010185558215620005cb579182015b82811115620005cb578251825591602001919060010190620005ae565b50620005d99291506200063d565b5090565b8280548282559060005260206000209081019282156200062f579160200282015b828111156200062f57825180516200061e91849160209091019062000558565b5091602001919060010190620005fe565b50620005d99291506200065a565b6200055591905b80821115620005d9576000815560010162000644565b6200055591905b80821115620005d957600062000678828262000682565b5060010162000661565b50805460018160011615610100020316600290046000825580601f10620006aa5750620006ca565b601f016020900490600052602060002090810190620006ca91906200063d565b50565b60805160601c60a05160601c614ba6620006fc6000398061221d528061325f5250806132305250614ba66000f3fe608060405234801561001057600080fd5b506004361061023d5760003560e01c806370a082311161013b578063acb11fb3116100b8578063d082e3811161007c578063d082e38114610fea578063e53fa19414610ff2578063e985e9c5146111b9578063f2fde38b146111e7578063f9f9a1251461120d5761023d565b8063acb11fb314610eb2578063b318de4914610ecf578063b88d4fde14610eec578063beef338714610fb0578063c87b56dd14610fcd5761023d565b806394985ddd116100ff57806394985ddd14610d0f57806395d89b4114610d325780639aa20fcf14610d3a578063a22cb46514610de0578063a96617a814610e0e5761023d565b806370a0823114610c9f578063715018a614610cc557806372a4b25e14610ccd578063887d1cb214610cea5780638da5cb5b14610d075761023d565b806322881f88116101c95780634f6ccce71161018d5780634f6ccce71461090257806360b5f0361461091f5780636352211e14610aa15780636c0360eb14610abe5780636da561b314610ac65761023d565b806322881f881461067957806323b872dd14610696578063274d9e02146106cc5780632f745c59146108a057806342842e0e146108cc5761023d565b8063095ea7b311610210578063095ea7b31461054c5780630ddd10581461057a578063162094c41461059757806318160ddd14610642578063219c0eee1461065c5761023d565b806301ffc9a714610242578063028d06d41461027d57806306fdde0314610496578063081812fc14610513575b600080fd5b6102696004803603602081101561025857600080fd5b50356001600160e01b031916611280565b604080519115158252519081900360200190f35b6103216004803603602081101561029357600080fd5b810190602081018135600160201b8111156102ad57600080fd5b8201836020820111156102bf57600080fd5b803590602001918460018302840111600160201b831117156102e057600080fd5b91908080601f0160208091040260200160405190810160405280939291908181526020018383808284376000920191909152509295506112a3945050505050565b604051808b81526020018a8152602001898152602001888152602001878152602001868152602001806020018060200185815260200180602001848103845288818151815260200191508051906020019080838360005b83811015610390578181015183820152602001610378565b50505050905090810190601f1680156103bd5780820380516001836020036101000a031916815260200191505b50848103835287518152875160209182019189019080838360005b838110156103f05781810151838201526020016103d8565b50505050905090810190601f16801561041d5780820380516001836020036101000a031916815260200191505b50848103825285518152855160209182019187019080838360005b83811015610450578181015183820152602001610438565b50505050905090810190601f16801561047d5780820380516001836020036101000a031916815260200191505b509d505050505050505050505050505060405180910390f35b61049e61149f565b6040805160208082528351818301528351919283929083019185019080838360005b838110156104d85781810151838201526020016104c0565b50505050905090810190601f1680156105055780820380516001836020036101000a031916815260200191505b509250505060405180910390f35b6105306004803603602081101561052957600080fd5b5035611536565b604080516001600160a01b039092168252519081900360200190f35b6105786004803603604081101561056257600080fd5b506001600160a01b038135169060200135611598565b005b6103216004803603602081101561059057600080fd5b5035611673565b610578600480360360408110156105ad57600080fd5b81359190810190604081016020820135600160201b8111156105ce57600080fd5b8201836020820111156105e057600080fd5b803590602001918460018302840111600160201b8311171561060157600080fd5b91908080601f016020809104026020016040519081016040528093929190818152602001838380828437600092019190915250929550611718945050505050565b61064a6117d4565b60408051918252519081900360200190f35b6105306004803603602081101561067257600080fd5b50356117e5565b61064a6004803603602081101561068f57600080fd5b5035611800565b610578600480360360608110156106ac57600080fd5b506001600160a01b03813581169160208101359091169060400135611812565b61057860048036036101408110156106e357600080fd5b810190602081018135600160201b8111156106fd57600080fd5b82018360208201111561070f57600080fd5b803590602001918460018302840111600160201b8311171561073057600080fd5b91908080601f016020809104026020016040519081016040528093929190818152602001838380828437600092019190915250929584359560208601359560408101359550606081013594506080810135935060a081013592919060e081019060c00135600160201b8111156107a557600080fd5b8201836020820111156107b757600080fd5b803590602001918460018302840111600160201b831117156107d857600080fd5b91908080601f0160208091040260200160405190810160405280939291908181526020018383808284376000920191909152509295949360208101935035915050600160201b81111561082a57600080fd5b82018360208201111561083c57600080fd5b803590602001918460018302840111600160201b8311171561085d57600080fd5b91908080601f0160208091040260200160405190810160405280939291908181526020018383808284376000920191909152509295505091359250611869915050565b61064a600480360360408110156108b657600080fd5b506001600160a01b0381351690602001356119eb565b610578600480360360608110156108e257600080fd5b506001600160a01b03813581169160208101359091169060400135611a1c565b61064a6004803603602081101561091857600080fd5b5035611a37565b6109c36004803603602081101561093557600080fd5b810190602081018135600160201b81111561094f57600080fd5b82018360208201111561096157600080fd5b803590602001918460018302840111600160201b8311171561098257600080fd5b91908080601f016020809104026020016040519081016040528093929190818152602001838380828437600092019190915250929550611a53945050505050565b604051808060200180602001838103835285818151815260200191508051906020019080838360005b83811015610a045781810151838201526020016109ec565b50505050905090810190601f168015610a315780820380516001836020036101000a031916815260200191505b50838103825284518152845160209182019186019080838360005b83811015610a64578181015183820152602001610a4c565b50505050905090810190601f168015610a915780820380516001836020036101000a031916815260200191505b5094505050505060405180910390f35b61053060048036036020811015610ab757600080fd5b5035611cda565b61049e611d08565b610ae360048036036020811015610adc57600080fd5b5035611d69565b60405180806020018060200187151515158152602001806020018060200186815260200185810385528b818151815260200191508051906020019080838360005b83811015610b3c578181015183820152602001610b24565b50505050905090810190601f168015610b695780820380516001836020036101000a031916815260200191505b5085810384528a5181528a516020918201918c019080838360005b83811015610b9c578181015183820152602001610b84565b50505050905090810190601f168015610bc95780820380516001836020036101000a031916815260200191505b5085810383528851815288516020918201918a019080838360005b83811015610bfc578181015183820152602001610be4565b50505050905090810190601f168015610c295780820380516001836020036101000a031916815260200191505b50858103825287518152875160209182019189019080838360005b83811015610c5c578181015183820152602001610c44565b50505050905090810190601f168015610c895780820380516001836020036101000a031916815260200191505b509a505050505050505050505060405180910390f35b61064a60048036036020811015610cb557600080fd5b50356001600160a01b0316611fe9565b610578612051565b61064a60048036036020811015610ce357600080fd5b50356120fd565b61032160048036036020811015610d0057600080fd5b503561215e565b610530612203565b61057860048036036040811015610d2557600080fd5b5080359060200135612212565b61049e612299565b61057860048036036040811015610d5057600080fd5b810190602081018135600160201b811115610d6a57600080fd5b820183602082011115610d7c57600080fd5b803590602001918460018302840111600160201b83111715610d9d57600080fd5b91908080601f01602080910402602001604051908101604052809392919081815260200183838082843760009201919091525092955050913592506122fa915050565b61057860048036036040811015610df657600080fd5b506001600160a01b0381351690602001351515612513565b61049e60048036036020811015610e2457600080fd5b810190602081018135600160201b811115610e3e57600080fd5b820183602082011115610e5057600080fd5b803590602001918460018302840111600160201b83111715610e7157600080fd5b91908080601f016020809104026020016040519081016040528093929190818152602001838380828437600092019190915250929550612618945050505050565b61049e60048036036020811015610ec857600080fd5b50356126bf565b61049e60048036036020811015610ee557600080fd5b5035612732565b61057860048036036080811015610f0257600080fd5b6001600160a01b03823581169260208101359091169160408201359190810190608081016060820135600160201b811115610f3c57600080fd5b820183602082011115610f4e57600080fd5b803590602001918460018302840111600160201b83111715610f6f57600080fd5b91908080601f01602080910402602001604051908101604052809392919081815260200183838082843760009201919091525092955061273f945050505050565b61032160048036036020811015610fc657600080fd5b5035612797565b61049e60048036036020811015610fe357600080fd5b503561283c565b61064a612abf565b61100f6004803603602081101561100857600080fd5b5035612ac5565b6040518080602001806020018060200180602001858103855289818151815260200191508051906020019080838360005b83811015611058578181015183820152602001611040565b50505050905090810190601f1680156110855780820380516001836020036101000a031916815260200191505b5085810384528851815288516020918201918a019080838360005b838110156110b85781810151838201526020016110a0565b50505050905090810190601f1680156110e55780820380516001836020036101000a031916815260200191505b50858103835287518152875160209182019189019080838360005b83811015611118578181015183820152602001611100565b50505050905090810190601f1680156111455780820380516001836020036101000a031916815260200191505b50858103825286518152865160209182019188019080838360005b83811015611178578181015183820152602001611160565b50505050905090810190601f1680156111a55780820380516001836020036101000a031916815260200191505b509850505050505050505060405180910390f35b610269600480360360408110156111cf57600080fd5b506001600160a01b0381358116916020013516612d26565b610578600480360360208110156111fd57600080fd5b50356001600160a01b0316612d54565b6112306004803603604081101561122357600080fd5b5080359060200135612e57565b60408051602080825283518183015283519192839290830191858101910280838360005b8381101561126c578181015183820152602001611254565b505050509050019250505060405180910390f35b6001600160e01b0319811660009081526020819052604090205460ff165b919050565b805160208183018101805160118252928201938201939093209190925280546001808301546002808501546003860154600487015460058801546006890180546040805199821615610100026000190190911696909604601f81018c90048c0289018c019096528588529799959893979296919590949192919083018282801561136e5780601f106113435761010080835404028352916020019161136e565b820191906000526020600020905b81548152906001019060200180831161135157829003601f168201915b5050505060078301805460408051602060026001851615610100026000190190941693909304601f81018490048402820184019092528181529495949350908301828280156113fe5780601f106113d3576101008083540402835291602001916113fe565b820191906000526020600020905b8154815290600101906020018083116113e157829003601f168201915b50505050600883015460098401805460408051602060026001851615610100026000190190941693909304601f810184900484028201840190925281815295969395939450908301828280156114955780601f1061146a57610100808354040283529160200191611495565b820191906000526020600020905b81548152906001019060200180831161147857829003601f168201915b505050505090508a565b60068054604080516020601f600260001961010060018816150201909516949094049384018190048102820181019092528281526060939092909183018282801561152b5780601f106115005761010080835404028352916020019161152b565b820191906000526020600020905b81548152906001019060200180831161150e57829003601f168201915b505050505090505b90565b600061154182612ef8565b61157c5760405162461bcd60e51b815260040180806020018281038252602c815260200180614a4f602c913960400191505060405180910390fd5b506000908152600460205260409020546001600160a01b031690565b60006115a382611cda565b9050806001600160a01b0316836001600160a01b031614156115f65760405162461bcd60e51b8152600401808060200182810382526021815260200180614b1f6021913960400191505060405180910390fd5b806001600160a01b0316611608612f0b565b6001600160a01b03161480611629575061162981611624612f0b565b612d26565b6116645760405162461bcd60e51b81526004018080602001828103825260388152602001806149a26038913960400191505060405180910390fd5b61166e8383612f0f565b505050565b6012602052806000526040600020600091509050806000015490806001015490806002015490806003015490806004015490806005015490806006018054600181600116156101000203166002900480601f01602080910402602001604051908101604052809291908181526020018280546001816001161561010002031660029004801561136e5780601f106113435761010080835404028352916020019161136e565b611720612f0b565b6001600160a01b0316611731612203565b6001600160a01b03161461177a576040805162461bcd60e51b81526020600482018190526024820152600080516020614aa7833981519152604482015290519081900360640190fd5b61178b611785612f0b565b83612f7d565b6117c65760405162461bcd60e51b8152600401808060200182810382526031815260200180614b406031913960400191505060405180910390fd5b6117d08282613021565b5050565b60006117e06002613084565b905090565b600c602052600090815260409020546001600160a01b031681565b600d6020526000908152604090205481565b61182361181d612f0b565b82612f7d565b61185e5760405162461bcd60e51b8152600401808060200182810382526031815260200180614b406031913960400191505060405180910390fd5b61166e83838361308f565b611871612f0b565b6001600160a01b0316611882612203565b6001600160a01b0316146118cb576040805162461bcd60e51b81526020600482018190526024820152600080516020614aa7833981519152604482015290519081900360640190fd5b600060118b6040518082805190602001908083835b602083106118ff5780518252601f1990920191602091820191016118e0565b51815160209384036101000a60001901801990921691161790529201948552506040519384900381019093208e51909450611943936009860193508f0191506147c6565b50835161195990600683019060208701906147c6565b50825161196f90600783019060208601906147c6565b50600881018290558981556002810188905560018082018a90556003820188905560048201879055600582018690556015805491820181556000528b516119dd917f55f448fdea98c4d29eb340757ef0a66cd03dbb9538908a6a81d96026b71ec475019060208e01906147c6565b505050505050505050505050565b6001600160a01b0382166000908152600160205260408120611a13908363ffffffff6131ed16565b90505b92915050565b61166e8383836040518060200160405280600081525061273f565b600080611a4b60028463ffffffff6131f916565b509392505050565b606080611a5e614844565b6011846040518082805190602001908083835b60208310611a905780518252601f199092019160209182019101611a71565b518151600019602094850361010090810a8201928316921993909316919091179092529490920196875260408051978890038201882061014089018252805489526001818101548a8501526002808301548b850152600383015460608c0152600483015460808c0152600583015460a08c01526006830180548551601f94821615909a0290970190961604908101849004840287018401909252818652965060c088019550919250830182828015611b895780601f10611b5e57610100808354040283529160200191611b89565b820191906000526020600020905b815481529060010190602001808311611b6c57829003601f168201915b505050918352505060078201805460408051602060026001851615610100026000190190941693909304601f8101849004840282018401909252818152938201939291830182828015611c1d5780601f10611bf257610100808354040283529160200191611c1d565b820191906000526020600020905b815481529060010190602001808311611c0057829003601f168201915b5050509183525050600882015460208083019190915260098301805460408051601f60026000196101006001871615020190941693909304928301859004850281018501825282815294019392830182828015611cbb5780601f10611c9057610100808354040283529160200191611cbb565b820191906000526020600020905b815481529060010190602001808311611c9e57829003601f168201915b50505050508152505090508060c001518160e001519250925050915091565b6000611a1682604051806060016040528060298152602001614a04602991396002919063ffffffff61321516565b60098054604080516020601f600260001961010060018816150201909516949094049384018190048102820181019092528281526060939092909183018282801561152b5780601f106115005761010080835404028352916020019161152b565b60168181548110611d7657fe5b60009182526020918290206006919091020180546040805160026001841615610100026000190190931692909204601f810185900485028301850190915280825291935091839190830182828015611e0f5780601f10611de457610100808354040283529160200191611e0f565b820191906000526020600020905b815481529060010190602001808311611df257829003601f168201915b505050505090806001018054600181600116156101000203166002900480601f016020809104026020016040519081016040528092919081815260200182805460018160011615610100020316600290048015611ead5780601f10611e8257610100808354040283529160200191611ead565b820191906000526020600020905b815481529060010190602001808311611e9057829003601f168201915b505050506002838101546003850180546040805160206101006001851615026000190190931695909504601f8101839004830286018301909152808552959660ff90931695929450909190830182828015611f495780601f10611f1e57610100808354040283529160200191611f49565b820191906000526020600020905b815481529060010190602001808311611f2c57829003601f168201915b5050505060048301805460408051602060026001851615610100026000190190941693909304601f8101849004840282018401909252818152949594935090830182828015611fd95780601f10611fae57610100808354040283529160200191611fd9565b820191906000526020600020905b815481529060010190602001808311611fbc57829003601f168201915b5050505050908060050154905086565b60006001600160a01b0382166120305760405162461bcd60e51b815260040180806020018281038252602a8152602001806149da602a913960400191505060405180910390fd5b6001600160a01b0382166000908152600160205260409020611a1690613084565b612059612f0b565b6001600160a01b031661206a612203565b6001600160a01b0316146120b3576040805162461bcd60e51b81526020600482018190526024820152600080516020614aa7833981519152604482015290519081900360640190fd5b600b546040516000916001600160a01b0316907f8be0079c531659141344cd1fd0a4f28419497f9722a3daafe3b4186f6b6457e0908390a3600b80546001600160a01b0319169055565b60008061210f600e54600f548561322c565b6000818152600c602052604080822080546001600160a01b031916331790555191925082917fc87d9d2e864f772e90c6d43b25444023c6fcdd718ad5d325d21600ce593e4c619190a250919050565b6013602052806000526040600020600091509050806000015490806001015490806002015490806003015490806004015490806005015490806006018054600181600116156101000203166002900480601f01602080910402602001604051908101604052809291908181526020018280546001816001161561010002031660029004801561136e5780601f106113435761010080835404028352916020019161136e565b600b546001600160a01b031690565b336001600160a01b037f0000000000000000000000000000000000000000000000000000000000000000161461228f576040805162461bcd60e51b815260206004820152601f60248201527f4f6e6c7920565246436f6f7264696e61746f722063616e2066756c66696c6c00604482015290519081900360640190fd5b6117d082826133ee565b60078054604080516020601f600260001961010060018816150201909516949094049384018190048102820181019092528281526060939092909183018282801561152b5780601f106115005761010080835404028352916020019161152b565b600060126000838152602001908152602001600020905060006011846040518082805190602001908083835b602083106123455780518252601f199092019160209182019101612326565b51815160209384036101000a600019018019909216911617905292019485525060408051948590038201909420600088815260148352858120601390935294852060168054929750929590945092508790811061239e57fe5b9060005260206000209060060201905080600501546064826005015460048560000154816123c857fe5b0402856000015487600001546002020101816123e057fe5b0401600a01856000018190555080600501546064600484600101548161240257fe5b048161240a57fe5b0484600101548660010154600202010102600501856001018190555080600501546064600484600201548161243b57fe5b048161244357fe5b0484600201548660020154600202010102600501856002018190555080600501546064600484600301548161247457fe5b048161247c57fe5b048460030154866003015460020201010260050185600301819055508060050154606460048460040154816124ad57fe5b04816124b557fe5b048460040154866004015460020201010260050185600401819055508060050154606460048460050154816124e657fe5b04816124ee57fe5b0484600501548660050154600202010102600501856005018190555050505050505050565b61251b612f0b565b6001600160a01b0316826001600160a01b03161415612581576040805162461bcd60e51b815260206004820152601960248201527f4552433732313a20617070726f766520746f2063616c6c657200000000000000604482015290519081900360640190fd5b806005600061258e612f0b565b6001600160a01b03908116825260208083019390935260409182016000908120918716808252919093529120805460ff1916921515929092179091556125d2612f0b565b60408051841515815290516001600160a01b0392909216917f17307eab39ab6107e8899845ad3d59bd9653f200f220920489ca2b5937696c319181900360200190a35050565b805160208183018101805160188252928201938201939093209190925280546040805160026001841615610100026000190190931692909204601f810185900485028301850190915280825290928301828280156126b75780601f1061268c576101008083540402835291602001916126b7565b820191906000526020600020905b81548152906001019060200180831161269a57829003601f168201915b505050505081565b601581815481106126cc57fe5b600091825260209182902001805460408051601f60026000196101006001871615020190941693909304928301859004850281018501909152818152935090918301828280156126b75780601f1061268c576101008083540402835291602001916126b7565b601781815481106126cc57fe5b61274a611785612f0b565b6127855760405162461bcd60e51b8152600401808060200182810382526031815260200180614b406031913960400191505060405180910390fd5b612791848484846137aa565b50505050565b6014602052806000526040600020600091509050806000015490806001015490806002015490806003015490806004015490806005015490806006018054600181600116156101000203166002900480601f01602080910402602001604051908101604052809291908181526020018280546001816001161561010002031660029004801561136e5780601f106113435761010080835404028352916020019161136e565b606061284782612ef8565b6128825760405162461bcd60e51b815260040180806020018281038252602f815260200180614af0602f913960400191505060405180910390fd5b60008281526008602090815260409182902080548351601f60026000196101006001861615020190931692909204918201849004840281018401909452808452606093928301828280156129175780601f106128ec57610100808354040283529160200191612917565b820191906000526020600020905b8154815290600101906020018083116128fa57829003601f168201915b505050505090506060612928611d08565b905080516000141561293c5750905061129e565b8151156129fd5780826040516020018083805190602001908083835b602083106129775780518252601f199092019160209182019101612958565b51815160209384036101000a600019018019909216911617905285519190930192850191508083835b602083106129bf5780518252601f1990920191602091820191016129a0565b6001836020036101000a038019825116818451168082178552505050505050905001925050506040516020818303038152906040529250505061129e565b80612a07856137fc565b6040516020018083805190602001908083835b60208310612a395780518252601f199092019160209182019101612a1a565b51815160209384036101000a600019018019909216911617905285519190930192850191508083835b60208310612a815780518252601f199092019160209182019101612a62565b6001836020036101000a0380198251168184511680821785525050505050509050019250505060405160208183030381529060405292505050919050565b60105481565b60196020908152600091825260409182902080548351601f60026000196101006001861615020190931692909204918201849004840281018401909452808452909291839190830182828015612b5c5780601f10612b3157610100808354040283529160200191612b5c565b820191906000526020600020905b815481529060010190602001808311612b3f57829003601f168201915b505050505090806001018054600181600116156101000203166002900480601f016020809104026020016040519081016040528092919081815260200182805460018160011615610100020316600290048015612bfa5780601f10612bcf57610100808354040283529160200191612bfa565b820191906000526020600020905b815481529060010190602001808311612bdd57829003601f168201915b50505060028085018054604080516020601f6000196101006001871615020190941695909504928301859004850281018501909152818152959695945090925090830182828015612c8c5780601f10612c6157610100808354040283529160200191612c8c565b820191906000526020600020905b815481529060010190602001808311612c6f57829003601f168201915b5050505060038301805460408051602060026001851615610100026000190190941693909304601f8101849004840282018401909252818152949594935090830182828015612d1c5780601f10612cf157610100808354040283529160200191612d1c565b820191906000526020600020905b815481529060010190602001808311612cff57829003601f168201915b5050505050905084565b6001600160a01b03918216600090815260056020908152604080832093909416825291909152205460ff1690565b612d5c612f0b565b6001600160a01b0316612d6d612203565b6001600160a01b031614612db6576040805162461bcd60e51b81526020600482018190526024820152600080516020614aa7833981519152604482015290519081900360640190fd5b6001600160a01b038116612dfb5760405162461bcd60e51b81526004018080602001828103825260268152602001806149066026913960400191505060405180910390fd5b600b546040516001600160a01b038084169216907f8be0079c531659141344cd1fd0a4f28419497f9722a3daafe3b4186f6b6457e090600090a3600b80546001600160a01b0319166001600160a01b0392909216919091179055565b60608167ffffffffffffffff81118015612e7057600080fd5b50604051908082528060200260200182016040528015612e9a578160200160208202803683370190505b50905060005b82811015612ef157604080516020808201879052818301849052825180830384018152606090920190925280519101208251839083908110612ede57fe5b6020908102919091010152600101612ea0565b5092915050565b6000611a1660028363ffffffff6138d716565b3390565b600081815260046020526040902080546001600160a01b0319166001600160a01b0384169081179091558190612f4482611cda565b6001600160a01b03167f8c5be1e5ebec7d5bd14f71427d1e84f3dd0314c0f7b2291e5b200ac8c7c3b92560405160405180910390a45050565b6000612f8882612ef8565b612fc35760405162461bcd60e51b815260040180806020018281038252602c815260200180614976602c913960400191505060405180910390fd5b6000612fce83611cda565b9050806001600160a01b0316846001600160a01b031614806130095750836001600160a01b0316612ffe84611536565b6001600160a01b0316145b8061301957506130198185612d26565b949350505050565b61302a82612ef8565b6130655760405162461bcd60e51b815260040180806020018281038252602c815260200180614a7b602c913960400191505060405180910390fd5b6000828152600860209081526040909120825161166e928401906147c6565b6000611a16826138e3565b826001600160a01b03166130a282611cda565b6001600160a01b0316146130e75760405162461bcd60e51b8152600401808060200182810382526029815260200180614ac76029913960400191505060405180910390fd5b6001600160a01b03821661312c5760405162461bcd60e51b815260040180806020018281038252602481526020018061492c6024913960400191505060405180910390fd5b61313783838361166e565b613142600082612f0f565b6001600160a01b038316600090815260016020526040902061316a908263ffffffff6138e716565b506001600160a01b0382166000908152600160205260409020613193908263ffffffff6138f316565b506131a66002828463ffffffff6138ff16565b5080826001600160a01b0316846001600160a01b03167fddf252ad1be2c89b69c2b068fc378daa952ba7f163c4a11628f55a4df523b3ef60405160405180910390a4505050565b6000611a138383613915565b60008080806132088686613979565b9097909650945050505050565b60006132228484846139f4565b90505b9392505050565b60007f00000000000000000000000000000000000000000000000000000000000000006001600160a01b0316634000aea07f000000000000000000000000000000000000000000000000000000000000000085878660405160200180838152602001828152602001925050506040516020818303038152906040526040518463ffffffff1660e01b815260040180846001600160a01b03166001600160a01b0316815260200183815260200180602001828103825283818151815260200191508051906020019080838360005b838110156133115781810151838201526020016132f9565b50505050905090810190601f16801561333e5780820380516001836020036101000a031916815260200191505b50945050505050602060405180830381600087803b15801561335f57600080fd5b505af1158015613373573d6000803e3d6000fd5b505050506040513d602081101561338957600080fd5b50506000848152600a60205260408120546133a990869085903090613abe565b6000868152600a60205260409020549091506133cc90600163ffffffff613b0516565b6000868152600a60205260409020556133e58582613b5f565b95945050505050565b6000828152600c6020908152604080832054601054600d90935292208190556001600160a01b03909116906134238282613b8b565b606061343084600b612e57565b905060006015805490508260078151811061344757fe5b60200260200101518161345657fe5b06905060606015828154811061346857fe5b600091825260209182902001805460408051601f60026000196101006001871615020190941693909304928301859004850281018501909152818152928301828280156134f65780601f106134cb576101008083540402835291602001916134f6565b820191906000526020600020905b8154815290600101906020018083116134d957829003601f168201915b5050505050905060608061350983611a53565b915091506060601780805490508760088151811061352357fe5b60200260200101518161353257fe5b068154811061353d57fe5b600091825260209182902001805460408051601f60026000196101006001871615020190941693909304928301859004850281018501909152818152928301828280156135cb5780601f106135a0576101008083540402835291602001916135cb565b820191906000526020600020905b8154815290600101906020018083116135ae57829003601f168201915b5050505050905060008090506000611000886009815181106135e957fe5b6020026020010151816135f857fe5b06905080613609576001915061360e565b600091505b6000606489600a8151811061361f57fe5b60200260200101518161362e57fe5b6040805160c0810182528a8152815180830183526004808252634e6f6e6560e01b60208381018290528085019390935289151584860152845180860190955290845283820152606082019290925260808101889052600193909206830160a083018190526016805494850181556000528251805191955092936006027fd833147d7dc355ba459fc788f669e58cfaf9dc25ddcd0702e87d69c7b512428901926136db9284929101906147c6565b5060208281015180516136f492600185019201906147c6565b50604082015160028201805460ff1916911515919091179055606082015180516137289160038401916020909101906147c6565b50608082015180516137449160048401916020909101906147c6565b5060a08201518160050155505061375c89888c613ba5565b613766878b6122fa565b6010546040517f1c305a7c0734e599942a438cbc6c131d389d33d095d45e324422d102f837fe7390600090a250506010805460010190555050505050505050505050565b6137b584848461308f565b6137c184848484614124565b6127915760405162461bcd60e51b81526004018080602001828103825260328152602001806148d46032913960400191505060405180910390fd5b60608161382157506040805180820190915260018152600360fc1b602082015261129e565b8160005b811561383957600101600a82049150613825565b60608167ffffffffffffffff8111801561385257600080fd5b506040519080825280601f01601f19166020018201604052801561387d576020820181803683370190505b50859350905060001982015b83156138ce57600a840660300160f81b828280600190039350815181106138ac57fe5b60200101906001600160f81b031916908160001a905350600a84049350613889565b50949350505050565b6000611a1383836142a4565b5490565b6000611a1383836142bc565b6000611a138383614382565b600061322284846001600160a01b0385166143cc565b815460009082106139575760405162461bcd60e51b81526004018080602001828103825260228152602001806148b26022913960400191505060405180910390fd5b82600001828154811061396657fe5b9060005260206000200154905092915050565b8154600090819083106139bd5760405162461bcd60e51b8152600401808060200182810382526022815260200180614a2d6022913960400191505060405180910390fd5b60008460000184815481106139ce57fe5b906000526020600020906002020190508060000154816001015492509250509250929050565b60008281526001840160205260408120548281613a8f5760405162461bcd60e51b81526004018080602001828103825283818151815260200191508051906020019080838360005b83811015613a54578181015183820152602001613a3c565b50505050905090810190601f168015613a815780820380516001836020036101000a031916815260200191505b509250505060405180910390fd5b50846000016001820381548110613aa257fe5b9060005260206000209060020201600101549150509392505050565b60408051602080820196909652808201949094526001600160a01b039290921660608401526080808401919091528151808403909101815260a09092019052805191012090565b600082820183811015611a13576040805162461bcd60e51b815260206004820152601b60248201527f536166654d6174683a206164646974696f6e206f766572666c6f770000000000604482015290519081900360640190fd5b604080516020808201949094528082019290925280518083038201815260609092019052805191012090565b6117d0828260405180602001604052806000815250614463565b606080613bb184611a53565b91509150613bbd614844565b6011856040518082805190602001908083835b60208310613bef5780518252601f199092019160209182019101613bd0565b518151600019602094850361010090810a8201928316921993909316919091179092529490920196875260408051978890038201882061014089018252805489526001818101548a8501526002808301548b850152600383015460608c0152600483015460808c0152600583015460a08c01526006830180548551601f94821615909a0290970190961604908101849004840287018401909252818652965060c088019550919250830182828015613ce85780601f10613cbd57610100808354040283529160200191613ce8565b820191906000526020600020905b815481529060010190602001808311613ccb57829003601f168201915b505050918352505060078201805460408051602060026001851615610100026000190190941693909304601f8101849004840282018401909252818152938201939291830182828015613d7c5780601f10613d5157610100808354040283529160200191613d7c565b820191906000526020600020905b815481529060010190602001808311613d5f57829003601f168201915b5050509183525050600882015460208083019190915260098301805460408051601f60026000196101006001871615020190941693909304928301859004850281018501825282815294019392830182828015613e1a5780601f10613def57610100808354040283529160200191613e1a565b820191906000526020600020905b815481529060010190602001808311613dfd57829003601f168201915b50505050508152505090506000601f87600181518110613e3657fe5b602002602001015181613e4557fe5b0660010190506000601f88600281518110613e5c57fe5b602002602001015181613e6b57fe5b0660010190506000601f89600381518110613e8257fe5b602002602001015181613e9157fe5b0660010190506000601f8a600481518110613ea857fe5b602002602001015181613eb757fe5b0660010190506000601f8b600581518110613ece57fe5b602002602001015181613edd57fe5b0660010190506000601f8c600681518110613ef457fe5b602002602001015181613f0357fe5b066001019050613f11614844565b6040518061014001604052808881526020018781526020018681526020018581526020018481526020018381526020018b81526020018a815260200189610100015181526020018d8152509050613f66614844565b6040518061014001604052806000815260200160008152602001600081526020016000815260200160008152602001600081526020018c81526020018b81526020018a610100015181526020018e815250905081601460008e8152602001908152602001600020600082015181600001556020820151816001015560408201518160020155606082015181600301556080820151816004015560a0820151816005015560c08201518160060190805190602001906140259291906147c6565b5060e082015180516140419160078401916020909101906147c6565b50610100820151600882015561012082015180516140699160098401916020909101906147c6565b50505060008c81526013602090815260409182902083518155818401516001820155918301516002830155606083015160038301556080830151600483015560a0830151600583015560c083015180518493926140cd9260068501929101906147c6565b5060e082015180516140e99160078401916020909101906147c6565b50610100820151600882015561012082015180516141119160098401916020909101906147c6565b5050505050505050505050505050505050565b6000614138846001600160a01b03166144b5565b61414457506001613019565b606061426a630a85bd0160e11b614159612f0b565b88878760405160240180856001600160a01b03166001600160a01b03168152602001846001600160a01b03166001600160a01b0316815260200183815260200180602001828103825283818151815260200191508051906020019080838360005b838110156141d25781810151838201526020016141ba565b50505050905090810190601f1680156141ff5780820380516001836020036101000a031916815260200191505b5095505050505050604051602081830303815290604052906001600160e01b0319166020820180516001600160e01b0383818316178352505050506040518060600160405280603281526020016148d4603291396001600160a01b038816919063ffffffff6144bb16565b9050600081806020019051602081101561428357600080fd5b50516001600160e01b031916630a85bd0160e11b1492505050949350505050565b60009081526001919091016020526040902054151590565b6000818152600183016020526040812054801561437857835460001980830191908101906000908790839081106142ef57fe5b906000526020600020015490508087600001848154811061430c57fe5b60009182526020808320909101929092558281526001898101909252604090209084019055865487908061433c57fe5b60019003818190600052602060002001600090559055866001016000878152602001908152602001600020600090556001945050505050611a16565b6000915050611a16565b600061438e83836142a4565b6143c457508154600181810184556000848152602080822090930184905584548482528286019093526040902091909155611a16565b506000611a16565b600082815260018401602052604081205480614431575050604080518082018252838152602080820184815286546001818101895560008981528481209551600290930290950191825591519082015586548684528188019092529290912055613225565b8285600001600183038154811061444457fe5b9060005260206000209060020201600101819055506000915050613225565b61446d83836144ca565b61447a6000848484614124565b61166e5760405162461bcd60e51b81526004018080602001828103825260328152602001806148d46032913960400191505060405180910390fd5b3b151590565b60606132228484600085614604565b6001600160a01b038216614525576040805162461bcd60e51b815260206004820181905260248201527f4552433732313a206d696e7420746f20746865207a65726f2061646472657373604482015290519081900360640190fd5b61452e81612ef8565b15614580576040805162461bcd60e51b815260206004820152601c60248201527f4552433732313a20746f6b656e20616c7265616479206d696e74656400000000604482015290519081900360640190fd5b61458c6000838361166e565b6001600160a01b03821660009081526001602052604090206145b4908263ffffffff6138f316565b506145c76002828463ffffffff6138ff16565b5060405181906001600160a01b038416906000907fddf252ad1be2c89b69c2b068fc378daa952ba7f163c4a11628f55a4df523b3ef908290a45050565b6060824710156146455760405162461bcd60e51b81526004018080602001828103825260268152602001806149506026913960400191505060405180910390fd5b61464e856144b5565b61469f576040805162461bcd60e51b815260206004820152601d60248201527f416464726573733a2063616c6c20746f206e6f6e2d636f6e7472616374000000604482015290519081900360640190fd5b60006060866001600160a01b031685876040518082805190602001908083835b602083106146de5780518252601f1990920191602091820191016146bf565b6001836020036101000a03801982511681845116808217855250505050505090500191505060006040518083038185875af1925050503d8060008114614740576040519150601f19603f3d011682016040523d82523d6000602084013e614745565b606091505b5091509150614755828286614760565b979650505050505050565b6060831561476f575081613225565b82511561477f5782518084602001fd5b60405162461bcd60e51b8152602060048201818152845160248401528451859391928392604401919085019080838360008315613a54578181015183820152602001613a3c565b828054600181600116156101000203166002900490600052602060002090601f016020900481019282601f1061480757805160ff1916838001178555614834565b82800160010185558215614834579182015b82811115614834578251825591602001919060010190614819565b50614840929150614897565b5090565b604051806101400160405280600081526020016000815260200160008152602001600081526020016000815260200160008152602001606081526020016060815260200160008152602001606081525090565b61153391905b80821115614840576000815560010161489d56fe456e756d657261626c655365743a20696e646578206f7574206f6620626f756e64734552433732313a207472616e7366657220746f206e6f6e20455243373231526563656976657220696d706c656d656e7465724f776e61626c653a206e6577206f776e657220697320746865207a65726f20616464726573734552433732313a207472616e7366657220746f20746865207a65726f2061646472657373416464726573733a20696e73756666696369656e742062616c616e636520666f722063616c6c4552433732313a206f70657261746f7220717565727920666f72206e6f6e6578697374656e7420746f6b656e4552433732313a20617070726f76652063616c6c6572206973206e6f74206f776e6572206e6f7220617070726f76656420666f7220616c6c4552433732313a2062616c616e636520717565727920666f7220746865207a65726f20616464726573734552433732313a206f776e657220717565727920666f72206e6f6e6578697374656e7420746f6b656e456e756d657261626c654d61703a20696e646578206f7574206f6620626f756e64734552433732313a20617070726f76656420717565727920666f72206e6f6e6578697374656e7420746f6b656e4552433732314d657461646174613a2055524920736574206f66206e6f6e6578697374656e7420746f6b656e4f776e61626c653a2063616c6c6572206973206e6f7420746865206f776e65724552433732313a207472616e73666572206f6620746f6b656e2074686174206973206e6f74206f776e4552433732314d657461646174613a2055524920717565727920666f72206e6f6e6578697374656e7420746f6b656e4552433732313a20617070726f76616c20746f2063757272656e74206f776e65724552433732313a207472616e736665722063616c6c6572206973206e6f74206f776e6572206e6f7220617070726f766564a26469706673582212206e5c726fdb5d3ec5f0e265bfa33e503203ca12bf00021173acdd2e455de0b85d64736f6c63430006060033","bytecodeSha1":"141dd1a57242a25f2eb011b7daf1f71e4a9ef960","compiler":{"evm_version":"istanbul","optimizer":{"enabled":true,"runs":200},"version":"0.6.6+commit.6c089d02"},"contractName":"Pokemon","language":"Solidity","natspec":{"methods":{"approve(address,uint256)":{"details":"See {IERC721-approve}."},"balanceOf(address)":{"details":"See {IERC721-balanceOf}."},"baseURI()":{"details":"Returns the base URI set via {_setBaseURI}. This will be automatically added as a prefix in {tokenURI} to each token's URI, or to the token ID if no specific URI is set for that token ID."},"getApproved(uint256)":{"details":"See {IERC721-getApproved}."},"isApprovedForAll(address,address)":{"details":"See {IERC721-isApprovedForAll}."},"name()":{"details":"See {IERC721Metadata-name}."},"owner()":{"details":"Returns the address of the current owner."},"ownerOf(uint256)":{"details":"See {IERC721-ownerOf}."},"renounceOwnership()":{"details":"Leaves the contract without owner. It will not be possible to call `onlyOwner` functions anymore. Can only be called by the current owner.     * NOTE: Renouncing ownership will leave the contract without an owner, thereby removing any functionality that is only available to the owner."},"safeTransferFrom(address,address,uint256)":{"details":"See {IERC721-safeTransferFrom}."},"safeTransferFrom(address,address,uint256,bytes)":{"details":"See {IERC721-safeTransferFrom}."},"setApprovalForAll(address,bool)":{"details":"See {IERC721-setApprovalForAll}."},"supportsInterface(bytes4)":{"details":"See {IERC165-supportsInterface}.     * Time complexity O(1), guaranteed to always use less than 30 000 gas."},"symbol()":{"details":"See {IERC721Metadata-symbol}."},"tokenByIndex(uint256)":{"details":"See {IERC721Enumerable-tokenByIndex}."},"tokenOfOwnerByIndex(address,uint256)":{"details":"See {IERC721Enumerable-tokenOfOwnerByIndex}."},"tokenURI(uint256)":{"details":"See {IERC721Metadata-tokenURI}."},"totalSupply()":{"details":"See {IERC721Enumerable-totalSupply}."},"transferFrom(address,address,uint256)":{"details":"See {IERC721-transferFrom}."},"transferOwnership(address)":{"details":"Transfers ownership of the contract to a new account (`newOwner`). Can only be called by the current owner."}}},"opcodes":"PUSH1 0x80 PUSH1 0x40 MSTORE CALLVALUE DUP1 ISZERO PUSH2 0x10 JUMPI PUSH1 0x0 DUP1 REVERT JUMPDEST POP PUSH1 0x4 CALLDATASIZE LT PUSH2 0x23D JUMPI PUSH1 0x0 CALLDATALOAD PUSH1 0xE0 SHR DUP1 PUSH4 0x70A08231 GT PUSH2 0x13B JUMPI DUP1 PUSH4 0xACB11FB3 GT PUSH2 0xB8 JUMPI DUP1 PUSH4 0xD082E381 GT PUSH2 0x7C JUMPI DUP1 PUSH4 0xD082E381 EQ PUSH2 0xFEA JUMPI DUP1 PUSH4 0xE53FA194 EQ PUSH2 0xFF2 JUMPI DUP1 PUSH4 0xE985E9C5 EQ PUSH2 0x11B9 JUMPI DUP1 PUSH4 0xF2FDE38B EQ PUSH2 0x11E7 JUMPI DUP1 PUSH4 0xF9F9A125 EQ PUSH2 0x120D JUMPI PUSH2 0x23D JUMP JUMPDEST DUP1 PUSH4 0xACB11FB3 EQ PUSH2 0xEB2 JUMPI DUP1 PUSH4 0xB318DE49 EQ PUSH2 0xECF JUMPI DUP1 PUSH4 0xB88D4FDE EQ PUSH2 0xEEC JUMPI DUP1 PUSH4 0xBEEF3387 EQ PUSH2 0xFB0 JUMPI DUP1 PUSH4 0xC87B56DD EQ PUSH2 0xFCD JUMPI PUSH2 0x23D JUMP JUMPDEST DUP1 PUSH4 0x94985DDD GT PUSH2 0xFF JUMPI DUP1 PUSH4 0x94985DDD EQ PUSH2 0xD0F JUMPI DUP1 PUSH4 0x95D89B41 EQ PUSH2 0xD32 JUMPI DUP1 PUSH4 0x9AA20FCF EQ PUSH2 0xD3A JUMPI DUP1 PUSH4 0xA22CB465 EQ PUSH2 0xDE0 JUMPI DUP1 PUSH4 0xA96617A8 EQ PUSH2 0xE0E JUMPI PUSH2 0x23D JUMP JUMPDEST DUP1 PUSH4 0x70A08231 EQ PUSH2 0xC9F JUMPI DUP1 PUSH4 0x715018A6 EQ PUSH2 0xCC5 JUMPI DUP1 PUSH4 0x72A4B25E EQ PUSH2 0xCCD JUMPI DUP1 PUSH4 0x887D1CB2 EQ PUSH2 0xCEA JUMPI DUP1 PUSH4 0x8DA5CB5B EQ PUSH2 0xD07 JUMPI PUSH2 0x23D JUMP JUMPDEST DUP1 PUSH4 0x22881F88 GT PUSH2 0x1C9 JUMPI DUP1 PUSH4 0x4F6CCCE7 GT PUSH2 0x18D JUMPI DUP1 PUSH4 0x4F6CCCE7 EQ PUSH2 0x902 JUMPI DUP1 PUSH4 0x60B5F036 EQ PUSH2 0x91F JUMPI DUP1 PUSH4 0x6352211E EQ PUSH2 0xAA1 JUMPI DUP1 PUSH4 0x6C0360EB EQ PUSH2 0xABE JUMPI DUP1 PUSH4 0x6DA561B3 EQ PUSH2 0xAC6 JUMPI PUSH2 0x23D JUMP JUMPDEST DUP1 PUSH4 0x22881F88 EQ PUSH2 0x679 JUMPI DUP1 PUSH4 0x23B872DD EQ PUSH2 0x696 JUMPI DUP1 PUSH4 0x274D9E02 EQ PUSH2 0x6CC JUMPI DUP1 PUSH4 0x2F745C59 EQ PUSH2 0x8A0 JUMPI DUP1 PUSH4 0x42842E0E EQ PUSH2 0x8CC JUMPI PUSH2 0x23D JUMP JUMPDEST DUP1 PUSH4 0x95EA7B3 GT PUSH2 0x210 JUMPI DUP1 PUSH4 0x95EA7B3 EQ PUSH2 0x54C JUMPI DUP1 PUSH4 0xDDD1058 EQ PUSH2 0x57A JUMPI DUP1 PUSH4 0x162094C4 EQ PUSH2 0x597 JUMPI DUP1 PUSH4 0x18160DDD EQ PUSH2 0x642 JUMPI DUP1 PUSH4 0x219C0EEE EQ PUSH2 0x65C JUMPI PUSH2 0x23D JUMP JUMPDEST DUP1 PUSH4 0x1FFC9A7 EQ PUSH2 0x242 JUMPI DUP1 PUSH4 0x28D06D4 EQ PUSH2 0x27D JUMPI DUP1 PUSH4 0x6FDDE03 EQ PUSH2 0x496 JUMPI DUP1 PUSH4 0x81812FC EQ PUSH2 0x513 JUMPI JUMPDEST PUSH1 0x0 DUP1 REVERT JUMPDEST PUSH2 0x269 PUSH1 0x4 DUP1 CALLDATASIZE SUB PUSH1 0x20 DUP2 LT ISZERO PUSH2 0x258 JUMPI PUSH1 0x0 DUP1 REVERT JUMPDEST POP CALLDATALOAD PUSH1 0x1 PUSH1 0x1 PUSH1 0xE0 SHL SUB NOT AND PUSH2 0x1280 JUMP JUMPDEST PUSH1 0x40 DUP1 MLOAD SWAP2 ISZERO ISZERO DUP3 MSTORE MLOAD SWAP1 DUP2 SWAP1 SUB PUSH1 0x20 ADD SWAP1 RETURN JUMPDEST PUSH2 0x321 PUSH1 0x4 DUP1 CALLDATASIZE SUB PUSH1 0x20 DUP2 LT ISZERO PUSH2 0x293 JUMPI PUSH1 0x0 DUP1 REVERT JUMPDEST DUP2 ADD SWAP1 PUSH1 0x20 DUP2 ADD DUP2 CALLDATALOAD PUSH1 0x1 PUSH1 0x20 SHL DUP2 GT ISZERO PUSH2 0x2AD JUMPI PUSH1 0x0 DUP1 REVERT JUMPDEST DUP3 ADD DUP4 PUSH1 0x20 DUP3 ADD GT ISZERO PUSH2 0x2BF JUMPI PUSH1 0x0 DUP1 REVERT JUMPDEST DUP1 CALLDATALOAD SWAP1 PUSH1 0x20 ADD SWAP2 DUP5 PUSH1 0x1 DUP4 MUL DUP5 ADD GT PUSH1 0x1 PUSH1 0x20 SHL DUP4 GT OR ISZERO PUSH2 0x2E0 JUMPI PUSH1 0x0 DUP1 REVERT JUMPDEST SWAP2 SWAP1 DUP1 DUP1 PUSH1 0x1F ADD PUSH1 0x20 DUP1 SWAP2 DIV MUL PUSH1 0x20 ADD PUSH1 0x40 MLOAD SWAP1 DUP2 ADD PUSH1 0x40 MSTORE DUP1 SWAP4 SWAP3 SWAP2 SWAP1 DUP2 DUP2 MSTORE PUSH1 0x20 ADD DUP4 DUP4 DUP1 DUP3 DUP5 CALLDATACOPY PUSH1 0x0 SWAP3 ADD SWAP2 SWAP1 SWAP2 MSTORE POP SWAP3 SWAP6 POP PUSH2 0x12A3 SWAP5 POP POP POP POP POP JUMP JUMPDEST PUSH1 0x40 MLOAD DUP1 DUP12 DUP2 MSTORE PUSH1 0x20 ADD DUP11 DUP2 MSTORE PUSH1 0x20 ADD DUP10 DUP2 MSTORE PUSH1 0x20 ADD DUP9 DUP2 MSTORE PUSH1 0x20 ADD DUP8 DUP2 MSTORE PUSH1 0x20 ADD DUP7 DUP2 MSTORE PUSH1 0x20 ADD DUP1 PUSH1 0x20 ADD DUP1 PUSH1 0x20 ADD DUP6 DUP2 MSTORE PUSH1 0x20 ADD DUP1 PUSH1 0x20 ADD DUP5 DUP2 SUB DUP5 MSTORE DUP9 DUP2 DUP2 MLOAD DUP2 MSTORE PUSH1 0x20 ADD SWAP2 POP DUP1 MLOAD SWAP1 PUSH1 0x20 ADD SWAP1 DUP1 DUP4 DUP4 PUSH1 0x0 JUMPDEST DUP4 DUP2 LT ISZERO PUSH2 0x390 JUMPI DUP2 DUP2 ADD MLOAD DUP4 DUP3 ADD MSTORE PUSH1 0x20 ADD PUSH2 0x378 JUMP JUMPDEST POP POP POP POP SWAP1 POP SWAP1 DUP2 ADD SWAP1 PUSH1 0x1F AND DUP1 ISZERO PUSH2 0x3BD JUMPI DUP1 DUP3 SUB DUP1 MLOAD PUSH1 0x1 DUP4 PUSH1 0x20 SUB PUSH2 0x100 EXP SUB NOT AND DUP2 MSTORE PUSH1 0x20 ADD SWAP2 POP JUMPDEST POP DUP5 DUP2 SUB DUP4 MSTORE DUP8 MLOAD DUP2 MSTORE DUP8 MLOAD PUSH1 0x20 SWAP2 DUP3 ADD SWAP2 DUP10 ADD SWAP1 DUP1 DUP4 DUP4 PUSH1 0x0 JUMPDEST DUP4 DUP2 LT ISZERO PUSH2 0x3F0 JUMPI DUP2 DUP2 ADD MLOAD DUP4 DUP3 ADD MSTORE PUSH1 0x20 ADD PUSH2 0x3D8 JUMP JUMPDEST POP POP POP POP SWAP1 POP SWAP1 DUP2 ADD SWAP1 PUSH1 0x1F AND DUP1 ISZERO PUSH2 0x41D JUMPI DUP1 DUP3 SUB DUP1 MLOAD PUSH1 0x1 DUP4 PUSH1 0x20 SUB PUSH2 0x100 EXP SUB NOT AND DUP2 MSTORE PUSH1 0x20 ADD SWAP2 POP JUMPDEST POP DUP5 DUP2 SUB DUP3 MSTORE DUP6 MLOAD DUP2 MSTORE DUP6 MLOAD PUSH1 0x20 SWAP2 DUP3 ADD SWAP2 DUP8 ADD SWAP1 DUP1 DUP4 DUP4 PUSH1 0x0 JUMPDEST DUP4 DUP2 LT ISZERO PUSH2 0x450 JUMPI DUP2 DUP2 ADD MLOAD DUP4 DUP3 ADD MSTORE PUSH1 0x20 ADD PUSH2 0x438 JUMP JUMPDEST POP POP POP POP SWAP1 POP SWAP1 DUP2 ADD SWAP1 PUSH1 0x1F AND DUP1 ISZERO PUSH2 0x47D JUMPI DUP1 DUP3 SUB DUP1 MLOAD PUSH1 0x1 DUP4 PUSH1 0x20 SUB PUSH2 0x100 EXP SUB NOT AND DUP2 MSTORE PUSH1 0x20 ADD SWAP2 POP JUMPDEST POP SWAP14 POP POP POP POP POP POP POP POP POP POP POP POP POP POP PUSH1 0x40 MLOAD DUP1 SWAP2 SUB SWAP1 RETURN JUMPDEST PUSH2 0x49E PUSH2 0x149F JUMP JUMPDEST PUSH1 0x40 DUP1 MLOAD PUSH1 0x20 DUP1 DUP3 MSTORE DUP4 MLOAD DUP2 DUP4 ADD MSTORE DUP4 MLOAD SWAP2 SWAP3 DUP4 SWAP3 SWAP1 DUP4 ADD SWAP2 DUP6 ADD SWAP1 DUP1 DUP4 DUP4 PUSH1 0x0 JUMPDEST DUP4 DUP2 LT ISZERO PUSH2 0x4D8 JUMPI DUP2 DUP2 ADD MLOAD DUP4 DUP3 ADD MSTORE PUSH1 0x20 ADD PUSH2 0x4C0 JUMP JUMPDEST POP POP POP POP SWAP1 POP SWAP1 DUP2 ADD SWAP1 PUSH1 0x1F AND DUP1 ISZERO PUSH2 0x505 JUMPI DUP1 DUP3 SUB DUP1 MLOAD PUSH1 0x1 DUP4 PUSH1 0x20 SUB PUSH2 0x100 EXP SUB NOT AND DUP2 MSTORE PUSH1 0x20 ADD SWAP2 POP JUMPDEST POP SWAP3 POP POP POP PUSH1 0x40 MLOAD DUP1 SWAP2 SUB SWAP1 RETURN JUMPDEST PUSH2 0x530 PUSH1 0x4 DUP1 CALLDATASIZE SUB PUSH1 0x20 DUP2 LT ISZERO PUSH2 0x529 JUMPI PUSH1 0x0 DUP1 REVERT JUMPDEST POP CALLDATALOAD PUSH2 0x1536 JUMP JUMPDEST PUSH1 0x40 DUP1 MLOAD PUSH1 0x1 PUSH1 0x1 PUSH1 0xA0 SHL SUB SWAP1 SWAP3 AND DUP3 MSTORE MLOAD SWAP1 DUP2 SWAP1 SUB PUSH1 0x20 ADD SWAP1 RETURN JUMPDEST PUSH2 0x578 PUSH1 0x4 DUP1 CALLDATASIZE SUB PUSH1 0x40 DUP2 LT ISZERO PUSH2 0x562 JUMPI PUSH1 0x0 DUP1 REVERT JUMPDEST POP PUSH1 0x1 PUSH1 0x1 PUSH1 0xA0 SHL SUB DUP2 CALLDATALOAD AND SWAP1 PUSH1 0x20 ADD CALLDATALOAD PUSH2 0x1598 JUMP JUMPDEST STOP JUMPDEST PUSH2 0x321 PUSH1 0x4 DUP1 CALLDATASIZE SUB PUSH1 0x20 DUP2 LT ISZERO PUSH2 0x590 JUMPI PUSH1 0x0 DUP1 REVERT JUMPDEST POP CALLDATALOAD PUSH2 0x1673 JUMP JUMPDEST PUSH2 0x578 PUSH1 0x4 DUP1 CALLDATASIZE SUB PUSH1 0x40 DUP2 LT ISZERO PUSH2 0x5AD JUMPI PUSH1 0x0 DUP1 REVERT JUMPDEST DUP2 CALLDATALOAD SWAP2 SWAP1 DUP2 ADD SWAP1 PUSH1 0x40 DUP2 ADD PUSH1 0x20 DUP3 ADD CALLDATALOAD PUSH1 0x1 PUSH1 0x20 SHL DUP2 GT ISZERO PUSH2 0x5CE JUMPI PUSH1 0x0 DUP1 REVERT JUMPDEST DUP3 ADD DUP4 PUSH1 0x20 DUP3 ADD GT ISZERO PUSH2 0x5E0 JUMPI PUSH1 0x0 DUP1 REVERT JUMPDEST DUP1 CALLDATALOAD SWAP1 PUSH1 0x20 ADD SWAP2 DUP5 PUSH1 0x1 DUP4 MUL DUP5 ADD GT PUSH1 0x1 PUSH1 0x20 SHL DUP4 GT OR ISZERO PUSH2 0x601 JUMPI PUSH1 0x0 DUP1 REVERT JUMPDEST SWAP2 SWAP1 DUP1 DUP1 PUSH1 0x1F ADD PUSH1 0x20 DUP1 SWAP2 DIV MUL PUSH1 0x20 ADD PUSH1 0x40 MLOAD SWAP1 DUP2 ADD PUSH1 0x40 MSTORE DUP1 SWAP4 SWAP3 SWAP2 SWAP1 DUP2 DUP2 MSTORE PUSH1 0x20 ADD DUP4 DUP4 DUP1 DUP3 DUP5 CALLDATACOPY PUSH1 0x0 SWAP3 ADD SWAP2 SWAP1 SWAP2 MSTORE POP SWAP3 SWAP6 POP PUSH2 0x1718 SWAP5 POP POP POP POP POP JUMP JUMPDEST PUSH2 0x64A PUSH2 0x17D4 JUMP JUMPDEST PUSH1 0x40 DUP1 MLOAD SWAP2 DUP3 MSTORE MLOAD SWAP1 DUP2 SWAP1 SUB PUSH1 0x20 ADD SWAP1 RETURN JUMPDEST PUSH2 0x530 PUSH1 0x4 DUP1 CALLDATASIZE SUB PUSH1 0x20 DUP2 LT ISZERO PUSH2 0x672 JUMPI PUSH1 0x0 DUP1 REVERT JUMPDEST POP CALLDATALOAD PUSH2 0x17E5 JUMP JUMPDEST PUSH2 0x64A PUSH1 0x4 DUP1 CALLDATASIZE SUB PUSH1 0x20 DUP2 LT ISZERO PUSH2 0x68F JUMPI PUSH1 0x0 DUP1 REVERT JUMPDEST POP CALLDATALOAD PUSH2 0x1800 JUMP JUMPDEST PUSH2 0x578 PUSH1 0x4 DUP1 CALLDATASIZE SUB PUSH1 0x60 DUP2 LT ISZERO PUSH2 0x6AC JUMPI PUSH1 0x0 DUP1 REVERT JUMPDEST POP PUSH1 0x1 PUSH1 0x1 PUSH1 0xA0 SHL SUB DUP2 CALLDATALOAD DUP2 AND SWAP2 PUSH1 0x20 DUP2 ADD CALLDATALOAD SWAP1 SWAP2 AND SWAP1 PUSH1 0x40 ADD CALLDATALOAD PUSH2 0x1812 JUMP JUMPDEST PUSH2 0x578 PUSH1 0x4 DUP1 CALLDATASIZE SUB PUSH2 0x140 DUP2 LT ISZERO PUSH2 0x6E3 JUMPI PUSH1 0x0 DUP1 REVERT JUMPDEST DUP2 ADD SWAP1 PUSH1 0x20 DUP2 ADD DUP2 CALLDATALOAD PUSH1 0x1 PUSH1 0x20 SHL DUP2 GT ISZERO PUSH2 0x6FD JUMPI PUSH1 0x0 DUP1 REVERT JUMPDEST DUP3 ADD DUP4 PUSH1 0x20 DUP3 ADD GT ISZERO PUSH2 0x70F JUMPI PUSH1 0x0 DUP1 REVERT JUMPDEST DUP1 CALLDATALOAD SWAP1 PUSH1 0x20 ADD SWAP2 DUP5 PUSH1 0x1 DUP4 MUL DUP5 ADD GT PUSH1 0x1 PUSH1 0x20 SHL DUP4 GT OR ISZERO PUSH2 0x730 JUMPI PUSH1 0x0 DUP1 REVERT JUMPDEST SWAP2 SWAP1 DUP1 DUP1 PUSH1 0x1F ADD PUSH1 0x20 DUP1 SWAP2 DIV MUL PUSH1 0x20 ADD PUSH1 0x40 MLOAD SWAP1 DUP2 ADD PUSH1 0x40 MSTORE DUP1 SWAP4 SWAP3 SWAP2 SWAP1 DUP2 DUP2 MSTORE PUSH1 0x20 ADD DUP4 DUP4 DUP1 DUP3 DUP5 CALLDATACOPY PUSH1 0x0 SWAP3 ADD SWAP2 SWAP1 SWAP2 MSTORE POP SWAP3 SWAP6 DUP5 CALLDATALOAD SWAP6 PUSH1 0x20 DUP7 ADD CALLDATALOAD SWAP6 PUSH1 0x40 DUP2 ADD CALLDATALOAD SWAP6 POP PUSH1 0x60 DUP2 ADD CALLDATALOAD SWAP5 POP PUSH1 0x80 DUP2 ADD CALLDATALOAD SWAP4 POP PUSH1 0xA0 DUP2 ADD CALLDATALOAD SWAP3 SWAP2 SWAP1 PUSH1 0xE0 DUP2 ADD SWAP1 PUSH1 0xC0 ADD CALLDATALOAD PUSH1 0x1 PUSH1 0x20 SHL DUP2 GT ISZERO PUSH2 0x7A5 JUMPI PUSH1 0x0 DUP1 REVERT JUMPDEST DUP3 ADD DUP4 PUSH1 0x20 DUP3 ADD GT ISZERO PUSH2 0x7B7 JUMPI PUSH1 0x0 DUP1 REVERT JUMPDEST DUP1 CALLDATALOAD SWAP1 PUSH1 0x20 ADD SWAP2 DUP5 PUSH1 0x1 DUP4 MUL DUP5 ADD GT PUSH1 0x1 PUSH1 0x20 SHL DUP4 GT OR ISZERO PUSH2 0x7D8 JUMPI PUSH1 0x0 DUP1 REVERT JUMPDEST SWAP2 SWAP1 DUP1 DUP1 PUSH1 0x1F ADD PUSH1 0x20 DUP1 SWAP2 DIV MUL PUSH1 0x20 ADD PUSH1 0x40 MLOAD SWAP1 DUP2 ADD PUSH1 0x40 MSTORE DUP1 SWAP4 SWAP3 SWAP2 SWAP1 DUP2 DUP2 MSTORE PUSH1 0x20 ADD DUP4 DUP4 DUP1 DUP3 DUP5 CALLDATACOPY PUSH1 0x0 SWAP3 ADD SWAP2 SWAP1 SWAP2 MSTORE POP SWAP3 SWAP6 SWAP5 SWAP4 PUSH1 0x20 DUP2 ADD SWAP4 POP CALLDATALOAD SWAP2 POP POP PUSH1 0x1 PUSH1 0x20 SHL DUP2 GT ISZERO PUSH2 0x82A JUMPI PUSH1 0x0 DUP1 REVERT JUMPDEST DUP3 ADD DUP4 PUSH1 0x20 DUP3 ADD GT ISZERO PUSH2 0x83C JUMPI PUSH1 0x0 DUP1 REVERT JUMPDEST DUP1 CALLDATALOAD SWAP1 PUSH1 0x20 ADD SWAP2 DUP5 PUSH1 0x1 DUP4 MUL DUP5 ADD GT PUSH1 0x1 PUSH1 0x20 SHL DUP4 GT OR ISZERO PUSH2 0x85D JUMPI PUSH1 0x0 DUP1 REVERT JUMPDEST SWAP2 SWAP1 DUP1 DUP1 PUSH1 0x1F ADD PUSH1 0x20 DUP1 SWAP2 DIV MUL PUSH1 0x20 ADD PUSH1 0x40 MLOAD SWAP1 DUP2 ADD PUSH1 0x40 MSTORE DUP1 SWAP4 SWAP3 SWAP2 SWAP1 DUP2 DUP2 MSTORE PUSH1 0x20 ADD DUP4 DUP4 DUP1 DUP3 DUP5 CALLDATACOPY PUSH1 0x0 SWAP3 ADD SWAP2 SWAP1 SWAP2 MSTORE POP SWAP3 SWAP6 POP POP SWAP2 CALLDATALOAD SWAP3 POP PUSH2 0x1869 SWAP2 POP POP JUMP JUMPDEST PUSH2 0x64A PUSH1 0x4 DUP1 CALLDATASIZE SUB PUSH1 0x40 DUP2 LT ISZERO PUSH2 0x8B6 JUMPI PUSH1 0x0 DUP1 REVERT JUMPDEST POP PUSH1 0x1 PUSH1 0x1 PUSH1 0xA0 SHL SUB DUP2 CALLDATALOAD AND SWAP1 PUSH1 0x20 ADD CALLDATALOAD PUSH2 0x19EB JUMP JUMPDEST PUSH2 0x578 PUSH1 0x4 DUP1 CALLDATASIZE SUB PUSH1 0x60 DUP2 LT ISZERO PUSH2 0x8E2 JUMPI PUSH1 0x0 DUP1 REVERT JUMPDEST POP PUSH1 0x1 PUSH1 0x1 PUSH1 0xA0 SHL SUB DUP2 CALLDATALOAD DUP2 AND SWAP2 PUSH1 0x20 DUP2 ADD CALLDATALOAD SWAP1 SWAP2 AND SWAP1 PUSH1 0x40 ADD CALLDATALOAD PUSH2 0x1A1C JUMP JUMPDEST PUSH2 0x64A PUSH1 0x4 DUP1 CALLDATASIZE SUB PUSH1 0x20 DUP2 LT ISZERO PUSH2 0x918 JUMPI PUSH1 0x0 DUP1 REVERT JUMPDEST POP CALLDATALOAD PUSH2 0x1A37 JUMP JUMPDEST PUSH2 0x9C3 PUSH1 0x4 DUP1 CALLDATASIZE SUB PUSH1 0x20 DUP2 LT ISZERO PUSH2 0x935 JUMPI PUSH1 0x0 DUP1 REVERT JUMPDEST DUP2 ADD SWAP1 PUSH1 0x20 DUP2 ADD DUP2 CALLDATALOAD PUSH1 0x1 PUSH1 0x20 SHL DUP2 GT ISZERO PUSH2 0x94F JUMPI PUSH1 0x0 DUP1 REVERT JUMPDEST DUP3 ADD DUP4 PUSH1 0x20 DUP3 ADD GT ISZERO PUSH2 0x961 JUMPI PUSH1 0x0 DUP1 REVERT JUMPDEST DUP1 CALLDATALOAD SWAP1 PUSH1 0x20 ADD SWAP2 DUP5 PUSH1 0x1 DUP4 MUL DUP5 ADD GT PUSH1 0x1 PUSH1 0x20 SHL DUP4 GT OR ISZERO PUSH2 0x982 JUMPI PUSH1 0x0 DUP1 REVERT JUMPDEST SWAP2 SWAP1 DUP1 DUP1 PUSH1 0x1F ADD PUSH1 0x20 DUP1 SWAP2 DIV MUL PUSH1 0x20 ADD PUSH1 0x40 MLOAD SWAP1 DUP2 ADD PUSH1 0x40 MSTORE DUP1 SWAP4 SWAP3 SWAP2 SWAP1 DUP2 DUP2 MSTORE PUSH1 0x20 ADD DUP4 DUP4 DUP1 DUP3 DUP5 CALLDATACOPY PUSH1 0x0 SWAP3 ADD SWAP2 SWAP1 SWAP2 MSTORE POP SWAP3 SWAP6 POP PUSH2 0x1A53 SWAP5 POP POP POP POP POP JUMP JUMPDEST PUSH1 0x40 MLOAD DUP1 DUP1 PUSH1 0x20 ADD DUP1 PUSH1 0x20 ADD DUP4 DUP2 SUB DUP4 MSTORE DUP6 DUP2 DUP2 MLOAD DUP2 MSTORE PUSH1 0x20 ADD SWAP2 POP DUP1 MLOAD SWAP1 PUSH1 0x20 ADD SWAP1 DUP1 DUP4 DUP4 PUSH1 0x0 JUMPDEST DUP4 DUP2 LT ISZERO PUSH2 0xA04 JUMPI DUP2 DUP2 ADD MLOAD DUP4 DUP3 ADD MSTORE PUSH1 0x20 ADD PUSH2 0x9EC JUMP JUMPDEST POP POP POP POP SWAP1 POP SWAP1 DUP2 ADD SWAP1 PUSH1 0x1F AND DUP1 ISZERO PUSH2 0xA31 JUMPI DUP1 DUP3 SUB DUP1 MLOAD PUSH1 0x1 DUP4 PUSH1 0x20 SUB PUSH2 0x100 EXP SUB NOT AND DUP2 MSTORE PUSH1 0x20 ADD SWAP2 POP JUMPDEST POP DUP4 DUP2 SUB DUP3 MSTORE DUP5 MLOAD DUP2 MSTORE DUP5 MLOAD PUSH1 0x20 SWAP2 DUP3 ADD SWAP2 DUP7 ADD SWAP1 DUP1 DUP4 DUP4 PUSH1 0x0 JUMPDEST DUP4 DUP2 LT ISZERO PUSH2 0xA64 JUMPI DUP2 DUP2 ADD MLOAD DUP4 DUP3 ADD MSTORE PUSH1 0x20 ADD PUSH2 0xA4C JUMP JUMPDEST POP POP POP POP SWAP1 POP SWAP1 DUP2 ADD SWAP1 PUSH1 0x1F AND DUP1 ISZERO PUSH2 0xA91 JUMPI DUP1 DUP3 SUB DUP1 MLOAD PUSH1 0x1 DUP4 PUSH1 0x20 SUB PUSH2 0x100 EXP SUB NOT AND DUP2 MSTORE PUSH1 0x20 ADD SWAP2 POP JUMPDEST POP SWAP5 POP POP POP POP POP PUSH1 0x40 MLOAD DUP1 SWAP2 SUB SWAP1 RETURN JUMPDEST PUSH2 0x530 PUSH1 0x4 DUP1 CALLDATASIZE SUB PUSH1 0x20 DUP2 LT ISZERO PUSH2 0xAB7 JUMPI PUSH1 0x0 DUP1 REVERT JUMPDEST POP CALLDATALOAD PUSH2 0x1CDA JUMP JUMPDEST PUSH2 0x49E PUSH2 0x1D08 JUMP JUMPDEST PUSH2 0xAE3 PUSH1 0x4 DUP1 CALLDATASIZE SUB PUSH1 0x20 DUP2 LT ISZERO PUSH2 0xADC JUMPI PUSH1 0x0 DUP1 REVERT JUMPDEST POP CALLDATALOAD PUSH2 0x1D69 JUMP JUMPDEST PUSH1 0x40 MLOAD DUP1 DUP1 PUSH1 0x20 ADD DUP1 PUSH1 0x20 ADD DUP8 ISZERO ISZERO ISZERO ISZERO DUP2 MSTORE PUSH1 0x20 ADD DUP1 PUSH1 0x20 ADD DUP1 PUSH1 0x20 ADD DUP7 DUP2 MSTORE PUSH1 0x20 ADD DUP6 DUP2 SUB DUP6 MSTORE DUP12 DUP2 DUP2 MLOAD DUP2 MSTORE PUSH1 0x20 ADD SWAP2 POP DUP1 MLOAD SWAP1 PUSH1 0x20 ADD SWAP1 DUP1 DUP4 DUP4 PUSH1 0x0 JUMPDEST DUP4 DUP2 LT ISZERO PUSH2 0xB3C JUMPI DUP2 DUP2 ADD MLOAD DUP4 DUP3 ADD MSTORE PUSH1 0x20 ADD PUSH2 0xB24 JUMP JUMPDEST POP POP POP POP SWAP1 POP SWAP1 DUP2 ADD SWAP1 PUSH1 0x1F AND DUP1 ISZERO PUSH2 0xB69 JUMPI DUP1 DUP3 SUB DUP1 MLOAD PUSH1 0x1 DUP4 PUSH1 0x20 SUB PUSH2 0x100 EXP SUB NOT AND DUP2 MSTORE PUSH1 0x20 ADD SWAP2 POP JUMPDEST POP DUP6 DUP2 SUB DUP5 MSTORE DUP11 MLOAD DUP2 MSTORE DUP11 MLOAD PUSH1 0x20 SWAP2 DUP3 ADD SWAP2 DUP13 ADD SWAP1 DUP1 DUP4 DUP4 PUSH1 0x0 JUMPDEST DUP4 DUP2 LT ISZERO PUSH2 0xB9C JUMPI DUP2 DUP2 ADD MLOAD DUP4 DUP3 ADD MSTORE PUSH1 0x20 ADD PUSH2 0xB84 JUMP JUMPDEST POP POP POP POP SWAP1 POP SWAP1 DUP2 ADD SWAP1 PUSH1 0x1F AND DUP1 ISZERO PUSH2 0xBC9 JUMPI DUP1 DUP3 SUB DUP1 MLOAD PUSH1 0x1 DUP4 PUSH1 0x20 SUB PUSH2 0x100 EXP SUB NOT AND DUP2 MSTORE PUSH1 0x20 ADD SWAP2 POP JUMPDEST POP DUP6 DUP2 SUB DUP4 MSTORE DUP9 MLOAD DUP2 MSTORE DUP9 MLOAD PUSH1 0x20 SWAP2 DUP3 ADD SWAP2 DUP11 ADD SWAP1 DUP1 DUP4 DUP4 PUSH1 0x0 JUMPDEST DUP4 DUP2 LT ISZERO PUSH2 0xBFC JUMPI DUP2 DUP2 ADD MLOAD DUP4 DUP3 ADD MSTORE PUSH1 0x20 ADD PUSH2 0xBE4 JUMP JUMPDEST POP POP POP POP SWAP1 POP SWAP1 DUP2 ADD SWAP1 PUSH1 0x1F AND DUP1 ISZERO PUSH2 0xC29 JUMPI DUP1 DUP3 SUB DUP1 MLOAD PUSH1 0x1 DUP4 PUSH1 0x20 SUB PUSH2 0x100 EXP SUB NOT AND DUP2 MSTORE PUSH1 0x20 ADD SWAP2 POP JUMPDEST POP DUP6 DUP2 SUB DUP3 MSTORE DUP8 MLOAD DUP2 MSTORE DUP8 MLOAD PUSH1 0x20 SWAP2 DUP3 ADD SWAP2 DUP10 ADD SWAP1 DUP1 DUP4 DUP4 PUSH1 0x0 JUMPDEST DUP4 DUP2 LT ISZERO PUSH2 0xC5C JUMPI DUP2 DUP2 ADD MLOAD DUP4 DUP3 ADD MSTORE PUSH1 0x20 ADD PUSH2 0xC44 JUMP JUMPDEST POP POP POP POP SWAP1 POP SWAP1 DUP2 ADD SWAP1 PUSH1 0x1F AND DUP1 ISZERO PUSH2 0xC89 JUMPI DUP1 DUP3 SUB DUP1 MLOAD PUSH1 0x1 DUP4 PUSH1 0x20 SUB PUSH2 0x100 EXP SUB NOT AND DUP2 MSTORE PUSH1 0x20 ADD SWAP2 POP JUMPDEST POP SWAP11 POP POP POP POP POP POP POP POP POP POP POP PUSH1 0x40 MLOAD DUP1 SWAP2 SUB SWAP1 RETURN JUMPDEST PUSH2 0x64A PUSH1 0x4 DUP1 CALLDATASIZE SUB PUSH1 0x20 DUP2 LT ISZERO PUSH2 0xCB5 JUMPI PUSH1 0x0 DUP1 REVERT JUMPDEST POP CALLDATALOAD PUSH1 0x1 PUSH1 0x1 PUSH1 0xA0 SHL SUB AND PUSH2 0x1FE9 JUMP JUMPDEST PUSH2 0x578 PUSH2 0x2051 JUMP JUMPDEST PUSH2 0x64A PUSH1 0x4 DUP1 CALLDATASIZE SUB PUSH1 0x20 DUP2 LT ISZERO PUSH2 0xCE3 JUMPI PUSH1 0x0 DUP1 REVERT JUMPDEST POP CALLDATALOAD PUSH2 0x20FD JUMP JUMPDEST PUSH2 0x321 PUSH1 0x4 DUP1 CALLDATASIZE SUB PUSH1 0x20 DUP2 LT ISZERO PUSH2 0xD00 JUMPI PUSH1 0x0 DUP1 REVERT JUMPDEST POP CALLDATALOAD PUSH2 0x215E JUMP JUMPDEST PUSH2 0x530 PUSH2 0x2203 JUMP JUMPDEST PUSH2 0x578 PUSH1 0x4 DUP1 CALLDATASIZE SUB PUSH1 0x40 DUP2 LT ISZERO PUSH2 0xD25 JUMPI PUSH1 0x0 DUP1 REVERT JUMPDEST POP DUP1 CALLDATALOAD SWAP1 PUSH1 0x20 ADD CALLDATALOAD PUSH2 0x2212 JUMP JUMPDEST PUSH2 0x49E PUSH2 0x2299 JUMP JUMPDEST PUSH2 0x578 PUSH1 0x4 DUP1 CALLDATASIZE SUB PUSH1 0x40 DUP2 LT ISZERO PUSH2 0xD50 JUMPI PUSH1 0x0 DUP1 REVERT JUMPDEST DUP2 ADD SWAP1 PUSH1 0x20 DUP2 ADD DUP2 CALLDATALOAD PUSH1 0x1 PUSH1 0x20 SHL DUP2 GT ISZERO PUSH2 0xD6A JUMPI PUSH1 0x0 DUP1 REVERT JUMPDEST DUP3 ADD DUP4 PUSH1 0x20 DUP3 ADD GT ISZERO PUSH2 0xD7C JUMPI PUSH1 0x0 DUP1 REVERT JUMPDEST DUP1 CALLDATALOAD SWAP1 PUSH1 0x20 ADD SWAP2 DUP5 PUSH1 0x1 DUP4 MUL DUP5 ADD GT PUSH1 0x1 PUSH1 0x20 SHL DUP4 GT OR ISZERO PUSH2 0xD9D JUMPI PUSH1 0x0 DUP1 REVERT JUMPDEST SWAP2 SWAP1 DUP1 DUP1 PUSH1 0x1F ADD PUSH1 0x20 DUP1 SWAP2 DIV MUL PUSH1 0x20 ADD PUSH1 0x40 MLOAD SWAP1 DUP2 ADD PUSH1 0x40 MSTORE DUP1 SWAP4 SWAP3 SWAP2 SWAP1 DUP2 DUP2 MSTORE PUSH1 0x20 ADD DUP4 DUP4 DUP1 DUP3 DUP5 CALLDATACOPY PUSH1 0x0 SWAP3 ADD SWAP2 SWAP1 SWAP2 MSTORE POP SWAP3 SWAP6 POP POP SWAP2 CALLDATALOAD SWAP3 POP PUSH2 0x22FA SWAP2 POP POP JUMP JUMPDEST PUSH2 0x578 PUSH1 0x4 DUP1 CALLDATASIZE SUB PUSH1 0x40 DUP2 LT ISZERO PUSH2 0xDF6 JUMPI PUSH1 0x0 DUP1 REVERT JUMPDEST POP PUSH1 0x1 PUSH1 0x1 PUSH1 0xA0 SHL SUB DUP2 CALLDATALOAD AND SWAP1 PUSH1 0x20 ADD CALLDATALOAD ISZERO ISZERO PUSH2 0x2513 JUMP JUMPDEST PUSH2 0x49E PUSH1 0x4 DUP1 CALLDATASIZE SUB PUSH1 0x20 DUP2 LT ISZERO PUSH2 0xE24 JUMPI PUSH1 0x0 DUP1 REVERT JUMPDEST DUP2 ADD SWAP1 PUSH1 0x20 DUP2 ADD DUP2 CALLDATALOAD PUSH1 0x1 PUSH1 0x20 SHL DUP2 GT ISZERO PUSH2 0xE3E JUMPI PUSH1 0x0 DUP1 REVERT JUMPDEST DUP3 ADD DUP4 PUSH1 0x20 DUP3 ADD GT ISZERO PUSH2 0xE50 JUMPI PUSH1 0x0 DUP1 REVERT JUMPDEST DUP1 CALLDATALOAD SWAP1 PUSH1 0x20 ADD SWAP2 DUP5 PUSH1 0x1 DUP4 MUL DUP5 ADD GT PUSH1 0x1 PUSH1 0x20 SHL DUP4 GT OR ISZERO PUSH2 0xE71 JUMPI PUSH1 0x0 DUP1 REVERT JUMPDEST SWAP2 SWAP1 DUP1 DUP1 PUSH1 0x1F ADD PUSH1 0x20 DUP1 SWAP2 DIV MUL PUSH1 0x20 ADD PUSH1 0x40 MLOAD SWAP1 DUP2 ADD PUSH1 0x40 MSTORE DUP1 SWAP4 SWAP3 SWAP2 SWAP1 DUP2 DUP2 MSTORE PUSH1 0x20 ADD DUP4 DUP4 DUP1 DUP3 DUP5 CALLDATACOPY PUSH1 0x0 SWAP3 ADD SWAP2 SWAP1 SWAP2 MSTORE POP SWAP3 SWAP6 POP PUSH2 0x2618 SWAP5 POP POP POP POP POP JUMP JUMPDEST PUSH2 0x49E PUSH1 0x4 DUP1 CALLDATASIZE SUB PUSH1 0x20 DUP2 LT ISZERO PUSH2 0xEC8 JUMPI PUSH1 0x0 DUP1 REVERT JUMPDEST POP CALLDATALOAD PUSH2 0x26BF JUMP JUMPDEST PUSH2 0x49E PUSH1 0x4 DUP1 CALLDATASIZE SUB PUSH1 0x20 DUP2 LT ISZERO PUSH2 0xEE5 JUMPI PUSH1 0x0 DUP1 REVERT JUMPDEST POP CALLDATALOAD PUSH2 0x2732 JUMP JUMPDEST PUSH2 0x578 PUSH1 0x4 DUP1 CALLDATASIZE SUB PUSH1 0x80 DUP2 LT ISZERO PUSH2 0xF02 JUMPI PUSH1 0x0 DUP1 REVERT JUMPDEST PUSH1 0x1 PUSH1 0x1 PUSH1 0xA0 SHL SUB DUP3 CALLDATALOAD DUP2 AND SWAP3 PUSH1 0x20 DUP2 ADD CALLDATALOAD SWAP1 SWAP2 AND SWAP2 PUSH1 0x40 DUP3 ADD CALLDATALOAD SWAP2 SWAP1 DUP2 ADD SWAP1 PUSH1 0x80 DUP2 ADD PUSH1 0x60 DUP3 ADD CALLDATALOAD PUSH1 0x1 PUSH1 0x20 SHL DUP2 GT ISZERO PUSH2 0xF3C JUMPI PUSH1 0x0 DUP1 REVERT JUMPDEST DUP3 ADD DUP4 PUSH1 0x20 DUP3 ADD GT ISZERO PUSH2 0xF4E JUMPI PUSH1 0x0 DUP1 REVERT JUMPDEST DUP1 CALLDATALOAD SWAP1 PUSH1 0x20 ADD SWAP2 DUP5 PUSH1 0x1 DUP4 MUL DUP5 ADD GT PUSH1 0x1 PUSH1 0x20 SHL DUP4 GT OR ISZERO PUSH2 0xF6F JUMPI PUSH1 0x0 DUP1 REVERT JUMPDEST SWAP2 SWAP1 DUP1 DUP1 PUSH1 0x1F ADD PUSH1 0x20 DUP1 SWAP2 DIV MUL PUSH1 0x20 ADD PUSH1 0x40 MLOAD SWAP1 DUP2 ADD PUSH1 0x40 MSTORE DUP1 SWAP4 SWAP3 SWAP2 SWAP1 DUP2 DUP2 MSTORE PUSH1 0x20 ADD DUP4 DUP4 DUP1 DUP3 DUP5 CALLDATACOPY PUSH1 0x0 SWAP3 ADD SWAP2 SWAP1 SWAP2 MSTORE POP SWAP3 SWAP6 POP PUSH2 0x273F SWAP5 POP POP POP POP POP JUMP JUMPDEST PUSH2 0x321 PUSH1 0x4 DUP1 CALLDATASIZE SUB PUSH1 0x20 DUP2 LT ISZERO PUSH2 0xFC6 JUMPI PUSH1 0x0 DUP1 REVERT JUMPDEST POP CALLDATALOAD PUSH2 0x2797 JUMP JUMPDEST PUSH2 0x49E PUSH1 0x4 DUP1 CALLDATASIZE SUB PUSH1 0x20 DUP2 LT ISZERO PUSH2 0xFE3 JUMPI PUSH1 0x0 DUP1 REVERT JUMPDEST POP CALLDATALOAD PUSH2 0x283C JUMP JUMPDEST PUSH2 0x64A PUSH2 0x2ABF JUMP JUMPDEST PUSH2 0x100F PUSH1 0x4 DUP1 CALLDATASIZE SUB PUSH1 0x20 DUP2 LT ISZERO PUSH2 0x1008 JUMPI PUSH1 0x0 DUP1 REVERT JUMPDEST POP CALLDATALOAD PUSH2 0x2AC5 JUMP JUMPDEST PUSH1 0x40 MLOAD DUP1 DUP1 PUSH1 0x20 ADD DUP1 PUSH1 0x20 ADD DUP1 PUSH1 0x20 ADD DUP1 PUSH1 0x20 ADD DUP6 DUP2 SUB DUP6 MSTORE DUP10 DUP2 DUP2 MLOAD DUP2 MSTORE PUSH1 0x20 ADD SWAP2 POP DUP1 MLOAD SWAP1 PUSH1 0x20 ADD SWAP1 DUP1 DUP4 DUP4 PUSH1 0x0 JUMPDEST DUP4 DUP2 LT ISZERO PUSH2 0x1058 JUMPI DUP2 DUP2 ADD MLOAD DUP4 DUP3 ADD MSTORE PUSH1 0x20 ADD PUSH2 0x1040 JUMP JUMPDEST POP POP POP POP SWAP1 POP SWAP1 DUP2 ADD SWAP1 PUSH1 0x1F AND DUP1 ISZERO PUSH2 0x1085 JUMPI DUP1 DUP3 SUB DUP1 MLOAD PUSH1 0x1 DUP4 PUSH1 0x20 SUB PUSH2 0x100 EXP SUB NOT AND DUP2 MSTORE PUSH1 0x20 ADD SWAP2 POP JUMPDEST POP DUP6 DUP2 SUB DUP5 MSTORE DUP9 MLOAD DUP2 MSTORE DUP9 MLOAD PUSH1 0x20 SWAP2 DUP3 ADD SWAP2 DUP11 ADD SWAP1 DUP1 DUP4 DUP4 PUSH1 0x0 JUMPDEST DUP4 DUP2 LT ISZERO PUSH2 0x10B8 JUMPI DUP2 DUP2 ADD MLOAD DUP4 DUP3 ADD MSTORE PUSH1 0x20 ADD PUSH2 0x10A0 JUMP JUMPDEST POP POP POP POP SWAP1 POP SWAP1 DUP2 ADD SWAP1 PUSH1 0x1F AND DUP1 ISZERO PUSH2 0x10E5 JUMPI DUP1 DUP3 SUB DUP1 MLOAD PUSH1 0x1 DUP4 PUSH1 0x20 SUB PUSH2 0x100 EXP SUB NOT AND DUP2 MSTORE PUSH1 0x20 ADD SWAP2 POP JUMPDEST POP DUP6 DUP2 SUB DUP4 MSTORE DUP8 MLOAD DUP2 MSTORE DUP8 MLOAD PUSH1 0x20 SWAP2 DUP3 ADD SWAP2 DUP10 ADD SWAP1 DUP1 DUP4 DUP4 PUSH1 0x0 JUMPDEST DUP4 DUP2 LT ISZERO PUSH2 0x1118 JUMPI DUP2 DUP2 ADD MLOAD DUP4 DUP3 ADD MSTORE PUSH1 0x20 ADD PUSH2 0x1100 JUMP JUMPDEST POP POP POP POP SWAP1 POP SWAP1 DUP2 ADD SWAP1 PUSH1 0x1F AND DUP1 ISZERO PUSH2 0x1145 JUMPI DUP1 DUP3 SUB DUP1 MLOAD PUSH1 0x1 DUP4 PUSH1 0x20 SUB PUSH2 0x100 EXP SUB NOT AND DUP2 MSTORE PUSH1 0x20 ADD SWAP2 POP JUMPDEST POP DUP6 DUP2 SUB DUP3 MSTORE DUP7 MLOAD DUP2 MSTORE DUP7 MLOAD PUSH1 0x20 SWAP2 DUP3 ADD SWAP2 DUP9 ADD SWAP1 DUP1 DUP4 DUP4 PUSH1 0x0 JUMPDEST DUP4 DUP2 LT ISZERO PUSH2 0x1178 JUMPI DUP2 DUP2 ADD MLOAD DUP4 DUP3 ADD MSTORE PUSH1 0x20 ADD PUSH2 0x1160 JUMP JUMPDEST POP POP POP POP SWAP1 POP SWAP1 DUP2 ADD SWAP1 PUSH1 0x1F AND DUP1 ISZERO PUSH2 0x11A5 JUMPI DUP1 DUP3 SUB DUP1 MLOAD PUSH1 0x1 DUP4 PUSH1 0x20 SUB PUSH2 0x100 EXP SUB NOT AND DUP2 MSTORE PUSH1 0x20 ADD SWAP2 POP JUMPDEST POP SWAP9 POP POP POP POP POP POP POP POP POP PUSH1 0x40 MLOAD DUP1 SWAP2 SUB SWAP1 RETURN JUMPDEST PUSH2 0x269 PUSH1 0x4 DUP1 CALLDATASIZE SUB PUSH1 0x40 DUP2 LT ISZERO PUSH2 0x11CF JUMPI PUSH1 0x0 DUP1 REVERT JUMPDEST POP PUSH1 0x1 PUSH1 0x1 PUSH1 0xA0 SHL SUB DUP2 CALLDATALOAD DUP2 AND SWAP2 PUSH1 0x20 ADD CALLDATALOAD AND PUSH2 0x2D26 JUMP JUMPDEST PUSH2 0x578 PUSH1 0x4 DUP1 CALLDATASIZE SUB PUSH1 0x20 DUP2 LT ISZERO PUSH2 0x11FD JUMPI PUSH1 0x0 DUP1 REVERT JUMPDEST POP CALLDATALOAD PUSH1 0x1 PUSH1 0x1 PUSH1 0xA0 SHL SUB AND PUSH2 0x2D54 JUMP JUMPDEST PUSH2 0x1230 PUSH1 0x4 DUP1 CALLDATASIZE SUB PUSH1 0x40 DUP2 LT ISZERO PUSH2 0x1223 JUMPI PUSH1 0x0 DUP1 REVERT JUMPDEST POP DUP1 CALLDATALOAD SWAP1 PUSH1 0x20 ADD CALLDATALOAD PUSH2 0x2E57 JUMP JUMPDEST PUSH1 0x40 DUP1 MLOAD PUSH1 0x20 DUP1 DUP3 MSTORE DUP4 MLOAD DUP2 DUP4 ADD MSTORE DUP4 MLOAD SWAP2 SWAP3 DUP4 SWAP3 SWAP1 DUP4 ADD SWAP2 DUP6 DUP2 ADD SWAP2 MUL DUP1 DUP4 DUP4 PUSH1 0x0 JUMPDEST DUP4 DUP2 LT ISZERO PUSH2 0x126C JUMPI DUP2 DUP2 ADD MLOAD DUP4 DUP3 ADD MSTORE PUSH1 0x20 ADD PUSH2 0x1254 JUMP JUMPDEST POP POP POP POP SWAP1 POP ADD SWAP3 POP POP POP PUSH1 0x40 MLOAD DUP1 SWAP2 SUB SWAP1 RETURN JUMPDEST PUSH1 0x1 PUSH1 0x1 PUSH1 0xE0 SHL SUB NOT DUP2 AND PUSH1 0x0 SWAP1 DUP2 MSTORE PUSH1 0x20 DUP2 SWAP1 MSTORE PUSH1 0x40 SWAP1 KECCAK256 SLOAD PUSH1 0xFF AND JUMPDEST SWAP2 SWAP1 POP JUMP JUMPDEST DUP1 MLOAD PUSH1 0x20 DUP2 DUP4 ADD DUP2 ADD DUP1 MLOAD PUSH1 0x11 DUP3 MSTORE SWAP3 DUP3 ADD SWAP4 DUP3 ADD SWAP4 SWAP1 SWAP4 KECCAK256 SWAP2 SWAP1 SWAP3 MSTORE DUP1 SLOAD PUSH1 0x1 DUP1 DUP4 ADD SLOAD PUSH1 0x2 DUP1 DUP6 ADD SLOAD PUSH1 0x3 DUP7 ADD SLOAD PUSH1 0x4 DUP8 ADD SLOAD PUSH1 0x5 DUP9 ADD SLOAD PUSH1 0x6 DUP10 ADD DUP1 SLOAD PUSH1 0x40 DUP1 MLOAD SWAP10 DUP3 AND ISZERO PUSH2 0x100 MUL PUSH1 0x0 NOT ADD SWAP1 SWAP2 AND SWAP7 SWAP1 SWAP7 DIV PUSH1 0x1F DUP2 ADD DUP13 SWAP1 DIV DUP13 MUL DUP10 ADD DUP13 ADD SWAP1 SWAP7 MSTORE DUP6 DUP9 MSTORE SWAP8 SWAP10 SWAP6 SWAP9 SWAP4 SWAP8 SWAP3 SWAP7 SWAP2 SWAP6 SWAP1 SWAP5 SWAP2 SWAP3 SWAP2 SWAP1 DUP4 ADD DUP3 DUP3 DUP1 ISZERO PUSH2 0x136E JUMPI DUP1 PUSH1 0x1F LT PUSH2 0x1343 JUMPI PUSH2 0x100 DUP1 DUP4 SLOAD DIV MUL DUP4 MSTORE SWAP2 PUSH1 0x20 ADD SWAP2 PUSH2 0x136E JUMP JUMPDEST DUP3 ADD SWAP2 SWAP1 PUSH1 0x0 MSTORE PUSH1 0x20 PUSH1 0x0 KECCAK256 SWAP1 JUMPDEST DUP2 SLOAD DUP2 MSTORE SWAP1 PUSH1 0x1 ADD SWAP1 PUSH1 0x20 ADD DUP1 DUP4 GT PUSH2 0x1351 JUMPI DUP3 SWAP1 SUB PUSH1 0x1F AND DUP3 ADD SWAP2 JUMPDEST POP POP POP POP PUSH1 0x7 DUP4 ADD DUP1 SLOAD PUSH1 0x40 DUP1 MLOAD PUSH1 0x20 PUSH1 0x2 PUSH1 0x1 DUP6 AND ISZERO PUSH2 0x100 MUL PUSH1 0x0 NOT ADD SWAP1 SWAP5 AND SWAP4 SWAP1 SWAP4 DIV PUSH1 0x1F DUP2 ADD DUP5 SWAP1 DIV DUP5 MUL DUP3 ADD DUP5 ADD SWAP1 SWAP3 MSTORE DUP2 DUP2 MSTORE SWAP5 SWAP6 SWAP5 SWAP4 POP SWAP1 DUP4 ADD DUP3 DUP3 DUP1 ISZERO PUSH2 0x13FE JUMPI DUP1 PUSH1 0x1F LT PUSH2 0x13D3 JUMPI PUSH2 0x100 DUP1 DUP4 SLOAD DIV MUL DUP4 MSTORE SWAP2 PUSH1 0x20 ADD SWAP2 PUSH2 0x13FE JUMP JUMPDEST DUP3 ADD SWAP2 SWAP1 PUSH1 0x0 MSTORE PUSH1 0x20 PUSH1 0x0 KECCAK256 SWAP1 JUMPDEST DUP2 SLOAD DUP2 MSTORE SWAP1 PUSH1 0x1 ADD SWAP1 PUSH1 0x20 ADD DUP1 DUP4 GT PUSH2 0x13E1 JUMPI DUP3 SWAP1 SUB PUSH1 0x1F AND DUP3 ADD SWAP2 JUMPDEST POP POP POP POP PUSH1 0x8 DUP4 ADD SLOAD PUSH1 0x9 DUP5 ADD DUP1 SLOAD PUSH1 0x40 DUP1 MLOAD PUSH1 0x20 PUSH1 0x2 PUSH1 0x1 DUP6 AND ISZERO PUSH2 0x100 MUL PUSH1 0x0 NOT ADD SWAP1 SWAP5 AND SWAP4 SWAP1 SWAP4 DIV PUSH1 0x1F DUP2 ADD DUP5 SWAP1 DIV DUP5 MUL DUP3 ADD DUP5 ADD SWAP1 SWAP3 MSTORE DUP2 DUP2 MSTORE SWAP6 SWAP7 SWAP4 SWAP6 SWAP4 SWAP5 POP SWAP1 DUP4 ADD DUP3 DUP3 DUP1 ISZERO PUSH2 0x1495 JUMPI DUP1 PUSH1 0x1F LT PUSH2 0x146A JUMPI PUSH2 0x100 DUP1 DUP4 SLOAD DIV MUL DUP4 MSTORE SWAP2 PUSH1 0x20 ADD SWAP2 PUSH2 0x1495 JUMP JUMPDEST DUP3 ADD SWAP2 SWAP1 PUSH1 0x0 MSTORE PUSH1 0x20 PUSH1 0x0 KECCAK256 SWAP1 JUMPDEST DUP2 SLOAD DUP2 MSTORE SWAP1 PUSH1 0x1 ADD SWAP1 PUSH1 0x20 ADD DUP1 DUP4 GT PUSH2 0x1478 JUMPI DUP3 SWAP1 SUB PUSH1 0x1F AND DUP3 ADD SWAP2 JUMPDEST POP POP POP POP POP SWAP1 POP DUP11 JUMP JUMPDEST PUSH1 0x6 DUP1 SLOAD PUSH1 0x40 DUP1 MLOAD PUSH1 0x20 PUSH1 0x1F PUSH1 0x2 PUSH1 0x0 NOT PUSH2 0x100 PUSH1 0x1 DUP9 AND ISZERO MUL ADD SWAP1 SWAP6 AND SWAP5 SWAP1 SWAP5 DIV SWAP4 DUP5 ADD DUP2 SWAP1 DIV DUP2 MUL DUP3 ADD DUP2 ADD SWAP1 SWAP3 MSTORE DUP3 DUP2 MSTORE PUSH1 0x60 SWAP4 SWAP1 SWAP3 SWAP1 SWAP2 DUP4 ADD DUP3 DUP3 DUP1 ISZERO PUSH2 0x152B JUMPI DUP1 PUSH1 0x1F LT PUSH2 0x1500 JUMPI PUSH2 0x100 DUP1 DUP4 SLOAD DIV MUL DUP4 MSTORE SWAP2 PUSH1 0x20 ADD SWAP2 PUSH2 0x152B JUMP JUMPDEST DUP3 ADD SWAP2 SWAP1 PUSH1 0x0 MSTORE PUSH1 0x20 PUSH1 0x0 KECCAK256 SWAP1 JUMPDEST DUP2 SLOAD DUP2 MSTORE SWAP1 PUSH1 0x1 ADD SWAP1 PUSH1 0x20 ADD DUP1 DUP4 GT PUSH2 0x150E JUMPI DUP3 SWAP1 SUB PUSH1 0x1F AND DUP3 ADD SWAP2 JUMPDEST POP POP POP POP POP SWAP1 POP JUMPDEST SWAP1 JUMP JUMPDEST PUSH1 0x0 PUSH2 0x1541 DUP3 PUSH2 0x2EF8 JUMP JUMPDEST PUSH2 0x157C JUMPI PUSH1 0x40 MLOAD PUSH3 0x461BCD PUSH1 0xE5 SHL DUP2 MSTORE PUSH1 0x4 ADD DUP1 DUP1 PUSH1 0x20 ADD DUP3 DUP2 SUB DUP3 MSTORE PUSH1 0x2C DUP2 MSTORE PUSH1 0x20 ADD DUP1 PUSH2 0x4A4F PUSH1 0x2C SWAP2 CODECOPY PUSH1 0x40 ADD SWAP2 POP POP PUSH1 0x40 MLOAD DUP1 SWAP2 SUB SWAP1 REVERT JUMPDEST POP PUSH1 0x0 SWAP1 DUP2 MSTORE PUSH1 0x4 PUSH1 0x20 MSTORE PUSH1 0x40 SWAP1 KECCAK256 SLOAD PUSH1 0x1 PUSH1 0x1 PUSH1 0xA0 SHL SUB AND SWAP1 JUMP JUMPDEST PUSH1 0x0 PUSH2 0x15A3 DUP3 PUSH2 0x1CDA JUMP JUMPDEST SWAP1 POP DUP1 PUSH1 0x1 PUSH1 0x1 PUSH1 0xA0 SHL SUB AND DUP4 PUSH1 0x1 PUSH1 0x1 PUSH1 0xA0 SHL SUB AND EQ ISZERO PUSH2 0x15F6 JUMPI PUSH1 0x40 MLOAD PUSH3 0x461BCD PUSH1 0xE5 SHL DUP2 MSTORE PUSH1 0x4 ADD DUP1 DUP1 PUSH1 0x20 ADD DUP3 DUP2 SUB DUP3 MSTORE PUSH1 0x21 DUP2 MSTORE PUSH1 0x20 ADD DUP1 PUSH2 0x4B1F PUSH1 0x21 SWAP2 CODECOPY PUSH1 0x40 ADD SWAP2 POP POP PUSH1 0x40 MLOAD DUP1 SWAP2 SUB SWAP1 REVERT JUMPDEST DUP1 PUSH1 0x1 PUSH1 0x1 PUSH1 0xA0 SHL SUB AND PUSH2 0x1608 PUSH2 0x2F0B JUMP JUMPDEST PUSH1 0x1 PUSH1 0x1 PUSH1 0xA0 SHL SUB AND EQ DUP1 PUSH2 0x1629 JUMPI POP PUSH2 0x1629 DUP2 PUSH2 0x1624 PUSH2 0x2F0B JUMP JUMPDEST PUSH2 0x2D26 JUMP JUMPDEST PUSH2 0x1664 JUMPI PUSH1 0x40 MLOAD PUSH3 0x461BCD PUSH1 0xE5 SHL DUP2 MSTORE PUSH1 0x4 ADD DUP1 DUP1 PUSH1 0x20 ADD DUP3 DUP2 SUB DUP3 MSTORE PUSH1 0x38 DUP2 MSTORE PUSH1 0x20 ADD DUP1 PUSH2 0x49A2 PUSH1 0x38 SWAP2 CODECOPY PUSH1 0x40 ADD SWAP2 POP POP PUSH1 0x40 MLOAD DUP1 SWAP2 SUB SWAP1 REVERT JUMPDEST PUSH2 0x166E DUP4 DUP4 PUSH2 0x2F0F JUMP JUMPDEST POP POP POP JUMP JUMPDEST PUSH1 0x12 PUSH1 0x20 MSTORE DUP1 PUSH1 0x0 MSTORE PUSH1 0x40 PUSH1 0x0 KECCAK256 PUSH1 0x0 SWAP2 POP SWAP1 POP DUP1 PUSH1 0x0 ADD SLOAD SWAP1 DUP1 PUSH1 0x1 ADD SLOAD SWAP1 DUP1 PUSH1 0x2 ADD SLOAD SWAP1 DUP1 PUSH1 0x3 ADD SLOAD SWAP1 DUP1 PUSH1 0x4 ADD SLOAD SWAP1 DUP1 PUSH1 0x5 ADD SLOAD SWAP1 DUP1 PUSH1 0x6 ADD DUP1 SLOAD PUSH1 0x1 DUP2 PUSH1 0x1 AND ISZERO PUSH2 0x100 MUL SUB AND PUSH1 0x2 SWAP1 DIV DUP1 PUSH1 0x1F ADD PUSH1 0x20 DUP1 SWAP2 DIV MUL PUSH1 0x20 ADD PUSH1 0x40 MLOAD SWAP1 DUP2 ADD PUSH1 0x40 MSTORE DUP1 SWAP3 SWAP2 SWAP1 DUP2 DUP2 MSTORE PUSH1 0x20 ADD DUP3 DUP1 SLOAD PUSH1 0x1 DUP2 PUSH1 0x1 AND ISZERO PUSH2 0x100 MUL SUB AND PUSH1 0x2 SWAP1 DIV DUP1 ISZERO PUSH2 0x136E JUMPI DUP1 PUSH1 0x1F LT PUSH2 0x1343 JUMPI PUSH2 0x100 DUP1 DUP4 SLOAD DIV MUL DUP4 MSTORE SWAP2 PUSH1 0x20 ADD SWAP2 PUSH2 0x136E JUMP JUMPDEST PUSH2 0x1720 PUSH2 0x2F0B JUMP JUMPDEST PUSH1 0x1 PUSH1 0x1 PUSH1 0xA0 SHL SUB AND PUSH2 0x1731 PUSH2 0x2203 JUMP JUMPDEST PUSH1 0x1 PUSH1 0x1 PUSH1 0xA0 SHL SUB AND EQ PUSH2 0x177A JUMPI PUSH1 0x40 DUP1 MLOAD PUSH3 0x461BCD PUSH1 0xE5 SHL DUP2 MSTORE PUSH1 0x20 PUSH1 0x4 DUP3 ADD DUP2 SWAP1 MSTORE PUSH1 0x24 DUP3 ADD MSTORE PUSH1 0x0 DUP1 MLOAD PUSH1 0x20 PUSH2 0x4AA7 DUP4 CODECOPY DUP2 MLOAD SWAP2 MSTORE PUSH1 0x44 DUP3 ADD MSTORE SWAP1 MLOAD SWAP1 DUP2 SWAP1 SUB PUSH1 0x64 ADD SWAP1 REVERT JUMPDEST PUSH2 0x178B PUSH2 0x1785 PUSH2 0x2F0B JUMP JUMPDEST DUP4 PUSH2 0x2F7D JUMP JUMPDEST PUSH2 0x17C6 JUMPI PUSH1 0x40 MLOAD PUSH3 0x461BCD PUSH1 0xE5 SHL DUP2 MSTORE PUSH1 0x4 ADD DUP1 DUP1 PUSH1 0x20 ADD DUP3 DUP2 SUB DUP3 MSTORE PUSH1 0x31 DUP2 MSTORE PUSH1 0x20 ADD DUP1 PUSH2 0x4B40 PUSH1 0x31 SWAP2 CODECOPY PUSH1 0x40 ADD SWAP2 POP POP PUSH1 0x40 MLOAD DUP1 SWAP2 SUB SWAP1 REVERT JUMPDEST PUSH2 0x17D0 DUP3 DUP3 PUSH2 0x3021 JUMP JUMPDEST POP POP JUMP JUMPDEST PUSH1 0x0 PUSH2 0x17E0 PUSH1 0x2 PUSH2 0x3084 JUMP JUMPDEST SWAP1 POP SWAP1 JUMP JUMPDEST PUSH1 0xC PUSH1 0x20 MSTORE PUSH1 0x0 SWAP1 DUP2 MSTORE PUSH1 0x40 SWAP1 KECCAK256 SLOAD PUSH1 0x1 PUSH1 0x1 PUSH1 0xA0 SHL SUB AND DUP2 JUMP JUMPDEST PUSH1 0xD PUSH1 0x20 MSTORE PUSH1 0x0 SWAP1 DUP2 MSTORE PUSH1 0x40 SWAP1 KECCAK256 SLOAD DUP2 JUMP JUMPDEST PUSH2 0x1823 PUSH2 0x181D PUSH2 0x2F0B JUMP JUMPDEST DUP3 PUSH2 0x2F7D JUMP JUMPDEST PUSH2 0x185E JUMPI PUSH1 0x40 MLOAD PUSH3 0x461BCD PUSH1 0xE5 SHL DUP2 MSTORE PUSH1 0x4 ADD DUP1 DUP1 PUSH1 0x20 ADD DUP3 DUP2 SUB DUP3 MSTORE PUSH1 0x31 DUP2 MSTORE PUSH1 0x20 ADD DUP1 PUSH2 0x4B40 PUSH1 0x31 SWAP2 CODECOPY PUSH1 0x40 ADD SWAP2 POP POP PUSH1 0x40 MLOAD DUP1 SWAP2 SUB SWAP1 REVERT JUMPDEST PUSH2 0x166E DUP4 DUP4 DUP4 PUSH2 0x308F JUMP JUMPDEST PUSH2 0x1871 PUSH2 0x2F0B JUMP JUMPDEST PUSH1 0x1 PUSH1 0x1 PUSH1 0xA0 SHL SUB AND PUSH2 0x1882 PUSH2 0x2203 JUMP JUMPDEST PUSH1 0x1 PUSH1 0x1 PUSH1 0xA0 SHL SUB AND EQ PUSH2 0x18CB JUMPI PUSH1 0x40 DUP1 MLOAD PUSH3 0x461BCD PUSH1 0xE5 SHL DUP2 MSTORE PUSH1 0x20 PUSH1 0x4 DUP3 ADD DUP2 SWAP1 MSTORE PUSH1 0x24 DUP3 ADD MSTORE PUSH1 0x0 DUP1 MLOAD PUSH1 0x20 PUSH2 0x4AA7 DUP4 CODECOPY DUP2 MLOAD SWAP2 MSTORE PUSH1 0x44 DUP3 ADD MSTORE SWAP1 MLOAD SWAP1 DUP2 SWAP1 SUB PUSH1 0x64 ADD SWAP1 REVERT JUMPDEST PUSH1 0x0 PUSH1 0x11 DUP12 PUSH1 0x40 MLOAD DUP1 DUP3 DUP1 MLOAD SWAP1 PUSH1 0x20 ADD SWAP1 DUP1 DUP4 DUP4 JUMPDEST PUSH1 0x20 DUP4 LT PUSH2 0x18FF JUMPI DUP1 MLOAD DUP3 MSTORE PUSH1 0x1F NOT SWAP1 SWAP3 ADD SWAP2 PUSH1 0x20 SWAP2 DUP3 ADD SWAP2 ADD PUSH2 0x18E0 JUMP JUMPDEST MLOAD DUP2 MLOAD PUSH1 0x20 SWAP4 DUP5 SUB PUSH2 0x100 EXP PUSH1 0x0 NOT ADD DUP1 NOT SWAP1 SWAP3 AND SWAP2 AND OR SWAP1 MSTORE SWAP3 ADD SWAP5 DUP6 MSTORE POP PUSH1 0x40 MLOAD SWAP4 DUP5 SWAP1 SUB DUP2 ADD SWAP1 SWAP4 KECCAK256 DUP15 MLOAD SWAP1 SWAP5 POP PUSH2 0x1943 SWAP4 PUSH1 0x9 DUP7 ADD SWAP4 POP DUP16 ADD SWAP2 POP PUSH2 0x47C6 JUMP JUMPDEST POP DUP4 MLOAD PUSH2 0x1959 SWAP1 PUSH1 0x6 DUP4 ADD SWAP1 PUSH1 0x20 DUP8 ADD SWAP1 PUSH2 0x47C6 JUMP JUMPDEST POP DUP3 MLOAD PUSH2 0x196F SWAP1 PUSH1 0x7 DUP4 ADD SWAP1 PUSH1 0x20 DUP7 ADD SWAP1 PUSH2 0x47C6 JUMP JUMPDEST POP PUSH1 0x8 DUP2 ADD DUP3 SWAP1 SSTORE DUP10 DUP2 SSTORE PUSH1 0x2 DUP2 ADD DUP9 SWAP1 SSTORE PUSH1 0x1 DUP1 DUP3 ADD DUP11 SWAP1 SSTORE PUSH1 0x3 DUP3 ADD DUP9 SWAP1 SSTORE PUSH1 0x4 DUP3 ADD DUP8 SWAP1 SSTORE PUSH1 0x5 DUP3 ADD DUP7 SWAP1 SSTORE PUSH1 0x15 DUP1 SLOAD SWAP2 DUP3 ADD DUP2 SSTORE PUSH1 0x0 MSTORE DUP12 MLOAD PUSH2 0x19DD SWAP2 PUSH32 0x55F448FDEA98C4D29EB340757EF0A66CD03DBB9538908A6A81D96026B71EC475 ADD SWAP1 PUSH1 0x20 DUP15 ADD SWAP1 PUSH2 0x47C6 JUMP JUMPDEST POP POP POP POP POP POP POP POP POP POP POP POP JUMP JUMPDEST PUSH1 0x1 PUSH1 0x1 PUSH1 0xA0 SHL SUB DUP3 AND PUSH1 0x0 SWAP1 DUP2 MSTORE PUSH1 0x1 PUSH1 0x20 MSTORE PUSH1 0x40 DUP2 KECCAK256 PUSH2 0x1A13 SWAP1 DUP4 PUSH4 0xFFFFFFFF PUSH2 0x31ED AND JUMP JUMPDEST SWAP1 POP JUMPDEST SWAP3 SWAP2 POP POP JUMP JUMPDEST PUSH2 0x166E DUP4 DUP4 DUP4 PUSH1 0x40 MLOAD DUP1 PUSH1 0x20 ADD PUSH1 0x40 MSTORE DUP1 PUSH1 0x0 DUP2 MSTORE POP PUSH2 0x273F JUMP JUMPDEST PUSH1 0x0 DUP1 PUSH2 0x1A4B PUSH1 0x2 DUP5 PUSH4 0xFFFFFFFF PUSH2 0x31F9 AND JUMP JUMPDEST POP SWAP4 SWAP3 POP POP POP JUMP JUMPDEST PUSH1 0x60 DUP1 PUSH2 0x1A5E PUSH2 0x4844 JUMP JUMPDEST PUSH1 0x11 DUP5 PUSH1 0x40 MLOAD DUP1 DUP3 DUP1 MLOAD SWAP1 PUSH1 0x20 ADD SWAP1 DUP1 DUP4 DUP4 JUMPDEST PUSH1 0x20 DUP4 LT PUSH2 0x1A90 JUMPI DUP1 MLOAD DUP3 MSTORE PUSH1 0x1F NOT SWAP1 SWAP3 ADD SWAP2 PUSH1 0x20 SWAP2 DUP3 ADD SWAP2 ADD PUSH2 0x1A71 JUMP JUMPDEST MLOAD DUP2 MLOAD PUSH1 0x0 NOT PUSH1 0x20 SWAP5 DUP6 SUB PUSH2 0x100 SWAP1 DUP2 EXP DUP3 ADD SWAP3 DUP4 AND SWAP3 NOT SWAP4 SWAP1 SWAP4 AND SWAP2 SWAP1 SWAP2 OR SWAP1 SWAP3 MSTORE SWAP5 SWAP1 SWAP3 ADD SWAP7 DUP8 MSTORE PUSH1 0x40 DUP1 MLOAD SWAP8 DUP9 SWAP1 SUB DUP3 ADD DUP9 KECCAK256 PUSH2 0x140 DUP10 ADD DUP3 MSTORE DUP1 SLOAD DUP10 MSTORE PUSH1 0x1 DUP2 DUP2 ADD SLOAD DUP11 DUP6 ADD MSTORE PUSH1 0x2 DUP1 DUP4 ADD SLOAD DUP12 DUP6 ADD MSTORE PUSH1 0x3 DUP4 ADD SLOAD PUSH1 0x60 DUP13 ADD MSTORE PUSH1 0x4 DUP4 ADD SLOAD PUSH1 0x80 DUP13 ADD MSTORE PUSH1 0x5 DUP4 ADD SLOAD PUSH1 0xA0 DUP13 ADD MSTORE PUSH1 0x6 DUP4 ADD DUP1 SLOAD DUP6 MLOAD PUSH1 0x1F SWAP5 DUP3 AND ISZERO SWAP1 SWAP11 MUL SWAP1 SWAP8 ADD SWAP1 SWAP7 AND DIV SWAP1 DUP2 ADD DUP5 SWAP1 DIV DUP5 MUL DUP8 ADD DUP5 ADD SWAP1 SWAP3 MSTORE DUP2 DUP7 MSTORE SWAP7 POP PUSH1 0xC0 DUP9 ADD SWAP6 POP SWAP2 SWAP3 POP DUP4 ADD DUP3 DUP3 DUP1 ISZERO PUSH2 0x1B89 JUMPI DUP1 PUSH1 0x1F LT PUSH2 0x1B5E JUMPI PUSH2 0x100 DUP1 DUP4 SLOAD DIV MUL DUP4 MSTORE SWAP2 PUSH1 0x20 ADD SWAP2 PUSH2 0x1B89 JUMP JUMPDEST DUP3 ADD SWAP2 SWAP1 PUSH1 0x0 MSTORE PUSH1 0x20 PUSH1 0x0 KECCAK256 SWAP1 JUMPDEST DUP2 SLOAD DUP2 MSTORE SWAP1 PUSH1 0x1 ADD SWAP1 PUSH1 0x20 ADD DUP1 DUP4 GT PUSH2 0x1B6C JUMPI DUP3 SWAP1 SUB PUSH1 0x1F AND DUP3 ADD SWAP2 JUMPDEST POP POP POP SWAP2 DUP4 MSTORE POP POP PUSH1 0x7 DUP3 ADD DUP1 SLOAD PUSH1 0x40 DUP1 MLOAD PUSH1 0x20 PUSH1 0x2 PUSH1 0x1 DUP6 AND ISZERO PUSH2 0x100 MUL PUSH1 0x0 NOT ADD SWAP1 SWAP5 AND SWAP4 SWAP1 SWAP4 DIV PUSH1 0x1F DUP2 ADD DUP5 SWAP1 DIV DUP5 MUL DUP3 ADD DUP5 ADD SWAP1 SWAP3 MSTORE DUP2 DUP2 MSTORE SWAP4 DUP3 ADD SWAP4 SWAP3 SWAP2 DUP4 ADD DUP3 DUP3 DUP1 ISZERO PUSH2 0x1C1D JUMPI DUP1 PUSH1 0x1F LT PUSH2 0x1BF2 JUMPI PUSH2 0x100 DUP1 DUP4 SLOAD DIV MUL DUP4 MSTORE SWAP2 PUSH1 0x20 ADD SWAP2 PUSH2 0x1C1D JUMP JUMPDEST DUP3 ADD SWAP2 SWAP1 PUSH1 0x0 MSTORE PUSH1 0x20 PUSH1 0x0 KECCAK256 SWAP1 JUMPDEST DUP2 SLOAD DUP2 MSTORE SWAP1 PUSH1 0x1 ADD SWAP1 PUSH1 0x20 ADD DUP1 DUP4 GT PUSH2 0x1C00 JUMPI DUP3 SWAP1 SUB PUSH1 0x1F AND DUP3 ADD SWAP2 JUMPDEST POP POP POP SWAP2 DUP4 MSTORE POP POP PUSH1 0x8 DUP3 ADD SLOAD PUSH1 0x20 DUP1 DUP4 ADD SWAP2 SWAP1 SWAP2 MSTORE PUSH1 0x9 DUP4 ADD DUP1 SLOAD PUSH1 0x40 DUP1 MLOAD PUSH1 0x1F PUSH1 0x2 PUSH1 0x0 NOT PUSH2 0x100 PUSH1 0x1 DUP8 AND ISZERO MUL ADD SWAP1 SWAP5 AND SWAP4 SWAP1 SWAP4 DIV SWAP3 DUP4 ADD DUP6 SWAP1 DIV DUP6 MUL DUP2 ADD DUP6 ADD DUP3 MSTORE DUP3 DUP2 MSTORE SWAP5 ADD SWAP4 SWAP3 DUP4 ADD DUP3 DUP3 DUP1 ISZERO PUSH2 0x1CBB JUMPI DUP1 PUSH1 0x1F LT PUSH2 0x1C90 JUMPI PUSH2 0x100 DUP1 DUP4 SLOAD DIV MUL DUP4 MSTORE SWAP2 PUSH1 0x20 ADD SWAP2 PUSH2 0x1CBB JUMP JUMPDEST DUP3 ADD SWAP2 SWAP1 PUSH1 0x0 MSTORE PUSH1 0x20 PUSH1 0x0 KECCAK256 SWAP1 JUMPDEST DUP2 SLOAD DUP2 MSTORE SWAP1 PUSH1 0x1 ADD SWAP1 PUSH1 0x20 ADD DUP1 DUP4 GT PUSH2 0x1C9E JUMPI DUP3 SWAP1 SUB PUSH1 0x1F AND DUP3 ADD SWAP2 JUMPDEST POP POP POP POP POP DUP2 MSTORE POP POP SWAP1 POP DUP1 PUSH1 0xC0 ADD MLOAD DUP2 PUSH1 0xE0 ADD MLOAD SWAP3 POP SWAP3 POP POP SWAP2 POP SWAP2 JUMP JUMPDEST PUSH1 0x0 PUSH2 0x1A16 DUP3 PUSH1 0x40 MLOAD DUP1 PUSH1 0x60 ADD PUSH1 0x40 MSTORE DUP1 PUSH1 0x29 DUP2 MSTORE PUSH1 0x20 ADD PUSH2 0x4A04 PUSH1 0x29 SWAP2 CODECOPY PUSH1 0x2 SWAP2 SWAP1 PUSH4 0xFFFFFFFF PUSH2 0x3215 AND JUMP JUMPDEST PUSH1 0x9 DUP1 SLOAD PUSH1 0x40 DUP1 MLOAD PUSH1 0x20 PUSH1 0x1F PUSH1 0x2 PUSH1 0x0 NOT PUSH2 0x100 PUSH1 0x1 DUP9 AND ISZERO MUL ADD SWAP1 SWAP6 AND SWAP5 SWAP1 SWAP5 DIV SWAP4 DUP5 ADD DUP2 SWAP1 DIV DUP2 MUL DUP3 ADD DUP2 ADD SWAP1 SWAP3 MSTORE DUP3 DUP2 MSTORE PUSH1 0x60 SWAP4 SWAP1 SWAP3 SWAP1 SWAP2 DUP4 ADD DUP3 DUP3 DUP1 ISZERO PUSH2 0x152B JUMPI DUP1 PUSH1 0x1F LT PUSH2 0x1500 JUMPI PUSH2 0x100 DUP1 DUP4 SLOAD DIV MUL DUP4 MSTORE SWAP2 PUSH1 0x20 ADD SWAP2 PUSH2 0x152B JUMP JUMPDEST PUSH1 0x16 DUP2 DUP2 SLOAD DUP2 LT PUSH2 0x1D76 JUMPI INVALID JUMPDEST PUSH1 0x0 SWAP2 DUP3 MSTORE PUSH1 0x20 SWAP2 DUP3 SWAP1 KECCAK256 PUSH1 0x6 SWAP2 SWAP1 SWAP2 MUL ADD DUP1 SLOAD PUSH1 0x40 DUP1 MLOAD PUSH1 0x2 PUSH1 0x1 DUP5 AND ISZERO PUSH2 0x100 MUL PUSH1 0x0 NOT ADD SWAP1 SWAP4 AND SWAP3 SWAP1 SWAP3 DIV PUSH1 0x1F DUP2 ADD DUP6 SWAP1 DIV DUP6 MUL DUP4 ADD DUP6 ADD SWAP1 SWAP2 MSTORE DUP1 DUP3 MSTORE SWAP2 SWAP4 POP SWAP2 DUP4 SWAP2 SWAP1 DUP4 ADD DUP3 DUP3 DUP1 ISZERO PUSH2 0x1E0F JUMPI DUP1 PUSH1 0x1F LT PUSH2 0x1DE4 JUMPI PUSH2 0x100 DUP1 DUP4 SLOAD DIV MUL DUP4 MSTORE SWAP2 PUSH1 0x20 ADD SWAP2 PUSH2 0x1E0F JUMP JUMPDEST DUP3 ADD SWAP2 SWAP1 PUSH1 0x0 MSTORE PUSH1 0x20 PUSH1 0x0 KECCAK256 SWAP1 JUMPDEST DUP2 SLOAD DUP2 MSTORE SWAP1 PUSH1 0x1 ADD SWAP1 PUSH1 0x20 ADD DUP1 DUP4 GT PUSH2 0x1DF2 JUMPI DUP3 SWAP1 SUB PUSH1 0x1F AND DUP3 ADD SWAP2 JUMPDEST POP POP POP POP POP SWAP1 DUP1 PUSH1 0x1 ADD DUP1 SLOAD PUSH1 0x1 DUP2 PUSH1 0x1 AND ISZERO PUSH2 0x100 MUL SUB AND PUSH1 0x2 SWAP1 DIV DUP1 PUSH1 0x1F ADD PUSH1 0x20 DUP1 SWAP2 DIV MUL PUSH1 0x20 ADD PUSH1 0x40 MLOAD SWAP1 DUP2 ADD PUSH1 0x40 MSTORE DUP1 SWAP3 SWAP2 SWAP1 DUP2 DUP2 MSTORE PUSH1 0x20 ADD DUP3 DUP1 SLOAD PUSH1 0x1 DUP2 PUSH1 0x1 AND ISZERO PUSH2 0x100 MUL SUB AND PUSH1 0x2 SWAP1 DIV DUP1 ISZERO PUSH2 0x1EAD JUMPI DUP1 PUSH1 0x1F LT PUSH2 0x1E82 JUMPI PUSH2 0x100 DUP1 DUP4 SLOAD DIV MUL DUP4 MSTORE SWAP2 PUSH1 0x20 ADD SWAP2 PUSH2 0x1EAD JUMP JUMPDEST DUP3 ADD SWAP2 SWAP1 PUSH1 0x0 MSTORE PUSH1 0x20 PUSH1 0x0 KECCAK256 SWAP1 JUMPDEST DUP2 SLOAD DUP2 MSTORE SWAP1 PUSH1 0x1 ADD SWAP1 PUSH1 0x20 ADD DUP1 DUP4 GT PUSH2 0x1E90 JUMPI DUP3 SWAP1 SUB PUSH1 0x1F AND DUP3 ADD SWAP2 JUMPDEST POP POP POP POP PUSH1 0x2 DUP4 DUP2 ADD SLOAD PUSH1 0x3 DUP6 ADD DUP1 SLOAD PUSH1 0x40 DUP1 MLOAD PUSH1 0x20 PUSH2 0x100 PUSH1 0x1 DUP6 AND ISZERO MUL PUSH1 0x0 NOT ADD SWAP1 SWAP4 AND SWAP6 SWAP1 SWAP6 DIV PUSH1 0x1F DUP2 ADD DUP4 SWAP1 DIV DUP4 MUL DUP7 ADD DUP4 ADD SWAP1 SWAP2 MSTORE DUP1 DUP6 MSTORE SWAP6 SWAP7 PUSH1 0xFF SWAP1 SWAP4 AND SWAP6 SWAP3 SWAP5 POP SWAP1 SWAP2 SWAP1 DUP4 ADD DUP3 DUP3 DUP1 ISZERO PUSH2 0x1F49 JUMPI DUP1 PUSH1 0x1F LT PUSH2 0x1F1E JUMPI PUSH2 0x100 DUP1 DUP4 SLOAD DIV MUL DUP4 MSTORE SWAP2 PUSH1 0x20 ADD SWAP2 PUSH2 0x1F49 JUMP JUMPDEST DUP3 ADD SWAP2 SWAP1 PUSH1 0x0 MSTORE PUSH1 0x20 PUSH1 0x0 KECCAK256 SWAP1 JUMPDEST DUP2 SLOAD DUP2 MSTORE SWAP1 PUSH1 0x1 ADD SWAP1 PUSH1 0x20 ADD DUP1 DUP4 GT PUSH2 0x1F2C JUMPI DUP3 SWAP1 SUB PUSH1 0x1F AND DUP3 ADD SWAP2 JUMPDEST POP POP POP POP PUSH1 0x4 DUP4 ADD DUP1 SLOAD PUSH1 0x40 DUP1 MLOAD PUSH1 0x20 PUSH1 0x2 PUSH1 0x1 DUP6 AND ISZERO PUSH2 0x100 MUL PUSH1 0x0 NOT ADD SWAP1 SWAP5 AND SWAP4 SWAP1 SWAP4 DIV PUSH1 0x1F DUP2 ADD DUP5 SWAP1 DIV DUP5 MUL DUP3 ADD DUP5 ADD SWAP1 SWAP3 MSTORE DUP2 DUP2 MSTORE SWAP5 SWAP6 SWAP5 SWAP4 POP SWAP1 DUP4 ADD DUP3 DUP3 DUP1 ISZERO PUSH2 0x1FD9 JUMPI DUP1 PUSH1 0x1F LT PUSH2 0x1FAE JUMPI PUSH2 0x100 DUP1 DUP4 SLOAD DIV MUL DUP4 MSTORE SWAP2 PUSH1 0x20 ADD SWAP2 PUSH2 0x1FD9 JUMP JUMPDEST DUP3 ADD SWAP2 SWAP1 PUSH1 0x0 MSTORE PUSH1 0x20 PUSH1 0x0 KECCAK256 SWAP1 JUMPDEST DUP2 SLOAD DUP2 MSTORE SWAP1 PUSH1 0x1 ADD SWAP1 PUSH1 0x20 ADD DUP1 DUP4 GT PUSH2 0x1FBC JUMPI DUP3 SWAP1 SUB PUSH1 0x1F AND DUP3 ADD SWAP2 JUMPDEST POP POP POP POP POP SWAP1 DUP1 PUSH1 0x5 ADD SLOAD SWAP1 POP DUP7 JUMP JUMPDEST PUSH1 0x0 PUSH1 0x1 PUSH1 0x1 PUSH1 0xA0 SHL SUB DUP3 AND PUSH2 0x2030 JUMPI PUSH1 0x40 MLOAD PUSH3 0x461BCD PUSH1 0xE5 SHL DUP2 MSTORE PUSH1 0x4 ADD DUP1 DUP1 PUSH1 0x20 ADD DUP3 DUP2 SUB DUP3 MSTORE PUSH1 0x2A DUP2 MSTORE PUSH1 0x20 ADD DUP1 PUSH2 0x49DA PUSH1 0x2A SWAP2 CODECOPY PUSH1 0x40 ADD SWAP2 POP POP PUSH1 0x40 MLOAD DUP1 SWAP2 SUB SWAP1 REVERT JUMPDEST PUSH1 0x1 PUSH1 0x1 PUSH1 0xA0 SHL SUB DUP3 AND PUSH1 0x0 SWAP1 DUP2 MSTORE PUSH1 0x1 PUSH1 0x20 MSTORE PUSH1 0x40 SWAP1 KECCAK256 PUSH2 0x1A16 SWAP1 PUSH2 0x3084 JUMP JUMPDEST PUSH2 0x2059 PUSH2 0x2F0B JUMP JUMPDEST PUSH1 0x1 PUSH1 0x1 PUSH1 0xA0 SHL SUB AND PUSH2 0x206A PUSH2 0x2203 JUMP JUMPDEST PUSH1 0x1 PUSH1 0x1 PUSH1 0xA0 SHL SUB AND EQ PUSH2 0x20B3 JUMPI PUSH1 0x40 DUP1 MLOAD PUSH3 0x461BCD PUSH1 0xE5 SHL DUP2 MSTORE PUSH1 0x20 PUSH1 0x4 DUP3 ADD DUP2 SWAP1 MSTORE PUSH1 0x24 DUP3 ADD MSTORE PUSH1 0x0 DUP1 MLOAD PUSH1 0x20 PUSH2 0x4AA7 DUP4 CODECOPY DUP2 MLOAD SWAP2 MSTORE PUSH1 0x44 DUP3 ADD MSTORE SWAP1 MLOAD SWAP1 DUP2 SWAP1 SUB PUSH1 0x64 ADD SWAP1 REVERT JUMPDEST PUSH1 0xB SLOAD PUSH1 0x40 MLOAD PUSH1 0x0 SWAP2 PUSH1 0x1 PUSH1 0x1 PUSH1 0xA0 SHL SUB AND SWAP1 PUSH32 0x8BE0079C531659141344CD1FD0A4F28419497F9722A3DAAFE3B4186F6B6457E0 SWAP1 DUP4 SWAP1 LOG3 PUSH1 0xB DUP1 SLOAD PUSH1 0x1 PUSH1 0x1 PUSH1 0xA0 SHL SUB NOT AND SWAP1 SSTORE JUMP JUMPDEST PUSH1 0x0 DUP1 PUSH2 0x210F PUSH1 0xE SLOAD PUSH1 0xF SLOAD DUP6 PUSH2 0x322C JUMP JUMPDEST PUSH1 0x0 DUP2 DUP2 MSTORE PUSH1 0xC PUSH1 0x20 MSTORE PUSH1 0x40 DUP1 DUP3 KECCAK256 DUP1 SLOAD PUSH1 0x1 PUSH1 0x1 PUSH1 0xA0 SHL SUB NOT AND CALLER OR SWAP1 SSTORE MLOAD SWAP2 SWAP3 POP DUP3 SWAP2 PUSH32 0xC87D9D2E864F772E90C6D43B25444023C6FCDD718AD5D325D21600CE593E4C61 SWAP2 SWAP1 LOG2 POP SWAP2 SWAP1 POP JUMP JUMPDEST PUSH1 0x13 PUSH1 0x20 MSTORE DUP1 PUSH1 0x0 MSTORE PUSH1 0x40 PUSH1 0x0 KECCAK256 PUSH1 0x0 SWAP2 POP SWAP1 POP DUP1 PUSH1 0x0 ADD SLOAD SWAP1 DUP1 PUSH1 0x1 ADD SLOAD SWAP1 DUP1 PUSH1 0x2 ADD SLOAD SWAP1 DUP1 PUSH1 0x3 ADD SLOAD SWAP1 DUP1 PUSH1 0x4 ADD SLOAD SWAP1 DUP1 PUSH1 0x5 ADD SLOAD SWAP1 DUP1 PUSH1 0x6 ADD DUP1 SLOAD PUSH1 0x1 DUP2 PUSH1 0x1 AND ISZERO PUSH2 0x100 MUL SUB AND PUSH1 0x2 SWAP1 DIV DUP1 PUSH1 0x1F ADD PUSH1 0x20 DUP1 SWAP2 DIV MUL PUSH1 0x20 ADD PUSH1 0x40 MLOAD SWAP1 DUP2 ADD PUSH1 0x40 MSTORE DUP1 SWAP3 SWAP2 SWAP1 DUP2 DUP2 MSTORE PUSH1 0x20 ADD DUP3 DUP1 SLOAD PUSH1 0x1 DUP2 PUSH1 0x1 AND ISZERO PUSH2 0x100 MUL SUB AND PUSH1 0x2 SWAP1 DIV DUP1 ISZERO PUSH2 0x136E JUMPI DUP1 PUSH1 0x1F LT PUSH2 0x1343 JUMPI PUSH2 0x100 DUP1 DUP4 SLOAD DIV MUL DUP4 MSTORE SWAP2 PUSH1 0x20 ADD SWAP2 PUSH2 0x136E JUMP JUMPDEST PUSH1 0xB SLOAD PUSH1 0x1 PUSH1 0x1 PUSH1 0xA0 SHL SUB AND SWAP1 JUMP JUMPDEST CALLER PUSH1 0x1 PUSH1 0x1 PUSH1 0xA0 SHL SUB PUSH32 0x0 AND EQ PUSH2 0x228F JUMPI PUSH1 0x40 DUP1 MLOAD PUSH3 0x461BCD PUSH1 0xE5 SHL DUP2 MSTORE PUSH1 0x20 PUSH1 0x4 DUP3 ADD MSTORE PUSH1 0x1F PUSH1 0x24 DUP3 ADD MSTORE PUSH32 0x4F6E6C7920565246436F6F7264696E61746F722063616E2066756C66696C6C00 PUSH1 0x44 DUP3 ADD MSTORE SWAP1 MLOAD SWAP1 DUP2 SWAP1 SUB PUSH1 0x64 ADD SWAP1 REVERT JUMPDEST PUSH2 0x17D0 DUP3 DUP3 PUSH2 0x33EE JUMP JUMPDEST PUSH1 0x7 DUP1 SLOAD PUSH1 0x40 DUP1 MLOAD PUSH1 0x20 PUSH1 0x1F PUSH1 0x2 PUSH1 0x0 NOT PUSH2 0x100 PUSH1 0x1 DUP9 AND ISZERO MUL ADD SWAP1 SWAP6 AND SWAP5 SWAP1 SWAP5 DIV SWAP4 DUP5 ADD DUP2 SWAP1 DIV DUP2 MUL DUP3 ADD DUP2 ADD SWAP1 SWAP3 MSTORE DUP3 DUP2 MSTORE PUSH1 0x60 SWAP4 SWAP1 SWAP3 SWAP1 SWAP2 DUP4 ADD DUP3 DUP3 DUP1 ISZERO PUSH2 0x152B JUMPI DUP1 PUSH1 0x1F LT PUSH2 0x1500 JUMPI PUSH2 0x100 DUP1 DUP4 SLOAD DIV MUL DUP4 MSTORE SWAP2 PUSH1 0x20 ADD SWAP2 PUSH2 0x152B JUMP JUMPDEST PUSH1 0x0 PUSH1 0x12 PUSH1 0x0 DUP4 DUP2 MSTORE PUSH1 0x20 ADD SWAP1 DUP2 MSTORE PUSH1 0x20 ADD PUSH1 0x0 KECCAK256 SWAP1 POP PUSH1 0x0 PUSH1 0x11 DUP5 PUSH1 0x40 MLOAD DUP1 DUP3 DUP1 MLOAD SWAP1 PUSH1 0x20 ADD SWAP1 DUP1 DUP4 DUP4 JUMPDEST PUSH1 0x20 DUP4 LT PUSH2 0x2345 JUMPI DUP1 MLOAD DUP3 MSTORE PUSH1 0x1F NOT SWAP1 SWAP3 ADD SWAP2 PUSH1 0x20 SWAP2 DUP3 ADD SWAP2 ADD PUSH2 0x2326 JUMP JUMPDEST MLOAD DUP2 MLOAD PUSH1 0x20 SWAP4 DUP5 SUB PUSH2 0x100 EXP PUSH1 0x0 NOT ADD DUP1 NOT SWAP1 SWAP3 AND SWAP2 AND OR SWAP1 MSTORE SWAP3 ADD SWAP5 DUP6 MSTORE POP PUSH1 0x40 DUP1 MLOAD SWAP5 DUP6 SWAP1 SUB DUP3 ADD SWAP1 SWAP5 KECCAK256 PUSH1 0x0 DUP9 DUP2 MSTORE PUSH1 0x14 DUP4 MSTORE DUP6 DUP2 KECCAK256 PUSH1 0x13 SWAP1 SWAP4 MSTORE SWAP5 DUP6 KECCAK256 PUSH1 0x16 DUP1 SLOAD SWAP3 SWAP8 POP SWAP3 SWAP6 SWAP1 SWAP5 POP SWAP3 POP DUP8 SWAP1 DUP2 LT PUSH2 0x239E JUMPI INVALID JUMPDEST SWAP1 PUSH1 0x0 MSTORE PUSH1 0x20 PUSH1 0x0 KECCAK256 SWAP1 PUSH1 0x6 MUL ADD SWAP1 POP DUP1 PUSH1 0x5 ADD SLOAD PUSH1 0x64 DUP3 PUSH1 0x5 ADD SLOAD PUSH1 0x4 DUP6 PUSH1 0x0 ADD SLOAD DUP2 PUSH2 0x23C8 JUMPI INVALID JUMPDEST DIV MUL DUP6 PUSH1 0x0 ADD SLOAD DUP8 PUSH1 0x0 ADD SLOAD PUSH1 0x2 MUL ADD ADD DUP2 PUSH2 0x23E0 JUMPI INVALID JUMPDEST DIV ADD PUSH1 0xA ADD DUP6 PUSH1 0x0 ADD DUP2 SWAP1 SSTORE POP DUP1 PUSH1 0x5 ADD SLOAD PUSH1 0x64 PUSH1 0x4 DUP5 PUSH1 0x1 ADD SLOAD DUP2 PUSH2 0x2402 JUMPI INVALID JUMPDEST DIV DUP2 PUSH2 0x240A JUMPI INVALID JUMPDEST DIV DUP5 PUSH1 0x1 ADD SLOAD DUP7 PUSH1 0x1 ADD SLOAD PUSH1 0x2 MUL ADD ADD MUL PUSH1 0x5 ADD DUP6 PUSH1 0x1 ADD DUP2 SWAP1 SSTORE POP DUP1 PUSH1 0x5 ADD SLOAD PUSH1 0x64 PUSH1 0x4 DUP5 PUSH1 0x2 ADD SLOAD DUP2 PUSH2 0x243B JUMPI INVALID JUMPDEST DIV DUP2 PUSH2 0x2443 JUMPI INVALID JUMPDEST DIV DUP5 PUSH1 0x2 ADD SLOAD DUP7 PUSH1 0x2 ADD SLOAD PUSH1 0x2 MUL ADD ADD MUL PUSH1 0x5 ADD DUP6 PUSH1 0x2 ADD DUP2 SWAP1 SSTORE POP DUP1 PUSH1 0x5 ADD SLOAD PUSH1 0x64 PUSH1 0x4 DUP5 PUSH1 0x3 ADD SLOAD DUP2 PUSH2 0x2474 JUMPI INVALID JUMPDEST DIV DUP2 PUSH2 0x247C JUMPI INVALID JUMPDEST DIV DUP5 PUSH1 0x3 ADD SLOAD DUP7 PUSH1 0x3 ADD SLOAD PUSH1 0x2 MUL ADD ADD MUL PUSH1 0x5 ADD DUP6 PUSH1 0x3 ADD DUP2 SWAP1 SSTORE POP DUP1 PUSH1 0x5 ADD SLOAD PUSH1 0x64 PUSH1 0x4 DUP5 PUSH1 0x4 ADD SLOAD DUP2 PUSH2 0x24AD JUMPI INVALID JUMPDEST DIV DUP2 PUSH2 0x24B5 JUMPI INVALID JUMPDEST DIV DUP5 PUSH1 0x4 ADD SLOAD DUP7 PUSH1 0x4 ADD SLOAD PUSH1 0x2 MUL ADD ADD MUL PUSH1 0x5 ADD DUP6 PUSH1 0x4 ADD DUP2 SWAP1 SSTORE POP DUP1 PUSH1 0x5 ADD SLOAD PUSH1 0x64 PUSH1 0x4 DUP5 PUSH1 0x5 ADD SLOAD DUP2 PUSH2 0x24E6 JUMPI INVALID JUMPDEST DIV DUP2 PUSH2 0x24EE JUMPI INVALID JUMPDEST DIV DUP5 PUSH1 0x5 ADD SLOAD DUP7 PUSH1 0x5 ADD SLOAD PUSH1 0x2 MUL ADD ADD MUL PUSH1 0x5 ADD DUP6 PUSH1 0x5 ADD DUP2 SWAP1 SSTORE POP POP POP POP POP POP POP POP JUMP JUMPDEST PUSH2 0x251B PUSH2 0x2F0B JUMP JUMPDEST PUSH1 0x1 PUSH1 0x1 PUSH1 0xA0 SHL SUB AND DUP3 PUSH1 0x1 PUSH1 0x1 PUSH1 0xA0 SHL SUB AND EQ ISZERO PUSH2 0x2581 JUMPI PUSH1 0x40 DUP1 MLOAD PUSH3 0x461BCD PUSH1 0xE5 SHL DUP2 MSTORE PUSH1 0x20 PUSH1 0x4 DUP3 ADD MSTORE PUSH1 0x19 PUSH1 0x24 DUP3 ADD MSTORE PUSH32 0x4552433732313A20617070726F766520746F2063616C6C657200000000000000 PUSH1 0x44 DUP3 ADD MSTORE SWAP1 MLOAD SWAP1 DUP2 SWAP1 SUB PUSH1 0x64 ADD SWAP1 REVERT JUMPDEST DUP1 PUSH1 0x5 PUSH1 0x0 PUSH2 0x258E PUSH2 0x2F0B JUMP JUMPDEST PUSH1 0x1 PUSH1 0x1 PUSH1 0xA0 SHL SUB SWAP1 DUP2 AND DUP3 MSTORE PUSH1 0x20 DUP1 DUP4 ADD SWAP4 SWAP1 SWAP4 MSTORE PUSH1 0x40 SWAP2 DUP3 ADD PUSH1 0x0 SWAP1 DUP2 KECCAK256 SWAP2 DUP8 AND DUP1 DUP3 MSTORE SWAP2 SWAP1 SWAP4 MSTORE SWAP2 KECCAK256 DUP1 SLOAD PUSH1 0xFF NOT AND SWAP3 ISZERO ISZERO SWAP3 SWAP1 SWAP3 OR SWAP1 SWAP2 SSTORE PUSH2 0x25D2 PUSH2 0x2F0B JUMP JUMPDEST PUSH1 0x40 DUP1 MLOAD DUP5 ISZERO ISZERO DUP2 MSTORE SWAP1 MLOAD PUSH1 0x1 PUSH1 0x1 PUSH1 0xA0 SHL SUB SWAP3 SWAP1 SWAP3 AND SWAP2 PUSH32 0x17307EAB39AB6107E8899845AD3D59BD9653F200F220920489CA2B5937696C31 SWAP2 DUP2 SWAP1 SUB PUSH1 0x20 ADD SWAP1 LOG3 POP POP JUMP JUMPDEST DUP1 MLOAD PUSH1 0x20 DUP2 DUP4 ADD DUP2 ADD DUP1 MLOAD PUSH1 0x18 DUP3 MSTORE SWAP3 DUP3 ADD SWAP4 DUP3 ADD SWAP4 SWAP1 SWAP4 KECCAK256 SWAP2 SWAP1 SWAP3 MSTORE DUP1 SLOAD PUSH1 0x40 DUP1 MLOAD PUSH1 0x2 PUSH1 0x1 DUP5 AND ISZERO PUSH2 0x100 MUL PUSH1 0x0 NOT ADD SWAP1 SWAP4 AND SWAP3 SWAP1 SWAP3 DIV PUSH1 0x1F DUP2 ADD DUP6 SWAP1 DIV DUP6 MUL DUP4 ADD DUP6 ADD SWAP1 SWAP2 MSTORE DUP1 DUP3 MSTORE SWAP1 SWAP3 DUP4 ADD DUP3 DUP3 DUP1 ISZERO PUSH2 0x26B7 JUMPI DUP1 PUSH1 0x1F LT PUSH2 0x268C JUMPI PUSH2 0x100 DUP1 DUP4 SLOAD DIV MUL DUP4 MSTORE SWAP2 PUSH1 0x20 ADD SWAP2 PUSH2 0x26B7 JUMP JUMPDEST DUP3 ADD SWAP2 SWAP1 PUSH1 0x0 MSTORE PUSH1 0x20 PUSH1 0x0 KECCAK256 SWAP1 JUMPDEST DUP2 SLOAD DUP2 MSTORE SWAP1 PUSH1 0x1 ADD SWAP1 PUSH1 0x20 ADD DUP1 DUP4 GT PUSH2 0x269A JUMPI DUP3 SWAP1 SUB PUSH1 0x1F AND DUP3 ADD SWAP2 JUMPDEST POP POP POP POP POP DUP2 JUMP JUMPDEST PUSH1 0x15 DUP2 DUP2 SLOAD DUP2 LT PUSH2 0x26CC JUMPI INVALID JUMPDEST PUSH1 0x0 SWAP2 DUP3 MSTORE PUSH1 0x20 SWAP2 DUP3 SWAP1 KECCAK256 ADD DUP1 SLOAD PUSH1 0x40 DUP1 MLOAD PUSH1 0x1F PUSH1 0x2 PUSH1 0x0 NOT PUSH2 0x100 PUSH1 0x1 DUP8 AND ISZERO MUL ADD SWAP1 SWAP5 AND SWAP4 SWAP1 SWAP4 DIV SWAP3 DUP4 ADD DUP6 SWAP1 DIV DUP6 MUL DUP2 ADD DUP6 ADD SWAP1 SWAP2 MSTORE DUP2 DUP2 MSTORE SWAP4 POP SWAP1 SWAP2 DUP4 ADD DUP3 DUP3 DUP1 ISZERO PUSH2 0x26B7 JUMPI DUP1 PUSH1 0x1F LT PUSH2 0x268C JUMPI PUSH2 0x100 DUP1 DUP4 SLOAD DIV MUL DUP4 MSTORE SWAP2 PUSH1 0x20 ADD SWAP2 PUSH2 0x26B7 JUMP JUMPDEST PUSH1 0x17 DUP2 DUP2 SLOAD DUP2 LT PUSH2 0x26CC JUMPI INVALID JUMPDEST PUSH2 0x274A PUSH2 0x1785 PUSH2 0x2F0B JUMP JUMPDEST PUSH2 0x2785 JUMPI PUSH1 0x40 MLOAD PUSH3 0x461BCD PUSH1 0xE5 SHL DUP2 MSTORE PUSH1 0x4 ADD DUP1 DUP1 PUSH1 0x20 ADD DUP3 DUP2 SUB DUP3 MSTORE PUSH1 0x31 DUP2 MSTORE PUSH1 0x20 ADD DUP1 PUSH2 0x4B40 PUSH1 0x31 SWAP2 CODECOPY PUSH1 0x40 ADD SWAP2 POP POP PUSH1 0x40 MLOAD DUP1 SWAP2 SUB SWAP1 REVERT JUMPDEST PUSH2 0x2791 DUP5 DUP5 DUP5 DUP5 PUSH2 0x37AA JUMP JUMPDEST POP POP POP POP JUMP JUMPDEST PUSH1 0x14 PUSH1 0x20 MSTORE DUP1 PUSH1 0x0 MSTORE PUSH1 0x40 PUSH1 0x0 KECCAK256 PUSH1 0x0 SWAP2 POP SWAP1 POP DUP1 PUSH1 0x0 ADD SLOAD SWAP1 DUP1 PUSH1 0x1 ADD SLOAD SWAP1 DUP1 PUSH1 0x2 ADD SLOAD SWAP1 DUP1 PUSH1 0x3 ADD SLOAD SWAP1 DUP1 PUSH1 0x4 ADD SLOAD SWAP1 DUP1 PUSH1 0x5 ADD SLOAD SWAP1 DUP1 PUSH1 0x6 ADD DUP1 SLOAD PUSH1 0x1 DUP2 PUSH1 0x1 AND ISZERO PUSH2 0x100 MUL SUB AND PUSH1 0x2 SWAP1 DIV DUP1 PUSH1 0x1F ADD PUSH1 0x20 DUP1 SWAP2 DIV MUL PUSH1 0x20 ADD PUSH1 0x40 MLOAD SWAP1 DUP2 ADD PUSH1 0x40 MSTORE DUP1 SWAP3 SWAP2 SWAP1 DUP2 DUP2 MSTORE PUSH1 0x20 ADD DUP3 DUP1 SLOAD PUSH1 0x1 DUP2 PUSH1 0x1 AND ISZERO PUSH2 0x100 MUL SUB AND PUSH1 0x2 SWAP1 DIV DUP1 ISZERO PUSH2 0x136E JUMPI DUP1 PUSH1 0x1F LT PUSH2 0x1343 JUMPI PUSH2 0x100 DUP1 DUP4 SLOAD DIV MUL DUP4 MSTORE SWAP2 PUSH1 0x20 ADD SWAP2 PUSH2 0x136E JUMP JUMPDEST PUSH1 0x60 PUSH2 0x2847 DUP3 PUSH2 0x2EF8 JUMP JUMPDEST PUSH2 0x2882 JUMPI PUSH1 0x40 MLOAD PUSH3 0x461BCD PUSH1 0xE5 SHL DUP2 MSTORE PUSH1 0x4 ADD DUP1 DUP1 PUSH1 0x20 ADD DUP3 DUP2 SUB DUP3 MSTORE PUSH1 0x2F DUP2 MSTORE PUSH1 0x20 ADD DUP1 PUSH2 0x4AF0 PUSH1 0x2F SWAP2 CODECOPY PUSH1 0x40 ADD SWAP2 POP POP PUSH1 0x40 MLOAD DUP1 SWAP2 SUB SWAP1 REVERT JUMPDEST PUSH1 0x0 DUP3 DUP2 MSTORE PUSH1 0x8 PUSH1 0x20 SWAP1 DUP2 MSTORE PUSH1 0x40 SWAP2 DUP3 SWAP1 KECCAK256 DUP1 SLOAD DUP4 MLOAD PUSH1 0x1F PUSH1 0x2 PUSH1 0x0 NOT PUSH2 0x100 PUSH1 0x1 DUP7 AND ISZERO MUL ADD SWAP1 SWAP4 AND SWAP3 SWAP1 SWAP3 DIV SWAP2 DUP3 ADD DUP5 SWAP1 DIV DUP5 MUL DUP2 ADD DUP5 ADD SWAP1 SWAP5 MSTORE DUP1 DUP5 MSTORE PUSH1 0x60 SWAP4 SWAP3 DUP4 ADD DUP3 DUP3 DUP1 ISZERO PUSH2 0x2917 JUMPI DUP1 PUSH1 0x1F LT PUSH2 0x28EC JUMPI PUSH2 0x100 DUP1 DUP4 SLOAD DIV MUL DUP4 MSTORE SWAP2 PUSH1 0x20 ADD SWAP2 PUSH2 0x2917 JUMP JUMPDEST DUP3 ADD SWAP2 SWAP1 PUSH1 0x0 MSTORE PUSH1 0x20 PUSH1 0x0 KECCAK256 SWAP1 JUMPDEST DUP2 SLOAD DUP2 MSTORE SWAP1 PUSH1 0x1 ADD SWAP1 PUSH1 0x20 ADD DUP1 DUP4 GT PUSH2 0x28FA JUMPI DUP3 SWAP1 SUB PUSH1 0x1F AND DUP3 ADD SWAP2 JUMPDEST POP POP POP POP POP SWAP1 POP PUSH1 0x60 PUSH2 0x2928 PUSH2 0x1D08 JUMP JUMPDEST SWAP1 POP DUP1 MLOAD PUSH1 0x0 EQ ISZERO PUSH2 0x293C JUMPI POP SWAP1 POP PUSH2 0x129E JUMP JUMPDEST DUP2 MLOAD ISZERO PUSH2 0x29FD JUMPI DUP1 DUP3 PUSH1 0x40 MLOAD PUSH1 0x20 ADD DUP1 DUP4 DUP1 MLOAD SWAP1 PUSH1 0x20 ADD SWAP1 DUP1 DUP4 DUP4 JUMPDEST PUSH1 0x20 DUP4 LT PUSH2 0x2977 JUMPI DUP1 MLOAD DUP3 MSTORE PUSH1 0x1F NOT SWAP1 SWAP3 ADD SWAP2 PUSH1 0x20 SWAP2 DUP3 ADD SWAP2 ADD PUSH2 0x2958 JUMP JUMPDEST MLOAD DUP2 MLOAD PUSH1 0x20 SWAP4 DUP5 SUB PUSH2 0x100 EXP PUSH1 0x0 NOT ADD DUP1 NOT SWAP1 SWAP3 AND SWAP2 AND OR SWAP1 MSTORE DUP6 MLOAD SWAP2 SWAP1 SWAP4 ADD SWAP3 DUP6 ADD SWAP2 POP DUP1 DUP4 DUP4 JUMPDEST PUSH1 0x20 DUP4 LT PUSH2 0x29BF JUMPI DUP1 MLOAD DUP3 MSTORE PUSH1 0x1F NOT SWAP1 SWAP3 ADD SWAP2 PUSH1 0x20 SWAP2 DUP3 ADD SWAP2 ADD PUSH2 0x29A0 JUMP JUMPDEST PUSH1 0x1 DUP4 PUSH1 0x20 SUB PUSH2 0x100 EXP SUB DUP1 NOT DUP3 MLOAD AND DUP2 DUP5 MLOAD AND DUP1 DUP3 OR DUP6 MSTORE POP POP POP POP POP POP SWAP1 POP ADD SWAP3 POP POP POP PUSH1 0x40 MLOAD PUSH1 0x20 DUP2 DUP4 SUB SUB DUP2 MSTORE SWAP1 PUSH1 0x40 MSTORE SWAP3 POP POP POP PUSH2 0x129E JUMP JUMPDEST DUP1 PUSH2 0x2A07 DUP6 PUSH2 0x37FC JUMP JUMPDEST PUSH1 0x40 MLOAD PUSH1 0x20 ADD DUP1 DUP4 DUP1 MLOAD SWAP1 PUSH1 0x20 ADD SWAP1 DUP1 DUP4 DUP4 JUMPDEST PUSH1 0x20 DUP4 LT PUSH2 0x2A39 JUMPI DUP1 MLOAD DUP3 MSTORE PUSH1 0x1F NOT SWAP1 SWAP3 ADD SWAP2 PUSH1 0x20 SWAP2 DUP3 ADD SWAP2 ADD PUSH2 0x2A1A JUMP JUMPDEST MLOAD DUP2 MLOAD PUSH1 0x20 SWAP4 DUP5 SUB PUSH2 0x100 EXP PUSH1 0x0 NOT ADD DUP1 NOT SWAP1 SWAP3 AND SWAP2 AND OR SWAP1 MSTORE DUP6 MLOAD SWAP2 SWAP1 SWAP4 ADD SWAP3 DUP6 ADD SWAP2 POP DUP1 DUP4 DUP4 JUMPDEST PUSH1 0x20 DUP4 LT PUSH2 0x2A81 JUMPI DUP1 MLOAD DUP3 MSTORE PUSH1 0x1F NOT SWAP1 SWAP3 ADD SWAP2 PUSH1 0x20 SWAP2 DUP3 ADD SWAP2 ADD PUSH2 0x2A62 JUMP JUMPDEST PUSH1 0x1 DUP4 PUSH1 0x20 SUB PUSH2 0x100 EXP SUB DUP1 NOT DUP3 MLOAD AND DUP2 DUP5 MLOAD AND DUP1 DUP3 OR DUP6 MSTORE POP POP POP POP POP POP SWAP1 POP ADD SWAP3 POP POP POP PUSH1 0x40 MLOAD PUSH1 0x20 DUP2 DUP4 SUB SUB DUP2 MSTORE SWAP1 PUSH1 0x40 MSTORE SWAP3 POP POP POP SWAP2 SWAP1 POP JUMP JUMPDEST PUSH1 0x10 SLOAD DUP2 JUMP JUMPDEST PUSH1 0x19 PUSH1 0x20 SWAP1 DUP2 MSTORE PUSH1 0x0 SWAP2 DUP3 MSTORE PUSH1 0x40 SWAP2 DUP3 SWAP1 KECCAK256 DUP1 SLOAD DUP4 MLOAD PUSH1 0x1F PUSH1 0x2 PUSH1 0x0 NOT PUSH2 0x100 PUSH1 0x1 DUP7 AND ISZERO MUL ADD SWAP1 SWAP4 AND SWAP3 SWAP1 SWAP3 DIV SWAP2 DUP3 ADD DUP5 SWAP1 DIV DUP5 MUL DUP2 ADD DUP5 ADD SWAP1 SWAP5 MSTORE DUP1 DUP5 MSTORE SWAP1 SWAP3 SWAP2 DUP4 SWAP2 SWAP1 DUP4 ADD DUP3 DUP3 DUP1 ISZERO PUSH2 0x2B5C JUMPI DUP1 PUSH1 0x1F LT PUSH2 0x2B31 JUMPI PUSH2 0x100 DUP1 DUP4 SLOAD DIV MUL DUP4 MSTORE SWAP2 PUSH1 0x20 ADD SWAP2 PUSH2 0x2B5C JUMP JUMPDEST DUP3 ADD SWAP2 SWAP1 PUSH1 0x0 MSTORE PUSH1 0x20 PUSH1 0x0 KECCAK256 SWAP1 JUMPDEST DUP2 SLOAD DUP2 MSTORE SWAP1 PUSH1 0x1 ADD SWAP1 PUSH1 0x20 ADD DUP1 DUP4 GT PUSH2 0x2B3F JUMPI DUP3 SWAP1 SUB PUSH1 0x1F AND DUP3 ADD SWAP2 JUMPDEST POP POP POP POP POP SWAP1 DUP1 PUSH1 0x1 ADD DUP1 SLOAD PUSH1 0x1 DUP2 PUSH1 0x1 AND ISZERO PUSH2 0x100 MUL SUB AND PUSH1 0x2 SWAP1 DIV DUP1 PUSH1 0x1F ADD PUSH1 0x20 DUP1 SWAP2 DIV MUL PUSH1 0x20 ADD PUSH1 0x40 MLOAD SWAP1 DUP2 ADD PUSH1 0x40 MSTORE DUP1 SWAP3 SWAP2 SWAP1 DUP2 DUP2 MSTORE PUSH1 0x20 ADD DUP3 DUP1 SLOAD PUSH1 0x1 DUP2 PUSH1 0x1 AND ISZERO PUSH2 0x100 MUL SUB AND PUSH1 0x2 SWAP1 DIV DUP1 ISZERO PUSH2 0x2BFA JUMPI DUP1 PUSH1 0x1F LT PUSH2 0x2BCF JUMPI PUSH2 0x100 DUP1 DUP4 SLOAD DIV MUL DUP4 MSTORE SWAP2 PUSH1 0x20 ADD SWAP2 PUSH2 0x2BFA JUMP JUMPDEST DUP3 ADD SWAP2 SWAP1 PUSH1 0x0 MSTORE PUSH1 0x20 PUSH1 0x0 KECCAK256 SWAP1 JUMPDEST DUP2 SLOAD DUP2 MSTORE SWAP1 PUSH1 0x1 ADD SWAP1 PUSH1 0x20 ADD DUP1 DUP4 GT PUSH2 0x2BDD JUMPI DUP3 SWAP1 SUB PUSH1 0x1F AND DUP3 ADD SWAP2 JUMPDEST POP POP POP PUSH1 0x2 DUP1 DUP6 ADD DUP1 SLOAD PUSH1 0x40 DUP1 MLOAD PUSH1 0x20 PUSH1 0x1F PUSH1 0x0 NOT PUSH2 0x100 PUSH1 0x1 DUP8 AND ISZERO MUL ADD SWAP1 SWAP5 AND SWAP6 SWAP1 SWAP6 DIV SWAP3 DUP4 ADD DUP6 SWAP1 DIV DUP6 MUL DUP2 ADD DUP6 ADD SWAP1 SWAP2 MSTORE DUP2 DUP2 MSTORE SWAP6 SWAP7 SWAP6 SWAP5 POP SWAP1 SWAP3 POP SWAP1 DUP4 ADD DUP3 DUP3 DUP1 ISZERO PUSH2 0x2C8C JUMPI DUP1 PUSH1 0x1F LT PUSH2 0x2C61 JUMPI PUSH2 0x100 DUP1 DUP4 SLOAD DIV MUL DUP4 MSTORE SWAP2 PUSH1 0x20 ADD SWAP2 PUSH2 0x2C8C JUMP JUMPDEST DUP3 ADD SWAP2 SWAP1 PUSH1 0x0 MSTORE PUSH1 0x20 PUSH1 0x0 KECCAK256 SWAP1 JUMPDEST DUP2 SLOAD DUP2 MSTORE SWAP1 PUSH1 0x1 ADD SWAP1 PUSH1 0x20 ADD DUP1 DUP4 GT PUSH2 0x2C6F JUMPI DUP3 SWAP1 SUB PUSH1 0x1F AND DUP3 ADD SWAP2 JUMPDEST POP POP POP POP PUSH1 0x3 DUP4 ADD DUP1 SLOAD PUSH1 0x40 DUP1 MLOAD PUSH1 0x20 PUSH1 0x2 PUSH1 0x1 DUP6 AND ISZERO PUSH2 0x100 MUL PUSH1 0x0 NOT ADD SWAP1 SWAP5 AND SWAP4 SWAP1 SWAP4 DIV PUSH1 0x1F DUP2 ADD DUP5 SWAP1 DIV DUP5 MUL DUP3 ADD DUP5 ADD SWAP1 SWAP3 MSTORE DUP2 DUP2 MSTORE SWAP5 SWAP6 SWAP5 SWAP4 POP SWAP1 DUP4 ADD DUP3 DUP3 DUP1 ISZERO PUSH2 0x2D1C JUMPI DUP1 PUSH1 0x1F LT PUSH2 0x2CF1 JUMPI PUSH2 0x100 DUP1 DUP4 SLOAD DIV MUL DUP4 MSTORE SWAP2 PUSH1 0x20 ADD SWAP2 PUSH2 0x2D1C JUMP JUMPDEST DUP3 ADD SWAP2 SWAP1 PUSH1 0x0 MSTORE PUSH1 0x20 PUSH1 0x0 KECCAK256 SWAP1 JUMPDEST DUP2 SLOAD DUP2 MSTORE SWAP1 PUSH1 0x1 ADD SWAP1 PUSH1 0x20 ADD DUP1 DUP4 GT PUSH2 0x2CFF JUMPI DUP3 SWAP1 SUB PUSH1 0x1F AND DUP3 ADD SWAP2 JUMPDEST POP POP POP POP POP SWAP1 POP DUP5 JUMP JUMPDEST PUSH1 0x1 PUSH1 0x1 PUSH1 0xA0 SHL SUB SWAP2 DUP3 AND PUSH1 0x0 SWAP1 DUP2 MSTORE PUSH1 0x5 PUSH1 0x20 SWAP1 DUP2 MSTORE PUSH1 0x40 DUP1 DUP4 KECCAK256 SWAP4 SWAP1 SWAP5 AND DUP3 MSTORE SWAP2 SWAP1 SWAP2 MSTORE KECCAK256 SLOAD PUSH1 0xFF AND SWAP1 JUMP JUMPDEST PUSH2 0x2D5C PUSH2 0x2F0B JUMP JUMPDEST PUSH1 0x1 PUSH1 0x1 PUSH1 0xA0 SHL SUB AND PUSH2 0x2D6D PUSH2 0x2203 JUMP JUMPDEST PUSH1 0x1 PUSH1 0x1 PUSH1 0xA0 SHL SUB AND EQ PUSH2 0x2DB6 JUMPI PUSH1 0x40 DUP1 MLOAD PUSH3 0x461BCD PUSH1 0xE5 SHL DUP2 MSTORE PUSH1 0x20 PUSH1 0x4 DUP3 ADD DUP2 SWAP1 MSTORE PUSH1 0x24 DUP3 ADD MSTORE PUSH1 0x0 DUP1 MLOAD PUSH1 0x20 PUSH2 0x4AA7 DUP4 CODECOPY DUP2 MLOAD SWAP2 MSTORE PUSH1 0x44 DUP3 ADD MSTORE SWAP1 MLOAD SWAP1 DUP2 SWAP1 SUB PUSH1 0x64 ADD SWAP1 REVERT JUMPDEST PUSH1 0x1 PUSH1 0x1 PUSH1 0xA0 SHL SUB DUP2 AND PUSH2 0x2DFB JUMPI PUSH1 0x40 MLOAD PUSH3 0x461BCD PUSH1 0xE5 SHL DUP2 MSTORE PUSH1 0x4 ADD DUP1 DUP1 PUSH1 0x20 ADD DUP3 DUP2 SUB DUP3 MSTORE PUSH1 0x26 DUP2 MSTORE PUSH1 0x20 ADD DUP1 PUSH2 0x4906 PUSH1 0x26 SWAP2 CODECOPY PUSH1 0x40 ADD SWAP2 POP POP PUSH1 0x40 MLOAD DUP1 SWAP2 SUB SWAP1 REVERT JUMPDEST PUSH1 0xB SLOAD PUSH1 0x40 MLOAD PUSH1 0x1 PUSH1 0x1 PUSH1 0xA0 SHL SUB DUP1 DUP5 AND SWAP3 AND SWAP1 PUSH32 0x8BE0079C531659141344CD1FD0A4F28419497F9722A3DAAFE3B4186F6B6457E0 SWAP1 PUSH1 0x0 SWAP1 LOG3 PUSH1 0xB DUP1 SLOAD PUSH1 0x1 PUSH1 0x1 PUSH1 0xA0 SHL SUB NOT AND PUSH1 0x1 PUSH1 0x1 PUSH1 0xA0 SHL SUB SWAP3 SWAP1 SWAP3 AND SWAP2 SWAP1 SWAP2 OR SWAP1 SSTORE JUMP JUMPDEST PUSH1 0x60 DUP2 PUSH8 0xFFFFFFFFFFFFFFFF DUP2 GT DUP1 ISZERO PUSH2 0x2E70 JUMPI PUSH1 0x0 DUP1 REVERT JUMPDEST POP PUSH1 0x40 MLOAD SWAP1 DUP1 DUP3 MSTORE DUP1 PUSH1 0x20 MUL PUSH1 0x20 ADD DUP3 ADD PUSH1 0x40 MSTORE DUP1 ISZERO PUSH2 0x2E9A JUMPI DUP2 PUSH1 0x20 ADD PUSH1 0x20 DUP3 MUL DUP1 CALLDATASIZE DUP4 CALLDATACOPY ADD SWAP1 POP JUMPDEST POP SWAP1 POP PUSH1 0x0 JUMPDEST DUP3 DUP2 LT ISZERO PUSH2 0x2EF1 JUMPI PUSH1 0x40 DUP1 MLOAD PUSH1 0x20 DUP1 DUP3 ADD DUP8 SWAP1 MSTORE DUP2 DUP4 ADD DUP5 SWAP1 MSTORE DUP3 MLOAD DUP1 DUP4 SUB DUP5 ADD DUP2 MSTORE PUSH1 0x60 SWAP1 SWAP3 ADD SWAP1 SWAP3 MSTORE DUP1 MLOAD SWAP2 ADD KECCAK256 DUP3 MLOAD DUP4 SWAP1 DUP4 SWAP1 DUP2 LT PUSH2 0x2EDE JUMPI INVALID JUMPDEST PUSH1 0x20 SWAP1 DUP2 MUL SWAP2 SWAP1 SWAP2 ADD ADD MSTORE PUSH1 0x1 ADD PUSH2 0x2EA0 JUMP JUMPDEST POP SWAP3 SWAP2 POP POP JUMP JUMPDEST PUSH1 0x0 PUSH2 0x1A16 PUSH1 0x2 DUP4 PUSH4 0xFFFFFFFF PUSH2 0x38D7 AND JUMP JUMPDEST CALLER SWAP1 JUMP JUMPDEST PUSH1 0x0 DUP2 DUP2 MSTORE PUSH1 0x4 PUSH1 0x20 MSTORE PUSH1 0x40 SWAP1 KECCAK256 DUP1 SLOAD PUSH1 0x1 PUSH1 0x1 PUSH1 0xA0 SHL SUB NOT AND PUSH1 0x1 PUSH1 0x1 PUSH1 0xA0 SHL SUB DUP5 AND SWAP1 DUP2 OR SWAP1 SWAP2 SSTORE DUP2 SWAP1 PUSH2 0x2F44 DUP3 PUSH2 0x1CDA JUMP JUMPDEST PUSH1 0x1 PUSH1 0x1 PUSH1 0xA0 SHL SUB AND PUSH32 0x8C5BE1E5EBEC7D5BD14F71427D1E84F3DD0314C0F7B2291E5B200AC8C7C3B925 PUSH1 0x40 MLOAD PUSH1 0x40 MLOAD DUP1 SWAP2 SUB SWAP1 LOG4 POP POP JUMP JUMPDEST PUSH1 0x0 PUSH2 0x2F88 DUP3 PUSH2 0x2EF8 JUMP JUMPDEST PUSH2 0x2FC3 JUMPI PUSH1 0x40 MLOAD PUSH3 0x461BCD PUSH1 0xE5 SHL DUP2 MSTORE PUSH1 0x4 ADD DUP1 DUP1 PUSH1 0x20 ADD DUP3 DUP2 SUB DUP3 MSTORE PUSH1 0x2C DUP2 MSTORE PUSH1 0x20 ADD DUP1 PUSH2 0x4976 PUSH1 0x2C SWAP2 CODECOPY PUSH1 0x40 ADD SWAP2 POP POP PUSH1 0x40 MLOAD DUP1 SWAP2 SUB SWAP1 REVERT JUMPDEST PUSH1 0x0 PUSH2 0x2FCE DUP4 PUSH2 0x1CDA JUMP JUMPDEST SWAP1 POP DUP1 PUSH1 0x1 PUSH1 0x1 PUSH1 0xA0 SHL SUB AND DUP5 PUSH1 0x1 PUSH1 0x1 PUSH1 0xA0 SHL SUB AND EQ DUP1 PUSH2 0x3009 JUMPI POP DUP4 PUSH1 0x1 PUSH1 0x1 PUSH1 0xA0 SHL SUB AND PUSH2 0x2FFE DUP5 PUSH2 0x1536 JUMP JUMPDEST PUSH1 0x1 PUSH1 0x1 PUSH1 0xA0 SHL SUB AND EQ JUMPDEST DUP1 PUSH2 0x3019 JUMPI POP PUSH2 0x3019 DUP2 DUP6 PUSH2 0x2D26 JUMP JUMPDEST SWAP5 SWAP4 POP POP POP POP JUMP JUMPDEST PUSH2 0x302A DUP3 PUSH2 0x2EF8 JUMP JUMPDEST PUSH2 0x3065 JUMPI PUSH1 0x40 MLOAD PUSH3 0x461BCD PUSH1 0xE5 SHL DUP2 MSTORE PUSH1 0x4 ADD DUP1 DUP1 PUSH1 0x20 ADD DUP3 DUP2 SUB DUP3 MSTORE PUSH1 0x2C DUP2 MSTORE PUSH1 0x20 ADD DUP1 PUSH2 0x4A7B PUSH1 0x2C SWAP2 CODECOPY PUSH1 0x40 ADD SWAP2 POP POP PUSH1 0x40 MLOAD DUP1 SWAP2 SUB SWAP1 REVERT JUMPDEST PUSH1 0x0 DUP3 DUP2 MSTORE PUSH1 0x8 PUSH1 0x20 SWAP1 DUP2 MSTORE PUSH1 0x40 SWAP1 SWAP2 KECCAK256 DUP3 MLOAD PUSH2 0x166E SWAP3 DUP5 ADD SWAP1 PUSH2 0x47C6 JUMP JUMPDEST PUSH1 0x0 PUSH2 0x1A16 DUP3 PUSH2 0x38E3 JUMP JUMPDEST DUP3 PUSH1 0x1 PUSH1 0x1 PUSH1 0xA0 SHL SUB AND PUSH2 0x30A2 DUP3 PUSH2 0x1CDA JUMP JUMPDEST PUSH1 0x1 PUSH1 0x1 PUSH1 0xA0 SHL SUB AND EQ PUSH2 0x30E7 JUMPI PUSH1 0x40 MLOAD PUSH3 0x461BCD PUSH1 0xE5 SHL DUP2 MSTORE PUSH1 0x4 ADD DUP1 DUP1 PUSH1 0x20 ADD DUP3 DUP2 SUB DUP3 MSTORE PUSH1 0x29 DUP2 MSTORE PUSH1 0x20 ADD DUP1 PUSH2 0x4AC7 PUSH1 0x29 SWAP2 CODECOPY PUSH1 0x40 ADD SWAP2 POP POP PUSH1 0x40 MLOAD DUP1 SWAP2 SUB SWAP1 REVERT JUMPDEST PUSH1 0x1 PUSH1 0x1 PUSH1 0xA0 SHL SUB DUP3 AND PUSH2 0x312C JUMPI PUSH1 0x40 MLOAD PUSH3 0x461BCD PUSH1 0xE5 SHL DUP2 MSTORE PUSH1 0x4 ADD DUP1 DUP1 PUSH1 0x20 ADD DUP3 DUP2 SUB DUP3 MSTORE PUSH1 0x24 DUP2 MSTORE PUSH1 0x20 ADD DUP1 PUSH2 0x492C PUSH1 0x24 SWAP2 CODECOPY PUSH1 0x40 ADD SWAP2 POP POP PUSH1 0x40 MLOAD DUP1 SWAP2 SUB SWAP1 REVERT JUMPDEST PUSH2 0x3137 DUP4 DUP4 DUP4 PUSH2 0x166E JUMP JUMPDEST PUSH2 0x3142 PUSH1 0x0 DUP3 PUSH2 0x2F0F JUMP JUMPDEST PUSH1 0x1 PUSH1 0x1 PUSH1 0xA0 SHL SUB DUP4 AND PUSH1 0x0 SWAP1 DUP2 MSTORE PUSH1 0x1 PUSH1 0x20 MSTORE PUSH1 0x40 SWAP1 KECCAK256 PUSH2 0x316A SWAP1 DUP3 PUSH4 0xFFFFFFFF PUSH2 0x38E7 AND JUMP JUMPDEST POP PUSH1 0x1 PUSH1 0x1 PUSH1 0xA0 SHL SUB DUP3 AND PUSH1 0x0 SWAP1 DUP2 MSTORE PUSH1 0x1 PUSH1 0x20 MSTORE PUSH1 0x40 SWAP1 KECCAK256 PUSH2 0x3193 SWAP1 DUP3 PUSH4 0xFFFFFFFF PUSH2 0x38F3 AND JUMP JUMPDEST POP PUSH2 0x31A6 PUSH1 0x2 DUP3 DUP5 PUSH4 0xFFFFFFFF PUSH2 0x38FF AND JUMP JUMPDEST POP DUP1 DUP3 PUSH1 0x1 PUSH1 0x1 PUSH1 0xA0 SHL SUB AND DUP5 PUSH1 0x1 PUSH1 0x1 PUSH1 0xA0 SHL SUB AND PUSH32 0xDDF252AD1BE2C89B69C2B068FC378DAA952BA7F163C4A11628F55A4DF523B3EF PUSH1 0x40 MLOAD PUSH1 0x40 MLOAD DUP1 SWAP2 SUB SWAP1 LOG4 POP POP POP JUMP JUMPDEST PUSH1 0x0 PUSH2 0x1A13 DUP4 DUP4 PUSH2 0x3915 JUMP JUMPDEST PUSH1 0x0 DUP1 DUP1 DUP1 PUSH2 0x3208 DUP7 DUP7 PUSH2 0x3979 JUMP JUMPDEST SWAP1 SWAP8 SWAP1 SWAP7 POP SWAP5 POP POP POP POP POP JUMP JUMPDEST PUSH1 0x0 PUSH2 0x3222 DUP5 DUP5 DUP5 PUSH2 0x39F4 JUMP JUMPDEST SWAP1 POP JUMPDEST SWAP4 SWAP3 POP POP POP JUMP JUMPDEST PUSH1 0x0 PUSH32 0x0 PUSH1 0x1 PUSH1 0x1 PUSH1 0xA0 SHL SUB AND PUSH4 0x4000AEA0 PUSH32 0x0 DUP6 DUP8 DUP7 PUSH1 0x40 MLOAD PUSH1 0x20 ADD DUP1 DUP4 DUP2 MSTORE PUSH1 0x20 ADD DUP3 DUP2 MSTORE PUSH1 0x20 ADD SWAP3 POP POP POP PUSH1 0x40 MLOAD PUSH1 0x20 DUP2 DUP4 SUB SUB DUP2 MSTORE SWAP1 PUSH1 0x40 MSTORE PUSH1 0x40 MLOAD DUP5 PUSH4 0xFFFFFFFF AND PUSH1 0xE0 SHL DUP2 MSTORE PUSH1 0x4 ADD DUP1 DUP5 PUSH1 0x1 PUSH1 0x1 PUSH1 0xA0 SHL SUB AND PUSH1 0x1 PUSH1 0x1 PUSH1 0xA0 SHL SUB AND DUP2 MSTORE PUSH1 0x20 ADD DUP4 DUP2 MSTORE PUSH1 0x20 ADD DUP1 PUSH1 0x20 ADD DUP3 DUP2 SUB DUP3 MSTORE DUP4 DUP2 DUP2 MLOAD DUP2 MSTORE PUSH1 0x20 ADD SWAP2 POP DUP1 MLOAD SWAP1 PUSH1 0x20 ADD SWAP1 DUP1 DUP4 DUP4 PUSH1 0x0 JUMPDEST DUP4 DUP2 LT ISZERO PUSH2 0x3311 JUMPI DUP2 DUP2 ADD MLOAD DUP4 DUP3 ADD MSTORE PUSH1 0x20 ADD PUSH2 0x32F9 JUMP JUMPDEST POP POP POP POP SWAP1 POP SWAP1 DUP2 ADD SWAP1 PUSH1 0x1F AND DUP1 ISZERO PUSH2 0x333E JUMPI DUP1 DUP3 SUB DUP1 MLOAD PUSH1 0x1 DUP4 PUSH1 0x20 SUB PUSH2 0x100 EXP SUB NOT AND DUP2 MSTORE PUSH1 0x20 ADD SWAP2 POP JUMPDEST POP SWAP5 POP POP POP POP POP PUSH1 0x20 PUSH1 0x40 MLOAD DUP1 DUP4 SUB DUP2 PUSH1 0x0 DUP8 DUP1 EXTCODESIZE ISZERO DUP1 ISZERO PUSH2 0x335F JUMPI PUSH1 0x0 DUP1 REVERT JUMPDEST POP GAS CALL ISZERO DUP1 ISZERO PUSH2 0x3373 JUMPI RETURNDATASIZE PUSH1 0x0 DUP1 RETURNDATACOPY RETURNDATASIZE PUSH1 0x0 REVERT JUMPDEST POP POP POP POP PUSH1 0x40 MLOAD RETURNDATASIZE PUSH1 0x20 DUP2 LT ISZERO PUSH2 0x3389 JUMPI PUSH1 0x0 DUP1 REVERT JUMPDEST POP POP PUSH1 0x0 DUP5 DUP2 MSTORE PUSH1 0xA PUSH1 0x20 MSTORE PUSH1 0x40 DUP2 KECCAK256 SLOAD PUSH2 0x33A9 SWAP1 DUP7 SWAP1 DUP6 SWAP1 ADDRESS SWAP1 PUSH2 0x3ABE JUMP JUMPDEST PUSH1 0x0 DUP7 DUP2 MSTORE PUSH1 0xA PUSH1 0x20 MSTORE PUSH1 0x40 SWAP1 KECCAK256 SLOAD SWAP1 SWAP2 POP PUSH2 0x33CC SWAP1 PUSH1 0x1 PUSH4 0xFFFFFFFF PUSH2 0x3B05 AND JUMP JUMPDEST PUSH1 0x0 DUP7 DUP2 MSTORE PUSH1 0xA PUSH1 0x20 MSTORE PUSH1 0x40 SWAP1 KECCAK256 SSTORE PUSH2 0x33E5 DUP6 DUP3 PUSH2 0x3B5F JUMP JUMPDEST SWAP6 SWAP5 POP POP POP POP POP JUMP JUMPDEST PUSH1 0x0 DUP3 DUP2 MSTORE PUSH1 0xC PUSH1 0x20 SWAP1 DUP2 MSTORE PUSH1 0x40 DUP1 DUP4 KECCAK256 SLOAD PUSH1 0x10 SLOAD PUSH1 0xD SWAP1 SWAP4 MSTORE SWAP3 KECCAK256 DUP2 SWAP1 SSTORE PUSH1 0x1 PUSH1 0x1 PUSH1 0xA0 SHL SUB SWAP1 SWAP2 AND SWAP1 PUSH2 0x3423 DUP3 DUP3 PUSH2 0x3B8B JUMP JUMPDEST PUSH1 0x60 PUSH2 0x3430 DUP5 PUSH1 0xB PUSH2 0x2E57 JUMP JUMPDEST SWAP1 POP PUSH1 0x0 PUSH1 0x15 DUP1 SLOAD SWAP1 POP DUP3 PUSH1 0x7 DUP2 MLOAD DUP2 LT PUSH2 0x3447 JUMPI INVALID JUMPDEST PUSH1 0x20 MUL PUSH1 0x20 ADD ADD MLOAD DUP2 PUSH2 0x3456 JUMPI INVALID JUMPDEST MOD SWAP1 POP PUSH1 0x60 PUSH1 0x15 DUP3 DUP2 SLOAD DUP2 LT PUSH2 0x3468 JUMPI INVALID JUMPDEST PUSH1 0x0 SWAP2 DUP3 MSTORE PUSH1 0x20 SWAP2 DUP3 SWAP1 KECCAK256 ADD DUP1 SLOAD PUSH1 0x40 DUP1 MLOAD PUSH1 0x1F PUSH1 0x2 PUSH1 0x0 NOT PUSH2 0x100 PUSH1 0x1 DUP8 AND ISZERO MUL ADD SWAP1 SWAP5 AND SWAP4 SWAP1 SWAP4 DIV SWAP3 DUP4 ADD DUP6 SWAP1 DIV DUP6 MUL DUP2 ADD DUP6 ADD SWAP1 SWAP2 MSTORE DUP2 DUP2 MSTORE SWAP3 DUP4 ADD DUP3 DUP3 DUP1 ISZERO PUSH2 0x34F6 JUMPI DUP1 PUSH1 0x1F LT PUSH2 0x34CB JUMPI PUSH2 0x100 DUP1 DUP4 SLOAD DIV MUL DUP4 MSTORE SWAP2 PUSH1 0x20 ADD SWAP2 PUSH2 0x34F6 JUMP JUMPDEST DUP3 ADD SWAP2 SWAP1 PUSH1 0x0 MSTORE PUSH1 0x20 PUSH1 0x0 KECCAK256 SWAP1 JUMPDEST DUP2 SLOAD DUP2 MSTORE SWAP1 PUSH1 0x1 ADD SWAP1 PUSH1 0x20 ADD DUP1 DUP4 GT PUSH2 0x34D9 JUMPI DUP3 SWAP1 SUB PUSH1 0x1F AND DUP3 ADD SWAP2 JUMPDEST POP POP POP POP POP SWAP1 POP PUSH1 0x60 DUP1 PUSH2 0x3509 DUP4 PUSH2 0x1A53 JUMP JUMPDEST SWAP2 POP SWAP2 POP PUSH1 0x60 PUSH1 0x17 DUP1 DUP1 SLOAD SWAP1 POP DUP8 PUSH1 0x8 DUP2 MLOAD DUP2 LT PUSH2 0x3523 JUMPI INVALID JUMPDEST PUSH1 0x20 MUL PUSH1 0x20 ADD ADD MLOAD DUP2 PUSH2 0x3532 JUMPI INVALID JUMPDEST MOD DUP2 SLOAD DUP2 LT PUSH2 0x353D JUMPI INVALID JUMPDEST PUSH1 0x0 SWAP2 DUP3 MSTORE PUSH1 0x20 SWAP2 DUP3 SWAP1 KECCAK256 ADD DUP1 SLOAD PUSH1 0x40 DUP1 MLOAD PUSH1 0x1F PUSH1 0x2 PUSH1 0x0 NOT PUSH2 0x100 PUSH1 0x1 DUP8 AND ISZERO MUL ADD SWAP1 SWAP5 AND SWAP4 SWAP1 SWAP4 DIV SWAP3 DUP4 ADD DUP6 SWAP1 DIV DUP6 MUL DUP2 ADD DUP6 ADD SWAP1 SWAP2 MSTORE DUP2 DUP2 MSTORE SWAP3 DUP4 ADD DUP3 DUP3 DUP1 ISZERO PUSH2 0x35CB JUMPI DUP1 PUSH1 0x1F LT PUSH2 0x35A0 JUMPI PUSH2 0x100 DUP1 DUP4 SLOAD DIV MUL DUP4 MSTORE SWAP2 PUSH1 0x20 ADD SWAP2 PUSH2 0x35CB JUMP JUMPDEST DUP3 ADD SWAP2 SWAP1 PUSH1 0x0 MSTORE PUSH1 0x20 PUSH1 0x0 KECCAK256 SWAP1 JUMPDEST DUP2 SLOAD DUP2 MSTORE SWAP1 PUSH1 0x1 ADD SWAP1 PUSH1 0x20 ADD DUP1 DUP4 GT PUSH2 0x35AE JUMPI DUP3 SWAP1 SUB PUSH1 0x1F AND DUP3 ADD SWAP2 JUMPDEST POP POP POP POP POP SWAP1 POP PUSH1 0x0 DUP1 SWAP1 POP PUSH1 0x0 PUSH2 0x1000 DUP9 PUSH1 0x9 DUP2 MLOAD DUP2 LT PUSH2 0x35E9 JUMPI INVALID JUMPDEST PUSH1 0x20 MUL PUSH1 0x20 ADD ADD MLOAD DUP2 PUSH2 0x35F8 JUMPI INVALID JUMPDEST MOD SWAP1 POP DUP1 PUSH2 0x3609 JUMPI PUSH1 0x1 SWAP2 POP PUSH2 0x360E JUMP JUMPDEST PUSH1 0x0 SWAP2 POP JUMPDEST PUSH1 0x0 PUSH1 0x64 DUP10 PUSH1 0xA DUP2 MLOAD DUP2 LT PUSH2 0x361F JUMPI INVALID JUMPDEST PUSH1 0x20 MUL PUSH1 0x20 ADD ADD MLOAD DUP2 PUSH2 0x362E JUMPI INVALID JUMPDEST PUSH1 0x40 DUP1 MLOAD PUSH1 0xC0 DUP2 ADD DUP3 MSTORE DUP11 DUP2 MSTORE DUP2 MLOAD DUP1 DUP4 ADD DUP4 MSTORE PUSH1 0x4 DUP1 DUP3 MSTORE PUSH4 0x4E6F6E65 PUSH1 0xE0 SHL PUSH1 0x20 DUP4 DUP2 ADD DUP3 SWAP1 MSTORE DUP1 DUP6 ADD SWAP4 SWAP1 SWAP4 MSTORE DUP10 ISZERO ISZERO DUP5 DUP7 ADD MSTORE DUP5 MLOAD DUP1 DUP7 ADD SWAP1 SWAP6 MSTORE SWAP1 DUP5 MSTORE DUP4 DUP3 ADD MSTORE PUSH1 0x60 DUP3 ADD SWAP3 SWAP1 SWAP3 MSTORE PUSH1 0x80 DUP2 ADD DUP9 SWAP1 MSTORE PUSH1 0x1 SWAP4 SWAP1 SWAP3 MOD DUP4 ADD PUSH1 0xA0 DUP4 ADD DUP2 SWAP1 MSTORE PUSH1 0x16 DUP1 SLOAD SWAP5 DUP6 ADD DUP2 SSTORE PUSH1 0x0 MSTORE DUP3 MLOAD DUP1 MLOAD SWAP2 SWAP6 POP SWAP3 SWAP4 PUSH1 0x6 MUL PUSH32 0xD833147D7DC355BA459FC788F669E58CFAF9DC25DDCD0702E87D69C7B5124289 ADD SWAP3 PUSH2 0x36DB SWAP3 DUP5 SWAP3 SWAP2 ADD SWAP1 PUSH2 0x47C6 JUMP JUMPDEST POP PUSH1 0x20 DUP3 DUP2 ADD MLOAD DUP1 MLOAD PUSH2 0x36F4 SWAP3 PUSH1 0x1 DUP6 ADD SWAP3 ADD SWAP1 PUSH2 0x47C6 JUMP JUMPDEST POP PUSH1 0x40 DUP3 ADD MLOAD PUSH1 0x2 DUP3 ADD DUP1 SLOAD PUSH1 0xFF NOT AND SWAP2 ISZERO ISZERO SWAP2 SWAP1 SWAP2 OR SWAP1 SSTORE PUSH1 0x60 DUP3 ADD MLOAD DUP1 MLOAD PUSH2 0x3728 SWAP2 PUSH1 0x3 DUP5 ADD SWAP2 PUSH1 0x20 SWAP1 SWAP2 ADD SWAP1 PUSH2 0x47C6 JUMP JUMPDEST POP PUSH1 0x80 DUP3 ADD MLOAD DUP1 MLOAD PUSH2 0x3744 SWAP2 PUSH1 0x4 DUP5 ADD SWAP2 PUSH1 0x20 SWAP1 SWAP2 ADD SWAP1 PUSH2 0x47C6 JUMP JUMPDEST POP PUSH1 0xA0 DUP3 ADD MLOAD DUP2 PUSH1 0x5 ADD SSTORE POP POP PUSH2 0x375C DUP10 DUP9 DUP13 PUSH2 0x3BA5 JUMP JUMPDEST PUSH2 0x3766 DUP8 DUP12 PUSH2 0x22FA JUMP JUMPDEST PUSH1 0x10 SLOAD PUSH1 0x40 MLOAD PUSH32 0x1C305A7C0734E599942A438CBC6C131D389D33D095D45E324422D102F837FE73 SWAP1 PUSH1 0x0 SWAP1 LOG2 POP POP PUSH1 0x10 DUP1 SLOAD PUSH1 0x1 ADD SWAP1 SSTORE POP POP POP POP POP POP POP POP POP POP POP JUMP JUMPDEST PUSH2 0x37B5 DUP5 DUP5 DUP5 PUSH2 0x308F JUMP JUMPDEST PUSH2 0x37C1 DUP5 DUP5 DUP5 DUP5 PUSH2 0x4124 JUMP JUMPDEST PUSH2 0x2791 JUMPI PUSH1 0x40 MLOAD PUSH3 0x461BCD PUSH1 0xE5 SHL DUP2 MSTORE PUSH1 0x4 ADD DUP1 DUP1 PUSH1 0x20 ADD DUP3 DUP2 SUB DUP3 MSTORE PUSH1 0x32 DUP2 MSTORE PUSH1 0x20 ADD DUP1 PUSH2 0x48D4 PUSH1 0x32 SWAP2 CODECOPY PUSH1 0x40 ADD SWAP2 POP POP PUSH1 0x40 MLOAD DUP1 SWAP2 SUB SWAP1 REVERT JUMPDEST PUSH1 0x60 DUP2 PUSH2 0x3821 JUMPI POP PUSH1 0x40 DUP1 MLOAD DUP1 DUP3 ADD SWAP1 SWAP2 MSTORE PUSH1 0x1 DUP2 MSTORE PUSH1 0x3 PUSH1 0xFC SHL PUSH1 0x20 DUP3 ADD MSTORE PUSH2 0x129E JUMP JUMPDEST DUP2 PUSH1 0x0 JUMPDEST DUP2 ISZERO PUSH2 0x3839 JUMPI PUSH1 0x1 ADD PUSH1 0xA DUP3 DIV SWAP2 POP PUSH2 0x3825 JUMP JUMPDEST PUSH1 0x60 DUP2 PUSH8 0xFFFFFFFFFFFFFFFF DUP2 GT DUP1 ISZERO PUSH2 0x3852 JUMPI PUSH1 0x0 DUP1 REVERT JUMPDEST POP PUSH1 0x40 MLOAD SWAP1 DUP1 DUP3 MSTORE DUP1 PUSH1 0x1F ADD PUSH1 0x1F NOT AND PUSH1 0x20 ADD DUP3 ADD PUSH1 0x40 MSTORE DUP1 ISZERO PUSH2 0x387D JUMPI PUSH1 0x20 DUP3 ADD DUP2 DUP1 CALLDATASIZE DUP4 CALLDATACOPY ADD SWAP1 POP JUMPDEST POP DUP6 SWAP4 POP SWAP1 POP PUSH1 0x0 NOT DUP3 ADD JUMPDEST DUP4 ISZERO PUSH2 0x38CE JUMPI PUSH1 0xA DUP5 MOD PUSH1 0x30 ADD PUSH1 0xF8 SHL DUP3 DUP3 DUP1 PUSH1 0x1 SWAP1 SUB SWAP4 POP DUP2 MLOAD DUP2 LT PUSH2 0x38AC JUMPI INVALID JUMPDEST PUSH1 0x20 ADD ADD SWAP1 PUSH1 0x1 PUSH1 0x1 PUSH1 0xF8 SHL SUB NOT AND SWAP1 DUP2 PUSH1 0x0 BYTE SWAP1 MSTORE8 POP PUSH1 0xA DUP5 DIV SWAP4 POP PUSH2 0x3889 JUMP JUMPDEST POP SWAP5 SWAP4 POP POP POP POP JUMP JUMPDEST PUSH1 0x0 PUSH2 0x1A13 DUP4 DUP4 PUSH2 0x42A4 JUMP JUMPDEST SLOAD SWAP1 JUMP JUMPDEST PUSH1 0x0 PUSH2 0x1A13 DUP4 DUP4 PUSH2 0x42BC JUMP JUMPDEST PUSH1 0x0 PUSH2 0x1A13 DUP4 DUP4 PUSH2 0x4382 JUMP JUMPDEST PUSH1 0x0 PUSH2 0x3222 DUP5 DUP5 PUSH1 0x1 PUSH1 0x1 PUSH1 0xA0 SHL SUB DUP6 AND PUSH2 0x43CC JUMP JUMPDEST DUP2 SLOAD PUSH1 0x0 SWAP1 DUP3 LT PUSH2 0x3957 JUMPI PUSH1 0x40 MLOAD PUSH3 0x461BCD PUSH1 0xE5 SHL DUP2 MSTORE PUSH1 0x4 ADD DUP1 DUP1 PUSH1 0x20 ADD DUP3 DUP2 SUB DUP3 MSTORE PUSH1 0x22 DUP2 MSTORE PUSH1 0x20 ADD DUP1 PUSH2 0x48B2 PUSH1 0x22 SWAP2 CODECOPY PUSH1 0x40 ADD SWAP2 POP POP PUSH1 0x40 MLOAD DUP1 SWAP2 SUB SWAP1 REVERT JUMPDEST DUP3 PUSH1 0x0 ADD DUP3 DUP2 SLOAD DUP2 LT PUSH2 0x3966 JUMPI INVALID JUMPDEST SWAP1 PUSH1 0x0 MSTORE PUSH1 0x20 PUSH1 0x0 KECCAK256 ADD SLOAD SWAP1 POP SWAP3 SWAP2 POP POP JUMP JUMPDEST DUP2 SLOAD PUSH1 0x0 SWAP1 DUP2 SWAP1 DUP4 LT PUSH2 0x39BD JUMPI PUSH1 0x40 MLOAD PUSH3 0x461BCD PUSH1 0xE5 SHL DUP2 MSTORE PUSH1 0x4 ADD DUP1 DUP1 PUSH1 0x20 ADD DUP3 DUP2 SUB DUP3 MSTORE PUSH1 0x22 DUP2 MSTORE PUSH1 0x20 ADD DUP1 PUSH2 0x4A2D PUSH1 0x22 SWAP2 CODECOPY PUSH1 0x40 ADD SWAP2 POP POP PUSH1 0x40 MLOAD DUP1 SWAP2 SUB SWAP1 REVERT JUMPDEST PUSH1 0x0 DUP5 PUSH1 0x0 ADD DUP5 DUP2 SLOAD DUP2 LT PUSH2 0x39CE JUMPI INVALID JUMPDEST SWAP1 PUSH1 0x0 MSTORE PUSH1 0x20 PUSH1 0x0 KECCAK256 SWAP1 PUSH1 0x2 MUL ADD SWAP1 POP DUP1 PUSH1 0x0 ADD SLOAD DUP2 PUSH1 0x1 ADD SLOAD SWAP3 POP SWAP3 POP POP SWAP3 POP SWAP3 SWAP1 POP JUMP JUMPDEST PUSH1 0x0 DUP3 DUP2 MSTORE PUSH1 0x1 DUP5 ADD PUSH1 0x20 MSTORE PUSH1 0x40 DUP2 KECCAK256 SLOAD DUP3 DUP2 PUSH2 0x3A8F JUMPI PUSH1 0x40 MLOAD PUSH3 0x461BCD PUSH1 0xE5 SHL DUP2 MSTORE PUSH1 0x4 ADD DUP1 DUP1 PUSH1 0x20 ADD DUP3 DUP2 SUB DUP3 MSTORE DUP4 DUP2 DUP2 MLOAD DUP2 MSTORE PUSH1 0x20 ADD SWAP2 POP DUP1 MLOAD SWAP1 PUSH1 0x20 ADD SWAP1 DUP1 DUP4 DUP4 PUSH1 0x0 JUMPDEST DUP4 DUP2 LT ISZERO PUSH2 0x3A54 JUMPI DUP2 DUP2 ADD MLOAD DUP4 DUP3 ADD MSTORE PUSH1 0x20 ADD PUSH2 0x3A3C JUMP JUMPDEST POP POP POP POP SWAP1 POP SWAP1 DUP2 ADD SWAP1 PUSH1 0x1F AND DUP1 ISZERO PUSH2 0x3A81 JUMPI DUP1 DUP3 SUB DUP1 MLOAD PUSH1 0x1 DUP4 PUSH1 0x20 SUB PUSH2 0x100 EXP SUB NOT AND DUP2 MSTORE PUSH1 0x20 ADD SWAP2 POP JUMPDEST POP SWAP3 POP POP POP PUSH1 0x40 MLOAD DUP1 SWAP2 SUB SWAP1 REVERT JUMPDEST POP DUP5 PUSH1 0x0 ADD PUSH1 0x1 DUP3 SUB DUP2 SLOAD DUP2 LT PUSH2 0x3AA2 JUMPI INVALID JUMPDEST SWAP1 PUSH1 0x0 MSTORE PUSH1 0x20 PUSH1 0x0 KECCAK256 SWAP1 PUSH1 0x2 MUL ADD PUSH1 0x1 ADD SLOAD SWAP2 POP POP SWAP4 SWAP3 POP POP POP JUMP JUMPDEST PUSH1 0x40 DUP1 MLOAD PUSH1 0x20 DUP1 DUP3 ADD SWAP7 SWAP1 SWAP7 MSTORE DUP1 DUP3 ADD SWAP5 SWAP1 SWAP5 MSTORE PUSH1 0x1 PUSH1 0x1 PUSH1 0xA0 SHL SUB SWAP3 SWAP1 SWAP3 AND PUSH1 0x60 DUP5 ADD MSTORE PUSH1 0x80 DUP1 DUP5 ADD SWAP2 SWAP1 SWAP2 MSTORE DUP2 MLOAD DUP1 DUP5 SUB SWAP1 SWAP2 ADD DUP2 MSTORE PUSH1 0xA0 SWAP1 SWAP3 ADD SWAP1 MSTORE DUP1 MLOAD SWAP2 ADD KECCAK256 SWAP1 JUMP JUMPDEST PUSH1 0x0 DUP3 DUP3 ADD DUP4 DUP2 LT ISZERO PUSH2 0x1A13 JUMPI PUSH1 0x40 DUP1 MLOAD PUSH3 0x461BCD PUSH1 0xE5 SHL DUP2 MSTORE PUSH1 0x20 PUSH1 0x4 DUP3 ADD MSTORE PUSH1 0x1B PUSH1 0x24 DUP3 ADD MSTORE PUSH32 0x536166654D6174683A206164646974696F6E206F766572666C6F770000000000 PUSH1 0x44 DUP3 ADD MSTORE SWAP1 MLOAD SWAP1 DUP2 SWAP1 SUB PUSH1 0x64 ADD SWAP1 REVERT JUMPDEST PUSH1 0x40 DUP1 MLOAD PUSH1 0x20 DUP1 DUP3 ADD SWAP5 SWAP1 SWAP5 MSTORE DUP1 DUP3 ADD SWAP3 SWAP1 SWAP3 MSTORE DUP1 MLOAD DUP1 DUP4 SUB DUP3 ADD DUP2 MSTORE PUSH1 0x60 SWAP1 SWAP3 ADD SWAP1 MSTORE DUP1 MLOAD SWAP2 ADD KECCAK256 SWAP1 JUMP JUMPDEST PUSH2 0x17D0 DUP3 DUP3 PUSH1 0x40 MLOAD DUP1 PUSH1 0x20 ADD PUSH1 0x40 MSTORE DUP1 PUSH1 0x0 DUP2 MSTORE POP PUSH2 0x4463 JUMP JUMPDEST PUSH1 0x60 DUP1 PUSH2 0x3BB1 DUP5 PUSH2 0x1A53 JUMP JUMPDEST SWAP2 POP SWAP2 POP PUSH2 0x3BBD PUSH2 0x4844 JUMP JUMPDEST PUSH1 0x11 DUP6 PUSH1 0x40 MLOAD DUP1 DUP3 DUP1 MLOAD SWAP1 PUSH1 0x20 ADD SWAP1 DUP1 DUP4 DUP4 JUMPDEST PUSH1 0x20 DUP4 LT PUSH2 0x3BEF JUMPI DUP1 MLOAD DUP3 MSTORE PUSH1 0x1F NOT SWAP1 SWAP3 ADD SWAP2 PUSH1 0x20 SWAP2 DUP3 ADD SWAP2 ADD PUSH2 0x3BD0 JUMP JUMPDEST MLOAD DUP2 MLOAD PUSH1 0x0 NOT PUSH1 0x20 SWAP5 DUP6 SUB PUSH2 0x100 SWAP1 DUP2 EXP DUP3 ADD SWAP3 DUP4 AND SWAP3 NOT SWAP4 SWAP1 SWAP4 AND SWAP2 SWAP1 SWAP2 OR SWAP1 SWAP3 MSTORE SWAP5 SWAP1 SWAP3 ADD SWAP7 DUP8 MSTORE PUSH1 0x40 DUP1 MLOAD SWAP8 DUP9 SWAP1 SUB DUP3 ADD DUP9 KECCAK256 PUSH2 0x140 DUP10 ADD DUP3 MSTORE DUP1 SLOAD DUP10 MSTORE PUSH1 0x1 DUP2 DUP2 ADD SLOAD DUP11 DUP6 ADD MSTORE PUSH1 0x2 DUP1 DUP4 ADD SLOAD DUP12 DUP6 ADD MSTORE PUSH1 0x3 DUP4 ADD SLOAD PUSH1 0x60 DUP13 ADD MSTORE PUSH1 0x4 DUP4 ADD SLOAD PUSH1 0x80 DUP13 ADD MSTORE PUSH1 0x5 DUP4 ADD SLOAD PUSH1 0xA0 DUP13 ADD MSTORE PUSH1 0x6 DUP4 ADD DUP1 SLOAD DUP6 MLOAD PUSH1 0x1F SWAP5 DUP3 AND ISZERO SWAP1 SWAP11 MUL SWAP1 SWAP8 ADD SWAP1 SWAP7 AND DIV SWAP1 DUP2 ADD DUP5 SWAP1 DIV DUP5 MUL DUP8 ADD DUP5 ADD SWAP1 SWAP3 MSTORE DUP2 DUP7 MSTORE SWAP7 POP PUSH1 0xC0 DUP9 ADD SWAP6 POP SWAP2 SWAP3 POP DUP4 ADD DUP3 DUP3 DUP1 ISZERO PUSH2 0x3CE8 JUMPI DUP1 PUSH1 0x1F LT PUSH2 0x3CBD JUMPI PUSH2 0x100 DUP1 DUP4 SLOAD DIV MUL DUP4 MSTORE SWAP2 PUSH1 0x20 ADD SWAP2 PUSH2 0x3CE8 JUMP JUMPDEST DUP3 ADD SWAP2 SWAP1 PUSH1 0x0 MSTORE PUSH1 0x20 PUSH1 0x0 KECCAK256 SWAP1 JUMPDEST DUP2 SLOAD DUP2 MSTORE SWAP1 PUSH1 0x1 ADD SWAP1 PUSH1 0x20 ADD DUP1 DUP4 GT PUSH2 0x3CCB JUMPI DUP3 SWAP1 SUB PUSH1 0x1F AND DUP3 ADD SWAP2 JUMPDEST POP POP POP SWAP2 DUP4 MSTORE POP POP PUSH1 0x7 DUP3 ADD DUP1 SLOAD PUSH1 0x40 DUP1 MLOAD PUSH1 0x20 PUSH1 0x2 PUSH1 0x1 DUP6 AND ISZERO PUSH2 0x100 MUL PUSH1 0x0 NOT ADD SWAP1 SWAP5 AND SWAP4 SWAP1 SWAP4 DIV PUSH1 0x1F DUP2 ADD DUP5 SWAP1 DIV DUP5 MUL DUP3 ADD DUP5 ADD SWAP1 SWAP3 MSTORE DUP2 DUP2 MSTORE SWAP4 DUP3 ADD SWAP4 SWAP3 SWAP2 DUP4 ADD DUP3 DUP3 DUP1 ISZERO PUSH2 0x3D7C JUMPI DUP1 PUSH1 0x1F LT PUSH2 0x3D51 JUMPI PUSH2 0x100 DUP1 DUP4 SLOAD DIV MUL DUP4 MSTORE SWAP2 PUSH1 0x20 ADD SWAP2 PUSH2 0x3D7C JUMP JUMPDEST DUP3 ADD SWAP2 SWAP1 PUSH1 0x0 MSTORE PUSH1 0x20 PUSH1 0x0 KECCAK256 SWAP1 JUMPDEST DUP2 SLOAD DUP2 MSTORE SWAP1 PUSH1 0x1 ADD SWAP1 PUSH1 0x20 ADD DUP1 DUP4 GT PUSH2 0x3D5F JUMPI DUP3 SWAP1 SUB PUSH1 0x1F AND DUP3 ADD SWAP2 JUMPDEST POP POP POP SWAP2 DUP4 MSTORE POP POP PUSH1 0x8 DUP3 ADD SLOAD PUSH1 0x20 DUP1 DUP4 ADD SWAP2 SWAP1 SWAP2 MSTORE PUSH1 0x9 DUP4 ADD DUP1 SLOAD PUSH1 0x40 DUP1 MLOAD PUSH1 0x1F PUSH1 0x2 PUSH1 0x0 NOT PUSH2 0x100 PUSH1 0x1 DUP8 AND ISZERO MUL ADD SWAP1 SWAP5 AND SWAP4 SWAP1 SWAP4 DIV SWAP3 DUP4 ADD DUP6 SWAP1 DIV DUP6 MUL DUP2 ADD DUP6 ADD DUP3 MSTORE DUP3 DUP2 MSTORE SWAP5 ADD SWAP4 SWAP3 DUP4 ADD DUP3 DUP3 DUP1 ISZERO PUSH2 0x3E1A JUMPI DUP1 PUSH1 0x1F LT PUSH2 0x3DEF JUMPI PUSH2 0x100 DUP1 DUP4 SLOAD DIV MUL DUP4 MSTORE SWAP2 PUSH1 0x20 ADD SWAP2 PUSH2 0x3E1A JUMP JUMPDEST DUP3 ADD SWAP2 SWAP1 PUSH1 0x0 MSTORE PUSH1 0x20 PUSH1 0x0 KECCAK256 SWAP1 JUMPDEST DUP2 SLOAD DUP2 MSTORE SWAP1 PUSH1 0x1 ADD SWAP1 PUSH1 0x20 ADD DUP1 DUP4 GT PUSH2 0x3DFD JUMPI DUP3 SWAP1 SUB PUSH1 0x1F AND DUP3 ADD SWAP2 JUMPDEST POP POP POP POP POP DUP2 MSTORE POP POP SWAP1 POP PUSH1 0x0 PUSH1 0x1F DUP8 PUSH1 0x1 DUP2 MLOAD DUP2 LT PUSH2 0x3E36 JUMPI INVALID JUMPDEST PUSH1 0x20 MUL PUSH1 0x20 ADD ADD MLOAD DUP2 PUSH2 0x3E45 JUMPI INVALID JUMPDEST MOD PUSH1 0x1 ADD SWAP1 POP PUSH1 0x0 PUSH1 0x1F DUP9 PUSH1 0x2 DUP2 MLOAD DUP2 LT PUSH2 0x3E5C JUMPI INVALID JUMPDEST PUSH1 0x20 MUL PUSH1 0x20 ADD ADD MLOAD DUP2 PUSH2 0x3E6B JUMPI INVALID JUMPDEST MOD PUSH1 0x1 ADD SWAP1 POP PUSH1 0x0 PUSH1 0x1F DUP10 PUSH1 0x3 DUP2 MLOAD DUP2 LT PUSH2 0x3E82 JUMPI INVALID JUMPDEST PUSH1 0x20 MUL PUSH1 0x20 ADD ADD MLOAD DUP2 PUSH2 0x3E91 JUMPI INVALID JUMPDEST MOD PUSH1 0x1 ADD SWAP1 POP PUSH1 0x0 PUSH1 0x1F DUP11 PUSH1 0x4 DUP2 MLOAD DUP2 LT PUSH2 0x3EA8 JUMPI INVALID JUMPDEST PUSH1 0x20 MUL PUSH1 0x20 ADD ADD MLOAD DUP2 PUSH2 0x3EB7 JUMPI INVALID JUMPDEST MOD PUSH1 0x1 ADD SWAP1 POP PUSH1 0x0 PUSH1 0x1F DUP12 PUSH1 0x5 DUP2 MLOAD DUP2 LT PUSH2 0x3ECE JUMPI INVALID JUMPDEST PUSH1 0x20 MUL PUSH1 0x20 ADD ADD MLOAD DUP2 PUSH2 0x3EDD JUMPI INVALID JUMPDEST MOD PUSH1 0x1 ADD SWAP1 POP PUSH1 0x0 PUSH1 0x1F DUP13 PUSH1 0x6 DUP2 MLOAD DUP2 LT PUSH2 0x3EF4 JUMPI INVALID JUMPDEST PUSH1 0x20 MUL PUSH1 0x20 ADD ADD MLOAD DUP2 PUSH2 0x3F03 JUMPI INVALID JUMPDEST MOD PUSH1 0x1 ADD SWAP1 POP PUSH2 0x3F11 PUSH2 0x4844 JUMP JUMPDEST PUSH1 0x40 MLOAD DUP1 PUSH2 0x140 ADD PUSH1 0x40 MSTORE DUP1 DUP9 DUP2 MSTORE PUSH1 0x20 ADD DUP8 DUP2 MSTORE PUSH1 0x20 ADD DUP7 DUP2 MSTORE PUSH1 0x20 ADD DUP6 DUP2 MSTORE PUSH1 0x20 ADD DUP5 DUP2 MSTORE PUSH1 0x20 ADD DUP4 DUP2 MSTORE PUSH1 0x20 ADD DUP12 DUP2 MSTORE PUSH1 0x20 ADD DUP11 DUP2 MSTORE PUSH1 0x20 ADD DUP10 PUSH2 0x100 ADD MLOAD DUP2 MSTORE PUSH1 0x20 ADD DUP14 DUP2 MSTORE POP SWAP1 POP PUSH2 0x3F66 PUSH2 0x4844 JUMP JUMPDEST PUSH1 0x40 MLOAD DUP1 PUSH2 0x140 ADD PUSH1 0x40 MSTORE DUP1 PUSH1 0x0 DUP2 MSTORE PUSH1 0x20 ADD PUSH1 0x0 DUP2 MSTORE PUSH1 0x20 ADD PUSH1 0x0 DUP2 MSTORE PUSH1 0x20 ADD PUSH1 0x0 DUP2 MSTORE PUSH1 0x20 ADD PUSH1 0x0 DUP2 MSTORE PUSH1 0x20 ADD PUSH1 0x0 DUP2 MSTORE PUSH1 0x20 ADD DUP13 DUP2 MSTORE PUSH1 0x20 ADD DUP12 DUP2 MSTORE PUSH1 0x20 ADD DUP11 PUSH2 0x100 ADD MLOAD DUP2 MSTORE PUSH1 0x20 ADD DUP15 DUP2 MSTORE POP SWAP1 POP DUP2 PUSH1 0x14 PUSH1 0x0 DUP15 DUP2 MSTORE PUSH1 0x20 ADD SWAP1 DUP2 MSTORE PUSH1 0x20 ADD PUSH1 0x0 KECCAK256 PUSH1 0x0 DUP3 ADD MLOAD DUP2 PUSH1 0x0 ADD SSTORE PUSH1 0x20 DUP3 ADD MLOAD DUP2 PUSH1 0x1 ADD SSTORE PUSH1 0x40 DUP3 ADD MLOAD DUP2 PUSH1 0x2 ADD SSTORE PUSH1 0x60 DUP3 ADD MLOAD DUP2 PUSH1 0x3 ADD SSTORE PUSH1 0x80 DUP3 ADD MLOAD DUP2 PUSH1 0x4 ADD SSTORE PUSH1 0xA0 DUP3 ADD MLOAD DUP2 PUSH1 0x5 ADD SSTORE PUSH1 0xC0 DUP3 ADD MLOAD DUP2 PUSH1 0x6 ADD SWAP1 DUP1 MLOAD SWAP1 PUSH1 0x20 ADD SWAP1 PUSH2 0x4025 SWAP3 SWAP2 SWAP1 PUSH2 0x47C6 JUMP JUMPDEST POP PUSH1 0xE0 DUP3 ADD MLOAD DUP1 MLOAD PUSH2 0x4041 SWAP2 PUSH1 0x7 DUP5 ADD SWAP2 PUSH1 0x20 SWAP1 SWAP2 ADD SWAP1 PUSH2 0x47C6 JUMP JUMPDEST POP PUSH2 0x100 DUP3 ADD MLOAD PUSH1 0x8 DUP3 ADD SSTORE PUSH2 0x120 DUP3 ADD MLOAD DUP1 MLOAD PUSH2 0x4069 SWAP2 PUSH1 0x9 DUP5 ADD SWAP2 PUSH1 0x20 SWAP1 SWAP2 ADD SWAP1 PUSH2 0x47C6 JUMP JUMPDEST POP POP POP PUSH1 0x0 DUP13 DUP2 MSTORE PUSH1 0x13 PUSH1 0x20 SWAP1 DUP2 MSTORE PUSH1 0x40 SWAP2 DUP3 SWAP1 KECCAK256 DUP4 MLOAD DUP2 SSTORE DUP2 DUP5 ADD MLOAD PUSH1 0x1 DUP3 ADD SSTORE SWAP2 DUP4 ADD MLOAD PUSH1 0x2 DUP4 ADD SSTORE PUSH1 0x60 DUP4 ADD MLOAD PUSH1 0x3 DUP4 ADD SSTORE PUSH1 0x80 DUP4 ADD MLOAD PUSH1 0x4 DUP4 ADD SSTORE PUSH1 0xA0 DUP4 ADD MLOAD PUSH1 0x5 DUP4 ADD SSTORE PUSH1 0xC0 DUP4 ADD MLOAD DUP1 MLOAD DUP5 SWAP4 SWAP3 PUSH2 0x40CD SWAP3 PUSH1 0x6 DUP6 ADD SWAP3 SWAP2 ADD SWAP1 PUSH2 0x47C6 JUMP JUMPDEST POP PUSH1 0xE0 DUP3 ADD MLOAD DUP1 MLOAD PUSH2 0x40E9 SWAP2 PUSH1 0x7 DUP5 ADD SWAP2 PUSH1 0x20 SWAP1 SWAP2 ADD SWAP1 PUSH2 0x47C6 JUMP JUMPDEST POP PUSH2 0x100 DUP3 ADD MLOAD PUSH1 0x8 DUP3 ADD SSTORE PUSH2 0x120 DUP3 ADD MLOAD DUP1 MLOAD PUSH2 0x4111 SWAP2 PUSH1 0x9 DUP5 ADD SWAP2 PUSH1 0x20 SWAP1 SWAP2 ADD SWAP1 PUSH2 0x47C6 JUMP JUMPDEST POP POP POP POP POP POP POP POP POP POP POP POP POP POP POP POP POP JUMP JUMPDEST PUSH1 0x0 PUSH2 0x4138 DUP5 PUSH1 0x1 PUSH1 0x1 PUSH1 0xA0 SHL SUB AND PUSH2 0x44B5 JUMP JUMPDEST PUSH2 0x4144 JUMPI POP PUSH1 0x1 PUSH2 0x3019 JUMP JUMPDEST PUSH1 0x60 PUSH2 0x426A PUSH4 0xA85BD01 PUSH1 0xE1 SHL PUSH2 0x4159 PUSH2 0x2F0B JUMP JUMPDEST DUP9 DUP8 DUP8 PUSH1 0x40 MLOAD PUSH1 0x24 ADD DUP1 DUP6 PUSH1 0x1 PUSH1 0x1 PUSH1 0xA0 SHL SUB AND PUSH1 0x1 PUSH1 0x1 PUSH1 0xA0 SHL SUB AND DUP2 MSTORE PUSH1 0x20 ADD DUP5 PUSH1 0x1 PUSH1 0x1 PUSH1 0xA0 SHL SUB AND PUSH1 0x1 PUSH1 0x1 PUSH1 0xA0 SHL SUB AND DUP2 MSTORE PUSH1 0x20 ADD DUP4 DUP2 MSTORE PUSH1 0x20 ADD DUP1 PUSH1 0x20 ADD DUP3 DUP2 SUB DUP3 MSTORE DUP4 DUP2 DUP2 MLOAD DUP2 MSTORE PUSH1 0x20 ADD SWAP2 POP DUP1 MLOAD SWAP1 PUSH1 0x20 ADD SWAP1 DUP1 DUP4 DUP4 PUSH1 0x0 JUMPDEST DUP4 DUP2 LT ISZERO PUSH2 0x41D2 JUMPI DUP2 DUP2 ADD MLOAD DUP4 DUP3 ADD MSTORE PUSH1 0x20 ADD PUSH2 0x41BA JUMP JUMPDEST POP POP POP POP SWAP1 POP SWAP1 DUP2 ADD SWAP1 PUSH1 0x1F AND DUP1 ISZERO PUSH2 0x41FF JUMPI DUP1 DUP3 SUB DUP1 MLOAD PUSH1 0x1 DUP4 PUSH1 0x20 SUB PUSH2 0x100 EXP SUB NOT AND DUP2 MSTORE PUSH1 0x20 ADD SWAP2 POP JUMPDEST POP SWAP6 POP POP POP POP POP POP PUSH1 0x40 MLOAD PUSH1 0x20 DUP2 DUP4 SUB SUB DUP2 MSTORE SWAP1 PUSH1 0x40 MSTORE SWAP1 PUSH1 0x1 PUSH1 0x1 PUSH1 0xE0 SHL SUB NOT AND PUSH1 0x20 DUP3 ADD DUP1 MLOAD PUSH1 0x1 PUSH1 0x1 PUSH1 0xE0 SHL SUB DUP4 DUP2 DUP4 AND OR DUP4 MSTORE POP POP POP POP PUSH1 0x40 MLOAD DUP1 PUSH1 0x60 ADD PUSH1 0x40 MSTORE DUP1 PUSH1 0x32 DUP2 MSTORE PUSH1 0x20 ADD PUSH2 0x48D4 PUSH1 0x32 SWAP2 CODECOPY PUSH1 0x1 PUSH1 0x1 PUSH1 0xA0 SHL SUB DUP9 AND SWAP2 SWAP1 PUSH4 0xFFFFFFFF PUSH2 0x44BB AND JUMP JUMPDEST SWAP1 POP PUSH1 0x0 DUP2 DUP1 PUSH1 0x20 ADD SWAP1 MLOAD PUSH1 0x20 DUP2 LT ISZERO PUSH2 0x4283 JUMPI PUSH1 0x0 DUP1 REVERT JUMPDEST POP MLOAD PUSH1 0x1 PUSH1 0x1 PUSH1 0xE0 SHL SUB NOT AND PUSH4 0xA85BD01 PUSH1 0xE1 SHL EQ SWAP3 POP POP POP SWAP5 SWAP4 POP POP POP POP JUMP JUMPDEST PUSH1 0x0 SWAP1 DUP2 MSTORE PUSH1 0x1 SWAP2 SWAP1 SWAP2 ADD PUSH1 0x20 MSTORE PUSH1 0x40 SWAP1 KECCAK256 SLOAD ISZERO ISZERO SWAP1 JUMP JUMPDEST PUSH1 0x0 DUP2 DUP2 MSTORE PUSH1 0x1 DUP4 ADD PUSH1 0x20 MSTORE PUSH1 0x40 DUP2 KECCAK256 SLOAD DUP1 ISZERO PUSH2 0x4378 JUMPI DUP4 SLOAD PUSH1 0x0 NOT DUP1 DUP4 ADD SWAP2 SWAP1 DUP2 ADD SWAP1 PUSH1 0x0 SWAP1 DUP8 SWAP1 DUP4 SWAP1 DUP2 LT PUSH2 0x42EF JUMPI INVALID JUMPDEST SWAP1 PUSH1 0x0 MSTORE PUSH1 0x20 PUSH1 0x0 KECCAK256 ADD SLOAD SWAP1 POP DUP1 DUP8 PUSH1 0x0 ADD DUP5 DUP2 SLOAD DUP2 LT PUSH2 0x430C JUMPI INVALID JUMPDEST PUSH1 0x0 SWAP2 DUP3 MSTORE PUSH1 0x20 DUP1 DUP4 KECCAK256 SWAP1 SWAP2 ADD SWAP3 SWAP1 SWAP3 SSTORE DUP3 DUP2 MSTORE PUSH1 0x1 DUP10 DUP2 ADD SWAP1 SWAP3 MSTORE PUSH1 0x40 SWAP1 KECCAK256 SWAP1 DUP5 ADD SWAP1 SSTORE DUP7 SLOAD DUP8 SWAP1 DUP1 PUSH2 0x433C JUMPI INVALID JUMPDEST PUSH1 0x1 SWAP1 SUB DUP2 DUP2 SWAP1 PUSH1 0x0 MSTORE PUSH1 0x20 PUSH1 0x0 KECCAK256 ADD PUSH1 0x0 SWAP1 SSTORE SWAP1 SSTORE DUP7 PUSH1 0x1 ADD PUSH1 0x0 DUP8 DUP2 MSTORE PUSH1 0x20 ADD SWAP1 DUP2 MSTORE PUSH1 0x20 ADD PUSH1 0x0 KECCAK256 PUSH1 0x0 SWAP1 SSTORE PUSH1 0x1 SWAP5 POP POP POP POP POP PUSH2 0x1A16 JUMP JUMPDEST PUSH1 0x0 SWAP2 POP POP PUSH2 0x1A16 JUMP JUMPDEST PUSH1 0x0 PUSH2 0x438E DUP4 DUP4 PUSH2 0x42A4 JUMP JUMPDEST PUSH2 0x43C4 JUMPI POP DUP2 SLOAD PUSH1 0x1 DUP2 DUP2 ADD DUP5 SSTORE PUSH1 0x0 DUP5 DUP2 MSTORE PUSH1 0x20 DUP1 DUP3 KECCAK256 SWAP1 SWAP4 ADD DUP5 SWAP1 SSTORE DUP5 SLOAD DUP5 DUP3 MSTORE DUP3 DUP7 ADD SWAP1 SWAP4 MSTORE PUSH1 0x40 SWAP1 KECCAK256 SWAP2 SWAP1 SWAP2 SSTORE PUSH2 0x1A16 JUMP JUMPDEST POP PUSH1 0x0 PUSH2 0x1A16 JUMP JUMPDEST PUSH1 0x0 DUP3 DUP2 MSTORE PUSH1 0x1 DUP5 ADD PUSH1 0x20 MSTORE PUSH1 0x40 DUP2 KECCAK256 SLOAD DUP1 PUSH2 0x4431 JUMPI POP POP PUSH1 0x40 DUP1 MLOAD DUP1 DUP3 ADD DUP3 MSTORE DUP4 DUP2 MSTORE PUSH1 0x20 DUP1 DUP3 ADD DUP5 DUP2 MSTORE DUP7 SLOAD PUSH1 0x1 DUP2 DUP2 ADD DUP10 SSTORE PUSH1 0x0 DUP10 DUP2 MSTORE DUP5 DUP2 KECCAK256 SWAP6 MLOAD PUSH1 0x2 SWAP1 SWAP4 MUL SWAP1 SWAP6 ADD SWAP2 DUP3 SSTORE SWAP2 MLOAD SWAP1 DUP3 ADD SSTORE DUP7 SLOAD DUP7 DUP5 MSTORE DUP2 DUP9 ADD SWAP1 SWAP3 MSTORE SWAP3 SWAP1 SWAP2 KECCAK256 SSTORE PUSH2 0x3225 JUMP JUMPDEST DUP3 DUP6 PUSH1 0x0 ADD PUSH1 0x1 DUP4 SUB DUP2 SLOAD DUP2 LT PUSH2 0x4444 JUMPI INVALID JUMPDEST SWAP1 PUSH1 0x0 MSTORE PUSH1 0x20 PUSH1 0x0 KECCAK256 SWAP1 PUSH1 0x2 MUL ADD PUSH1 0x1 ADD DUP2 SWAP1 SSTORE POP PUSH1 0x0 SWAP2 POP POP PUSH2 0x3225 JUMP JUMPDEST PUSH2 0x446D DUP4 DUP4 PUSH2 0x44CA JUMP JUMPDEST PUSH2 0x447A PUSH1 0x0 DUP5 DUP5 DUP5 PUSH2 0x4124 JUMP JUMPDEST PUSH2 0x166E JUMPI PUSH1 0x40 MLOAD PUSH3 0x461BCD PUSH1 0xE5 SHL DUP2 MSTORE PUSH1 0x4 ADD DUP1 DUP1 PUSH1 0x20 ADD DUP3 DUP2 SUB DUP3 MSTORE PUSH1 0x32 DUP2 MSTORE PUSH1 0x20 ADD DUP1 PUSH2 0x48D4 PUSH1 0x32 SWAP2 CODECOPY PUSH1 0x40 ADD SWAP2 POP POP PUSH1 0x40 MLOAD DUP1 SWAP2 SUB SWAP1 REVERT JUMPDEST EXTCODESIZE ISZERO ISZERO SWAP1 JUMP JUMPDEST PUSH1 0x60 PUSH2 0x3222 DUP5 DUP5 PUSH1 0x0 DUP6 PUSH2 0x4604 JUMP JUMPDEST PUSH1 0x1 PUSH1 0x1 PUSH1 0xA0 SHL SUB DUP3 AND PUSH2 0x4525 JUMPI PUSH1 0x40 DUP1 MLOAD PUSH3 0x461BCD PUSH1 0xE5 SHL DUP2 MSTORE PUSH1 0x20 PUSH1 0x4 DUP3 ADD DUP2 SWAP1 MSTORE PUSH1 0x24 DUP3 ADD MSTORE PUSH32 0x4552433732313A206D696E7420746F20746865207A65726F2061646472657373 PUSH1 0x44 DUP3 ADD MSTORE SWAP1 MLOAD SWAP1 DUP2 SWAP1 SUB PUSH1 0x64 ADD SWAP1 REVERT JUMPDEST PUSH2 0x452E DUP2 PUSH2 0x2EF8 JUMP JUMPDEST ISZERO PUSH2 0x4580 JUMPI PUSH1 0x40 DUP1 MLOAD PUSH3 0x461BCD PUSH1 0xE5 SHL DUP2 MSTORE PUSH1 0x20 PUSH1 0x4 DUP3 ADD MSTORE PUSH1 0x1C PUSH1 0x24 DUP3 ADD MSTORE PUSH32 0x4552433732313A20746F6B656E20616C7265616479206D696E74656400000000 PUSH1 0x44 DUP3 ADD MSTORE SWAP1 MLOAD SWAP1 DUP2 SWAP1 SUB PUSH1 0x64 ADD SWAP1 REVERT JUMPDEST PUSH2 0x458C PUSH1 0x0 DUP4 DUP4 PUSH2 0x166E JUMP JUMPDEST PUSH1 0x1 PUSH1 0x1 PUSH1 0xA0 SHL SUB DUP3 AND PUSH1 0x0 SWAP1 DUP2 MSTORE PUSH1 0x1 PUSH1 0x20 MSTORE PUSH1 0x40 SWAP1 KECCAK256 PUSH2 0x45B4 SWAP1 DUP3 PUSH4 0xFFFFFFFF PUSH2 0x38F3 AND JUMP JUMPDEST POP PUSH2 0x45C7 PUSH1 0x2 DUP3 DUP5 PUSH4 0xFFFFFFFF PUSH2 0x38FF AND JUMP JUMPDEST POP PUSH1 0x40 MLOAD DUP2 SWAP1 PUSH1 0x1 PUSH1 0x1 PUSH1 0xA0 SHL SUB DUP5 AND SWAP1 PUSH1 0x0 SWAP1 PUSH32 0xDDF252AD1BE2C89B69C2B068FC378DAA952BA7F163C4A11628F55A4DF523B3EF SWAP1 DUP3 SWAP1 LOG4 POP POP JUMP JUMPDEST PUSH1 0x60 DUP3 SELFBALANCE LT ISZERO PUSH2 0x4645 JUMPI PUSH1 0x40 MLOAD PUSH3 0x461BCD PUSH1 0xE5 SHL DUP2 MSTORE PUSH1 0x4 ADD DUP1 DUP1 PUSH1 0x20 ADD DUP3 DUP2 SUB DUP3 MSTORE PUSH1 0x26 DUP2 MSTORE PUSH1 0x20 ADD DUP1 PUSH2 0x4950 PUSH1 0x26 SWAP2 CODECOPY PUSH1 0x40 ADD SWAP2 POP POP PUSH1 0x40 MLOAD DUP1 SWAP2 SUB SWAP1 REVERT JUMPDEST PUSH2 0x464E DUP6 PUSH2 0x44B5 JUMP JUMPDEST PUSH2 0x469F JUMPI PUSH1 0x40 DUP1 MLOAD PUSH3 0x461BCD PUSH1 0xE5 SHL DUP2 MSTORE PUSH1 0x20 PUSH1 0x4 DUP3 ADD MSTORE PUSH1 0x1D PUSH1 0x24 DUP3 ADD MSTORE PUSH32 0x416464726573733A2063616C6C20746F206E6F6E2D636F6E7472616374000000 PUSH1 0x44 DUP3 ADD MSTORE SWAP1 MLOAD SWAP1 DUP2 SWAP1 SUB PUSH1 0x64 ADD SWAP1 REVERT JUMPDEST PUSH1 0x0 PUSH1 0x60 DUP7 PUSH1 0x1 PUSH1 0x1 PUSH1 0xA0 SHL SUB AND DUP6 DUP8 PUSH1 0x40 MLOAD DUP1 DUP3 DUP1 MLOAD SWAP1 PUSH1 0x20 ADD SWAP1 DUP1 DUP4 DUP4 JUMPDEST PUSH1 0x20 DUP4 LT PUSH2 0x46DE JUMPI DUP1 MLOAD DUP3 MSTORE PUSH1 0x1F NOT SWAP1 SWAP3 ADD SWAP2 PUSH1 0x20 SWAP2 DUP3 ADD SWAP2 ADD PUSH2 0x46BF JUMP JUMPDEST PUSH1 0x1 DUP4 PUSH1 0x20 SUB PUSH2 0x100 EXP SUB DUP1 NOT DUP3 MLOAD AND DUP2 DUP5 MLOAD AND DUP1 DUP3 OR DUP6 MSTORE POP POP POP POP POP POP SWAP1 POP ADD SWAP2 POP POP PUSH1 0x0 PUSH1 0x40 MLOAD DUP1 DUP4 SUB DUP2 DUP6 DUP8 GAS CALL SWAP3 POP POP POP RETURNDATASIZE DUP1 PUSH1 0x0 DUP2 EQ PUSH2 0x4740 JUMPI PUSH1 0x40 MLOAD SWAP2 POP PUSH1 0x1F NOT PUSH1 0x3F RETURNDATASIZE ADD AND DUP3 ADD PUSH1 0x40 MSTORE RETURNDATASIZE DUP3 MSTORE RETURNDATASIZE PUSH1 0x0 PUSH1 0x20 DUP5 ADD RETURNDATACOPY PUSH2 0x4745 JUMP JUMPDEST PUSH1 0x60 SWAP2 POP JUMPDEST POP SWAP2 POP SWAP2 POP PUSH2 0x4755 DUP3 DUP3 DUP7 PUSH2 0x4760 JUMP JUMPDEST SWAP8 SWAP7 POP POP POP POP POP POP POP JUMP JUMPDEST PUSH1 0x60 DUP4 ISZERO PUSH2 0x476F JUMPI POP DUP2 PUSH2 0x3225 JUMP JUMPDEST DUP3 MLOAD ISZERO PUSH2 0x477F JUMPI DUP3 MLOAD DUP1 DUP5 PUSH1 0x20 ADD REVERT JUMPDEST PUSH1 0x40 MLOAD PUSH3 0x461BCD PUSH1 0xE5 SHL DUP2 MSTORE PUSH1 0x20 PUSH1 0x4 DUP3 ADD DUP2 DUP2 MSTORE DUP5 MLOAD PUSH1 0x24 DUP5 ADD MSTORE DUP5 MLOAD DUP6 SWAP4 SWAP2 SWAP3 DUP4 SWAP3 PUSH1 0x44 ADD SWAP2 SWAP1 DUP6 ADD SWAP1 DUP1 DUP4 DUP4 PUSH1 0x0 DUP4 ISZERO PUSH2 0x3A54 JUMPI DUP2 DUP2 ADD MLOAD DUP4 DUP3 ADD MSTORE PUSH1 0x20 ADD PUSH2 0x3A3C JUMP JUMPDEST DUP3 DUP1 SLOAD PUSH1 0x1 DUP2 PUSH1 0x1 AND ISZERO PUSH2 0x100 MUL SUB AND PUSH1 0x2 SWAP1 DIV SWAP1 PUSH1 0x0 MSTORE PUSH1 0x20 PUSH1 0x0 KECCAK256 SWAP1 PUSH1 0x1F ADD PUSH1 0x20 SWAP1 DIV DUP2 ADD SWAP3 DUP3 PUSH1 0x1F LT PUSH2 0x4807 JUMPI DUP1 MLOAD PUSH1 0xFF NOT AND DUP4 DUP1 ADD OR DUP6 SSTORE PUSH2 0x4834 JUMP JUMPDEST DUP3 DUP1 ADD PUSH1 0x1 ADD DUP6 SSTORE DUP3 ISZERO PUSH2 0x4834 JUMPI SWAP2 DUP3 ADD JUMPDEST DUP3 DUP2 GT ISZERO PUSH2 0x4834 JUMPI DUP3 MLOAD DUP3 SSTORE SWAP2 PUSH1 0x20 ADD SWAP2 SWAP1 PUSH1 0x1 ADD SWAP1 PUSH2 0x4819 JUMP JUMPDEST POP PUSH2 0x4840 SWAP3 SWAP2 POP PUSH2 0x4897 JUMP JUMPDEST POP SWAP1 JUMP JUMPDEST PUSH1 0x40 MLOAD DUP1 PUSH2 0x140 ADD PUSH1 0x40 MSTORE DUP1 PUSH1 0x0 DUP2 MSTORE PUSH1 0x20 ADD PUSH1 0x0 DUP2 MSTORE PUSH1 0x20 ADD PUSH1 0x0 DUP2 MSTORE PUSH1 0x20 ADD PUSH1 0x0 DUP2 MSTORE PUSH1 0x20 ADD PUSH1 0x0 DUP2 MSTORE PUSH1 0x20 ADD PUSH1 0x0 DUP2 MSTORE PUSH1 0x20 ADD PUSH1 0x60 DUP2 MSTORE PUSH1 0x20 ADD PUSH1 0x60 DUP2 MSTORE PUSH1 0x20 ADD PUSH1 0x0 DUP2 MSTORE PUSH1 0x20 ADD PUSH1 0x60 DUP2 MSTORE POP SWAP1 JUMP JUMPDEST PUSH2 0x1533 SWAP2 SWAP1 JUMPDEST DUP1 DUP3 GT ISZERO PUSH2 0x4840 JUMPI PUSH1 0x0 DUP2 SSTORE PUSH1 0x1 ADD PUSH2 0x489D JUMP INVALID GASLIMIT PUSH15 0x756D657261626C655365743A20696E PUSH5 0x6578206F75 PUSH21 0x206F6620626F756E64734552433732313A20747261 PUSH15 0x7366657220746F206E6F6E20455243 CALLDATACOPY ORIGIN BALANCE MSTORE PUSH6 0x636569766572 KECCAK256 PUSH10 0x6D706C656D656E746572 0x4F PUSH24 0x6E61626C653A206E6577206F776E65722069732074686520 PUSH27 0x65726F20616464726573734552433732313A207472616E73666572 KECCAK256 PUSH21 0x6F20746865207A65726F2061646472657373416464 PUSH19 0x6573733A20696E73756666696369656E742062 PUSH2 0x6C61 PUSH15 0x636520666F722063616C6C45524337 ORIGIN BALANCE GASPRICE KECCAK256 PUSH16 0x70657261746F7220717565727920666F PUSH19 0x206E6F6E6578697374656E7420746F6B656E45 MSTORE NUMBER CALLDATACOPY ORIGIN BALANCE GASPRICE KECCAK256 PUSH2 0x7070 PUSH19 0x6F76652063616C6C6572206973206E6F74206F PUSH24 0x6E6572206E6F7220617070726F76656420666F7220616C6C GASLIMIT MSTORE NUMBER CALLDATACOPY ORIGIN BALANCE GASPRICE KECCAK256 PUSH3 0x616C61 PUSH15 0x636520717565727920666F72207468 PUSH6 0x207A65726F20 PUSH2 0x6464 PUSH19 0x6573734552433732313A206F776E6572207175 PUSH6 0x727920666F72 KECCAK256 PUSH15 0x6F6E6578697374656E7420746F6B65 PUSH15 0x456E756D657261626C654D61703A20 PUSH10 0x6E646578206F7574206F PUSH7 0x20626F756E6473 GASLIMIT MSTORE NUMBER CALLDATACOPY ORIGIN BALANCE GASPRICE KECCAK256 PUSH2 0x7070 PUSH19 0x6F76656420717565727920666F72206E6F6E65 PUSH25 0x697374656E7420746F6B656E4552433732314D657461646174 PUSH2 0x3A20 SSTORE MSTORE 0x49 KECCAK256 PUSH20 0x6574206F66206E6F6E6578697374656E7420746F PUSH12 0x656E4F776E61626C653A2063 PUSH2 0x6C6C PUSH6 0x72206973206E PUSH16 0x7420746865206F776E65724552433732 BALANCE GASPRICE KECCAK256 PUSH21 0x72616E73666572206F6620746F6B656E2074686174 KECCAK256 PUSH10 0x73206E6F74206F776E45 MSTORE NUMBER CALLDATACOPY ORIGIN BALANCE 0x4D PUSH6 0x746164617461 GASPRICE KECCAK256 SSTORE MSTORE 0x49 KECCAK256 PUSH18 0x7565727920666F72206E6F6E657869737465 PUSH15 0x7420746F6B656E4552433732313A20 PUSH2 0x7070 PUSH19 0x6F76616C20746F2063757272656E74206F776E PUSH6 0x724552433732 BALANCE GASPRICE KECCAK256 PUSH21 0x72616E736665722063616C6C6572206973206E6F74 KECCAK256 PUSH16 0x776E6572206E6F7220617070726F7665 PUSH5 0xA264697066 PUSH20 0x582212206E5C726FDB5D3EC5F0E265BFA33E5032 SUB 0xCA SLT 0xBF STOP MUL GT PUSH20 0xACDD2E455DE0B85D64736F6C6343000606003300 ","sha1":"a293f8ce533ca057edf8c38b69bc4627bc61e53e","source":"pragma solidity 0.6.6;\n\nimport \"@openzeppelin/contracts/token/ERC721/ERC721.sol\";\nimport \"@openzeppelin/contracts/access/Ownable.sol\";\nimport \"@chainlink/contracts/src/v0.6/VRFConsumerBase.sol\";\n\ncontract Pokemon is ERC721, VRFConsumerBase, Ownable {\n    using SafeMathChainlink for uint256;\n    mapping(bytes32 => address) public requestIdToSender;\n    mapping(bytes32 => uint256) public requestIdToTokenId;\n    event requestedPokemon(bytes32 indexed requestId); \n    event PokemonCreated(uint256 indexed tokenId); \n    bytes32 internal keyHash;\n    uint256 internal link_fee;\n    uint256 public tokenCounter;\n\n    mapping(string => PokemonBaseStats) public pokemonNameToPokemonBaseStats;\n    mapping(uint256 => PokemonBaseStats) public tokenIdToBattleStats;\n    mapping(uint256 => PokemonBaseStats) public tokenIdToEvs;\n    mapping(uint256 => PokemonBaseStats) public tokenIdToIvs;\n\n    string[] public listOfPokemonNames;\n    UniquePokemon[] public uniquePokemon;\n    string[] public natures;\n    mapping(string => string) public pokemonNameToImageURI;\n    mapping(uint256 => moves) public tokenIdToMoves;\n\n\n\n    struct PokemonBaseStats {\n        uint256 hp;\n        uint256 atk;\n        uint256 def;\n        uint256 spa;\n        uint256 spd;\n        uint256 spe;\n        string type1;\n        string type2;\n        uint256 number; \n        string pokemonName;\n    }\n\n    struct moves {\n        string move1;\n        string move2;\n        string move3;\n        string move4;\n    }\n\n    struct UniquePokemon {\n        string nickname;\n        // eh, solidity gonna get better at this\n        string item;\n        bool shiny;\n        string ability;\n        string nature;\n        uint256 level; \n    }\n    \n    constructor(address _VRFCoordinator, address _LinkToken, bytes32 _keyhash, uint256 _link_fee)\n    public \n    VRFConsumerBase(_VRFCoordinator, _LinkToken)\n    ERC721(\"Pokémon\", \"PKMON\")\n    {\n        tokenCounter = 0;\n        keyHash = _keyhash;\n        link_fee = _link_fee;\n        natures = [\"Hardy\", \"Lonely\", \"Brave\", \"Adamant\", \"Naughty\", \"Bold\", \"Docile\", \"Relaxed\", \"Impish\", \"Lax\", \"Timid\", \"Hasty\", \"Serious\", \"Jolly\", \"Naive\", \"Modest\", \"Mild\", \"Quiet\", \"Bashful\", \"Rash\", \"Calm\", \"Gentle\", \"Sassy\", \"Careful\", \"Quirky\"];\n        // listOfPokemonNames = [\"Bulbasaur\", \"Ivysaur\", \"Venusaur\", \"Mega Venusaur\", \"Gigantamax Venusaur\", \"Charmander\", \"Charmeleon\", \"Charizard\", \"Mega Charizard X\", \"Mega Charizard Y\", \"Gigantamax Charizard\", \"Squirtle\", \"Wartortle\", \"Blastoise\", \"Mega Blastoise\", \"Gigantamax Blasoise\", \"Caterpie\", \"Metapod\", \"Butterfree\", \"Gigantamax Butterfree\", \"Weedle\", \"Kakuna\", \"Beedrill\", \"Mega Beedrill\", \"Pidgey\", \"Pidgeotto\", \"Pidgeot\", \"Mega Pidgeot\", \"Rattata\", \"Alolan Rattata\", \"Raticate\", \"Alolan Raticate\", \"Spearow\", \"Fearow\", \"Ekans\", \"Arbok\", \"Pikachu\", \"Gigantamax Pikachu\", \"Raichu\", \"Alolan Raichu\", \"Sandshrew\", \"Alolan Sandshrew\", \"Sandslash\", \"Alolan Sandslash\", \"Nidoran♀\", \"Nidorina\", \"Nidoqueen\", \"Nidoran♂\", \"Nidorino\", \"Nidoking\", \"Clefairy\", \"Clefable\", \"Vulpix\", \"Alolan Vulpix\", \"Ninetales\", \"Alolan Ninetales\", \"Jigglypuff\", \"Wigglytuff\", \"Zubat\", \"Golbat\", \"Oddish\", \"Gloom\", \"Vileplume\", \"Paras\", \"Parasect\", \"Venonat\", \"Venomoth\", \"Diglett\", \"Alolan Diglett\", \"Dugtrio\", \"Alolan Dugtrio\", \"Meowth\", \"Gigantamax Meowth\", \"Alolan Meowth\", \"Galarian Meowth\", \"Persian\", \"Alolan Persian\", \"Psyduck\", \"Golduck\", \"Mankey\", \"Primeape\", \"Growlithe\", \"Arcanine\", \"Poliwag\", \"Poliwhirl\", \"Poliwrath\", \"Abra\", \"Kadabra\", \"Alakazam\", \"Mega Alakazam\", \"Machop\", \"Machoke\", \"Machamp\", \"Gigantamax Machamp\", \"Bellsprout\", \"Weepinbell\", \"Victreebel\", \"Tentacool\", \"Tentacruel\", \"Geodude\", \"Alolan Geodude\", \"Graveler\", \"Alolan Graveler\", \"Golem\", \"Alolan Golem\", \"Ponyta\", \"Galarian Ponyta\", \"Rapidash\", \"Galarian Rapidash\", \"Slowpoke\", \"Galarian Slowpoke\", \"Slowbro\", \"Galarian Slowbro\", \"Mega Slowbro\", \"Magnemite\", \"Magneton\", \"Farfetch'd\", \"Galarian Farfetched\", \"Doduo\", \"Dodrio\", \"Seel\", \"Dewgong\", \"Grimer\", \"Alolan Grimer\", \"Muk\", \"Alolan Muk\", \"Shellder\", \"Cloyster\", \"Gastly\", \"Haunter\", \"Gengar\", \"Mega Gengar\", \"Gigantamax Gengar\", \"Onix\", \"Drowzee\", \"Hypno\", \"Krabby\", \"Kingler\", \"Gigantamax Kingler\", \"Voltorb\", \"Electrode\", \"Exeggcute\", \"Exeggutor\", \"Alolan Exeggutor\", \"Cubone\", \"Marowak\", \"Alolan Marowak\", \"Hitmonlee\", \"Hitmonchan\", \"Lickitung\", \"Koffing\", \"Weezing\", \"Galarian Weezing\", \"Rhyhorn\", \"Rhydon\", \"Chansey\", \"Tangela\", \"Kangaskhan\", \"Mega Kangaskhan\", \"Horsea\", \"Seadra\", \"Goldeen\", \"Seaking\", \"Staryu\", \"Starmie\", \"Mr. Mime\", \"Galarian Mr. Mime\", \"Scyther\", \"Jynx\", \"Electabuzz\", \"Magmar\", \"Pinsir\", \"Mega Pinsir\", \"Tauros\", \"Magikarp\", \"Gyarados\", \"Mega Gyarados\", \"Lapras\", \"Gigantamax Lapras\", \"Ditto\", \"Eevee\", \"Gigantamax Eevee\", \"Vaporeon\", \"Jolteon\", \"Flareon\", \"Porygon\", \"Omanyte\", \"Omastar\", \"Kabuto\", \"Kabutops\", \"Aerodactyl\", \"Mega Aerodactyl\", \"Snorlax\", \"Gigantamax Snorlax\", \"Articuno\", \"Galarian Articuno\", \"Zapdos\", \"Galarian Zapdos\", \"Moltres\", \"Galarian Moltres\", \"Dratini\", \"Dragonair\", \"Dragonite\", \"Mewtwo\", \"Mega Mewtwo X\", \"Mega Mewtwo Y\", \"Mew\", \"Chikorita\", \"Bayleef\", \"Meganium\", \"Cyndaquil\", \"Quilava\", \"Typhlosion\", \"Totodile\", \"Croconaw\", \"Feraligatr\", \"Sentret\", \"Furret\", \"Hoothoot\", \"Noctowl\", \"Ledyba\", \"Ledian\", \"Spinarak\", \"Ariados\", \"Crobat\", \"Chinchou\", \"Lanturn\", \"Pichu\", \"Cleffa\", \"Igglybuff\", \"Togepi\", \"Togetic\", \"Natu\", \"Xatu\", \"Mareep\", \"Flaaffy\", \"Ampharos\", \"Mega Ampharos\", \"Bellossom\", \"Marill\", \"Azumarill\", \"Sudowoodo\", \"Politoed\", \"Hoppip\", \"Skiploom\", \"Jumpluff\", \"Aipom\", \"Sunkern\", \"Sunflora\", \"Yanma\", \"Wooper\", \"Quagsire\", \"Espeon\", \"Umbreon\", \"Murkrow\", \"Slowking\", \"Galarian Slowking\", \"Misdreavus\", \"Unown\", \"Wobbuffet\", \"Girafarig\", \"Pineco\", \"Forretress\", \"Dunsparce\", \"Gligar\", \"Steelix\", \"Mega Steelix\", \"Snubbull\", \"Granbull\", \"Qwilfish\", \"Scizor\", \"Mega Scizor\", \"Shuckle\", \"Heracross\", \"Mega Heracross\", \"Sneasel\", \"Teddiursa\", \"Ursaring\", \"Slugma\", \"Magcargo\", \"Swinub\", \"Piloswine\", \"Corsola\", \"Galarian Corsola\", \"Remoraid\", \"Octillery\", \"Delibird\", \"Mantine\", \"Skarmory\", \"Houndour\", \"Houndoom\", \"Mega Houndoom\", \"Kingdra\", \"Phanpy\", \"Donphan\", \"Porygon2\", \"Stantler\", \"Smeargle\", \"Tyrogue\", \"Hitmontop\", \"Smoochum\", \"Elekid\", \"Magby\", \"Miltank\", \"Blissey\", \"Raikou\", \"Entei\", \"Suicune\", \"Larvitar\", \"Pupitar\", \"Tyranitar\", \"Mega Tyranitar\", \"Lugia\", \"Ho-oh\", \"Celebi\", \"Treecko\", \"Grovyle\", \"Sceptile\", \"Mega Sceptile\", \"Torchic\", \"Combusken\", \"Blaziken\", \"Mega Blaziken\", \"Mudkip\", \"Marshtomp\", \"Swampert\", \"Mega Swampert\", \"Poochyena\", \"Mightyena\", \"Zigzagoon\", \"Galarian Zigzagoon\", \"Linoone\", \"Galarian Linoone\", \"Wurmple\", \"Silcoon\", \"Beautifly\", \"Cascoon\", \"Dustox\", \"Lotad\", \"Lombre\", \"Ludicolo\", \"Seedot\", \"Nuzleaf\", \"Shiftry\", \"Taillow\", \"Swellow\", \"Wingull\", \"Pelipper\", \"Ralts\", \"Kirlia\", \"Gardevoir\", \"Mega Gardevoir\", \"Surskit\", \"Masquerain\", \"Shroomish\", \"Breloom\", \"Slakoth\", \"Vigoroth\", \"Slaking\", \"Nincada\", \"Ninjask\", \"Shedinja\", \"Whismur\", \"Loudred\", \"Exploud\", \"Makuhita\", \"Hariyama\", \"Azurill\", \"Nosepass\", \"Skitty\", \"Delcatty\", \"Sableye\", \"Mega Sableye\", \"Mawile\", \"Mega Mawile\", \"Aron\", \"Lairon\", \"Aggron\", \"Mega Aggron\", \"Meditite\", \"Medicham\", \"Mega Medicham\", \"Electrike\", \"Manectric\", \"Mega Manectric\", \"Plusle\", \"Minun\", \"Volbeat\", \"Illumise\", \"Roselia\", \"Gulpin\", \"Swalot\", \"Carvanha\", \"Sharpedo\", \"Mega Sharpedo\", \"Wailmer\", \"Wailord\", \"Numel\", \"Camerupt\", \"Mega Camerupt\", \"Torkoal\", \"Spoink\", \"Grumpig\", \"Spinda\", \"Trapinch\", \"Vibrava\", \"Flygon\", \"Cacnea\", \"Cacturne\", \"Swablu\", \"Altaria\", \"Mega Altaria\", \"Zangoose\", \"Seviper\", \"Lunatone\", \"Solrock\", \"Barboach\", \"Whiscash\", \"Corphish\", \"Crawdaunt\", \"Baltoy\", \"Claydol\", \"Lileep\", \"Cradily\", \"Anorith\", \"Armaldo\", \"Feebas\", \"Milotic\", \"Castform\", \"Kecleon\", \"Shuppet\", \"Banette\", \"Mega Banette\", \"Duskull\", \"Dusclops\", \"Tropius\", \"Chimecho\", \"Absol\", \"Mega Absol\", \"Wynaut\", \"Snorunt\", \"Glalie\", \"Mega Glalie\", \"Spheal\", \"Sealeo\", \"Walrein\", \"Clamperl\", \"Huntail\", \"Gorebyss\", \"Relicanth\", \"Luvdisc\", \"Bagon\", \"Shelgon\", \"Salamence\", \"Mega Salamence\", \"Beldum\", \"Metang\", \"Metagross\", \"Mega Metagross\", \"Regirock\", \"Regice\", \"Registeel\", \"Latias\", \"Mega Latias\", \"Latios\", \"Mega Latios\", \"Kyogre\", \"Primal Kyogre\", \"Groudon\", \"Primal Groudon\", \"Rayquaza\", \"Mega Rayquaza\", \"Jirachi\", \"Deoxys Normal Forme\", \"Deoxys Attack Forme\", \"Deoxys Defense Forme\", \"Deoxys Speed Forme\", \"Turtwig\", \"Grotle\", \"Torterra\", \"Chimchar\", \"Monferno\", \"Infernape\", \"Piplup\", \"Prinplup\", \"Empoleon\", \"Starly\", \"Staravia\", \"Staraptor\", \"Bidoof\", \"Bibarel\", \"Kricketot\", \"Kricketune\", \"Shinx\", \"Luxio\", \"Luxray\", \"Budew\", \"Roserade\", \"Cranidos\", \"Rampardos\", \"Shieldon\", \"Bastiodon\", \"Burmy\", \"Wormadam Plant Cloak\", \"Wormadam Sandy Cloak\", \"Wormadam Trash Cloak\", \"Mothim\", \"Combee\", \"Vespiquen\", \"Pachirisu\", \"Buizel\", \"Floatzel\", \"Cherubi\", \"Cherrim\", \"Shellos\", \"Gastrodon\", \"Ambipom\", \"Drifloon\", \"Drifblim\", \"Buneary\", \"Lopunny\", \"Mega Lopunny\", \"Mismagius\", \"Honchkrow\", \"Glameow\", \"Purugly\", \"Chingling\", \"Stunky\", \"Skuntank\", \"Bronzor\", \"Bronzong\", \"Bonsly\", \"Mime Jr.\", \"Happiny\", \"Chatot\", \"Spiritomb\", \"Gible\", \"Gabite\", \"Garchomp\", \"Mega Garchomp\", \"Munchlax\", \"Riolu\", \"Lucario\", \"Mega Lucario\", \"Hippopotas\", \"Hippowdon\", \"Skorupi\", \"Drapion\", \"Croagunk\", \"Toxicroak\", \"Carnivine\", \"Finneon\", \"Lumineon\", \"Mantyke\", \"Snover\", \"Abomasnow\", \"Mega Abomasnow\", \"Weavile\", \"Magnezone\", \"Lickilicky\", \"Rhyperior\", \"Tangrowth\", \"Electivire\", \"Magmortar\", \"Togekiss\", \"Yanmega\", \"Leafeon\", \"Glaceon\", \"Gliscor\", \"Mamoswine\", \"Porygon-Z\", \"Gallade\", \"Mega Gallade\", \"Probopass\", \"Dusknoir\", \"Froslass\", \"Rotom\", \"Heat Rotom\", \"Wash Rotom\", \"Frost Rotom\", \"Fan Rotom\", \"Mow Rotom\", \"Uxie\", \"Mesprit\", \"Azelf\", \"Dialga\", \"Palkia\", \"Heatran\", \"Regigigas\", \"Giratina Altered Forme\", \"Giratina Origin Forme\", \"Cresselia\", \"Phione\", \"Manaphy\", \"Darkrai\", \"Shaymin Land Forme\", \"Shaymin Sky Forme\", \"Arceus\", \"Victini\", \"Snivy\", \"Servine\", \"Serperior\", \"Tepig\", \"Pignite\", \"Emboar\", \"Oshawott\", \"Dewott\", \"Samurott\", \"Patrat\", \"Watchog\", \"Lillipup\", \"Herdier\", \"Stoutland\", \"Purrloin\", \"Liepard\", \"Pansage\", \"Simisage\", \"Pansear\", \"Simisear\", \"Panpour\", \"Simipour\", \"Munna\", \"Musharna\", \"Pidove\", \"Tranquill\", \"Unfezant\", \"Blitzle\", \"Zebstrika\", \"Roggenrola\", \"Boldore\", \"Gigalith\", \"Woobat\", \"Swoobat\", \"Drilbur\", \"Excadrill\", \"Audino\", \"Mega Audino\", \"Timburr\", \"Gurdurr\", \"Conkeldurr\", \"Tympole\", \"Palpitoad\", \"Seismitoad\", \"Throh\", \"Sawk\", \"Sewaddle\", \"Swadloon\", \"Leavanny\", \"Venipede\", \"Whirlipede\", \"Scolipede\", \"Cottonee\", \"Whimsicott\", \"Petilil\", \"Lilligant\", \"Basculin\", \"Sandile\", \"Krokorok\", \"Krookodile\", \"Darumaka\", \"Galarian Darumaka\", \"Darmanitan Standard Mode\", \"Galarian Darmanitan Standard Mode\", \"Darmanitan Zen Mode\", \"Galarian Darmanitan Zen Mode\", \"Maractus\", \"Dwebble\", \"Crustle\", \"Scraggy\", \"Scrafty\", \"Sigilyph\", \"Yamask\", \"Galarian Yamask\", \"Cofagrigus\", \"Tirtouga\", \"Carracosta\", \"Archen\", \"Archeops\", \"Trubbish\", \"Garbodor\", \"Gigantamax Garbodor\", \"Zorua\", \"Zoroark\", \"Minccino\", \"Cinccino\", \"Gothita\", \"Gothorita\", \"Gothitelle\", \"Solosis\", \"Duosion\", \"Reuniclus\", \"Ducklett\", \"Swanna\", \"Vanillite\", \"Vanillish\", \"Vanilluxe\", \"Deerling\", \"Sawsbuck\", \"Emolga\", \"Karrablast\", \"Escavalier\", \"Foongus\", \"Amoonguss\", \"Frillish\", \"Jellicent\", \"Alomomola\", \"Joltik\", \"Galvantula\", \"Ferroseed\", \"Ferrothorn\", \"Klink\", \"Klang\", \"Klinklang\", \"Tynamo\", \"Eelektrik\", \"Eelektross\", \"Elgyem\", \"Beheeyem\", \"Litwick\", \"Lampent\", \"Chandelure\", \"Axew\", \"Fraxure\", \"Haxorus\", \"Cubchoo\", \"Beartic\", \"Cryogonal\", \"Shelmet\", \"Accelgor\", \"Stunfisk\", \"Galarian Stunfisk\", \"Mienfoo\", \"Mienshao\", \"Druddigon\", \"Golett\", \"Golurk\", \"Pawniard\", \"Bisharp\", \"Bouffalant\", \"Rufflet\", \"Braviary\", \"Vullaby\", \"Mandibuzz\", \"Heatmor\", \"Durant\", \"Deino\", \"Zweilous\", \"Hydreigon\", \"Larvesta\", \"Volcarona\", \"Cobalion\", \"Terrakion\", \"Virizion\", \"Tornadus Incarnate Forme\", \"Tornadus Therian Forme\", \"Thundurus Incarnate Forme\", \"Thundurus Therian Forme\", \"Reshiram\", \"Zekrom\", \"Landorus Incarnate Forme\", \"Landorus Therian Forme\", \"Kyurem\", \"Black Kyurem\", \"White Kyurem\", \"Keldeo Ordinary Forme\", \"Keldeo Resolute Forme\", \"Meloetta Aria Forme\", \"Meloetta Pirouette Forme\", \"Genesect\", \"Chespin\", \"Quilladin\", \"Chesnaught\", \"Fennekin\", \"Braixen\", \"Delphox\", \"Froakie\", \"Frogadier\", \"Greninja\", \"Ash-Greninja\", \"Bunnelby\", \"Diggersby\", \"Fletchling\", \"Fletchinder\", \"Talonflame\", \"Scatterbug\", \"Spewpa\", \"Vivillon\", \"Litleo\", \"Pyroar\", \"Flabébé\", \"Floette\", \"Florges\", \"Skiddo\", \"Gogoat\", \"Pancham\", \"Pangoro\", \"Furfrou\", \"Espurr\", \"Meowstic Male\", \"Meowstic Female\", \"Honedge\", \"Doublade\", \"Aegislash Blade Forme\", \"Aegislash Shield Forme\", \"Spritzee\", \"Aromatisse\", \"Swirlix\", \"Slurpuff\", \"Inkay\", \"Malamar\", \"Binacle\", \"Barbaracle\", \"Skrelp\", \"Dragalge\", \"Clauncher\", \"Clawitzer\", \"Helioptile\", \"Heliolisk\", \"Tyrunt\", \"Tyrantrum\", \"Amaura\", \"Aurorus\", \"Sylveon\", \"Hawlucha\", \"Dedenne\", \"Carbink\", \"Goomy\", \"Sliggoo\", \"Goodra\", \"Klefki\", \"Phantump\", \"Trevenant\", \"Pumpkaboo Average Size\", \"Pumpkaboo Small Size\", \"Pumpkaboo Large Size\", \"Pumpkaboo Super Size\", \"Gourgeist Average Size\", \"Gourgeist Small Size\", \"Gourgeist Large Size\", \"Gourgeist Super Size\", \"Bergmite\", \"Avalugg\", \"Noibat\", \"Noivern\", \"Xerneas\", \"Yveltal\", \"Zygarde 10% Forme\", \"Zygarde 50% Forme\", \"Zygarde Complete Forme\", \"Diancie\", \"Mega Diancie\", \"Hoopa Confined\", \"Hoopa Unbound\", \"Volcanion\", \"Rowlet\", \"Dartrix\", \"Decidueye\", \"Litten\", \"Torracat\", \"Incineroar\", \"Popplio\", \"Brionne\", \"Primarina\", \"Pikipek\", \"Trumbeak\", \"Toucannon\", \"Yungoos\", \"Gumshoos\", \"Grubbin\", \"Charjabug\", \"Vikavolt\", \"Crabrawler\", \"Crabominable\", \"Oricorio Baile Style\", \"Oricorio Pom-Pom Style\", \"Oricorio P'au Style\", \"Oricorio Sensu Style\", \"Cutiefly\", \"Ribombee\", \"Rockruff\", \"Lycanroc Midday Forme\", \"Lycanroc Midnight Forme\", \"Lycanroc Dusk Forme\", \"Wishiwashi Solo Forme\", \"Wishiwashi School Forme\", \"Mareanie\", \"Toxapex\", \"Mudbray\", \"Mudsdale\", \"Dewpider\", \"Araquanid\", \"Fomantis\", \"Lurantis\", \"Morelull\", \"Shiinotic\", \"Salandit\", \"Salazzle\", \"Stufful\", \"Bewear\", \"Bounsweet\", \"Steenee\", \"Tsareena\", \"Comfey\", \"Oranguru\", \"Passimian\", \"Wimpod\", \"Golisopod\", \"Sandygast\", \"Palossand\", \"Pyukumuku\", \"Type: Null\", \"Silvally\", \"Minior Meteor Forme\", \"Minior Core Forme\", \"Komala\", \"Turtonator\", \"Togedemaru\", \"Mimikyu\", \"Bruxish\", \"Drampa\", \"Dhelmise\", \"Jangmo-o\", \"Hakamo-o\", \"Kommo-o\", \"Tapu Koko\", \"Tapu Lele\", \"Tapu Bulu\", \"Tapu Fini\", \"Cosmog\", \"Cosmoem\", \"Solgaleo\", \"Lunala\", \"Nihilego\", \"Buzzwole\", \"Pheromosa\", \"Xurkitree\", \"Celesteela\", \"Kartana\", \"Guzzlord\", \"Necrozma\", \"Dusk Mane Necrozma\", \"Dawn Wings Necrozma\", \"Ultra Necrozma\", \"Magearna\", \"Marshadow\", \"Poipole\", \"Naganadel\", \"Stakataka\", \"Blacephalon\", \"Zeraora\", \"Meltan\", \"Melmetal\", \"Gigantamax Melmetal\", \"Grookey\", \"Thwackey\", \"Rillaboom\", \"Gigantamax Rillaboom\", \"Scorbunny\", \"Raboot\", \"Cinderace\", \"Gigantamax Cinderace\", \"Sobble\", \"Drizzile\", \"Inteleon\", \"Gigantamax Inteleon\", \"Skwovet\", \"Greedent\", \"Rookidee\", \"Corvisquire\", \"Corviknight\", \"Gigantamax Corviknight\", \"Blipbug\", \"Dottler\", \"Orbeetle\", \"Gigantamax Orbeetle\", \"Nickit\", \"Thievul\", \"Gossifleur\", \"Eldegoss\", \"Wooloo\", \"Dubwool\", \"Chewtle\", \"Drednaw\", \"Gigantamax Drednaw\", \"Yamper\", \"Boltund\", \"Rolycoly\", \"Carkol\", \"Coalossal\", \"Gigantamax Coalossal\", \"Applin\", \"Flapple\", \"Gigantamax Flapple\", \"Appletun\", \"Gigantamax Appletun\", \"Silicobra\", \"Sandaconda\", \"Gigantamax Sandaconda\", \"Cramorant\", \"Arrokuda\", \"Barraskewda\", \"Toxel\", \"Toxtricity Amped Forme\", \"Toxitricity Low Key Forme\", \"Gigantamax Toxitricity\", \"Sizzlipede\", \"Centiskorch\", \"Gigantamax Centiskorch\", \"Clobbopus\", \"Grapploct\", \"Sinistea\", \"Polteageist\", \"Hatenna\", \"Hattrem\", \"Hatterene\", \"Gigantamax Hatterene\", \"Impidimp\", \"Morgrem\", \"Grimmsnarl\", \"Gigantamax Grimmsnarl\", \"Obstagoon\", \"Perrserker\", \"Cursola\", \"Sirfetch'd\", \"Mr. Rime\", \"Runerigus\", \"Milcery\", \"Alcremie\", \"Gigantamax Alcremie\", \"Falinks\", \"Pincurchin\", \"Snom\", \"Frosmoth\", \"Stonjourner\", \"Eiscue Ice Face\", \"Eiscue Noice Face\", \"Indeedee Male\", \"Indeedee Female\", \"Morpeko Full Belly Mode\", \"Morpeko Hangry Mode\", \"Cufant\", \"Copperajah\", \"Gigantamax Copperajah\", \"Dracozolt\", \"Arctozolt\", \"Dracovish\", \"Arctovish\", \"Duraludon\", \"Gigantamax Duraludon\", \"Dreepy\", \"Drakloak\", \"Dragapult\", \"Zacian Hero of Many Battles\", \"Zacian Crowned Sword Forme\", \"Zamazenta Hero of Many Battles\", \"Zamazenta Crowned Sheild Forme\", \"Eternatus\", \"Eternamax Eternatus\", \"Kubfu\", \"Urshifu Single Strike Style\", \"Gigantamax Urshifu Single Strike Style\", \"Urshifu Rapid Strike Style\", \"Gigantamax Urshifu Rapid Strike Style\", \"Zarude\", \"Dada Zarude\", \"Regieleki\", \"Regidrago\", \"Glastrier\", \"Spectrier\", \"Calyrex\", \"Ice Rider Calyrex\", \"Shadow Rider Calyrex\"];\n    }\n\n    function createRandomPokemon(uint256 userProvidedSeed) \n        public returns (bytes32){\n            bytes32 requestId = requestRandomness(keyHash, link_fee, userProvidedSeed);\n            requestIdToSender[requestId] = msg.sender;\n            emit requestedPokemon(requestId);\n    }\n\n    function setIvs(uint256[] memory RNGNumbers, string memory pokemonName, uint256 tokenId) internal {\n        (string memory type1, string memory type2) = getTypeFromName(pokemonName);\n        PokemonBaseStats memory baseStats = pokemonNameToPokemonBaseStats[pokemonName];\n        uint256 hpIv = (RNGNumbers[1] % 31) + 1;\n        uint256 atkIv = (RNGNumbers[2] % 31) + 1;\n        uint256 defIv = (RNGNumbers[3] % 31) + 1;\n        uint256 spaIv = (RNGNumbers[4] % 31) + 1;\n        uint256 spdIv = (RNGNumbers[5] % 31) + 1;\n        uint256 speIv = (RNGNumbers[6] % 31) + 1;\n        PokemonBaseStats memory ivs = PokemonBaseStats({hp: hpIv, def: defIv, atk: atkIv, spa: spaIv, spd: spdIv, spe: speIv, type1: type1, type2: type2, number: baseStats.number, pokemonName: pokemonName});\n        PokemonBaseStats memory evs = PokemonBaseStats({hp: 0, def: 0, atk: 0, spa: 0, spd: 0, spe: 0, type1: type1, type2: type2, number: baseStats.number, pokemonName: pokemonName});\n\n        tokenIdToIvs[tokenId] = ivs;\n        tokenIdToEvs[tokenId] = evs;\n    }\n\n    function fulfillRandomness(bytes32 requestId, uint256 randomNumber) internal override {\n        address owner = requestIdToSender[requestId];\n        // string memory tokenURI = pokemonToTokenURI[requestId];\n        uint256 newUniquePokemonID = tokenCounter;\n        requestIdToTokenId[requestId] = newUniquePokemonID;\n        _safeMint(owner, newUniquePokemonID);\n        uint256[] memory RNGNumbers = getManyRandomNumbers(randomNumber, 11);\n        uint256 pokemonNameIndex = (RNGNumbers[7] % listOfPokemonNames.length);\n        string memory pokemonName = listOfPokemonNames[pokemonNameIndex];\n        (string memory type1, string memory type2) = getTypeFromName(pokemonName);\n        string memory nature = natures[(RNGNumbers[8] % natures.length)];\n        bool shiny = false;\n        uint256 shinyRNG = (RNGNumbers[9] % 4096);\n        if (shinyRNG == 0){\n            shiny = true;\n        } else {\n            shiny = false;\n        }\n        uint256 level = (RNGNumbers[10] % 100) + 1;\n        uniquePokemon.push(\n            UniquePokemon(\n                {\n                    nickname: pokemonName,\n                    item: \"None\",\n                    shiny: shiny,\n                    ability: \"None\",\n                    nature: nature,\n                    level: level\n                }\n            )\n        );\n        setIvs(RNGNumbers, pokemonName, newUniquePokemonID);\n        setBattleStats(pokemonName, newUniquePokemonID);\n        emit PokemonCreated(tokenCounter);\n        tokenCounter = tokenCounter + 1;\n    }\n\n    function getTypeFromName(string memory pokemonName) public returns (string memory, string memory ){\n        PokemonBaseStats memory baseStats = pokemonNameToPokemonBaseStats[pokemonName];\n        return (baseStats.type1, baseStats.type2);\n    }\n\n    function setBattleStats(string memory pokemonName, uint256 tokenId) public {\n        // HP = floor(0.01 x (2 x Base + IV + floor(0.25 x EV)) x Level) + Level + 10\n        // we bump everything up by 100, then divide by 100 at the end\n        // Other Stats = floor(0.01 x (2 x Base + IV + floor(0.25 x EV)) x Level) + 5) x Nature\n        PokemonBaseStats storage battleStats = tokenIdToBattleStats[tokenId];\n        PokemonBaseStats storage baseStats = pokemonNameToPokemonBaseStats[pokemonName];\n        PokemonBaseStats storage ivs = tokenIdToIvs[tokenId];\n        PokemonBaseStats storage evs = tokenIdToEvs[tokenId];\n        UniquePokemon storage pokemon = uniquePokemon[tokenId];\n\n        battleStats.hp = ((2 * baseStats.hp + ivs.hp + (evs.hp  / 4) * pokemon.level) / 100) + pokemon.level + 10;\n        battleStats.atk = ((2 * baseStats.atk + ivs.atk + (evs.atk  / 4)/ 100) * pokemon.level) + 5; // We don't add the nature modifier!!!\n        battleStats.def = ( (2 * baseStats.def + ivs.def + (evs.def  / 4)/ 100) * pokemon.level) + 5; // We don't add the nature modifier!!!\n        battleStats.spa = ((2 * baseStats.spa + ivs.spa + (evs.spa / 4)/ 100) * pokemon.level) + 5; // We don't add the nature modifier!!!\n        battleStats.spd = ((2 * baseStats.spd + ivs.spd + (evs.spd  / 4)/ 100) * pokemon.level) + 5; // We don't add the nature modifier!!!\n        battleStats.spe = ((2 * baseStats.spe + ivs.spe + (evs.spe  / 4)/ 100) * pokemon.level) + 5; // We don't add the nature modifier!!!\n    }\n\n    // Could turn this into a chainlink API Call if we wanted \n    function setTokenURI(uint256 tokenId, string memory _tokenURI) public onlyOwner {\n        require(\n            _isApprovedOrOwner(_msgSender(), tokenId),\n            \"ERC721: transfer caller is not owner nor approved\"\n        );\n        _setTokenURI(tokenId, _tokenURI);\n    }\n\n\n    function createBaseStatPokemon(string memory pokemonName, uint256 hp, uint256 atk, uint256 def, uint256 spa, uint256 spd, uint256 spe, string memory type1, string memory type2, uint256 number) public onlyOwner {\n        // require(notAdded(pokemonName), \"Pokemon has already been added))\n        PokemonBaseStats storage baseStats = pokemonNameToPokemonBaseStats[pokemonName];\n        baseStats.pokemonName = pokemonName;\n        baseStats.type1 = type1;\n        baseStats.type2 = type2;\n        baseStats.number = number;\n        baseStats.hp = hp; \n        baseStats.def = def;\n        baseStats.atk = atk;\n        baseStats.spa = spa;\n        baseStats.spd = spd;\n        baseStats.spe = spe;\n        listOfPokemonNames.push(pokemonName);\n    }\n\n    function getManyRandomNumbers(uint256 randomValue, uint256 n) public pure returns (uint256[] memory expandedValues) {\n        expandedValues = new uint256[](n);\n        for (uint256 i = 0; i < n; i++) {\n            expandedValues[i] = uint256(keccak256(abi.encode(randomValue, i)));\n        }\n        return expandedValues;\n    }   \n\n    \n\n    // function setMoves(string memory move1, string memory move2,string memory move3,string memory move4, uint256 tokenId) public onlyOwner {\n    //     uniquePokemon[tokenId].move1 = move1;\n    //     uniquePokemon[tokenId].move2 = move1;\n    //     uniquePokemon[tokenId].move3 = move1;\n    //     uniquePokemon[tokenId].move4 = move1;\n    // }\n}\n\n\n","sourcePath":"contracts/Pokemon.sol","type":"contract","deployment":{"address":"0x7dC22FF8002aE4Bb04A6B691EF41592Dc3bc62a9","chainid":"4","blockHeight":8517951}}