{
  "abi": [
    {
      "inputs": [],
      "stateMutability": "nonpayable",
      "type": "constructor"
    },
    {
      "anonymous": false,
      "inputs": [
        {
          "indexed": true,
          "internalType": "address",
          "name": "previousOwner",
          "type": "address"
        },
        {
          "indexed": true,
          "internalType": "address",
          "name": "newOwner",
          "type": "address"
        }
      ],
      "name": "OwnershipTransferred",
      "type": "event"
    },
    {
      "inputs": [
        {
          "internalType": "uint256",
          "name": "number",
          "type": "uint256"
        },
        {
          "internalType": "string",
          "name": "pokemonName",
          "type": "string"
        },
        {
          "internalType": "string",
          "name": "type1",
          "type": "string"
        },
        {
          "internalType": "string",
          "name": "type2",
          "type": "string"
        },
        {
          "internalType": "uint256",
          "name": "_",
          "type": "uint256"
        },
        {
          "internalType": "uint256",
          "name": "hp",
          "type": "uint256"
        },
        {
          "internalType": "uint256",
          "name": "atk",
          "type": "uint256"
        },
        {
          "internalType": "uint256",
          "name": "def",
          "type": "uint256"
        },
        {
          "internalType": "uint256",
          "name": "spa",
          "type": "uint256"
        },
        {
          "internalType": "uint256",
          "name": "spd",
          "type": "uint256"
        },
        {
          "internalType": "uint256",
          "name": "spe",
          "type": "uint256"
        }
      ],
      "name": "createBaseStatPokemon",
      "outputs": [],
      "stateMutability": "nonpayable",
      "type": "function"
    },
    {
      "inputs": [
        {
          "internalType": "uint256",
          "name": "",
          "type": "uint256"
        }
      ],
      "name": "listOfPokemonNames",
      "outputs": [
        {
          "internalType": "string",
          "name": "",
          "type": "string"
        }
      ],
      "stateMutability": "view",
      "type": "function"
    },
    {
      "inputs": [],
      "name": "owner",
      "outputs": [
        {
          "internalType": "address",
          "name": "",
          "type": "address"
        }
      ],
      "stateMutability": "view",
      "type": "function"
    },
    {
      "inputs": [
        {
          "internalType": "string",
          "name": "",
          "type": "string"
        }
      ],
      "name": "pokemonNameToPokemonBaseStats",
      "outputs": [
        {
          "internalType": "uint256",
          "name": "hp",
          "type": "uint256"
        },
        {
          "internalType": "uint256",
          "name": "atk",
          "type": "uint256"
        },
        {
          "internalType": "uint256",
          "name": "def",
          "type": "uint256"
        },
        {
          "internalType": "uint256",
          "name": "spa",
          "type": "uint256"
        },
        {
          "internalType": "uint256",
          "name": "spd",
          "type": "uint256"
        },
        {
          "internalType": "uint256",
          "name": "spe",
          "type": "uint256"
        },
        {
          "internalType": "string",
          "name": "type1",
          "type": "string"
        },
        {
          "internalType": "string",
          "name": "type2",
          "type": "string"
        },
        {
          "internalType": "uint256",
          "name": "number",
          "type": "uint256"
        },
        {
          "internalType": "string",
          "name": "pokemonName",
          "type": "string"
        }
      ],
      "stateMutability": "view",
      "type": "function"
    },
    {
      "inputs": [],
      "name": "renounceOwnership",
      "outputs": [],
      "stateMutability": "nonpayable",
      "type": "function"
    },
    {
      "inputs": [
        {
          "internalType": "address",
          "name": "newOwner",
          "type": "address"
        }
      ],
      "name": "transferOwnership",
      "outputs": [],
      "stateMutability": "nonpayable",
      "type": "function"
    }
  ],
  "bytecode": "60806040523480156200001157600080fd5b506000620000276001600160e01b03620001f016565b600080546001600160a01b0319166001600160a01b0383169081178255604051929350917f8be0079c531659141344cd1fd0a4f28419497f9722a3daafe3b4186f6b6457e0908290a350620000ef600160405180604001604052806009815260200168213ab63130b9b0bab960b91b81525060405180604001604052806005815260200164477261737360d81b815250604051806040016040528060068152602001652837b4b9b7b760d11b81525061013e602d603180604180602d620001f560201b60201c565b6200016c60026040518060400160405280600781526020016624bb3cb9b0bab960c91b81525060405180604001604052806005815260200164477261737360d81b815250604051806040016040528060068152602001652837b4b9b7b760d11b815250610195603c603e603f605080603c620001f560201b60201c565b620001ea6003604051806040016040528060088152602001672b32b73ab9b0bab960c11b81525060405180604001604052806005815260200164477261737360d81b815250604051806040016040528060068152602001652837b4b9b7b760d11b81525061020d6050605260536064806050620001f560201b60201c565b6200045e565b335b90565b620002086001600160e01b03620001f016565b6001600160a01b0316620002246001600160e01b03620003ad16565b6001600160a01b03161462000280576040805162461bcd60e51b815260206004820181905260248201527f4f776e61626c653a2063616c6c6572206973206e6f7420746865206f776e6572604482015290519081900360640190fd5b600060018b6040518082805190602001908083835b60208310620002b65780518252601f19909201916020918201910162000295565b51815160209384036101000a60001901801990921691161790529201948552506040519384900381019093208e51909450620002fc936009860193508f019150620003bc565b5089516200031490600683019060208d0190620003bc565b5088516200032c90600783019060208c0190620003bc565b50600881018c905586815560028082018690556001808301889055600383018690556004830185905560058301849055815490810182556000919091528b516200039e917f405787fa12a823e0f2b7631cc41b3ba8828b3321ca811111fa75cd3aa3bb5ace019060208e0190620003bc565b50505050505050505050505050565b6000546001600160a01b031690565b828054600181600116156101000203166002900490600052602060002090601f016020900481019282601f10620003ff57805160ff19168380011785556200042f565b828001600101855582156200042f579182015b828111156200042f57825182559160200191906001019062000412565b506200043d92915062000441565b5090565b620001f291905b808211156200043d576000815560010162000448565b610c4f806200046e6000396000f3fe608060405234801561001057600080fd5b50600436106100625760003560e01c8063028d06d414610067578063715018a6146102805780637acd47431461028a5780638da5cb5b14610463578063acb11fb314610487578063f2fde38b14610519575b600080fd5b61010b6004803603602081101561007d57600080fd5b810190602081018135600160201b81111561009757600080fd5b8201836020820111156100a957600080fd5b803590602001918460018302840111600160201b831117156100ca57600080fd5b91908080601f01602080910402602001604051908101604052809392919081815260200183838082843760009201919091525092955061053f945050505050565b604051808b81526020018a8152602001898152602001888152602001878152602001868152602001806020018060200185815260200180602001848103845288818151815260200191508051906020019080838360005b8381101561017a578181015183820152602001610162565b50505050905090810190601f1680156101a75780820380516001836020036101000a031916815260200191505b50848103835287518152875160209182019189019080838360005b838110156101da5781810151838201526020016101c2565b50505050905090810190601f1680156102075780820380516001836020036101000a031916815260200191505b50848103825285518152855160209182019187019080838360005b8381101561023a578181015183820152602001610222565b50505050905090810190601f1680156102675780820380516001836020036101000a031916815260200191505b509d505050505050505050505050505060405180910390f35b610288610738565b005b61028860048036036101608110156102a157600080fd5b81359190810190604081016020820135600160201b8111156102c257600080fd5b8201836020820111156102d457600080fd5b803590602001918460018302840111600160201b831117156102f557600080fd5b91908080601f0160208091040260200160405190810160405280939291908181526020018383808284376000920191909152509295949360208101935035915050600160201b81111561034757600080fd5b82018360208201111561035957600080fd5b803590602001918460018302840111600160201b8311171561037a57600080fd5b91908080601f0160208091040260200160405190810160405280939291908181526020018383808284376000920191909152509295949360208101935035915050600160201b8111156103cc57600080fd5b8201836020820111156103de57600080fd5b803590602001918460018302840111600160201b831117156103ff57600080fd5b91908080601f0160208091040260200160405190810160405280939291908181526020018383808284376000920191909152509295505082359350505060208101359060408101359060608101359060808101359060a08101359060c001356107f6565b61046b61098d565b604080516001600160a01b039092168252519081900360200190f35b6104a46004803603602081101561049d57600080fd5b503561099d565b6040805160208082528351818301528351919283929083019185019080838360005b838110156104de5781810151838201526020016104c6565b50505050905090810190601f16801561050b5780820380516001836020036101000a031916815260200191505b509250505060405180910390f35b6102886004803603602081101561052f57600080fd5b50356001600160a01b0316610a43565b805160208183018101805160018083529383019483019490942093905282548383015460028086015460038701546004880154600589015460068a018054604080519b821615610100026000190190911696909604601f81018a90048a028b018a01909652858a529699959893979296919590949093928301828280156106075780601f106105dc57610100808354040283529160200191610607565b820191906000526020600020905b8154815290600101906020018083116105ea57829003601f168201915b5050505060078301805460408051602060026001851615610100026000190190941693909304601f81018490048402820184019092528181529495949350908301828280156106975780601f1061066c57610100808354040283529160200191610697565b820191906000526020600020905b81548152906001019060200180831161067a57829003601f168201915b50505050600883015460098401805460408051602060026001851615610100026000190190941693909304601f8101849004840282018401909252818152959693959394509083018282801561072e5780601f106107035761010080835404028352916020019161072e565b820191906000526020600020905b81548152906001019060200180831161071157829003601f168201915b505050505090508a565b610740610b57565b6001600160a01b031661075161098d565b6001600160a01b0316146107ac576040805162461bcd60e51b815260206004820181905260248201527f4f776e61626c653a2063616c6c6572206973206e6f7420746865206f776e6572604482015290519081900360640190fd5b600080546040516001600160a01b03909116907f8be0079c531659141344cd1fd0a4f28419497f9722a3daafe3b4186f6b6457e0908390a3600080546001600160a01b0319169055565b6107fe610b57565b6001600160a01b031661080f61098d565b6001600160a01b03161461086a576040805162461bcd60e51b815260206004820181905260248201527f4f776e61626c653a2063616c6c6572206973206e6f7420746865206f776e6572604482015290519081900360640190fd5b600060018b6040518082805190602001908083835b6020831061089e5780518252601f19909201916020918201910161087f565b51815160209384036101000a60001901801990921691161790529201948552506040519384900381019093208e519094506108e2936009860193508f019150610b5b565b5089516108f890600683019060208d0190610b5b565b50885161090e90600783019060208c0190610b5b565b50600881018c905586815560028082018690556001808301889055600383018690556004830185905560058301849055815490810182556000919091528b5161097e917f405787fa12a823e0f2b7631cc41b3ba8828b3321ca811111fa75cd3aa3bb5ace019060208e0190610b5b565b50505050505050505050505050565b6000546001600160a01b03165b90565b600281815481106109aa57fe5b600091825260209182902001805460408051601f6002600019610100600187161502019094169390930492830185900485028101850190915281815293509091830182828015610a3b5780601f10610a1057610100808354040283529160200191610a3b565b820191906000526020600020905b815481529060010190602001808311610a1e57829003601f168201915b505050505081565b610a4b610b57565b6001600160a01b0316610a5c61098d565b6001600160a01b031614610ab7576040805162461bcd60e51b815260206004820181905260248201527f4f776e61626c653a2063616c6c6572206973206e6f7420746865206f776e6572604482015290519081900360640190fd5b6001600160a01b038116610afc5760405162461bcd60e51b8152600401808060200182810382526026815260200180610bf46026913960400191505060405180910390fd5b600080546040516001600160a01b03808516939216917f8be0079c531659141344cd1fd0a4f28419497f9722a3daafe3b4186f6b6457e091a3600080546001600160a01b0319166001600160a01b0392909216919091179055565b3390565b828054600181600116156101000203166002900490600052602060002090601f016020900481019282601f10610b9c57805160ff1916838001178555610bc9565b82800160010185558215610bc9579182015b82811115610bc9578251825591602001919060010190610bae565b50610bd5929150610bd9565b5090565b61099a91905b80821115610bd55760008155600101610bdf56fe4f776e61626c653a206e6577206f776e657220697320746865207a65726f2061646472657373a264697066735822122011da394b9521b222a0535b8dc07b7927479b17713c75c9b2a20d9516ad621a3c64736f6c63430006060033",
  "bytecodeSha1": "6b2049d6dcdc2dcc91b8d00c881f4e8630b4d65e",
  "compiler": {
    "evm_version": "istanbul",
    "optimizer": {
      "enabled": true,
      "runs": 200
    },
    "version": "0.6.6+commit.6c089d02"
  },
  "contractName": "PokemonBaseStatData",
  "language": "Solidity",
  "natspec": {
    "methods": {
      "owner()": {
        "details": "Returns the address of the current owner."
      },
      "renounceOwnership()": {
        "details": "Leaves the contract without owner. It will not be possible to call `onlyOwner` functions anymore. Can only be called by the current owner.     * NOTE: Renouncing ownership will leave the contract without an owner, thereby removing any functionality that is only available to the owner."
      },
      "transferOwnership(address)": {
        "details": "Transfers ownership of the contract to a new account (`newOwner`). Can only be called by the current owner."
      }
    }
  },
  "opcodes": "PUSH1 0x80 PUSH1 0x40 MSTORE CALLVALUE DUP1 ISZERO PUSH2 0x10 JUMPI PUSH1 0x0 DUP1 REVERT JUMPDEST POP PUSH1 0x4 CALLDATASIZE LT PUSH2 0x62 JUMPI PUSH1 0x0 CALLDATALOAD PUSH1 0xE0 SHR DUP1 PUSH4 0x28D06D4 EQ PUSH2 0x67 JUMPI DUP1 PUSH4 0x715018A6 EQ PUSH2 0x280 JUMPI DUP1 PUSH4 0x7ACD4743 EQ PUSH2 0x28A JUMPI DUP1 PUSH4 0x8DA5CB5B EQ PUSH2 0x463 JUMPI DUP1 PUSH4 0xACB11FB3 EQ PUSH2 0x487 JUMPI DUP1 PUSH4 0xF2FDE38B EQ PUSH2 0x519 JUMPI JUMPDEST PUSH1 0x0 DUP1 REVERT JUMPDEST PUSH2 0x10B PUSH1 0x4 DUP1 CALLDATASIZE SUB PUSH1 0x20 DUP2 LT ISZERO PUSH2 0x7D JUMPI PUSH1 0x0 DUP1 REVERT JUMPDEST DUP2 ADD SWAP1 PUSH1 0x20 DUP2 ADD DUP2 CALLDATALOAD PUSH1 0x1 PUSH1 0x20 SHL DUP2 GT ISZERO PUSH2 0x97 JUMPI PUSH1 0x0 DUP1 REVERT JUMPDEST DUP3 ADD DUP4 PUSH1 0x20 DUP3 ADD GT ISZERO PUSH2 0xA9 JUMPI PUSH1 0x0 DUP1 REVERT JUMPDEST DUP1 CALLDATALOAD SWAP1 PUSH1 0x20 ADD SWAP2 DUP5 PUSH1 0x1 DUP4 MUL DUP5 ADD GT PUSH1 0x1 PUSH1 0x20 SHL DUP4 GT OR ISZERO PUSH2 0xCA JUMPI PUSH1 0x0 DUP1 REVERT JUMPDEST SWAP2 SWAP1 DUP1 DUP1 PUSH1 0x1F ADD PUSH1 0x20 DUP1 SWAP2 DIV MUL PUSH1 0x20 ADD PUSH1 0x40 MLOAD SWAP1 DUP2 ADD PUSH1 0x40 MSTORE DUP1 SWAP4 SWAP3 SWAP2 SWAP1 DUP2 DUP2 MSTORE PUSH1 0x20 ADD DUP4 DUP4 DUP1 DUP3 DUP5 CALLDATACOPY PUSH1 0x0 SWAP3 ADD SWAP2 SWAP1 SWAP2 MSTORE POP SWAP3 SWAP6 POP PUSH2 0x53F SWAP5 POP POP POP POP POP JUMP JUMPDEST PUSH1 0x40 MLOAD DUP1 DUP12 DUP2 MSTORE PUSH1 0x20 ADD DUP11 DUP2 MSTORE PUSH1 0x20 ADD DUP10 DUP2 MSTORE PUSH1 0x20 ADD DUP9 DUP2 MSTORE PUSH1 0x20 ADD DUP8 DUP2 MSTORE PUSH1 0x20 ADD DUP7 DUP2 MSTORE PUSH1 0x20 ADD DUP1 PUSH1 0x20 ADD DUP1 PUSH1 0x20 ADD DUP6 DUP2 MSTORE PUSH1 0x20 ADD DUP1 PUSH1 0x20 ADD DUP5 DUP2 SUB DUP5 MSTORE DUP9 DUP2 DUP2 MLOAD DUP2 MSTORE PUSH1 0x20 ADD SWAP2 POP DUP1 MLOAD SWAP1 PUSH1 0x20 ADD SWAP1 DUP1 DUP4 DUP4 PUSH1 0x0 JUMPDEST DUP4 DUP2 LT ISZERO PUSH2 0x17A JUMPI DUP2 DUP2 ADD MLOAD DUP4 DUP3 ADD MSTORE PUSH1 0x20 ADD PUSH2 0x162 JUMP JUMPDEST POP POP POP POP SWAP1 POP SWAP1 DUP2 ADD SWAP1 PUSH1 0x1F AND DUP1 ISZERO PUSH2 0x1A7 JUMPI DUP1 DUP3 SUB DUP1 MLOAD PUSH1 0x1 DUP4 PUSH1 0x20 SUB PUSH2 0x100 EXP SUB NOT AND DUP2 MSTORE PUSH1 0x20 ADD SWAP2 POP JUMPDEST POP DUP5 DUP2 SUB DUP4 MSTORE DUP8 MLOAD DUP2 MSTORE DUP8 MLOAD PUSH1 0x20 SWAP2 DUP3 ADD SWAP2 DUP10 ADD SWAP1 DUP1 DUP4 DUP4 PUSH1 0x0 JUMPDEST DUP4 DUP2 LT ISZERO PUSH2 0x1DA JUMPI DUP2 DUP2 ADD MLOAD DUP4 DUP3 ADD MSTORE PUSH1 0x20 ADD PUSH2 0x1C2 JUMP JUMPDEST POP POP POP POP SWAP1 POP SWAP1 DUP2 ADD SWAP1 PUSH1 0x1F AND DUP1 ISZERO PUSH2 0x207 JUMPI DUP1 DUP3 SUB DUP1 MLOAD PUSH1 0x1 DUP4 PUSH1 0x20 SUB PUSH2 0x100 EXP SUB NOT AND DUP2 MSTORE PUSH1 0x20 ADD SWAP2 POP JUMPDEST POP DUP5 DUP2 SUB DUP3 MSTORE DUP6 MLOAD DUP2 MSTORE DUP6 MLOAD PUSH1 0x20 SWAP2 DUP3 ADD SWAP2 DUP8 ADD SWAP1 DUP1 DUP4 DUP4 PUSH1 0x0 JUMPDEST DUP4 DUP2 LT ISZERO PUSH2 0x23A JUMPI DUP2 DUP2 ADD MLOAD DUP4 DUP3 ADD MSTORE PUSH1 0x20 ADD PUSH2 0x222 JUMP JUMPDEST POP POP POP POP SWAP1 POP SWAP1 DUP2 ADD SWAP1 PUSH1 0x1F AND DUP1 ISZERO PUSH2 0x267 JUMPI DUP1 DUP3 SUB DUP1 MLOAD PUSH1 0x1 DUP4 PUSH1 0x20 SUB PUSH2 0x100 EXP SUB NOT AND DUP2 MSTORE PUSH1 0x20 ADD SWAP2 POP JUMPDEST POP SWAP14 POP POP POP POP POP POP POP POP POP POP POP POP POP POP PUSH1 0x40 MLOAD DUP1 SWAP2 SUB SWAP1 RETURN JUMPDEST PUSH2 0x288 PUSH2 0x738 JUMP JUMPDEST STOP JUMPDEST PUSH2 0x288 PUSH1 0x4 DUP1 CALLDATASIZE SUB PUSH2 0x160 DUP2 LT ISZERO PUSH2 0x2A1 JUMPI PUSH1 0x0 DUP1 REVERT JUMPDEST DUP2 CALLDATALOAD SWAP2 SWAP1 DUP2 ADD SWAP1 PUSH1 0x40 DUP2 ADD PUSH1 0x20 DUP3 ADD CALLDATALOAD PUSH1 0x1 PUSH1 0x20 SHL DUP2 GT ISZERO PUSH2 0x2C2 JUMPI PUSH1 0x0 DUP1 REVERT JUMPDEST DUP3 ADD DUP4 PUSH1 0x20 DUP3 ADD GT ISZERO PUSH2 0x2D4 JUMPI PUSH1 0x0 DUP1 REVERT JUMPDEST DUP1 CALLDATALOAD SWAP1 PUSH1 0x20 ADD SWAP2 DUP5 PUSH1 0x1 DUP4 MUL DUP5 ADD GT PUSH1 0x1 PUSH1 0x20 SHL DUP4 GT OR ISZERO PUSH2 0x2F5 JUMPI PUSH1 0x0 DUP1 REVERT JUMPDEST SWAP2 SWAP1 DUP1 DUP1 PUSH1 0x1F ADD PUSH1 0x20 DUP1 SWAP2 DIV MUL PUSH1 0x20 ADD PUSH1 0x40 MLOAD SWAP1 DUP2 ADD PUSH1 0x40 MSTORE DUP1 SWAP4 SWAP3 SWAP2 SWAP1 DUP2 DUP2 MSTORE PUSH1 0x20 ADD DUP4 DUP4 DUP1 DUP3 DUP5 CALLDATACOPY PUSH1 0x0 SWAP3 ADD SWAP2 SWAP1 SWAP2 MSTORE POP SWAP3 SWAP6 SWAP5 SWAP4 PUSH1 0x20 DUP2 ADD SWAP4 POP CALLDATALOAD SWAP2 POP POP PUSH1 0x1 PUSH1 0x20 SHL DUP2 GT ISZERO PUSH2 0x347 JUMPI PUSH1 0x0 DUP1 REVERT JUMPDEST DUP3 ADD DUP4 PUSH1 0x20 DUP3 ADD GT ISZERO PUSH2 0x359 JUMPI PUSH1 0x0 DUP1 REVERT JUMPDEST DUP1 CALLDATALOAD SWAP1 PUSH1 0x20 ADD SWAP2 DUP5 PUSH1 0x1 DUP4 MUL DUP5 ADD GT PUSH1 0x1 PUSH1 0x20 SHL DUP4 GT OR ISZERO PUSH2 0x37A JUMPI PUSH1 0x0 DUP1 REVERT JUMPDEST SWAP2 SWAP1 DUP1 DUP1 PUSH1 0x1F ADD PUSH1 0x20 DUP1 SWAP2 DIV MUL PUSH1 0x20 ADD PUSH1 0x40 MLOAD SWAP1 DUP2 ADD PUSH1 0x40 MSTORE DUP1 SWAP4 SWAP3 SWAP2 SWAP1 DUP2 DUP2 MSTORE PUSH1 0x20 ADD DUP4 DUP4 DUP1 DUP3 DUP5 CALLDATACOPY PUSH1 0x0 SWAP3 ADD SWAP2 SWAP1 SWAP2 MSTORE POP SWAP3 SWAP6 SWAP5 SWAP4 PUSH1 0x20 DUP2 ADD SWAP4 POP CALLDATALOAD SWAP2 POP POP PUSH1 0x1 PUSH1 0x20 SHL DUP2 GT ISZERO PUSH2 0x3CC JUMPI PUSH1 0x0 DUP1 REVERT JUMPDEST DUP3 ADD DUP4 PUSH1 0x20 DUP3 ADD GT ISZERO PUSH2 0x3DE JUMPI PUSH1 0x0 DUP1 REVERT JUMPDEST DUP1 CALLDATALOAD SWAP1 PUSH1 0x20 ADD SWAP2 DUP5 PUSH1 0x1 DUP4 MUL DUP5 ADD GT PUSH1 0x1 PUSH1 0x20 SHL DUP4 GT OR ISZERO PUSH2 0x3FF JUMPI PUSH1 0x0 DUP1 REVERT JUMPDEST SWAP2 SWAP1 DUP1 DUP1 PUSH1 0x1F ADD PUSH1 0x20 DUP1 SWAP2 DIV MUL PUSH1 0x20 ADD PUSH1 0x40 MLOAD SWAP1 DUP2 ADD PUSH1 0x40 MSTORE DUP1 SWAP4 SWAP3 SWAP2 SWAP1 DUP2 DUP2 MSTORE PUSH1 0x20 ADD DUP4 DUP4 DUP1 DUP3 DUP5 CALLDATACOPY PUSH1 0x0 SWAP3 ADD SWAP2 SWAP1 SWAP2 MSTORE POP SWAP3 SWAP6 POP POP DUP3 CALLDATALOAD SWAP4 POP POP POP PUSH1 0x20 DUP2 ADD CALLDATALOAD SWAP1 PUSH1 0x40 DUP2 ADD CALLDATALOAD SWAP1 PUSH1 0x60 DUP2 ADD CALLDATALOAD SWAP1 PUSH1 0x80 DUP2 ADD CALLDATALOAD SWAP1 PUSH1 0xA0 DUP2 ADD CALLDATALOAD SWAP1 PUSH1 0xC0 ADD CALLDATALOAD PUSH2 0x7F6 JUMP JUMPDEST PUSH2 0x46B PUSH2 0x98D JUMP JUMPDEST PUSH1 0x40 DUP1 MLOAD PUSH1 0x1 PUSH1 0x1 PUSH1 0xA0 SHL SUB SWAP1 SWAP3 AND DUP3 MSTORE MLOAD SWAP1 DUP2 SWAP1 SUB PUSH1 0x20 ADD SWAP1 RETURN JUMPDEST PUSH2 0x4A4 PUSH1 0x4 DUP1 CALLDATASIZE SUB PUSH1 0x20 DUP2 LT ISZERO PUSH2 0x49D JUMPI PUSH1 0x0 DUP1 REVERT JUMPDEST POP CALLDATALOAD PUSH2 0x99D JUMP JUMPDEST PUSH1 0x40 DUP1 MLOAD PUSH1 0x20 DUP1 DUP3 MSTORE DUP4 MLOAD DUP2 DUP4 ADD MSTORE DUP4 MLOAD SWAP2 SWAP3 DUP4 SWAP3 SWAP1 DUP4 ADD SWAP2 DUP6 ADD SWAP1 DUP1 DUP4 DUP4 PUSH1 0x0 JUMPDEST DUP4 DUP2 LT ISZERO PUSH2 0x4DE JUMPI DUP2 DUP2 ADD MLOAD DUP4 DUP3 ADD MSTORE PUSH1 0x20 ADD PUSH2 0x4C6 JUMP JUMPDEST POP POP POP POP SWAP1 POP SWAP1 DUP2 ADD SWAP1 PUSH1 0x1F AND DUP1 ISZERO PUSH2 0x50B JUMPI DUP1 DUP3 SUB DUP1 MLOAD PUSH1 0x1 DUP4 PUSH1 0x20 SUB PUSH2 0x100 EXP SUB NOT AND DUP2 MSTORE PUSH1 0x20 ADD SWAP2 POP JUMPDEST POP SWAP3 POP POP POP PUSH1 0x40 MLOAD DUP1 SWAP2 SUB SWAP1 RETURN JUMPDEST PUSH2 0x288 PUSH1 0x4 DUP1 CALLDATASIZE SUB PUSH1 0x20 DUP2 LT ISZERO PUSH2 0x52F JUMPI PUSH1 0x0 DUP1 REVERT JUMPDEST POP CALLDATALOAD PUSH1 0x1 PUSH1 0x1 PUSH1 0xA0 SHL SUB AND PUSH2 0xA43 JUMP JUMPDEST DUP1 MLOAD PUSH1 0x20 DUP2 DUP4 ADD DUP2 ADD DUP1 MLOAD PUSH1 0x1 DUP1 DUP4 MSTORE SWAP4 DUP4 ADD SWAP5 DUP4 ADD SWAP5 SWAP1 SWAP5 KECCAK256 SWAP4 SWAP1 MSTORE DUP3 SLOAD DUP4 DUP4 ADD SLOAD PUSH1 0x2 DUP1 DUP7 ADD SLOAD PUSH1 0x3 DUP8 ADD SLOAD PUSH1 0x4 DUP9 ADD SLOAD PUSH1 0x5 DUP10 ADD SLOAD PUSH1 0x6 DUP11 ADD DUP1 SLOAD PUSH1 0x40 DUP1 MLOAD SWAP12 DUP3 AND ISZERO PUSH2 0x100 MUL PUSH1 0x0 NOT ADD SWAP1 SWAP2 AND SWAP7 SWAP1 SWAP7 DIV PUSH1 0x1F DUP2 ADD DUP11 SWAP1 DIV DUP11 MUL DUP12 ADD DUP11 ADD SWAP1 SWAP7 MSTORE DUP6 DUP11 MSTORE SWAP7 SWAP10 SWAP6 SWAP9 SWAP4 SWAP8 SWAP3 SWAP7 SWAP2 SWAP6 SWAP1 SWAP5 SWAP1 SWAP4 SWAP3 DUP4 ADD DUP3 DUP3 DUP1 ISZERO PUSH2 0x607 JUMPI DUP1 PUSH1 0x1F LT PUSH2 0x5DC JUMPI PUSH2 0x100 DUP1 DUP4 SLOAD DIV MUL DUP4 MSTORE SWAP2 PUSH1 0x20 ADD SWAP2 PUSH2 0x607 JUMP JUMPDEST DUP3 ADD SWAP2 SWAP1 PUSH1 0x0 MSTORE PUSH1 0x20 PUSH1 0x0 KECCAK256 SWAP1 JUMPDEST DUP2 SLOAD DUP2 MSTORE SWAP1 PUSH1 0x1 ADD SWAP1 PUSH1 0x20 ADD DUP1 DUP4 GT PUSH2 0x5EA JUMPI DUP3 SWAP1 SUB PUSH1 0x1F AND DUP3 ADD SWAP2 JUMPDEST POP POP POP POP PUSH1 0x7 DUP4 ADD DUP1 SLOAD PUSH1 0x40 DUP1 MLOAD PUSH1 0x20 PUSH1 0x2 PUSH1 0x1 DUP6 AND ISZERO PUSH2 0x100 MUL PUSH1 0x0 NOT ADD SWAP1 SWAP5 AND SWAP4 SWAP1 SWAP4 DIV PUSH1 0x1F DUP2 ADD DUP5 SWAP1 DIV DUP5 MUL DUP3 ADD DUP5 ADD SWAP1 SWAP3 MSTORE DUP2 DUP2 MSTORE SWAP5 SWAP6 SWAP5 SWAP4 POP SWAP1 DUP4 ADD DUP3 DUP3 DUP1 ISZERO PUSH2 0x697 JUMPI DUP1 PUSH1 0x1F LT PUSH2 0x66C JUMPI PUSH2 0x100 DUP1 DUP4 SLOAD DIV MUL DUP4 MSTORE SWAP2 PUSH1 0x20 ADD SWAP2 PUSH2 0x697 JUMP JUMPDEST DUP3 ADD SWAP2 SWAP1 PUSH1 0x0 MSTORE PUSH1 0x20 PUSH1 0x0 KECCAK256 SWAP1 JUMPDEST DUP2 SLOAD DUP2 MSTORE SWAP1 PUSH1 0x1 ADD SWAP1 PUSH1 0x20 ADD DUP1 DUP4 GT PUSH2 0x67A JUMPI DUP3 SWAP1 SUB PUSH1 0x1F AND DUP3 ADD SWAP2 JUMPDEST POP POP POP POP PUSH1 0x8 DUP4 ADD SLOAD PUSH1 0x9 DUP5 ADD DUP1 SLOAD PUSH1 0x40 DUP1 MLOAD PUSH1 0x20 PUSH1 0x2 PUSH1 0x1 DUP6 AND ISZERO PUSH2 0x100 MUL PUSH1 0x0 NOT ADD SWAP1 SWAP5 AND SWAP4 SWAP1 SWAP4 DIV PUSH1 0x1F DUP2 ADD DUP5 SWAP1 DIV DUP5 MUL DUP3 ADD DUP5 ADD SWAP1 SWAP3 MSTORE DUP2 DUP2 MSTORE SWAP6 SWAP7 SWAP4 SWAP6 SWAP4 SWAP5 POP SWAP1 DUP4 ADD DUP3 DUP3 DUP1 ISZERO PUSH2 0x72E JUMPI DUP1 PUSH1 0x1F LT PUSH2 0x703 JUMPI PUSH2 0x100 DUP1 DUP4 SLOAD DIV MUL DUP4 MSTORE SWAP2 PUSH1 0x20 ADD SWAP2 PUSH2 0x72E JUMP JUMPDEST DUP3 ADD SWAP2 SWAP1 PUSH1 0x0 MSTORE PUSH1 0x20 PUSH1 0x0 KECCAK256 SWAP1 JUMPDEST DUP2 SLOAD DUP2 MSTORE SWAP1 PUSH1 0x1 ADD SWAP1 PUSH1 0x20 ADD DUP1 DUP4 GT PUSH2 0x711 JUMPI DUP3 SWAP1 SUB PUSH1 0x1F AND DUP3 ADD SWAP2 JUMPDEST POP POP POP POP POP SWAP1 POP DUP11 JUMP JUMPDEST PUSH2 0x740 PUSH2 0xB57 JUMP JUMPDEST PUSH1 0x1 PUSH1 0x1 PUSH1 0xA0 SHL SUB AND PUSH2 0x751 PUSH2 0x98D JUMP JUMPDEST PUSH1 0x1 PUSH1 0x1 PUSH1 0xA0 SHL SUB AND EQ PUSH2 0x7AC JUMPI PUSH1 0x40 DUP1 MLOAD PUSH3 0x461BCD PUSH1 0xE5 SHL DUP2 MSTORE PUSH1 0x20 PUSH1 0x4 DUP3 ADD DUP2 SWAP1 MSTORE PUSH1 0x24 DUP3 ADD MSTORE PUSH32 0x4F776E61626C653A2063616C6C6572206973206E6F7420746865206F776E6572 PUSH1 0x44 DUP3 ADD MSTORE SWAP1 MLOAD SWAP1 DUP2 SWAP1 SUB PUSH1 0x64 ADD SWAP1 REVERT JUMPDEST PUSH1 0x0 DUP1 SLOAD PUSH1 0x40 MLOAD PUSH1 0x1 PUSH1 0x1 PUSH1 0xA0 SHL SUB SWAP1 SWAP2 AND SWAP1 PUSH32 0x8BE0079C531659141344CD1FD0A4F28419497F9722A3DAAFE3B4186F6B6457E0 SWAP1 DUP4 SWAP1 LOG3 PUSH1 0x0 DUP1 SLOAD PUSH1 0x1 PUSH1 0x1 PUSH1 0xA0 SHL SUB NOT AND SWAP1 SSTORE JUMP JUMPDEST PUSH2 0x7FE PUSH2 0xB57 JUMP JUMPDEST PUSH1 0x1 PUSH1 0x1 PUSH1 0xA0 SHL SUB AND PUSH2 0x80F PUSH2 0x98D JUMP JUMPDEST PUSH1 0x1 PUSH1 0x1 PUSH1 0xA0 SHL SUB AND EQ PUSH2 0x86A JUMPI PUSH1 0x40 DUP1 MLOAD PUSH3 0x461BCD PUSH1 0xE5 SHL DUP2 MSTORE PUSH1 0x20 PUSH1 0x4 DUP3 ADD DUP2 SWAP1 MSTORE PUSH1 0x24 DUP3 ADD MSTORE PUSH32 0x4F776E61626C653A2063616C6C6572206973206E6F7420746865206F776E6572 PUSH1 0x44 DUP3 ADD MSTORE SWAP1 MLOAD SWAP1 DUP2 SWAP1 SUB PUSH1 0x64 ADD SWAP1 REVERT JUMPDEST PUSH1 0x0 PUSH1 0x1 DUP12 PUSH1 0x40 MLOAD DUP1 DUP3 DUP1 MLOAD SWAP1 PUSH1 0x20 ADD SWAP1 DUP1 DUP4 DUP4 JUMPDEST PUSH1 0x20 DUP4 LT PUSH2 0x89E JUMPI DUP1 MLOAD DUP3 MSTORE PUSH1 0x1F NOT SWAP1 SWAP3 ADD SWAP2 PUSH1 0x20 SWAP2 DUP3 ADD SWAP2 ADD PUSH2 0x87F JUMP JUMPDEST MLOAD DUP2 MLOAD PUSH1 0x20 SWAP4 DUP5 SUB PUSH2 0x100 EXP PUSH1 0x0 NOT ADD DUP1 NOT SWAP1 SWAP3 AND SWAP2 AND OR SWAP1 MSTORE SWAP3 ADD SWAP5 DUP6 MSTORE POP PUSH1 0x40 MLOAD SWAP4 DUP5 SWAP1 SUB DUP2 ADD SWAP1 SWAP4 KECCAK256 DUP15 MLOAD SWAP1 SWAP5 POP PUSH2 0x8E2 SWAP4 PUSH1 0x9 DUP7 ADD SWAP4 POP DUP16 ADD SWAP2 POP PUSH2 0xB5B JUMP JUMPDEST POP DUP10 MLOAD PUSH2 0x8F8 SWAP1 PUSH1 0x6 DUP4 ADD SWAP1 PUSH1 0x20 DUP14 ADD SWAP1 PUSH2 0xB5B JUMP JUMPDEST POP DUP9 MLOAD PUSH2 0x90E SWAP1 PUSH1 0x7 DUP4 ADD SWAP1 PUSH1 0x20 DUP13 ADD SWAP1 PUSH2 0xB5B JUMP JUMPDEST POP PUSH1 0x8 DUP2 ADD DUP13 SWAP1 SSTORE DUP7 DUP2 SSTORE PUSH1 0x2 DUP1 DUP3 ADD DUP7 SWAP1 SSTORE PUSH1 0x1 DUP1 DUP4 ADD DUP9 SWAP1 SSTORE PUSH1 0x3 DUP4 ADD DUP7 SWAP1 SSTORE PUSH1 0x4 DUP4 ADD DUP6 SWAP1 SSTORE PUSH1 0x5 DUP4 ADD DUP5 SWAP1 SSTORE DUP2 SLOAD SWAP1 DUP2 ADD DUP3 SSTORE PUSH1 0x0 SWAP2 SWAP1 SWAP2 MSTORE DUP12 MLOAD PUSH2 0x97E SWAP2 PUSH32 0x405787FA12A823E0F2B7631CC41B3BA8828B3321CA811111FA75CD3AA3BB5ACE ADD SWAP1 PUSH1 0x20 DUP15 ADD SWAP1 PUSH2 0xB5B JUMP JUMPDEST POP POP POP POP POP POP POP POP POP POP POP POP POP JUMP JUMPDEST PUSH1 0x0 SLOAD PUSH1 0x1 PUSH1 0x1 PUSH1 0xA0 SHL SUB AND JUMPDEST SWAP1 JUMP JUMPDEST PUSH1 0x2 DUP2 DUP2 SLOAD DUP2 LT PUSH2 0x9AA JUMPI INVALID JUMPDEST PUSH1 0x0 SWAP2 DUP3 MSTORE PUSH1 0x20 SWAP2 DUP3 SWAP1 KECCAK256 ADD DUP1 SLOAD PUSH1 0x40 DUP1 MLOAD PUSH1 0x1F PUSH1 0x2 PUSH1 0x0 NOT PUSH2 0x100 PUSH1 0x1 DUP8 AND ISZERO MUL ADD SWAP1 SWAP5 AND SWAP4 SWAP1 SWAP4 DIV SWAP3 DUP4 ADD DUP6 SWAP1 DIV DUP6 MUL DUP2 ADD DUP6 ADD SWAP1 SWAP2 MSTORE DUP2 DUP2 MSTORE SWAP4 POP SWAP1 SWAP2 DUP4 ADD DUP3 DUP3 DUP1 ISZERO PUSH2 0xA3B JUMPI DUP1 PUSH1 0x1F LT PUSH2 0xA10 JUMPI PUSH2 0x100 DUP1 DUP4 SLOAD DIV MUL DUP4 MSTORE SWAP2 PUSH1 0x20 ADD SWAP2 PUSH2 0xA3B JUMP JUMPDEST DUP3 ADD SWAP2 SWAP1 PUSH1 0x0 MSTORE PUSH1 0x20 PUSH1 0x0 KECCAK256 SWAP1 JUMPDEST DUP2 SLOAD DUP2 MSTORE SWAP1 PUSH1 0x1 ADD SWAP1 PUSH1 0x20 ADD DUP1 DUP4 GT PUSH2 0xA1E JUMPI DUP3 SWAP1 SUB PUSH1 0x1F AND DUP3 ADD SWAP2 JUMPDEST POP POP POP POP POP DUP2 JUMP JUMPDEST PUSH2 0xA4B PUSH2 0xB57 JUMP JUMPDEST PUSH1 0x1 PUSH1 0x1 PUSH1 0xA0 SHL SUB AND PUSH2 0xA5C PUSH2 0x98D JUMP JUMPDEST PUSH1 0x1 PUSH1 0x1 PUSH1 0xA0 SHL SUB AND EQ PUSH2 0xAB7 JUMPI PUSH1 0x40 DUP1 MLOAD PUSH3 0x461BCD PUSH1 0xE5 SHL DUP2 MSTORE PUSH1 0x20 PUSH1 0x4 DUP3 ADD DUP2 SWAP1 MSTORE PUSH1 0x24 DUP3 ADD MSTORE PUSH32 0x4F776E61626C653A2063616C6C6572206973206E6F7420746865206F776E6572 PUSH1 0x44 DUP3 ADD MSTORE SWAP1 MLOAD SWAP1 DUP2 SWAP1 SUB PUSH1 0x64 ADD SWAP1 REVERT JUMPDEST PUSH1 0x1 PUSH1 0x1 PUSH1 0xA0 SHL SUB DUP2 AND PUSH2 0xAFC JUMPI PUSH1 0x40 MLOAD PUSH3 0x461BCD PUSH1 0xE5 SHL DUP2 MSTORE PUSH1 0x4 ADD DUP1 DUP1 PUSH1 0x20 ADD DUP3 DUP2 SUB DUP3 MSTORE PUSH1 0x26 DUP2 MSTORE PUSH1 0x20 ADD DUP1 PUSH2 0xBF4 PUSH1 0x26 SWAP2 CODECOPY PUSH1 0x40 ADD SWAP2 POP POP PUSH1 0x40 MLOAD DUP1 SWAP2 SUB SWAP1 REVERT JUMPDEST PUSH1 0x0 DUP1 SLOAD PUSH1 0x40 MLOAD PUSH1 0x1 PUSH1 0x1 PUSH1 0xA0 SHL SUB DUP1 DUP6 AND SWAP4 SWAP3 AND SWAP2 PUSH32 0x8BE0079C531659141344CD1FD0A4F28419497F9722A3DAAFE3B4186F6B6457E0 SWAP2 LOG3 PUSH1 0x0 DUP1 SLOAD PUSH1 0x1 PUSH1 0x1 PUSH1 0xA0 SHL SUB NOT AND PUSH1 0x1 PUSH1 0x1 PUSH1 0xA0 SHL SUB SWAP3 SWAP1 SWAP3 AND SWAP2 SWAP1 SWAP2 OR SWAP1 SSTORE JUMP JUMPDEST CALLER SWAP1 JUMP JUMPDEST DUP3 DUP1 SLOAD PUSH1 0x1 DUP2 PUSH1 0x1 AND ISZERO PUSH2 0x100 MUL SUB AND PUSH1 0x2 SWAP1 DIV SWAP1 PUSH1 0x0 MSTORE PUSH1 0x20 PUSH1 0x0 KECCAK256 SWAP1 PUSH1 0x1F ADD PUSH1 0x20 SWAP1 DIV DUP2 ADD SWAP3 DUP3 PUSH1 0x1F LT PUSH2 0xB9C JUMPI DUP1 MLOAD PUSH1 0xFF NOT AND DUP4 DUP1 ADD OR DUP6 SSTORE PUSH2 0xBC9 JUMP JUMPDEST DUP3 DUP1 ADD PUSH1 0x1 ADD DUP6 SSTORE DUP3 ISZERO PUSH2 0xBC9 JUMPI SWAP2 DUP3 ADD JUMPDEST DUP3 DUP2 GT ISZERO PUSH2 0xBC9 JUMPI DUP3 MLOAD DUP3 SSTORE SWAP2 PUSH1 0x20 ADD SWAP2 SWAP1 PUSH1 0x1 ADD SWAP1 PUSH2 0xBAE JUMP JUMPDEST POP PUSH2 0xBD5 SWAP3 SWAP2 POP PUSH2 0xBD9 JUMP JUMPDEST POP SWAP1 JUMP JUMPDEST PUSH2 0x99A SWAP2 SWAP1 JUMPDEST DUP1 DUP3 GT ISZERO PUSH2 0xBD5 JUMPI PUSH1 0x0 DUP2 SSTORE PUSH1 0x1 ADD PUSH2 0xBDF JUMP INVALID 0x4F PUSH24 0x6E61626C653A206E6577206F776E65722069732074686520 PUSH27 0x65726F2061646472657373A264697066735822122011DA394B9521 0xB2 0x22 LOG0 MSTORE8 JUMPDEST DUP14 0xC0 PUSH28 0x7927479B17713C75C9B2A20D9516AD621A3C64736F6C634300060600 CALLER ",
  "sha1": "35f363ec061fc33f9d6d1e501619726346ba3c51",
  "source": "pragma solidity 0.6.6;\n\nimport \"@openzeppelin/contracts/access/Ownable.sol\";\n\ncontract PokemonBaseStatData is Ownable {\n\n    mapping(string => PokemonBaseStats) public pokemonNameToPokemonBaseStats;\n    string[] public listOfPokemonNames;\n\n    struct PokemonBaseStats {\n        uint256 hp;\n        uint256 atk;\n        uint256 def;\n        uint256 spa;\n        uint256 spd;\n        uint256 spe;\n        string type1;\n        string type2;\n        uint256 number; \n        string pokemonName;\n    }\n\n    constructor()\n    public \n    {\n        createBaseStatPokemon(1,\"Bulbasaur\",\"Grass\",\"Poison\",318,45,49,49,65,65,45);\n        createBaseStatPokemon(2,\"Ivysaur\",\"Grass\",\"Poison\",405,60,62,63,80,80,60);\n        createBaseStatPokemon(3,\"Venusaur\",\"Grass\",\"Poison\",525,80,82,83,100,100,80);\n        // createBaseStatPokemon(3,\"Mega Venusaur\",\"Grass\",\"Poison\",625,80,100,123,122,120,80);\n        // createBaseStatPokemon(3,\"Gigantamax Venusaur\",\"Grass\",\"Poison\",525,80,82,83,100,100,80);\n        // createBaseStatPokemon(4,\"Charmander\",\"Fire\",\"None\",309,39,52,43,60,50,65);\n        // createBaseStatPokemon(5,\"Charmeleon\",\"Fire\",\"None\",405,58,64,58,80,65,80);\n        // createBaseStatPokemon(6,\"Charizard\",\"Fire\",\"Flying\",534,78,84,78,109,85,100);\n        // createBaseStatPokemon(6,\"Mega Charizard x\",\"Fire\",\"Dragon\",634,78,130,111,130,85,100);\n        // createBaseStatPokemon(6,\"Mega Charizard y\",\"Fire\",\"Flying\",634,78,104,78,159,115,100);\n        // createBaseStatPokemon(6,\"Gigantamax Charizard\",\"Fire\",\"Flying\",534,78,84,78,109,85,100);\n        // createBaseStatPokemon(7,\"Squirtle\",\"Water\",\"None\",314,44,48,65,50,64,43);\n        // createBaseStatPokemon(8,\"Wartortle\",\"Water\",\"None\",405,59,63,80,65,80,58);\n        // createBaseStatPokemon(9,\"Blastoise\",\"Water\",\"None\",530,79,83,100,85,105,78);\n        // createBaseStatPokemon(9,\"Mega Blastoise\",\"Water\",\"None\",630,79,103,120,135,115,78);\n        // createBaseStatPokemon(9,\"Gigantamax Blasoise\",\"Blastoise\",\"Water\",530,79,83,100,85,105,78);\n        // createBaseStatPokemon(10,\"Caterpie\",\"Bug\",\"None\",195,45,30,35,20,20,45);\n        // createBaseStatPokemon(11,\"Metapod\",\"Bug\",\"None\",205,50,20,55,25,25,30);\n        // createBaseStatPokemon(12,\"Butterfree\",\"Bug\",\"Flying\",395,60,45,50,90,80,70);\n        // createBaseStatPokemon(12,\"Gigantamax Butterfree\",\"Bug\",\"Flying\",395,60,45,50,90,80,70);\n        // createBaseStatPokemon(13,\"Weedle\",\"Bug\",\"Poison\",195,40,35,30,20,20,50);\n        // createBaseStatPokemon(14,\"Kakuna\",\"Bug\",\"Poison\",205,45,25,50,25,25,35);\n        // createBaseStatPokemon(15,\"Beedrill\",\"Bug\",\"Poison\",395,65,90,40,45,80,75);\n        // createBaseStatPokemon(15,\"Mega Beedrill\",\"Bug\",\"Poison\",495,65,150,40,15,80,145);\n        // createBaseStatPokemon(16,\"Pidgey\",\"Normal\",\"Flying\",251,40,45,40,35,35,56);\n        // createBaseStatPokemon(17,\"Pidgeotto\",\"Normal\",\"Flying\",349,63,60,55,50,50,71);\n        // createBaseStatPokemon(18,\"Pidgeot\",\"Normal\",\"Flying\",479,83,80,75,70,70,101);\n        // createBaseStatPokemon(18,\"Mega Pidgeot\",\"Normal\",\"Flying\",579,83,80,80,135,80,121);\n        // createBaseStatPokemon(19,\"Rattata\",\"Normal\",\"None\",253,30,56,35,25,35,72);\n        // createBaseStatPokemon(19,\"Alolan Rattata\",\"Dark\",\"Normal\",253,30,56,35,25,35,72);\n        // createBaseStatPokemon(20,\"Raticate\",\"Normal\",\"None\",413,55,81,60,50,70,97);\n        // createBaseStatPokemon(20,\"Alolan Raticate\",\"Dark\",\"Normal\",413,75,71,70,40,80,77);\n        // createBaseStatPokemon(21,\"Spearow\",\"Normal\",\"Flying\",262,40,60,30,31,31,70);\n        // createBaseStatPokemon(22,\"Fearow\",\"Normal\",\"Flying\",442,65,90,65,61,61,100);\n        // createBaseStatPokemon(23,\"Ekans\",\"Poison\",\"None\",288,35,60,44,40,54,55);\n        // createBaseStatPokemon(24,\"Arbok\",\"Poison\",\"None\",438,60,85,69,65,79,80);\n        // createBaseStatPokemon(25,\"Pikachu\",\"Electric\",\"None\",320,35,55,40,50,50,90);\n        // createBaseStatPokemon(25,\"Gigantamax Pikachu\",\"Electric\",\"None\",320,35,55,40,50,50,90);\n        // createBaseStatPokemon(26,\"Raichu\",\"Electric\",\"None\",485,60,90,55,90,80,110);\n        // createBaseStatPokemon(26,\"Alolan Raichu\",\"Electric\",\"Psychic\",485,60,85,50,95,85,110);\n        // createBaseStatPokemon(27,\"Sandshrew\",\"Ground\",\"None\",300,50,75,85,20,30,40);\n        // createBaseStatPokemon(27,\"Alolan Sandshrew\",\"Ice\",\"Steel\",300,50,75,90,10,35,40);\n        // createBaseStatPokemon(28,\"Sandslash\",\"Ground\",\"None\",450,75,100,110,45,55,65);\n        // createBaseStatPokemon(28,\"Alolan Sandslash\",\"Ice\",\"Steel\",450,75,100,120,25,65,65);\n        // createBaseStatPokemon(29,\"Nidoran♀\",\"Poison\",\"None\",275,55,47,52,40,40,41);\n        // createBaseStatPokemon(30,\"Nidorina\",\"Poison\",\"None\",365,70,62,67,55,55,56);\n        // createBaseStatPokemon(31,\"Nidoqueen\",\"Poison\",\"Ground\",505,90,92,87,75,85,76);\n        // createBaseStatPokemon(32,\"Nidoran♂\",\"Poison\",\"None\",273,46,57,40,40,40,50);\n        // createBaseStatPokemon(33,\"Nidorino\",\"Poison\",\"None\",365,61,72,57,55,55,65);\n        // createBaseStatPokemon(34,\"Nidoking\",\"Poison\",\"Ground\",505,81,102,77,85,75,85);\n        // createBaseStatPokemon(35,\"Clefairy\",\"Fairy\",\"None\",323,70,45,48,60,65,35);\n        // createBaseStatPokemon(36,\"Clefable\",\"Fairy\",\"None\",483,95,70,73,95,90,60);\n        // createBaseStatPokemon(37,\"Vulpix\",\"Fire\",\"None\",299,38,41,40,50,65,65);\n        // createBaseStatPokemon(37,\"Alolan Vulpix\",\"Ice\",\"None\",299,38,41,40,50,65,65);\n        // createBaseStatPokemon(38,\"Ninetales\",\"Fire\",\"None\",505,73,76,75,81,100,100);\n        // createBaseStatPokemon(38,\"Alolan Ninetales\",\"Ice\",\"Fairy\",505,73,67,75,81,100,109);\n        // createBaseStatPokemon(39,\"Jigglypuff\",\"Normal\",\"Fairy\",270,115,45,20,45,25,20);\n        // createBaseStatPokemon(40,\"Wigglytuff\",\"Normal\",\"Fairy\",435,140,70,45,85,50,45);\n        // createBaseStatPokemon(41,\"Zubat\",\"Poison\",\"Flying\",245,40,45,35,30,40,55);\n        // createBaseStatPokemon(42,\"Golbat\",\"Poison\",\"Flying\",455,75,80,70,65,75,90);\n        // createBaseStatPokemon(43,\"Oddish\",\"Grass\",\"Poison\",320,45,50,55,75,65,30);\n        // createBaseStatPokemon(44,\"Gloom\",\"Grass\",\"Poison\",395,60,65,70,85,75,40);\n        // createBaseStatPokemon(45,\"Vileplume\",\"Grass\",\"Poison\",490,75,80,85,110,90,50);\n        // createBaseStatPokemon(46,\"Paras\",\"Bug\",\"Grass\",285,35,70,55,45,55,25);\n        // createBaseStatPokemon(47,\"Parasect\",\"Bug\",\"Grass\",405,60,95,80,60,80,30);\n        // createBaseStatPokemon(48,\"Venonat\",\"Bug\",\"Poison\",305,60,55,50,40,55,45);\n        // createBaseStatPokemon(49,\"Venomoth\",\"Bug\",\"Poison\",450,70,65,60,90,75,90);\n        // createBaseStatPokemon(50,\"Diglett\",\"Ground\",\"None\",265,10,55,25,35,45,95);\n        // createBaseStatPokemon(50,\"Alolan Diglett\",\"Ground\",\"Steel\",265,10,55,30,35,45,90);\n        // createBaseStatPokemon(51,\"Dugtrio\",\"Ground\",\"None\",405,35,80,50,50,70,120);\n        // createBaseStatPokemon(51,\"Alolan Dugtrio\",\"Ground\",\"Steel\",425,35,100,60,50,70,110);\n        // createBaseStatPokemon(52,\"Meowth\",\"Normal\",\"None\",290,40,45,35,40,40,90);\n        // createBaseStatPokemon(53,\"Gigantamax Meowth\",\"Normal\",\"None\",290,40,45,35,40,40,90);\n        // createBaseStatPokemon(52,\"Alolan Meowth\",\"Dark\",\"None\",290,40,35,35,50,40,90);\n        // createBaseStatPokemon(52,\"Galarian Meowth\",\"Steel\",\"None\",290,50,65,55,40,40,40);\n        // createBaseStatPokemon(53,\"Persian\",\"Normal\",\"None\",440,65,70,60,65,65,115);\n        // createBaseStatPokemon(53,\"Alolan Persian\",\"Dark\",\"None\",440,65,60,60,75,65,115);\n        // createBaseStatPokemon(54,\"Psyduck\",\"Water\",\"None\",320,50,52,48,65,50,55);\n        // createBaseStatPokemon(55,\"Golduck\",\"Water\",\"None\",500,80,82,78,95,80,85);\n        // createBaseStatPokemon(56,\"Mankey\",\"Fighting\",\"None\",305,40,80,35,35,45,70);\n        // createBaseStatPokemon(57,\"Primeape\",\"Fighting\",\"None\",455,65,105,60,60,70,95);\n        // createBaseStatPokemon(58,\"Growlithe\",\"Fire\",\"None\",350,55,70,45,70,50,60);\n        // createBaseStatPokemon(59,\"Arcanine\",\"Fire\",\"None\",555,90,110,80,100,80,95);\n        // createBaseStatPokemon(60,\"Poliwag\",\"Water\",\"None\",300,40,50,40,40,40,90);\n        // createBaseStatPokemon(61,\"Poliwhirl\",\"Water\",\"None\",385,65,65,65,50,50,90);\n        // createBaseStatPokemon(62,\"Poliwrath\",\"Water\",\"Fighting\",510,90,95,95,70,90,70);\n        // createBaseStatPokemon(63,\"Abra\",\"Psychic\",\"None\",310,25,20,15,105,55,90);\n        // createBaseStatPokemon(64,\"Kadabra\",\"Psychic\",\"None\",400,40,35,30,120,70,105);\n        // createBaseStatPokemon(65,\"Alakazam\",\"Psychic\",\"None\",500,55,50,45,135,95,120);\n        // createBaseStatPokemon(65,\"Mega Alakazam\",\"Psychic\",\"None\",590,55,50,65,175,95,150);\n        // createBaseStatPokemon(66,\"Machop\",\"Fighting\",\"None\",305,70,80,50,35,35,35);\n        // createBaseStatPokemon(67,\"Machoke\",\"Fighting\",\"None\",405,80,100,70,50,60,45);\n        // createBaseStatPokemon(68,\"Machamp\",\"Fighting\",\"None\",505,90,130,80,65,85,55);\n        // createBaseStatPokemon(68,\"Gigantamax Machamp\",\"Fighting\",\"None\",505,90,130,80,65,85,55);\n        // createBaseStatPokemon(69,\"Bellsprout\",\"Grass\",\"Poison\",300,50,75,35,70,30,40);\n        // createBaseStatPokemon(70,\"Weepinbell\",\"Grass\",\"Poison\",390,65,90,50,85,45,55);\n        // createBaseStatPokemon(71,\"Victreebel\",\"Grass\",\"Poison\",490,80,105,65,100,70,70);\n        // createBaseStatPokemon(72,\"Tentacool\",\"Water\",\"Poison\",335,40,40,35,50,100,70);\n        // createBaseStatPokemon(73,\"Tentacruel\",\"Water\",\"Poison\",515,80,70,65,80,120,100);\n        // createBaseStatPokemon(74,\"Geodude\",\"Rock\",\"Ground\",300,40,80,100,30,30,20);\n        // createBaseStatPokemon(74,\"Alolan Geodude\",\"Rock\",\"Electric\",300,40,80,100,30,30,20);\n        // createBaseStatPokemon(75,\"Graveler\",\"Rock\",\"Ground\",390,55,95,115,45,45,35);\n        // createBaseStatPokemon(75,\"Alolan Graveler\",\"Rock\",\"Electric\",390,55,95,115,45,45,35);\n        // createBaseStatPokemon(76,\"Golem\",\"Rock\",\"Ground\",495,80,120,130,55,65,45);\n        // createBaseStatPokemon(76,\"Alolan Golem\",\"Rock\",\"Electric\",495,80,120,130,55,65,45);\n        // createBaseStatPokemon(77,\"Ponyta\",\"Fire\",\"None\",410,50,85,55,65,65,90);\n        // createBaseStatPokemon(77,\"Galarian Ponyta\",\"Psychic\",\"Fairy\",410,50,85,55,65,65,90);\n        // createBaseStatPokemon(78,\"Rapidash\",\"Fire\",\"None\",500,65,100,70,80,80,105);\n        // createBaseStatPokemon(78,\"Galarian Rapidash\",\"Psychic\",\"Fairy\",500,65,100,70,80,80,105);\n        // createBaseStatPokemon(79,\"Slowpoke\",\"Water\",\"Psychic\",315,90,65,65,40,40,15);\n        // createBaseStatPokemon(79,\"Galarian Slowpoke\",\"Psychic\",\"None\",315,90,65,65,40,40,15);\n        // createBaseStatPokemon(80,\"Slowbro\",\"Water\",\"Psychic\",490,95,75,110,100,80,30);\n        // createBaseStatPokemon(80,\"Galarian Slowbro\",\"Poison\",\"Psychic\",490,95,100,95,100,70,30);\n        // createBaseStatPokemon(80,\"Mega Slowbro\",\"Water\",\"Psychic\",590,95,75,180,130,80,30);\n        // createBaseStatPokemon(81,\"Magnemite\",\"Electric\",\"Steel\",325,25,35,70,95,55,45);\n        // createBaseStatPokemon(82,\"Magneton\",\"Electric\",\"Steel\",465,50,60,95,120,70,70);\n        // createBaseStatPokemon(83,\"Farfetch'd\",\"Normal\",\"Flying\",352,52,90,55,58,62,60);\n        // createBaseStatPokemon(83,\"Galarian Farfetched\",\"Fighting\",\"None\",377,52,95,55,58,62,55);\n        // createBaseStatPokemon(84,\"Doduo\",\"Normal\",\"Flying\",310,35,85,45,35,35,75);\n        // createBaseStatPokemon(85,\"Dodrio\",\"Normal\",\"Flying\",460,60,110,70,60,60,100);\n        // createBaseStatPokemon(86,\"Seel\",\"Water\",\"None\",325,65,45,55,45,70,45);\n        // createBaseStatPokemon(87,\"Dewgong\",\"Water\",\"Ice\",475,90,70,80,70,95,70);\n        // createBaseStatPokemon(88,\"Grimer\",\"Poison\",\"None\",325,80,80,50,40,50,25);\n        // createBaseStatPokemon(88,\"Alolan Grimer\",\"Poison\",\"Dark\",325,80,80,50,40,50,25);\n        // createBaseStatPokemon(89,\"Muk\",\"Poison\",\"None\",500,105,105,75,65,100,50);\n        // createBaseStatPokemon(89,\"Alolan Muk\",\"Poison\",\"Dark\",500,105,105,75,65,100,50);\n        // createBaseStatPokemon(90,\"Shellder\",\"Water\",\"None\",305,30,65,100,45,25,40);\n        // createBaseStatPokemon(91,\"Cloyster\",\"Water\",\"Ice\",525,50,95,180,85,45,70);\n        // createBaseStatPokemon(92,\"Gastly\",\"Ghost\",\"Poison\",310,30,35,30,100,35,80);\n        // createBaseStatPokemon(93,\"Haunter\",\"Ghost\",\"Poison\",405,45,50,45,115,55,95);\n        // createBaseStatPokemon(94,\"Gengar\",\"Ghost\",\"Poison\",500,60,65,60,130,75,110);\n        // createBaseStatPokemon(94,\"Mega Gengar\",\"Ghost\",\"Poison\",600,60,65,80,170,95,130);\n        // createBaseStatPokemon(94,\"Gigantamax Gengar\",\"Ghost\",\"Poison\",500,60,65,60,130,75,110);\n        // createBaseStatPokemon(95,\"Onix\",\"Rock\",\"Ground\",385,35,45,160,30,45,70);\n        // createBaseStatPokemon(96,\"Drowzee\",\"Psychic\",\"None\",328,60,48,45,43,90,42);\n        // createBaseStatPokemon(97,\"Hypno\",\"Psychic\",\"None\",483,85,73,70,73,115,67);\n        // createBaseStatPokemon(98,\"Krabby\",\"Water\",\"None\",325,30,105,90,25,25,50);\n        // createBaseStatPokemon(99,\"Kingler\",\"Water\",\"None\",475,55,130,115,50,50,75);\n        // createBaseStatPokemon(99,\"Gigantamax Kingler\",\"Water\",\"None\",475,55,130,115,50,50,75);\n        // createBaseStatPokemon(100,\"Voltorb\",\"Electric\",\"None\",330,40,30,50,55,55,100);\n        // createBaseStatPokemon(101,\"Electrode\",\"Electric\",\"None\",480,60,50,70,80,80,140);\n        // createBaseStatPokemon(102,\"Exeggcute\",\"Grass\",\"Psychic\",325,60,40,80,60,45,40);\n        // createBaseStatPokemon(103,\"Exeggutor\",\"Grass\",\"Psychic\",520,95,95,85,125,65,55);\n        // createBaseStatPokemon(103,\"Alolan Exeggutor\",\"Grass\",\"Dragon\",530,95,105,85,125,75,45);\n        // createBaseStatPokemon(104,\"Cubone\",\"Ground\",\"None\",320,50,50,95,40,50,35);\n        // createBaseStatPokemon(105,\"Marowak\",\"Ground\",\"None\",425,60,80,110,50,80,45);\n        // createBaseStatPokemon(105,\"Alolan Marowak\",\"Fire\",\"Ghost\",425,60,80,110,50,80,45);\n        // createBaseStatPokemon(106,\"Hitmonlee\",\"Fighting\",\"None\",455,50,120,53,35,110,87);\n        // createBaseStatPokemon(107,\"Hitmonchan\",\"Fighting\",\"None\",455,50,105,79,35,110,76);\n        // createBaseStatPokemon(108,\"Lickitung\",\"Normal\",\"None\",385,90,55,75,60,75,30);\n        // createBaseStatPokemon(109,\"Koffing\",\"Poison\",\"None\",340,40,65,95,60,45,35);\n        // createBaseStatPokemon(110,\"Weezing\",\"Poison\",\"None\",490,65,90,120,85,70,60);\n        // createBaseStatPokemon(110,\"Galarian Weezing\",\"Poison\",\"Fairy\",490,65,90,120,85,70,60);\n        // createBaseStatPokemon(111,\"Rhyhorn\",\"Ground\",\"Rock\",345,80,85,95,30,30,25);\n        // createBaseStatPokemon(112,\"Rhydon\",\"Ground\",\"Rock\",485,105,130,120,45,45,40);\n        // createBaseStatPokemon(113,\"Chansey\",\"Normal\",\"None\",450,250,5,5,35,105,50);\n        // createBaseStatPokemon(114,\"Tangela\",\"Grass\",\"None\",435,65,55,115,100,40,60);\n        // createBaseStatPokemon(115,\"Kangaskhan\",\"Normal\",\"None\",490,105,95,80,40,80,90);\n        // createBaseStatPokemon(115,\"Mega Kangaskhan\",\"Normal\",\"None\",590,105,125,100,60,100,100);\n        // createBaseStatPokemon(116,\"Horsea\",\"Water\",\"None\",295,30,40,70,70,25,60);\n        // createBaseStatPokemon(117,\"Seadra\",\"Water\",\"None\",440,55,65,95,95,45,85);\n        // createBaseStatPokemon(118,\"Goldeen\",\"Water\",\"None\",320,45,67,60,35,50,63);\n        // createBaseStatPokemon(119,\"Seaking\",\"Water\",\"None\",450,80,92,65,65,80,68);\n        // createBaseStatPokemon(120,\"Staryu\",\"Water\",\"None\",340,30,45,55,70,55,85);\n        // createBaseStatPokemon(121,\"Starmie\",\"Water\",\"Psychic\",520,60,75,85,100,85,115);\n        // createBaseStatPokemon(122,\"Mr. Mime\",\"Psychic\",\"Fairy\",460,40,45,65,100,120,90);\n        // createBaseStatPokemon(122,\"Galarian Mr. Mime\",\"Ice\",\"Psychic\",460,50,65,65,90,90,100);\n        // createBaseStatPokemon(123,\"Scyther\",\"Bug\",\"Flying\",500,70,110,80,55,80,105);\n        // createBaseStatPokemon(124,\"Jynx\",\"Ice\",\"Psychic\",455,65,50,35,115,95,95);\n        // createBaseStatPokemon(125,\"Electabuzz\",\"Electric\",\"None\",490,65,83,57,95,85,105);\n        // createBaseStatPokemon(126,\"Magmar\",\"Fire\",\"None\",495,65,95,57,100,85,93);\n        // createBaseStatPokemon(127,\"Pinsir\",\"Bug\",\"None\",500,65,125,100,55,70,85);\n        // createBaseStatPokemon(127,\"Mega Pinsir\",\"Bug\",\"Flying\",600,65,155,120,65,90,105);\n        // createBaseStatPokemon(128,\"Tauros\",\"Normal\",\"None\",490,75,100,95,40,70,110);\n        // createBaseStatPokemon(129,\"Magikarp\",\"Water\",\"None\",200,20,10,55,15,20,80);\n        // createBaseStatPokemon(130,\"Gyarados\",\"Water\",\"Flying\",540,95,125,79,60,100,81);\n        // createBaseStatPokemon(130,\"Mega Gyarados\",\"Water\",\"Dark\",640,95,155,109,70,130,81);\n        // createBaseStatPokemon(131,\"Lapras\",\"Water\",\"Ice\",535,130,85,80,85,95,60);\n        // createBaseStatPokemon(131,\"Gigantamax Lapras\",\"Water\",\"Ice\",535,130,85,80,85,95,60);\n        // createBaseStatPokemon(132,\"Ditto\",\"Normal\",\"None\",288,48,48,48,48,48,48);\n        // createBaseStatPokemon(133,\"Eevee\",\"Normal\",\"None\",325,55,55,50,45,65,55);\n        // createBaseStatPokemon(133,\"Gigantamax Eevee\",\"Normal\",\"None\",325,55,55,50,45,65,55);\n        // createBaseStatPokemon(134,\"Vaporeon\",\"Water\",\"None\",525,130,65,60,110,95,65);\n        // createBaseStatPokemon(135,\"Jolteon\",\"Electric\",\"None\",525,65,65,60,110,95,130);\n        // createBaseStatPokemon(136,\"Flareon\",\"Fire\",\"None\",525,65,130,60,95,110,65);\n        // createBaseStatPokemon(137,\"Porygon\",\"Normal\",\"None\",395,65,60,70,85,75,40);\n        // createBaseStatPokemon(138,\"Omanyte\",\"Rock\",\"Water\",355,35,40,100,90,55,35);\n        // createBaseStatPokemon(139,\"Omastar\",\"Rock\",\"Water\",495,70,60,125,115,70,55);\n        // createBaseStatPokemon(140,\"Kabuto\",\"Rock\",\"Water\",355,30,80,90,55,45,55);\n        // createBaseStatPokemon(141,\"Kabutops\",\"Rock\",\"Water\",495,60,115,105,65,70,80);\n        // createBaseStatPokemon(142,\"Aerodactyl\",\"Rock\",\"Flying\",515,80,105,65,60,75,130);\n        // createBaseStatPokemon(142,\"Mega Aerodactyl\",\"Rock\",\"Flying\",615,80,135,85,70,95,150);\n        // createBaseStatPokemon(143,\"Snorlax\",\"Normal\",\"None\",540,160,110,65,65,110,30);\n        // createBaseStatPokemon(143,\"Gigantamax Snorlax\",\"Normal\",\"None\",540,160,110,65,65,110,30);\n        // createBaseStatPokemon(144,\"Articuno\",\"Ice\",\"Flying\",580,90,85,100,95,125,85);\n        // createBaseStatPokemon(144,\"Galarian Articuno\",\"Psychic\",\"Flying\",580,90,85,85,125,100,95);\n        // createBaseStatPokemon(145,\"Zapdos\",\"Electric\",\"Flying\",580,90,90,85,125,90,100);\n        // createBaseStatPokemon(145,\"Galarian Zapdos\",\"Fighting\",\"Flying\",580,90,125,90,85,90,100);\n        // createBaseStatPokemon(146,\"Moltres\",\"Fire\",\"Flying\",580,90,100,90,125,85,90);\n        // createBaseStatPokemon(146,\"Galarian Moltres\",\"Dark\",\"Flying\",580,90,85,90,100,125,90);\n        // createBaseStatPokemon(147,\"Dratini\",\"Dragon\",\"None\",300,41,64,45,50,50,50);\n        // createBaseStatPokemon(148,\"Dragonair\",\"Dragon\",\"None\",420,61,84,65,70,70,70);\n        // createBaseStatPokemon(149,\"Dragonite\",\"Dragon\",\"Flying\",600,91,134,95,100,100,80);\n        // createBaseStatPokemon(150,\"Mewtwo\",\"Psychic\",\"None\",680,106,110,90,154,90,130);\n        // createBaseStatPokemon(150,\"Mega Mewtwo x\",\"Psychic\",\"Fighting\",780,106,190,100,154,100,130);\n        // createBaseStatPokemon(150,\"Mega Mewtwo y\",\"Psychic\",\"None\",780,106,150,70,194,120,140);\n        // createBaseStatPokemon(151,\"Mew\",\"Psychic\",\"None\",600,100,100,100,100,100,100);\n\n\n\n\n\n        // createBaseStatPokemon(152,\"Chikorita\",\"Grass\",\"None\",318,45,49,65,49,65,45);\n        // createBaseStatPokemon(153,\"Bayleef\",\"Grass\",\"None\",405,60,62,80,63,80,60);\n        // createBaseStatPokemon(154,\"Meganium\",\"Grass\",\"None\",525,80,82,100,83,100,80);\n        // createBaseStatPokemon(155,\"Cyndaquil\",\"Fire\",\"None\",309,39,52,43,60,50,65);\n        // createBaseStatPokemon(156,\"Quilava\",\"Fire\",\"None\",405,58,64,58,80,65,80);\n        // createBaseStatPokemon(157,\"Typhlosion\",\"Fire\",\"None\",534,78,84,78,109,85,100);\n        // createBaseStatPokemon(158,\"Totodile\",\"Water\",\"None\",314,50,65,64,44,48,43);\n        // createBaseStatPokemon(159,\"Croconaw\",\"Water\",\"None\",405,65,80,80,59,63,58);\n        // createBaseStatPokemon(160,\"Feraligatr\",\"Water\",\"None\",530,85,105,100,79,83,78);\n        // createBaseStatPokemon(161,\"Sentret\",\"Normal\",\"None\",215,35,46,34,35,45,20);\n        // createBaseStatPokemon(162,\"Furret\",\"Normal\",\"None\",415,85,76,64,45,55,90);\n        // createBaseStatPokemon(163,\"Hoothoot\",\"Normal\",\"Flying\",262,60,30,30,36,56,50);\n        // createBaseStatPokemon(164,\"Noctowl\",\"Normal\",\"Flying\",442,100,50,50,76,96,70);\n        // createBaseStatPokemon(165,\"Ledyba\",\"Bug\",\"Flying\",265,40,20,30,40,80,55);\n        // createBaseStatPokemon(166,\"Ledian\",\"Bug\",\"Flying\",390,55,35,50,55,110,85);\n        // createBaseStatPokemon(167,\"Spinarak\",\"Bug\",\"Poison\",250,40,60,40,40,40,30);\n        // createBaseStatPokemon(168,\"Ariados\",\"Bug\",\"Poison\",390,70,90,70,60,60,40);\n        // createBaseStatPokemon(169,\"Crobat\",\"Poison\",\"Flying\",535,85,90,80,70,80,130);\n        // createBaseStatPokemon(170,\"Chinchou\",\"Water\",\"Electric\",330,75,38,38,56,56,67);\n        // createBaseStatPokemon(171,\"Lanturn\",\"Water\",\"Electric\",460,125,58,58,76,76,67);\n        // createBaseStatPokemon(172,\"Pichu\",\"Electric\",\"None\",205,20,40,15,35,35,60);\n        // createBaseStatPokemon(173,\"Cleffa\",\"Fairy\",\"None\",218,50,25,28,45,55,15);\n        // createBaseStatPokemon(174,\"Igglybuff\",\"Normal\",\"Fairy\",210,90,30,15,40,20,15);\n        // createBaseStatPokemon(175,\"Togepi\",\"Fairy\",\"None\",245,35,20,65,40,65,20);\n        // createBaseStatPokemon(176,\"Togetic\",\"Fairy\",\"Flying\",405,55,40,85,80,105,40);\n        // createBaseStatPokemon(177,\"Natu\",\"Psychic\",\"Flying\",320,40,50,45,70,45,70);\n        // createBaseStatPokemon(178,\"Xatu\",\"Psychic\",\"Flying\",470,65,75,70,95,70,95);\n        // createBaseStatPokemon(179,\"Mareep\",\"Electric\",\"None\",280,55,40,40,65,45,35);\n        // createBaseStatPokemon(180,\"Flaaffy\",\"Electric\",\"None\",365,70,55,55,80,60,45);\n        // createBaseStatPokemon(181,\"Ampharos\",\"Electric\",\"None\",510,90,75,85,115,90,55);\n        // createBaseStatPokemon(181,\"Mega Ampharos\",\"Electric\",\"Dragon\",610,90,95,105,165,110,45);\n        // createBaseStatPokemon(182,\"Bellossom\",\"Grass\",\"None\",490,75,80,95,90,100,50);\n        // createBaseStatPokemon(183,\"Marill\",\"Water\",\"Fairy\",250,70,20,50,20,50,40);\n        // createBaseStatPokemon(184,\"Azumarill\",\"Water\",\"Fairy\",420,100,50,80,60,80,50);\n        // createBaseStatPokemon(185,\"Sudowoodo\",\"Rock\",\"None\",410,70,100,115,30,65,30);\n        // createBaseStatPokemon(186,\"Politoed\",\"Water\",\"None\",500,90,75,75,90,100,70);\n        // createBaseStatPokemon(187,\"Hoppip\",\"Grass\",\"Flying\",250,35,35,40,35,55,50);\n        // createBaseStatPokemon(188,\"Skiploom\",\"Grass\",\"Flying\",340,55,45,50,45,65,80);\n        // createBaseStatPokemon(189,\"Jumpluff\",\"Grass\",\"Flying\",460,75,55,70,55,95,110);\n        // createBaseStatPokemon(190,\"Aipom\",\"Normal\",\"None\",360,55,70,55,40,55,85);\n        // createBaseStatPokemon(191,\"Sunkern\",\"Grass\",\"None\",180,30,30,30,30,30,30);\n        // createBaseStatPokemon(192,\"Sunflora\",\"Grass\",\"None\",425,75,75,55,105,85,30);\n        // createBaseStatPokemon(193,\"Yanma\",\"Bug\",\"Flying\",390,65,65,45,75,45,95);\n        // createBaseStatPokemon(194,\"Wooper\",\"Water\",\"Ground\",210,55,45,45,25,25,15);\n        // createBaseStatPokemon(195,\"Quagsire\",\"Water\",\"Ground\",430,95,85,85,65,65,35);\n        // createBaseStatPokemon(196,\"Espeon\",\"Psychic\",\"None\",525,65,65,60,130,95,110);\n        // createBaseStatPokemon(197,\"Umbreon\",\"Dark\",\"None\",525,95,65,110,60,130,65);\n        // createBaseStatPokemon(198,\"Murkrow\",\"Dark\",\"Flying\",405,60,85,42,85,42,91);\n        // createBaseStatPokemon(199,\"Slowking\",\"Water\",\"Psychic\",490,95,75,80,100,110,30);\n        // createBaseStatPokemon(199,\"Galarian Slowking\",\"Poison\",\"Psychic\",490,95,65,80,110,110,30);\n        // createBaseStatPokemon(200,\"Misdreavus\",\"Ghost\",\"None\",435,60,60,60,85,85,85);\n        // createBaseStatPokemon(201,\"Unown\",\"Psychic\",\"None\",336,48,72,48,72,48,48);\n        // createBaseStatPokemon(202,\"Wobbuffet\",\"Psychic\",\"None\",405,190,33,58,33,58,33);\n        // createBaseStatPokemon(203,\"Girafarig\",\"Normal\",\"Psychic\",455,70,80,65,90,65,85);\n        // createBaseStatPokemon(204,\"Pineco\",\"Bug\",\"None\",290,50,65,90,35,35,15);\n        // createBaseStatPokemon(205,\"Forretress\",\"Bug\",\"Steel\",465,75,90,140,60,60,40);\n        // createBaseStatPokemon(206,\"Dunsparce\",\"Normal\",\"None\",415,100,70,70,65,65,45);\n        // createBaseStatPokemon(207,\"Gligar\",\"Ground\",\"Flying\",430,65,75,105,35,65,85);\n        // createBaseStatPokemon(208,\"Steelix\",\"Steel\",\"Ground\",510,75,85,200,55,65,30);\n        // createBaseStatPokemon(208,\"Mega Steelix\",\"Steel\",\"Ground\",610,75,125,230,55,95,30);\n        // createBaseStatPokemon(209,\"Snubbull\",\"Fairy\",\"None\",300,60,80,50,40,40,30);\n        // createBaseStatPokemon(210,\"Granbull\",\"Fairy\",\"None\",450,90,120,75,60,60,45);\n        // createBaseStatPokemon(211,\"Qwilfish\",\"Water\",\"Poison\",430,65,95,75,55,55,85);\n        // createBaseStatPokemon(212,\"Scizor\",\"Bug\",\"Steel\",500,70,130,100,55,80,65);\n        // createBaseStatPokemon(212,\"Mega Scizor\",\"Bug\",\"Steel\",600,70,150,140,65,100,75);\n        // createBaseStatPokemon(213,\"Shuckle\",\"Bug\",\"Rock\",505,20,10,230,10,230,5);\n        // createBaseStatPokemon(214,\"Heracross\",\"Bug\",\"Fighting\",500,80,125,75,40,95,85);\n        // createBaseStatPokemon(214,\"Mega Heracross\",\"Bug\",\"Fighting\",600,80,185,115,40,105,75);\n        // createBaseStatPokemon(215,\"Sneasel\",\"Dark\",\"Ice\",430,55,95,55,35,75,115);\n        // createBaseStatPokemon(216,\"Teddiursa\",\"Normal\",\"None\",330,60,80,50,50,50,40);\n        // createBaseStatPokemon(217,\"Ursaring\",\"Normal\",\"None\",500,90,130,75,75,75,55);\n        // createBaseStatPokemon(218,\"Slugma\",\"Fire\",\"None\",250,40,40,40,70,40,20);\n        // createBaseStatPokemon(219,\"Magcargo\",\"Fire\",\"Rock\",410,50,50,120,80,80,30);\n        // createBaseStatPokemon(220,\"Swinub\",\"Ice\",\"Ground\",250,50,50,40,30,30,50);\n        // createBaseStatPokemon(221,\"Piloswine\",\"Ice\",\"Ground\",450,100,100,80,60,60,50);\n        // createBaseStatPokemon(222,\"Corsola\",\"Water\",\"Rock\",380,55,55,85,65,85,35);\n        // createBaseStatPokemon(222,\"Galarian Corsola\",\"Ghost\",\"None\",380,60,55,100,65,100,30);\n        // createBaseStatPokemon(223,\"Remoraid\",\"Water\",\"None\",300,35,65,35,65,35,65);\n        // createBaseStatPokemon(224,\"Octillery\",\"Water\",\"None\",480,75,105,75,105,75,45);\n        // createBaseStatPokemon(225,\"Delibird\",\"Ice\",\"Flying\",330,45,55,45,65,45,75);\n        // createBaseStatPokemon(226,\"Mantine\",\"Water\",\"Flying\",465,65,40,70,80,140,70);\n        // createBaseStatPokemon(227,\"Skarmory\",\"Steel\",\"Flying\",465,65,80,140,40,70,70);\n        // createBaseStatPokemon(228,\"Houndour\",\"Dark\",\"Fire\",330,45,60,30,80,50,65);\n        // createBaseStatPokemon(229,\"Houndoom\",\"Dark\",\"Fire\",500,75,90,50,110,80,95);\n        // createBaseStatPokemon(229,\"Mega Houndoom\",\"Dark\",\"Fire\",600,75,90,90,140,90,115);\n        // createBaseStatPokemon(230,\"Kingdra\",\"Water\",\"Dragon\",540,75,95,95,95,95,85);\n        // createBaseStatPokemon(231,\"Phanpy\",\"Ground\",\"None\",330,90,60,60,40,40,40);\n        // createBaseStatPokemon(232,\"Donphan\",\"Ground\",\"None\",500,90,120,120,60,60,50);\n        // createBaseStatPokemon(233,\"Porygon2\",\"Normal\",\"None\",515,85,80,90,105,95,60);\n        // createBaseStatPokemon(234,\"Stantler\",\"Normal\",\"None\",465,73,95,62,85,65,85);\n        // createBaseStatPokemon(235,\"Smeargle\",\"Normal\",\"None\",250,55,20,35,20,45,75);\n        // createBaseStatPokemon(236,\"Tyrogue\",\"Fighting\",\"None\",210,35,35,35,35,35,35);\n        // createBaseStatPokemon(237,\"Hitmontop\",\"Fighting\",\"None\",455,50,95,95,35,110,70);\n        // createBaseStatPokemon(238,\"Smoochum\",\"Ice\",\"Psychic\",305,45,30,15,85,65,65);\n        // createBaseStatPokemon(239,\"Elekid\",\"Electric\",\"None\",360,45,63,37,65,55,95);\n        // createBaseStatPokemon(240,\"Magby\",\"Fire\",\"None\",365,45,75,37,70,55,83);\n        // createBaseStatPokemon(241,\"Miltank\",\"Normal\",\"None\",490,95,80,105,40,70,100);\n        // createBaseStatPokemon(242,\"Blissey\",\"Normal\",\"None\",540,255,10,10,75,135,55);\n        // createBaseStatPokemon(243,\"Raikou\",\"Electric\",\"None\",580,90,85,75,115,100,115);\n        // createBaseStatPokemon(244,\"Entei\",\"Fire\",\"None\",580,115,115,85,90,75,100);\n        // createBaseStatPokemon(245,\"Suicune\",\"Water\",\"None\",580,100,75,115,90,115,85);\n        // createBaseStatPokemon(246,\"Larvitar\",\"Rock\",\"Ground\",300,50,64,50,45,50,41);\n        // createBaseStatPokemon(247,\"Pupitar\",\"Rock\",\"Ground\",410,70,84,70,65,70,51);\n        // createBaseStatPokemon(248,\"Tyranitar\",\"Rock\",\"Dark\",600,100,134,110,95,100,61);\n        // createBaseStatPokemon(248,\"Mega Tyranitar\",\"Rock\",\"Dark\",700,100,164,150,95,120,71);\n        // createBaseStatPokemon(249,\"Lugia\",\"Psychic\",\"Flying\",680,106,90,130,90,154,110);\n        // createBaseStatPokemon(250,\"Ho-oh\",\"Fire\",\"Flying\",680,106,130,90,110,154,90);\n        // createBaseStatPokemon(251,\"Celebi\",\"Psychic\",\"Grass\",600,100,100,100,100,100,100);\n        // createBaseStatPokemon(252,\"Treecko\",\"Grass\",\"None\",310,40,45,35,65,55,70);\n        // createBaseStatPokemon(253,\"Grovyle\",\"Grass\",\"None\",405,50,65,45,85,65,95);\n        // createBaseStatPokemon(254,\"Sceptile\",\"Grass\",\"None\",530,70,85,65,105,85,120);\n        // createBaseStatPokemon(254,\"Mega Sceptile\",\"Grass\",\"Dragon\",630,70,110,75,145,85,145);\n        // createBaseStatPokemon(255,\"Torchic\",\"Fire\",\"None\",310,45,60,40,70,50,45);\n        // createBaseStatPokemon(256,\"Combusken\",\"Fire\",\"Fighting\",405,60,85,60,85,60,55);\n        // createBaseStatPokemon(257,\"Blaziken\",\"Fire\",\"Fighting\",530,80,120,70,110,70,80);\n        // createBaseStatPokemon(257,\"Mega Blaziken\",\"Fire\",\"Fighting\",630,80,160,80,130,80,100);\n        // createBaseStatPokemon(258,\"Mudkip\",\"Water\",\"None\",310,50,70,50,50,50,40);\n        // createBaseStatPokemon(259,\"Marshtomp\",\"Water\",\"Ground\",405,70,85,70,60,70,50);\n        // createBaseStatPokemon(260,\"Swampert\",\"Water\",\"Ground\",535,100,110,90,85,90,60);\n        // createBaseStatPokemon(260,\"Mega Swampert\",\"Water\",\"Ground\",635,100,150,110,95,110,70);\n        // createBaseStatPokemon(261,\"Poochyena\",\"Dark\",\"None\",220,35,55,35,30,30,35);\n        // createBaseStatPokemon(262,\"Mightyena\",\"Dark\",\"None\",420,70,90,70,60,60,70);\n        // createBaseStatPokemon(263,\"Zigzagoon\",\"Normal\",\"None\",240,38,30,41,30,41,60);\n        // createBaseStatPokemon(263,\"Galarian Zigzagoon\",\"Dark\",\"Normal\",240,38,30,41,30,41,60);\n        // createBaseStatPokemon(264,\"Linoone\",\"Normal\",\"None\",420,78,70,61,50,61,100);\n        // createBaseStatPokemon(264,\"Galarian Linoone\",\"Dark\",\"Normal\",420,78,70,61,50,61,100);\n        // createBaseStatPokemon(265,\"Wurmple\",\"Bug\",\"None\",195,45,45,35,20,30,20);\n        // createBaseStatPokemon(266,\"Silcoon\",\"Bug\",\"None\",205,50,35,55,25,25,15);\n        // createBaseStatPokemon(267,\"Beautifly\",\"Bug\",\"Flying\",395,60,70,50,100,50,65);\n        // createBaseStatPokemon(268,\"Cascoon\",\"Bug\",\"None\",205,50,35,55,25,25,15);\n        // createBaseStatPokemon(269,\"Dustox\",\"Bug\",\"Poison\",385,60,50,70,50,90,65);\n        // createBaseStatPokemon(270,\"Lotad\",\"Water\",\"Grass\",220,40,30,30,40,50,30);\n        // createBaseStatPokemon(271,\"Lombre\",\"Water\",\"Grass\",340,60,50,50,60,70,50);\n        // createBaseStatPokemon(272,\"Ludicolo\",\"Water\",\"Grass\",480,80,70,70,90,100,70);\n        // createBaseStatPokemon(273,\"Seedot\",\"Grass\",\"None\",220,40,40,50,30,30,30);\n        // createBaseStatPokemon(274,\"Nuzleaf\",\"Grass\",\"Dark\",340,70,70,40,60,40,60);\n        // createBaseStatPokemon(275,\"Shiftry\",\"Grass\",\"Dark\",480,90,100,60,90,60,80);\n        // createBaseStatPokemon(276,\"Taillow\",\"Normal\",\"Flying\",270,40,55,30,30,30,85);\n        // createBaseStatPokemon(277,\"Swellow\",\"Normal\",\"Flying\",430,60,85,60,50,50,125);\n        // createBaseStatPokemon(278,\"Wingull\",\"Water\",\"Flying\",270,40,30,30,55,30,85);\n        // createBaseStatPokemon(279,\"Pelipper\",\"Water\",\"Flying\",430,60,50,100,85,70,65);\n        // createBaseStatPokemon(280,\"Ralts\",\"Psychic\",\"Fairy\",198,28,25,25,45,35,40);\n        // createBaseStatPokemon(281,\"Kirlia\",\"Psychic\",\"Fairy\",278,38,35,35,65,55,50);\n        // createBaseStatPokemon(282,\"Gardevoir\",\"Psychic\",\"Fairy\",518,68,65,65,125,115,80);\n        // createBaseStatPokemon(282,\"Mega Gardevoir\",\"Psychic\",\"Fairy\",618,68,85,65,165,135,100);\n        // createBaseStatPokemon(283,\"Surskit\",\"Bug\",\"Water\",269,40,30,32,50,52,65);\n        // createBaseStatPokemon(284,\"Masquerain\",\"Bug\",\"Flying\",414,70,60,62,80,82,60);\n        // createBaseStatPokemon(285,\"Shroomish\",\"Grass\",\"None\",295,60,40,60,40,60,35);\n        // createBaseStatPokemon(286,\"Breloom\",\"Grass\",\"Fighting\",460,60,130,80,60,60,70);\n        // createBaseStatPokemon(287,\"Slakoth\",\"Normal\",\"None\",280,60,60,60,35,35,30);\n        // createBaseStatPokemon(288,\"Vigoroth\",\"Normal\",\"None\",440,80,80,80,55,55,90);\n        // createBaseStatPokemon(289,\"Slaking\",\"Normal\",\"None\",670,150,160,100,95,65,100);\n        // createBaseStatPokemon(290,\"Nincada\",\"Bug\",\"Ground\",266,31,45,90,30,30,40);\n        // createBaseStatPokemon(291,\"Ninjask\",\"Bug\",\"Flying\",456,61,90,45,50,50,160);\n        // createBaseStatPokemon(292,\"Shedinja\",\"Bug\",\"Ghost\",236,1,90,45,30,30,40);\n        // createBaseStatPokemon(293,\"Whismur\",\"Normal\",\"None\",240,64,51,23,51,23,28);\n        // createBaseStatPokemon(294,\"Loudred\",\"Normal\",\"None\",360,84,71,43,71,43,48);\n        // createBaseStatPokemon(295,\"Exploud\",\"Normal\",\"None\",490,104,91,63,91,73,68);\n        // createBaseStatPokemon(296,\"Makuhita\",\"Fighting\",\"None\",237,72,60,30,20,30,25);\n        // createBaseStatPokemon(297,\"Hariyama\",\"Fighting\",\"None\",474,144,120,60,40,60,50);\n        // createBaseStatPokemon(298,\"Azurill\",\"Normal\",\"Fairy\",190,50,20,40,20,40,20);\n        // createBaseStatPokemon(299,\"Nosepass\",\"Rock\",\"None\",375,30,45,135,45,90,30);\n        // createBaseStatPokemon(300,\"Skitty\",\"Normal\",\"None\",260,50,45,45,35,35,50);\n        // createBaseStatPokemon(301,\"Delcatty\",\"Normal\",\"None\",380,70,65,65,55,55,70);\n        // createBaseStatPokemon(302,\"Sableye\",\"Dark\",\"Ghost\",380,50,75,75,65,65,50);\n        // createBaseStatPokemon(302,\"Mega Sableye\",\"Dark\",\"Ghost\",480,50,85,125,85,115,20);\n        // createBaseStatPokemon(303,\"Mawile\",\"Steel\",\"Fairy\",380,50,85,85,55,55,50);\n        // createBaseStatPokemon(303,\"Mega Mawile\",\"Steel\",\"Fairy\",480,50,105,125,55,95,50);\n        // createBaseStatPokemon(304,\"Aron\",\"Steel\",\"Rock\",330,50,70,100,40,40,30);\n        // createBaseStatPokemon(305,\"Lairon\",\"Steel\",\"Rock\",430,60,90,140,50,50,40);\n        // createBaseStatPokemon(306,\"Aggron\",\"Steel\",\"Rock\",530,70,110,180,60,60,50);\n        // createBaseStatPokemon(306,\"Mega Aggron\",\"Steel\",\"None\",630,70,140,230,60,80,50);\n        // createBaseStatPokemon(307,\"Meditite\",\"Fighting\",\"Psychic\",280,30,40,55,40,55,60);\n        // createBaseStatPokemon(308,\"Medicham\",\"Fighting\",\"Psychic\",410,60,60,75,60,75,80);\n        // createBaseStatPokemon(308,\"Mega Medicham\",\"Fighting\",\"Psychic\",510,60,100,85,80,85,100);\n        // createBaseStatPokemon(309,\"Electrike\",\"Electric\",\"None\",295,40,45,40,65,40,65);\n        // createBaseStatPokemon(310,\"Manectric\",\"Electric\",\"None\",475,70,75,60,105,60,105);\n        // createBaseStatPokemon(310,\"Mega Manectric\",\"Electric\",\"None\",575,70,75,80,135,80,135);\n        // createBaseStatPokemon(311,\"Plusle\",\"Electric\",\"None\",405,60,50,40,85,75,95);\n        // createBaseStatPokemon(312,\"Minun\",\"Electric\",\"None\",405,60,40,50,75,85,95);\n        // createBaseStatPokemon(313,\"Volbeat\",\"Bug\",\"None\",400,65,73,55,47,75,85);\n        // createBaseStatPokemon(314,\"Illumise\",\"Bug\",\"None\",400,65,47,55,73,75,85);\n        // createBaseStatPokemon(315,\"Roselia\",\"Grass\",\"Poison\",400,50,60,45,100,80,65);\n        // createBaseStatPokemon(316,\"Gulpin\",\"Poison\",\"None\",302,70,43,53,43,53,40);\n        // createBaseStatPokemon(317,\"Swalot\",\"Poison\",\"None\",467,100,73,83,73,83,55);\n        // createBaseStatPokemon(318,\"Carvanha\",\"Water\",\"Dark\",305,45,90,20,65,20,65);\n        // createBaseStatPokemon(319,\"Sharpedo\",\"Water\",\"Dark\",460,70,120,40,95,40,95);\n        // createBaseStatPokemon(319,\"Mega Sharpedo\",\"Water\",\"Dark\",560,70,140,70,110,65,105);\n        // createBaseStatPokemon(320,\"Wailmer\",\"Water\",\"None\",400,130,70,35,70,35,60);\n        // createBaseStatPokemon(321,\"Wailord\",\"Water\",\"None\",500,170,90,45,90,45,60);\n        // createBaseStatPokemon(322,\"Numel\",\"Fire\",\"Ground\",305,60,60,40,65,45,35);\n        // createBaseStatPokemon(323,\"Camerupt\",\"Fire\",\"Ground\",460,70,100,70,105,75,40);\n        // createBaseStatPokemon(323,\"Mega Camerupt\",\"Fire\",\"Ground\",560,70,120,100,145,105,20);\n        // createBaseStatPokemon(324,\"Torkoal\",\"Fire\",\"None\",470,70,85,140,85,70,20);\n        // createBaseStatPokemon(325,\"Spoink\",\"Psychic\",\"None\",330,60,25,35,70,80,60);\n        // createBaseStatPokemon(326,\"Grumpig\",\"Psychic\",\"None\",470,80,45,65,90,110,80);\n        // createBaseStatPokemon(327,\"Spinda\",\"Normal\",\"None\",360,60,60,60,60,60,60);\n        // createBaseStatPokemon(328,\"Trapinch\",\"Ground\",\"None\",290,45,100,45,45,45,10);\n        // createBaseStatPokemon(329,\"Vibrava\",\"Ground\",\"Dragon\",340,50,70,50,50,50,70);\n        // createBaseStatPokemon(330,\"Flygon\",\"Ground\",\"Dragon\",520,80,100,80,80,80,100);\n        // createBaseStatPokemon(331,\"Cacnea\",\"Grass\",\"None\",335,50,85,40,85,40,35);\n        // createBaseStatPokemon(332,\"Cacturne\",\"Grass\",\"Dark\",475,70,115,60,115,60,55);\n        // createBaseStatPokemon(333,\"Swablu\",\"Normal\",\"Flying\",310,45,40,60,40,75,50);\n        // createBaseStatPokemon(334,\"Altaria\",\"Dragon\",\"Flying\",490,75,70,90,70,105,80);\n        // createBaseStatPokemon(334,\"Mega Altaria\",\"Dragon\",\"Fairy\",590,75,110,110,110,105,80);\n        // createBaseStatPokemon(335,\"Zangoose\",\"Normal\",\"None\",458,73,115,60,60,60,90);\n        // createBaseStatPokemon(336,\"Seviper\",\"Poison\",\"None\",458,73,100,60,100,60,65);\n        // createBaseStatPokemon(337,\"Lunatone\",\"Rock\",\"Psychic\",440,70,55,65,95,85,70);\n        // createBaseStatPokemon(338,\"Solrock\",\"Rock\",\"Psychic\",440,70,95,85,55,65,70);\n        // createBaseStatPokemon(339,\"Barboach\",\"Water\",\"Ground\",288,50,48,43,46,41,60);\n        // createBaseStatPokemon(340,\"Whiscash\",\"Water\",\"Ground\",468,110,78,73,76,71,60);\n        // createBaseStatPokemon(341,\"Corphish\",\"Water\",\"None\",308,43,80,65,50,35,35);\n        // createBaseStatPokemon(342,\"Crawdaunt\",\"Water\",\"Dark\",468,63,120,85,90,55,55);\n        // createBaseStatPokemon(343,\"Baltoy\",\"Ground\",\"Psychic\",300,40,40,55,40,70,55);\n        // createBaseStatPokemon(344,\"Claydol\",\"Ground\",\"Psychic\",500,60,70,105,70,120,75);\n        // createBaseStatPokemon(345,\"Lileep\",\"Rock\",\"Grass\",355,66,41,77,61,87,23);\n        // createBaseStatPokemon(346,\"Cradily\",\"Rock\",\"Grass\",495,86,81,97,81,107,43);\n        // createBaseStatPokemon(347,\"Anorith\",\"Rock\",\"Bug\",355,45,95,50,40,50,75);\n        // createBaseStatPokemon(348,\"Armaldo\",\"Rock\",\"Bug\",495,75,125,100,70,80,45);\n        // createBaseStatPokemon(349,\"Feebas\",\"Water\",\"None\",200,20,15,20,10,55,80);\n        // createBaseStatPokemon(350,\"Milotic\",\"Water\",\"None\",540,95,60,79,100,125,81);\n        // createBaseStatPokemon(351,\"Castform\",\"Normal\",\"None\",420,70,70,70,70,70,70);\n        // createBaseStatPokemon(352,\"Kecleon\",\"Normal\",\"None\",440,60,90,70,60,120,40);\n        // createBaseStatPokemon(353,\"Shuppet\",\"Ghost\",\"None\",295,44,75,35,63,33,45);\n        // createBaseStatPokemon(354,\"Banette\",\"Ghost\",\"None\",455,64,115,65,83,63,65);\n        // createBaseStatPokemon(354,\"Mega Banette\",\"Ghost\",\"None\",555,64,165,75,93,83,75);\n        // createBaseStatPokemon(355,\"Duskull\",\"Ghost\",\"None\",295,20,40,90,30,90,25);\n        // createBaseStatPokemon(356,\"Dusclops\",\"Ghost\",\"None\",455,40,70,130,60,130,25);\n        // createBaseStatPokemon(357,\"Tropius\",\"Grass\",\"Flying\",460,99,68,83,72,87,51);\n        // createBaseStatPokemon(358,\"Chimecho\",\"Psychic\",\"None\",425,65,50,70,95,80,65);\n        // createBaseStatPokemon(359,\"Absol\",\"Dark\",\"None\",465,65,130,60,75,60,75);\n        // createBaseStatPokemon(359,\"Mega Absol\",\"Dark\",\"None\",565,65,150,60,115,60,115);\n        // createBaseStatPokemon(360,\"Wynaut\",\"Psychic\",\"None\",260,95,23,48,23,48,23);\n        // createBaseStatPokemon(361,\"Snorunt\",\"Ice\",\"None\",300,50,50,50,50,50,50);\n        // createBaseStatPokemon(362,\"Glalie\",\"Ice\",\"None\",480,80,80,80,80,80,80);\n        // createBaseStatPokemon(362,\"Mega Glalie\",\"Ice\",\"None\",580,80,120,80,120,80,100);\n        // createBaseStatPokemon(363,\"Spheal\",\"Ice\",\"Water\",290,70,40,50,55,50,25);\n        // createBaseStatPokemon(364,\"Sealeo\",\"Ice\",\"Water\",410,90,60,70,75,70,45);\n        // createBaseStatPokemon(365,\"Walrein\",\"Ice\",\"Water\",530,110,80,90,95,90,65);\n        // createBaseStatPokemon(366,\"Clamperl\",\"Water\",\"None\",345,35,64,85,74,55,32);\n        // createBaseStatPokemon(367,\"Huntail\",\"Water\",\"None\",485,55,104,105,94,75,52);\n        // createBaseStatPokemon(368,\"Gorebyss\",\"Water\",\"None\",485,55,84,105,114,75,52);\n        // createBaseStatPokemon(369,\"Relicanth\",\"Water\",\"Rock\",485,100,90,130,45,65,55);\n        // createBaseStatPokemon(370,\"Luvdisc\",\"Water\",\"None\",330,43,30,55,40,65,97);\n        // createBaseStatPokemon(371,\"Bagon\",\"Dragon\",\"None\",300,45,75,60,40,30,50);\n        // createBaseStatPokemon(372,\"Shelgon\",\"Dragon\",\"None\",420,65,95,100,60,50,50);\n        // createBaseStatPokemon(373,\"Salamence\",\"Dragon\",\"Flying\",600,95,135,80,110,80,100);\n        // createBaseStatPokemon(373,\"Mega Salamence\",\"Dragon\",\"Flying\",700,95,145,130,120,90,120);\n        // createBaseStatPokemon(374,\"Beldum\",\"Steel\",\"Psychic\",300,40,55,80,35,60,30);\n        // createBaseStatPokemon(375,\"Metang\",\"Steel\",\"Psychic\",420,60,75,100,55,80,50);\n        // createBaseStatPokemon(376,\"Metagross\",\"Steel\",\"Psychic\",600,80,135,130,95,90,70);\n        // createBaseStatPokemon(376,\"Mega Metagross\",\"Steel\",\"Psychic\",700,80,145,150,105,110,110);\n        // createBaseStatPokemon(377,\"Regirock\",\"Rock\",\"None\",580,80,100,200,50,100,50);\n        // createBaseStatPokemon(378,\"Regice\",\"Ice\",\"None\",580,80,50,100,100,200,50);\n        // createBaseStatPokemon(379,\"Registeel\",\"Steel\",\"None\",580,80,75,150,75,150,50);\n        // createBaseStatPokemon(380,\"Latias\",\"Dragon\",\"Psychic\",600,80,80,90,110,130,110);\n        // createBaseStatPokemon(380,\"Mega Latias\",\"Dragon\",\"Psychic\",700,80,100,120,140,150,110);\n        // createBaseStatPokemon(381,\"Latios\",\"Dragon\",\"Psychic\",600,80,90,80,130,110,110);\n        // createBaseStatPokemon(381,\"Mega Latios\",\"Dragon\",\"Psychic\",700,80,130,100,160,120,110);\n        // createBaseStatPokemon(382,\"Kyogre\",\"Water\",\"None\",670,100,100,90,150,140,90);\n        // createBaseStatPokemon(382,\"Primal Kyogre\",\"Water\",\"None\",770,100,150,90,180,160,90);\n        // createBaseStatPokemon(383,\"Groudon\",\"Ground\",\"None\",670,100,150,140,100,90,90);\n        // createBaseStatPokemon(383,\"Primal Groudon\",\"Ground\",\"Fire\",770,100,180,160,150,90,90);\n        // createBaseStatPokemon(384,\"Rayquaza\",\"Dragon\",\"Flying\",680,105,150,90,150,90,95);\n        // createBaseStatPokemon(384,\"Mega Rayquaza\",\"Dragon\",\"Flying\",780,105,180,100,180,100,115);\n        // createBaseStatPokemon(385,\"Jirachi\",\"Steel\",\"Psychic\",600,100,100,100,100,100,100);\n        // createBaseStatPokemon(386,\"Deoxys Normal Forme\",\"Psychic\",\"None\",600,50,150,50,150,50,150);\n        // createBaseStatPokemon(386,\"Deoxys Attack Forme\",\"Psychic\",\"None\",600,50,180,20,180,20,150);\n        // createBaseStatPokemon(386,\"Deoxys Defense Forme\",\"Psychic\",\"None\",600,50,70,160,70,160,90);\n        // createBaseStatPokemon(386,\"Deoxys Speed Forme\",\"Psychic\",\"None\",600,50,95,90,95,90,180);\n        // createBaseStatPokemon(387,\"Turtwig\",\"Grass\",\"None\",318,55,68,64,45,55,31);\n        // createBaseStatPokemon(388,\"Grotle\",\"Grass\",\"None\",405,75,89,85,55,65,36);\n        // createBaseStatPokemon(389,\"Torterra\",\"Grass\",\"Ground\",525,95,109,105,75,85,56);\n        // createBaseStatPokemon(390,\"Chimchar\",\"Fire\",\"None\",309,44,58,44,58,44,61);\n        // createBaseStatPokemon(391,\"Monferno\",\"Fire\",\"Fighting\",405,64,78,52,78,52,81);\n        // createBaseStatPokemon(392,\"Infernape\",\"Fire\",\"Fighting\",534,76,104,71,104,71,108);\n        // createBaseStatPokemon(393,\"Piplup\",\"Water\",\"None\",314,53,51,53,61,56,40);\n        // createBaseStatPokemon(394,\"Prinplup\",\"Water\",\"None\",405,64,66,68,81,76,50);\n        // createBaseStatPokemon(395,\"Empoleon\",\"Water\",\"Steel\",530,84,86,88,111,101,60);\n        // createBaseStatPokemon(396,\"Starly\",\"Normal\",\"Flying\",245,40,55,30,30,30,60);\n        // createBaseStatPokemon(397,\"Staravia\",\"Normal\",\"Flying\",340,55,75,50,40,40,80);\n        // createBaseStatPokemon(398,\"Staraptor\",\"Normal\",\"Flying\",485,85,120,70,50,60,100);\n        // createBaseStatPokemon(399,\"Bidoof\",\"Normal\",\"None\",250,59,45,40,35,40,31);\n        // createBaseStatPokemon(400,\"Bibarel\",\"Normal\",\"Water\",410,79,85,60,55,60,71);\n        // createBaseStatPokemon(401,\"Kricketot\",\"Bug\",\"None\",194,37,25,41,25,41,25);\n        // createBaseStatPokemon(402,\"Kricketune\",\"Bug\",\"None\",384,77,85,51,55,51,65);\n        // createBaseStatPokemon(403,\"Shinx\",\"Electric\",\"None\",263,45,65,34,40,34,45);\n        // createBaseStatPokemon(404,\"Luxio\",\"Electric\",\"None\",363,60,85,49,60,49,60);\n        // createBaseStatPokemon(405,\"Luxray\",\"Electric\",\"None\",523,80,120,79,95,79,70);\n        // createBaseStatPokemon(406,\"Budew\",\"Grass\",\"Poison\",280,40,30,35,50,70,55);\n        // createBaseStatPokemon(407,\"Roserade\",\"Grass\",\"Poison\",515,60,70,65,125,105,90);\n        // createBaseStatPokemon(408,\"Cranidos\",\"Rock\",\"None\",350,67,125,40,30,30,58);\n        // createBaseStatPokemon(409,\"Rampardos\",\"Rock\",\"None\",495,97,165,60,65,50,58);\n        // createBaseStatPokemon(410,\"Shieldon\",\"Rock\",\"Steel\",350,30,42,118,42,88,30);\n        // createBaseStatPokemon(411,\"Bastiodon\",\"Rock\",\"Steel\",495,60,52,168,47,138,30);\n        // createBaseStatPokemon(412,\"Burmy\",\"Bug\",\"None\",224,40,29,45,29,45,36);\n        // createBaseStatPokemon(413,\"Wormadam Plant Cloak\",\"Bug\",\"Grass\",424,60,59,85,79,105,36);\n        // createBaseStatPokemon(413,\"Wormadam Sandy Cloak\",\"Bug\",\"Ground\",424,60,79,105,59,85,36);\n        // createBaseStatPokemon(413,\"Wormadam Trash Cloak\",\"Bug\",\"Steel\",424,60,69,95,69,95,36);\n        // createBaseStatPokemon(414,\"Mothim\",\"Bug\",\"Flying\",424,70,94,50,94,50,66);\n        // createBaseStatPokemon(415,\"Combee\",\"Bug\",\"Flying\",244,30,30,42,30,42,70);\n        // createBaseStatPokemon(416,\"Vespiquen\",\"Bug\",\"Flying\",474,70,80,102,80,102,40);\n        // createBaseStatPokemon(417,\"Pachirisu\",\"Electric\",\"None\",405,60,45,70,45,90,95);\n        // createBaseStatPokemon(418,\"Buizel\",\"Water\",\"None\",330,55,65,35,60,30,85);\n        // createBaseStatPokemon(419,\"Floatzel\",\"Water\",\"None\",495,85,105,55,85,50,115);\n        // createBaseStatPokemon(420,\"Cherubi\",\"Grass\",\"None\",275,45,35,45,62,53,35);\n        // createBaseStatPokemon(421,\"Cherrim\",\"Grass\",\"None\",450,70,60,70,87,78,85);\n        // createBaseStatPokemon(422,\"Shellos\",\"Water\",\"None\",325,76,48,48,57,62,34);\n        // createBaseStatPokemon(423,\"Gastrodon\",\"Water\",\"Ground\",475,111,83,68,92,82,39);\n        // createBaseStatPokemon(424,\"Ambipom\",\"Normal\",\"None\",482,75,100,66,60,66,115);\n        // createBaseStatPokemon(425,\"Drifloon\",\"Ghost\",\"Flying\",348,90,50,34,60,44,70);\n        // createBaseStatPokemon(426,\"Drifblim\",\"Ghost\",\"Flying\",498,150,80,44,90,54,80);\n        // createBaseStatPokemon(427,\"Buneary\",\"Normal\",\"None\",350,55,66,44,44,56,85);\n        // createBaseStatPokemon(428,\"Lopunny\",\"Normal\",\"None\",480,65,76,84,54,96,105);\n        // createBaseStatPokemon(428,\"Mega Lopunny\",\"Normal\",\"Fighting\",580,65,136,94,54,96,135);\n        // createBaseStatPokemon(429,\"Mismagius\",\"Ghost\",\"None\",495,60,60,60,105,105,105);\n        // createBaseStatPokemon(430,\"Honchkrow\",\"Dark\",\"Flying\",505,100,125,52,105,52,71);\n        // createBaseStatPokemon(431,\"Glameow\",\"Normal\",\"None\",310,49,55,42,42,37,85);\n        // createBaseStatPokemon(432,\"Purugly\",\"Normal\",\"None\",452,71,82,64,64,59,112);\n        // createBaseStatPokemon(433,\"Chingling\",\"Psychic\",\"None\",285,45,30,50,65,50,45);\n        // createBaseStatPokemon(434,\"Stunky\",\"Poison\",\"Dark\",329,63,63,47,41,41,74);\n        // createBaseStatPokemon(435,\"Skuntank\",\"Poison\",\"Dark\",479,103,93,67,71,61,84);\n        // createBaseStatPokemon(436,\"Bronzor\",\"Steel\",\"Psychic\",300,57,24,86,24,86,23);\n        // createBaseStatPokemon(437,\"Bronzong\",\"Steel\",\"Psychic\",500,67,89,116,79,116,33);\n        // createBaseStatPokemon(438,\"Bonsly\",\"Rock\",\"None\",290,50,80,95,10,45,10);\n        // createBaseStatPokemon(439,\"Mime Jr.\",\"Psychic\",\"Fairy\",310,20,25,45,70,90,60);\n        // createBaseStatPokemon(440,\"Happiny\",\"Normal\",\"None\",220,100,5,5,15,65,30);\n        // createBaseStatPokemon(441,\"Chatot\",\"Normal\",\"Flying\",411,76,65,45,92,42,91);\n        // createBaseStatPokemon(442,\"Spiritomb\",\"Ghost\",\"Dark\",485,50,92,108,92,108,35);\n        // createBaseStatPokemon(443,\"Gible\",\"Dragon\",\"Ground\",300,58,70,45,40,45,42);\n        // createBaseStatPokemon(444,\"Gabite\",\"Dragon\",\"Ground\",410,68,90,65,50,55,82);\n        // createBaseStatPokemon(445,\"Garchomp\",\"Dragon\",\"Ground\",600,108,130,95,80,85,102);\n        // createBaseStatPokemon(445,\"Mega Garchomp\",\"Dragon\",\"Ground\",700,108,170,115,120,95,92);\n        // createBaseStatPokemon(446,\"Munchlax\",\"Normal\",\"None\",390,135,85,40,40,85,5);\n        // createBaseStatPokemon(447,\"Riolu\",\"Fighting\",\"None\",285,40,70,40,35,40,60);\n        // createBaseStatPokemon(448,\"Lucario\",\"Fighting\",\"Steel\",525,70,110,70,115,70,90);\n        // createBaseStatPokemon(448,\"Mega Lucario\",\"Fighting\",\"Steel\",625,70,145,88,140,70,112);\n        // createBaseStatPokemon(449,\"Hippopotas\",\"Ground\",\"None\",330,68,72,78,38,42,32);\n        // createBaseStatPokemon(450,\"Hippowdon\",\"Ground\",\"None\",525,108,112,118,68,72,47);\n        // createBaseStatPokemon(451,\"Skorupi\",\"Poison\",\"Bug\",330,40,50,90,30,55,65);\n        // createBaseStatPokemon(452,\"Drapion\",\"Poison\",\"Dark\",500,70,90,110,60,75,95);\n        // createBaseStatPokemon(453,\"Croagunk\",\"Poison\",\"Fighting\",300,48,61,40,61,40,50);\n        // createBaseStatPokemon(454,\"Toxicroak\",\"Poison\",\"Fighting\",490,83,106,65,86,65,85);\n        // createBaseStatPokemon(455,\"Carnivine\",\"Grass\",\"None\",454,74,100,72,90,72,46);\n        // createBaseStatPokemon(456,\"Finneon\",\"Water\",\"None\",330,49,49,56,49,61,66);\n        // createBaseStatPokemon(457,\"Lumineon\",\"Water\",\"None\",460,69,69,76,69,86,91);\n        // createBaseStatPokemon(458,\"Mantyke\",\"Water\",\"Flying\",345,45,20,50,60,120,50);\n        // createBaseStatPokemon(459,\"Snover\",\"Grass\",\"Ice\",334,60,62,50,62,60,40);\n        // createBaseStatPokemon(460,\"Abomasnow\",\"Grass\",\"Ice\",494,90,92,75,92,85,60);\n        // createBaseStatPokemon(460,\"Mega Abomasnow\",\"Grass\",\"Ice\",594,90,132,105,132,105,30);\n        // createBaseStatPokemon(461,\"Weavile\",\"Dark\",\"Ice\",510,70,120,65,45,85,125);\n        // createBaseStatPokemon(462,\"Magnezone\",\"Electric\",\"Steel\",535,70,70,115,130,90,60);\n        // createBaseStatPokemon(463,\"Lickilicky\",\"Normal\",\"None\",515,110,85,95,80,95,50);\n        // createBaseStatPokemon(464,\"Rhyperior\",\"Ground\",\"Rock\",535,115,140,130,55,55,40);\n        // createBaseStatPokemon(465,\"Tangrowth\",\"Grass\",\"None\",535,100,100,125,110,50,50);\n        // createBaseStatPokemon(466,\"Electivire\",\"Electric\",\"None\",540,75,123,67,95,85,95);\n        // createBaseStatPokemon(467,\"Magmortar\",\"Fire\",\"None\",540,75,95,67,125,95,83);\n        // createBaseStatPokemon(468,\"Togekiss\",\"Fairy\",\"Flying\",545,85,50,95,120,115,80);\n        // createBaseStatPokemon(469,\"Yanmega\",\"Bug\",\"Flying\",515,86,76,86,116,56,95);\n        // createBaseStatPokemon(470,\"Leafeon\",\"Grass\",\"None\",525,65,110,130,60,65,95);\n        // createBaseStatPokemon(471,\"Glaceon\",\"Ice\",\"None\",525,65,60,110,130,95,65);\n        // createBaseStatPokemon(472,\"Gliscor\",\"Ground\",\"Flying\",510,75,95,125,45,75,95);\n        // createBaseStatPokemon(473,\"Mamoswine\",\"Ice\",\"Ground\",530,110,130,80,70,60,80);\n        // createBaseStatPokemon(474,\"Porygon-z\",\"Normal\",\"None\",535,85,80,70,135,75,90);\n        // createBaseStatPokemon(475,\"Gallade\",\"Psychic\",\"Fighting\",518,68,125,65,65,115,80);\n        // createBaseStatPokemon(475,\"Mega Gallade\",\"Psychic\",\"Fighting\",618,68,165,95,65,115,110);\n        // createBaseStatPokemon(476,\"Probopass\",\"Rock\",\"Steel\",525,60,55,145,75,150,40);\n        // createBaseStatPokemon(477,\"Dusknoir\",\"Ghost\",\"None\",525,45,100,135,65,135,45);\n        // createBaseStatPokemon(478,\"Froslass\",\"Ice\",\"Ghost\",480,70,80,70,80,70,110);\n        // createBaseStatPokemon(479,\"Rotom\",\"Electric\",\"Ghost\",440,50,50,77,95,77,91);\n        // createBaseStatPokemon(479,\"Heat Rotom\",\"Electric\",\"Fire\",520,50,65,107,105,107,86);\n        // createBaseStatPokemon(479,\"Wash Rotom\",\"Electric\",\"Water\",520,50,65,107,105,107,86);\n        // createBaseStatPokemon(479,\"Frost Rotom\",\"Electric\",\"Ice\",520,50,65,107,105,107,86);\n        // createBaseStatPokemon(479,\"Fan Rotom\",\"Electric\",\"Flying\",520,50,65,107,105,107,86);\n        // createBaseStatPokemon(479,\"Mow Rotom\",\"Electric\",\"Grass\",520,50,65,107,105,107,86);\n        // createBaseStatPokemon(480,\"Uxie\",\"Psychic\",\"None\",580,75,75,130,75,130,95);\n        // createBaseStatPokemon(481,\"Mesprit\",\"Psychic\",\"None\",580,80,105,105,105,105,80);\n        // createBaseStatPokemon(482,\"Azelf\",\"Psychic\",\"None\",580,75,125,70,125,70,115);\n        // createBaseStatPokemon(483,\"Dialga\",\"Steel\",\"Dragon\",680,100,120,120,150,100,90);\n        // createBaseStatPokemon(484,\"Palkia\",\"Water\",\"Dragon\",680,90,120,100,150,120,100);\n        // createBaseStatPokemon(485,\"Heatran\",\"Fire\",\"Steel\",600,91,90,106,130,106,77);\n        // createBaseStatPokemon(486,\"Regigigas\",\"Normal\",\"None\",670,110,160,110,80,110,100);\n        // createBaseStatPokemon(487,\"Giratina Altered Forme\",\"Ghost\",\"Dragon\",680,150,100,120,100,120,90);\n        // createBaseStatPokemon(487,\"Giratina Origin Forme\",\"Ghost\",\"Dragon\",680,150,120,100,120,100,90);\n        // createBaseStatPokemon(488,\"Cresselia\",\"Psychic\",\"None\",600,120,70,120,75,130,85);\n        // createBaseStatPokemon(489,\"Phione\",\"Water\",\"None\",480,80,80,80,80,80,80);\n        // createBaseStatPokemon(490,\"Manaphy\",\"Water\",\"None\",600,100,100,100,100,100,100);\n        // createBaseStatPokemon(491,\"Darkrai\",\"Dark\",\"None\",600,70,90,90,135,90,125);\n        // createBaseStatPokemon(492,\"Shaymin Land Forme\",\"Grass\",\"None\",600,100,100,100,100,100,100);\n        // createBaseStatPokemon(492,\"Shaymin Sky Forme\",\"Grass\",\"Flying\",600,100,103,75,120,75,127);\n        // createBaseStatPokemon(493,\"Arceus\",\"Normal\",\"None\",720,120,120,120,120,120,120);\n        // createBaseStatPokemon(494,\"Victini\",\"Psychic\",\"Fire\",600,100,100,100,100,100,100);\n        // createBaseStatPokemon(495,\"Snivy\",\"Grass\",\"None\",308,45,45,55,45,55,63);\n        // createBaseStatPokemon(496,\"Servine\",\"Grass\",\"None\",413,60,60,75,60,75,83);\n        // createBaseStatPokemon(497,\"Serperior\",\"Grass\",\"None\",528,75,75,95,75,95,113);\n        // createBaseStatPokemon(498,\"Tepig\",\"Fire\",\"None\",308,65,63,45,45,45,45);\n        // createBaseStatPokemon(499,\"Pignite\",\"Fire\",\"Fighting\",418,90,93,55,70,55,55);\n        // createBaseStatPokemon(500,\"Emboar\",\"Fire\",\"Fighting\",528,110,123,65,100,65,65);\n        // createBaseStatPokemon(501,\"Oshawott\",\"Water\",\"None\",308,55,55,45,63,45,45);\n        // createBaseStatPokemon(502,\"Dewott\",\"Water\",\"None\",413,75,75,60,83,60,60);\n        // createBaseStatPokemon(503,\"Samurott\",\"Water\",\"None\",528,95,100,85,108,70,70);\n        // createBaseStatPokemon(504,\"Patrat\",\"Normal\",\"None\",255,45,55,39,35,39,42);\n        // createBaseStatPokemon(505,\"Watchog\",\"Normal\",\"None\",420,60,85,69,60,69,77);\n        // createBaseStatPokemon(506,\"Lillipup\",\"Normal\",\"None\",275,45,60,45,25,45,55);\n        // createBaseStatPokemon(507,\"Herdier\",\"Normal\",\"None\",370,65,80,65,35,65,60);\n        // createBaseStatPokemon(508,\"Stoutland\",\"Normal\",\"None\",500,85,110,90,45,90,80);\n        // createBaseStatPokemon(509,\"Purrloin\",\"Dark\",\"None\",281,41,50,37,50,37,66);\n        // createBaseStatPokemon(510,\"Liepard\",\"Dark\",\"None\",446,64,88,50,88,50,106);\n        // createBaseStatPokemon(511,\"Pansage\",\"Grass\",\"None\",316,50,53,48,53,48,64);\n        // createBaseStatPokemon(512,\"Simisage\",\"Grass\",\"None\",498,75,98,63,98,63,101);\n        // createBaseStatPokemon(513,\"Pansear\",\"Fire\",\"None\",316,50,53,48,53,48,64);\n        // createBaseStatPokemon(514,\"Simisear\",\"Fire\",\"None\",498,75,98,63,98,63,101);\n        // createBaseStatPokemon(515,\"Panpour\",\"Water\",\"None\",316,50,53,48,53,48,64);\n        // createBaseStatPokemon(516,\"Simipour\",\"Water\",\"None\",498,75,98,63,98,63,101);\n        // createBaseStatPokemon(517,\"Munna\",\"Psychic\",\"None\",292,76,25,45,67,55,24);\n        // createBaseStatPokemon(518,\"Musharna\",\"Psychic\",\"None\",487,116,55,85,107,95,29);\n        // createBaseStatPokemon(519,\"Pidove\",\"Normal\",\"Flying\",264,50,55,50,36,30,43);\n        // createBaseStatPokemon(520,\"Tranquill\",\"Normal\",\"Flying\",358,62,77,62,50,42,65);\n        // createBaseStatPokemon(521,\"Unfezant\",\"Normal\",\"Flying\",488,80,115,80,65,55,93);\n        // createBaseStatPokemon(522,\"Blitzle\",\"Electric\",\"None\",295,45,60,32,50,32,76);\n        // createBaseStatPokemon(523,\"Zebstrika\",\"Electric\",\"None\",497,75,100,63,80,63,116);\n        // createBaseStatPokemon(524,\"Roggenrola\",\"Rock\",\"None\",280,55,75,85,25,25,15);\n        // createBaseStatPokemon(525,\"Boldore\",\"Rock\",\"None\",390,70,105,105,50,40,20);\n        // createBaseStatPokemon(526,\"Gigalith\",\"Rock\",\"None\",515,85,135,130,60,80,25);\n        // createBaseStatPokemon(527,\"Woobat\",\"Psychic\",\"Flying\",313,55,45,43,55,43,72);\n        // createBaseStatPokemon(528,\"Swoobat\",\"Psychic\",\"Flying\",425,67,57,55,77,55,114);\n        // createBaseStatPokemon(529,\"Drilbur\",\"Ground\",\"None\",328,60,85,40,30,45,68);\n        // createBaseStatPokemon(530,\"Excadrill\",\"Ground\",\"Steel\",508,110,135,60,50,65,88);\n        // createBaseStatPokemon(531,\"Audino\",\"Normal\",\"None\",445,103,60,86,60,86,50);\n        // createBaseStatPokemon(531,\"Mega Audino\",\"Normal\",\"Fairy\",545,103,60,126,80,126,50);\n        // createBaseStatPokemon(532,\"Timburr\",\"Fighting\",\"None\",305,75,80,55,25,35,35);\n        // createBaseStatPokemon(533,\"Gurdurr\",\"Fighting\",\"None\",405,85,105,85,40,50,40);\n        // createBaseStatPokemon(534,\"Conkeldurr\",\"Fighting\",\"None\",505,105,140,95,55,65,45);\n        // createBaseStatPokemon(535,\"Tympole\",\"Water\",\"None\",294,50,50,40,50,40,64);\n        // createBaseStatPokemon(536,\"Palpitoad\",\"Water\",\"Ground\",384,75,65,55,65,55,69);\n        // createBaseStatPokemon(537,\"Seismitoad\",\"Water\",\"Ground\",509,105,95,75,85,75,74);\n        // createBaseStatPokemon(538,\"Throh\",\"Fighting\",\"None\",465,120,100,85,30,85,45);\n        // createBaseStatPokemon(539,\"Sawk\",\"Fighting\",\"None\",465,75,125,75,30,75,85);\n        // createBaseStatPokemon(540,\"Sewaddle\",\"Bug\",\"Grass\",310,45,53,70,40,60,42);\n        // createBaseStatPokemon(541,\"Swadloon\",\"Bug\",\"Grass\",380,55,63,90,50,80,42);\n        // createBaseStatPokemon(542,\"Leavanny\",\"Bug\",\"Grass\",500,75,103,80,70,80,92);\n        // createBaseStatPokemon(543,\"Venipede\",\"Bug\",\"Poison\",260,30,45,59,30,39,57);\n        // createBaseStatPokemon(544,\"Whirlipede\",\"Bug\",\"Poison\",360,40,55,99,40,79,47);\n        // createBaseStatPokemon(545,\"Scolipede\",\"Bug\",\"Poison\",485,60,100,89,55,69,112);\n        // createBaseStatPokemon(546,\"Cottonee\",\"Grass\",\"Fairy\",280,40,27,60,37,50,66);\n        // createBaseStatPokemon(547,\"Whimsicott\",\"Grass\",\"Fairy\",480,60,67,85,77,75,116);\n        // createBaseStatPokemon(548,\"Petilil\",\"Grass\",\"None\",280,45,35,50,70,50,30);\n        // createBaseStatPokemon(549,\"Lilligant\",\"Grass\",\"None\",480,70,60,75,110,75,90);\n        // createBaseStatPokemon(550,\"Basculin\",\"Water\",\"None\",460,70,92,65,80,55,98);\n        // createBaseStatPokemon(551,\"Sandile\",\"Ground\",\"Dark\",292,50,72,35,35,35,65);\n        // createBaseStatPokemon(552,\"Krokorok\",\"Ground\",\"Dark\",351,60,82,45,45,45,74);\n        // createBaseStatPokemon(553,\"Krookodile\",\"Ground\",\"Dark\",519,95,117,80,65,70,92);\n        // createBaseStatPokemon(554,\"Darumaka\",\"Fire\",\"None\",315,70,90,45,15,45,50);\n        // createBaseStatPokemon(554,\"Galarian Darumaka\",\"Ice\",\"None\",315,70,90,45,15,45,50);\n        // createBaseStatPokemon(555,\"Darmanitan Standard Mode\",\"Fire\",\"None\",480,105,140,55,30,55,95);\n        // createBaseStatPokemon(555,\"Galarian Darmanitan Standard Mode\",\"Ice\",\"None\",480,105,140,55,30,55,95);\n        // createBaseStatPokemon(555,\"Darmanitan Zen Mode\",\"Fire\",\"Psychic\",540,105,30,105,140,105,55);\n        // createBaseStatPokemon(555,\"Galarian Darmanitan Zen Mode\",\"Ice\",\"Fire\",540,105,160,55,30,55,135);\n        // createBaseStatPokemon(556,\"Maractus\",\"Grass\",\"None\",461,75,86,67,106,67,60);\n        // createBaseStatPokemon(557,\"Dwebble\",\"Bug\",\"Rock\",325,50,65,85,35,35,55);\n        // createBaseStatPokemon(558,\"Crustle\",\"Bug\",\"Rock\",475,70,95,125,65,75,45);\n        // createBaseStatPokemon(559,\"Scraggy\",\"Dark\",\"Fighting\",348,50,75,70,35,70,48);\n        // createBaseStatPokemon(560,\"Scrafty\",\"Dark\",\"Fighting\",488,65,90,115,45,115,58);\n        // createBaseStatPokemon(561,\"Sigilyph\",\"Psychic\",\"Flying\",490,72,58,80,103,80,97);\n        // createBaseStatPokemon(562,\"Yamask\",\"Ghost\",\"None\",303,38,30,85,55,65,30);\n        // createBaseStatPokemon(562,\"Galarian Yamask\",\"Ground\",\"Ghost\",303,38,55,85,30,65,30);\n        // createBaseStatPokemon(563,\"Cofagrigus\",\"Ghost\",\"None\",483,58,50,145,95,105,30);\n        // createBaseStatPokemon(564,\"Tirtouga\",\"Water\",\"Rock\",355,54,78,103,53,45,22);\n        // createBaseStatPokemon(565,\"Carracosta\",\"Water\",\"Rock\",495,74,108,133,83,65,32);\n        // createBaseStatPokemon(566,\"Archen\",\"Rock\",\"Flying\",401,55,112,45,74,45,70);\n        // createBaseStatPokemon(567,\"Archeops\",\"Rock\",\"Flying\",567,75,140,65,112,65,110);\n        // createBaseStatPokemon(568,\"Trubbish\",\"Poison\",\"None\",329,50,50,62,40,62,65);\n        // createBaseStatPokemon(569,\"Garbodor\",\"Poison\",\"None\",474,80,95,82,60,82,75);\n        // createBaseStatPokemon(569,\"Gigantamax Garbodor\",\"Poison\",\"None\",474,80,95,82,60,82,75);\n        // createBaseStatPokemon(570,\"Zorua\",\"Dark\",\"None\",330,40,65,40,80,40,65);\n        // createBaseStatPokemon(571,\"Zoroark\",\"Dark\",\"None\",510,60,105,60,120,60,105);\n        // createBaseStatPokemon(572,\"Minccino\",\"Normal\",\"None\",300,55,50,40,40,40,75);\n        // createBaseStatPokemon(573,\"Cinccino\",\"Normal\",\"None\",470,75,95,60,65,60,115);\n        // createBaseStatPokemon(574,\"Gothita\",\"Psychic\",\"None\",290,45,30,50,55,65,45);\n        // createBaseStatPokemon(575,\"Gothorita\",\"Psychic\",\"None\",390,60,45,70,75,85,55);\n        // createBaseStatPokemon(576,\"Gothitelle\",\"Psychic\",\"None\",490,70,55,95,95,110,65);\n        // createBaseStatPokemon(577,\"Solosis\",\"Psychic\",\"None\",290,45,30,40,105,50,20);\n        // createBaseStatPokemon(578,\"Duosion\",\"Psychic\",\"None\",370,65,40,50,125,60,30);\n        // createBaseStatPokemon(579,\"Reuniclus\",\"Psychic\",\"None\",490,110,65,75,125,85,30);\n        // createBaseStatPokemon(580,\"Ducklett\",\"Water\",\"Flying\",305,62,44,50,44,50,55);\n        // createBaseStatPokemon(581,\"Swanna\",\"Water\",\"Flying\",473,75,87,63,87,63,98);\n        // createBaseStatPokemon(582,\"Vanillite\",\"Ice\",\"None\",305,36,50,50,65,60,44);\n        // createBaseStatPokemon(583,\"Vanillish\",\"Ice\",\"None\",395,51,65,65,80,75,59);\n        // createBaseStatPokemon(584,\"Vanilluxe\",\"Ice\",\"None\",535,71,95,85,110,95,79);\n        // createBaseStatPokemon(585,\"Deerling\",\"Normal\",\"Grass\",335,60,60,50,40,50,75);\n        // createBaseStatPokemon(586,\"Sawsbuck\",\"Normal\",\"Grass\",475,80,100,70,60,70,95);\n        // createBaseStatPokemon(587,\"Emolga\",\"Electric\",\"Flying\",428,55,75,60,75,60,103);\n        // createBaseStatPokemon(588,\"Karrablast\",\"Bug\",\"None\",315,50,75,45,40,45,60);\n        // createBaseStatPokemon(589,\"Escavalier\",\"Bug\",\"Steel\",495,70,135,105,60,105,20);\n        // createBaseStatPokemon(590,\"Foongus\",\"Grass\",\"Poison\",294,69,55,45,55,55,15);\n        // createBaseStatPokemon(591,\"Amoonguss\",\"Grass\",\"Poison\",464,114,85,70,85,80,30);\n        // createBaseStatPokemon(592,\"Frillish\",\"Water\",\"Ghost\",335,55,40,50,65,85,40);\n        // createBaseStatPokemon(593,\"Jellicent\",\"Water\",\"Ghost\",480,100,60,70,85,105,60);\n        // createBaseStatPokemon(594,\"Alomomola\",\"Water\",\"None\",470,165,75,80,40,45,65);\n        // createBaseStatPokemon(595,\"Joltik\",\"Bug\",\"Electric\",319,50,47,50,57,50,65);\n        // createBaseStatPokemon(596,\"Galvantula\",\"Bug\",\"Electric\",472,70,77,60,97,60,108);\n        // createBaseStatPokemon(597,\"Ferroseed\",\"Grass\",\"Steel\",305,44,50,91,24,86,10);\n        // createBaseStatPokemon(598,\"Ferrothorn\",\"Grass\",\"Steel\",489,74,94,131,54,116,20);\n        // createBaseStatPokemon(599,\"Klink\",\"Steel\",\"None\",300,40,55,70,45,60,30);\n        // createBaseStatPokemon(600,\"Klang\",\"Steel\",\"None\",440,60,80,95,70,85,50);\n        // createBaseStatPokemon(601,\"Klinklang\",\"Steel\",\"None\",520,60,100,115,70,85,90);\n        // createBaseStatPokemon(602,\"Tynamo\",\"Electric\",\"None\",275,35,55,40,45,40,60);\n        // createBaseStatPokemon(603,\"Eelektrik\",\"Electric\",\"None\",405,65,85,70,75,70,40);\n        // createBaseStatPokemon(604,\"Eelektross\",\"Electric\",\"None\",515,85,115,80,105,80,50);\n        // createBaseStatPokemon(605,\"Elgyem\",\"Psychic\",\"None\",335,55,55,55,85,55,30);\n        // createBaseStatPokemon(606,\"Beheeyem\",\"Psychic\",\"None\",485,75,75,75,125,95,40);\n        // createBaseStatPokemon(607,\"Litwick\",\"Ghost\",\"Fire\",275,50,30,55,65,55,20);\n        // createBaseStatPokemon(608,\"Lampent\",\"Ghost\",\"Fire\",370,60,40,60,95,60,55);\n        // createBaseStatPokemon(609,\"Chandelure\",\"Ghost\",\"Fire\",520,60,55,90,145,90,80);\n        // createBaseStatPokemon(610,\"Axew\",\"Dragon\",\"None\",320,46,87,60,30,40,57);\n        // createBaseStatPokemon(611,\"Fraxure\",\"Dragon\",\"None\",410,66,117,70,40,50,67);\n        // createBaseStatPokemon(612,\"Haxorus\",\"Dragon\",\"None\",540,76,147,90,60,70,97);\n        // createBaseStatPokemon(613,\"Cubchoo\",\"Ice\",\"None\",305,55,70,40,60,40,40);\n        // createBaseStatPokemon(614,\"Beartic\",\"Ice\",\"None\",485,95,110,80,70,80,50);\n        // createBaseStatPokemon(615,\"Cryogonal\",\"Ice\",\"None\",485,70,50,30,95,135,105);\n        // createBaseStatPokemon(616,\"Shelmet\",\"Bug\",\"None\",305,50,40,85,40,65,25);\n        // createBaseStatPokemon(617,\"Accelgor\",\"Bug\",\"None\",495,80,70,40,100,60,145);\n        // createBaseStatPokemon(618,\"Stunfisk\",\"Ground\",\"Electric\",471,109,66,84,81,99,32);\n        // createBaseStatPokemon(618,\"Galarian Stunfisk\",\"Ground\",\"Steel\",471,109,81,99,66,84,32);\n        // createBaseStatPokemon(619,\"Mienfoo\",\"Fighting\",\"None\",350,45,85,50,55,50,65);\n        // createBaseStatPokemon(620,\"Mienshao\",\"Fighting\",\"None\",510,65,125,60,95,60,105);\n        // createBaseStatPokemon(621,\"Druddigon\",\"Dragon\",\"None\",485,77,120,90,60,90,48);\n        // createBaseStatPokemon(622,\"Golett\",\"Ground\",\"Ghost\",303,59,74,50,35,50,35);\n        // createBaseStatPokemon(623,\"Golurk\",\"Ground\",\"Ghost\",483,89,124,80,55,80,55);\n        // createBaseStatPokemon(624,\"Pawniard\",\"Dark\",\"Steel\",340,45,85,70,40,40,60);\n        // createBaseStatPokemon(625,\"Bisharp\",\"Dark\",\"Steel\",490,65,125,100,60,70,70);\n        // createBaseStatPokemon(626,\"Bouffalant\",\"Normal\",\"None\",490,95,110,95,40,95,55);\n        // createBaseStatPokemon(627,\"Rufflet\",\"Normal\",\"Flying\",350,70,83,50,37,50,60);\n        // createBaseStatPokemon(628,\"Braviary\",\"Normal\",\"Flying\",510,100,123,75,57,75,80);\n        // createBaseStatPokemon(629,\"Vullaby\",\"Dark\",\"Flying\",370,70,55,75,45,65,60);\n        // createBaseStatPokemon(630,\"Mandibuzz\",\"Dark\",\"Flying\",510,110,65,105,55,95,80);\n        // createBaseStatPokemon(631,\"Heatmor\",\"Fire\",\"None\",484,85,97,66,105,66,65);\n        // createBaseStatPokemon(632,\"Durant\",\"Bug\",\"Steel\",484,58,109,112,48,48,109);\n        // createBaseStatPokemon(633,\"Deino\",\"Dark\",\"Dragon\",300,52,65,50,45,50,38);\n        // createBaseStatPokemon(634,\"Zweilous\",\"Dark\",\"Dragon\",420,72,85,70,65,70,58);\n        // createBaseStatPokemon(635,\"Hydreigon\",\"Dark\",\"Dragon\",600,92,105,90,125,90,98);\n        // createBaseStatPokemon(636,\"Larvesta\",\"Bug\",\"Fire\",360,55,85,55,50,55,60);\n        // createBaseStatPokemon(637,\"Volcarona\",\"Bug\",\"Fire\",550,85,60,65,135,105,100);\n        // createBaseStatPokemon(638,\"Cobalion\",\"Steel\",\"Fighting\",580,91,90,129,90,72,108);\n        // createBaseStatPokemon(639,\"Terrakion\",\"Rock\",\"Fighting\",580,91,129,90,72,90,108);\n        // createBaseStatPokemon(640,\"Virizion\",\"Grass\",\"Fighting\",580,91,90,72,90,129,108);\n        // createBaseStatPokemon(641,\"Tornadus Incarnate Forme\",\"Flying\",\"None\",580,79,115,70,125,80,111);\n        // createBaseStatPokemon(641,\"Tornadus Therian Forme\",\"Flying\",\"None\",580,79,100,80,110,90,121);\n        // createBaseStatPokemon(642,\"Thundurus Incarnate Forme\",\"Electric\",\"Flying\",580,79,115,70,125,80,111);\n        // createBaseStatPokemon(642,\"Thundurus Therian Forme\",\"Electric\",\"Flying\",580,79,105,70,145,80,101);\n        // createBaseStatPokemon(643,\"Reshiram\",\"Dragon\",\"Fire\",680,100,120,100,150,120,90);\n        // createBaseStatPokemon(644,\"Zekrom\",\"Dragon\",\"Electric\",680,100,150,120,120,100,90);\n        // createBaseStatPokemon(645,\"Landorus Incarnate Forme\",\"Ground\",\"Flying\",600,89,125,90,115,80,101);\n        // createBaseStatPokemon(645,\"Landorus Therian Forme\",\"Ground\",\"Flying\",600,89,145,90,105,80,91);\n        // createBaseStatPokemon(646,\"Kyurem\",\"Dragon\",\"Ice\",660,125,130,90,130,90,95);\n        // createBaseStatPokemon(646,\"Black Kyurem\",\"Dragon\",\"Ice\",700,125,170,100,120,90,95);\n        // createBaseStatPokemon(646,\"White Kyurem\",\"Dragon\",\"Ice\",700,125,120,90,170,100,95);\n        // createBaseStatPokemon(647,\"Keldeo Ordinary Forme\",\"Water\",\"Fighting\",580,91,72,90,129,90,108);\n        // createBaseStatPokemon(647,\"Keldeo Resolute Forme\",\"Water\",\"Fighting\",580,91,72,90,129,90,108);\n        // createBaseStatPokemon(648,\"Meloetta Aria Forme\",\"Normal\",\"Psychic\",600,100,77,77,128,128,90);\n        // createBaseStatPokemon(648,\"Meloetta Pirouette Forme\",\"Normal\",\"Fighting\",600,100,128,90,77,77,128);\n        // createBaseStatPokemon(649,\"Genesect\",\"Bug\",\"Steel\",600,71,120,95,120,95,99);\n        // createBaseStatPokemon(650,\"Chespin\",\"Grass\",\"None\",313,56,61,65,48,45,38);\n        // createBaseStatPokemon(651,\"Quilladin\",\"Grass\",\"None\",405,61,78,95,56,58,57);\n        // createBaseStatPokemon(652,\"Chesnaught\",\"Grass\",\"Fighting\",530,88,107,122,74,75,64);\n        // createBaseStatPokemon(653,\"Fennekin\",\"Fire\",\"None\",307,40,45,40,62,60,60);\n        // createBaseStatPokemon(654,\"Braixen\",\"Fire\",\"None\",409,59,59,58,90,70,73);\n        // createBaseStatPokemon(655,\"Delphox\",\"Fire\",\"Psychic\",534,75,69,72,114,100,104);\n        // createBaseStatPokemon(656,\"Froakie\",\"Water\",\"None\",314,41,56,40,62,44,71);\n        // createBaseStatPokemon(657,\"Frogadier\",\"Water\",\"None\",405,54,63,52,83,56,97);\n        // createBaseStatPokemon(658,\"Greninja\",\"Water\",\"Dark\",530,72,95,67,103,71,122);\n        // createBaseStatPokemon(658,\"Ash-Greninja\",\"Water\",\"Dark\",640,72,145,67,153,71,132);\n        // createBaseStatPokemon(659,\"Bunnelby\",\"Normal\",\"None\",237,38,36,38,32,36,57);\n        // createBaseStatPokemon(660,\"Diggersby\",\"Normal\",\"Ground\",423,85,56,77,50,77,78);\n        // createBaseStatPokemon(661,\"Fletchling\",\"Normal\",\"Flying\",278,45,50,43,40,38,62);\n        // createBaseStatPokemon(662,\"Fletchinder\",\"Fire\",\"Flying\",382,62,73,55,56,52,84);\n        // createBaseStatPokemon(663,\"Talonflame\",\"Fire\",\"Flying\",499,78,81,71,74,69,126);\n        // createBaseStatPokemon(664,\"Scatterbug\",\"Bug\",\"None\",200,38,35,40,27,25,35);\n        // createBaseStatPokemon(665,\"Spewpa\",\"Bug\",\"None\",213,45,22,60,27,30,29);\n        // createBaseStatPokemon(666,\"Vivillon\",\"Bug\",\"Flying\",411,80,52,50,90,50,89);\n        // createBaseStatPokemon(667,\"Litleo\",\"Fire\",\"Normal\",369,62,50,58,73,54,72);\n        // createBaseStatPokemon(668,\"Pyroar\",\"Fire\",\"Normal\",507,86,68,72,109,66,106);\n        // createBaseStatPokemon(669,\"Flabébé\",\"Fairy\",\"None\",303,44,38,39,61,79,42);\n        // createBaseStatPokemon(670,\"Floette\",\"Fairy\",\"None\",371,54,45,47,75,98,52);\n        // createBaseStatPokemon(671,\"Florges\",\"Fairy\",\"None\",552,78,65,68,112,154,75);\n        // createBaseStatPokemon(672,\"Skiddo\",\"Grass\",\"None\",350,66,65,48,62,57,52);\n        // createBaseStatPokemon(673,\"Gogoat\",\"Grass\",\"None\",531,123,100,62,97,81,68);\n        // createBaseStatPokemon(674,\"Pancham\",\"Fighting\",\"None\",348,67,82,62,46,48,43);\n        // createBaseStatPokemon(675,\"Pangoro\",\"Fighting\",\"Dark\",495,95,124,78,69,71,58);\n        // createBaseStatPokemon(676,\"Furfrou\",\"Normal\",\"None\",472,75,80,60,65,90,102);\n        // createBaseStatPokemon(677,\"Espurr\",\"Psychic\",\"None\",355,62,48,54,63,60,68);\n        // createBaseStatPokemon(678,\"Meowstic Male\",\"Psychic\",\"None\",466,74,48,76,83,81,104);\n        // createBaseStatPokemon(678,\"Meowstic Female\",\"Psychic\",\"None\",466,74,48,76,83,81,104);\n        // createBaseStatPokemon(679,\"Honedge\",\"Steel\",\"Ghost\",325,45,80,100,35,37,28);\n        // createBaseStatPokemon(680,\"Doublade\",\"Steel\",\"Ghost\",448,59,110,150,45,49,35);\n        // createBaseStatPokemon(681,\"Aegislash Blade Forme\",\"Steel\",\"Ghost\",520,60,150,50,150,50,60);\n        // createBaseStatPokemon(681,\"Aegislash Shield Forme\",\"Steel\",\"Ghost\",520,60,50,150,50,150,60);\n        // createBaseStatPokemon(682,\"Spritzee\",\"Fairy\",\"None\",341,78,52,60,63,65,23);\n        // createBaseStatPokemon(683,\"Aromatisse\",\"Fairy\",\"None\",462,101,72,72,99,89,29);\n        // createBaseStatPokemon(684,\"Swirlix\",\"Fairy\",\"None\",341,62,48,66,59,57,49);\n        // createBaseStatPokemon(685,\"Slurpuff\",\"Fairy\",\"None\",480,82,80,86,85,75,72);\n        // createBaseStatPokemon(686,\"Inkay\",\"Dark\",\"Psychic\",288,53,54,53,37,46,45);\n        // createBaseStatPokemon(687,\"Malamar\",\"Dark\",\"Psychic\",482,86,92,88,68,75,73);\n        // createBaseStatPokemon(688,\"Binacle\",\"Rock\",\"Water\",306,42,52,67,39,56,50);\n        // createBaseStatPokemon(689,\"Barbaracle\",\"Rock\",\"Water\",500,72,105,115,54,86,68);\n        // createBaseStatPokemon(690,\"Skrelp\",\"Poison\",\"Water\",320,50,60,60,60,60,30);\n        // createBaseStatPokemon(691,\"Dragalge\",\"Poison\",\"Dragon\",494,65,75,90,97,123,44);\n        // createBaseStatPokemon(692,\"Clauncher\",\"Water\",\"None\",330,50,53,62,58,63,44);\n        // createBaseStatPokemon(693,\"Clawitzer\",\"Water\",\"None\",500,71,73,88,120,89,59);\n        // createBaseStatPokemon(694,\"Helioptile\",\"Electric\",\"Normal\",289,44,38,33,61,43,70);\n        // createBaseStatPokemon(695,\"Heliolisk\",\"Electric\",\"Normal\",481,62,55,52,109,94,109);\n        // createBaseStatPokemon(696,\"Tyrunt\",\"Rock\",\"Dragon\",362,58,89,77,45,45,48);\n        // createBaseStatPokemon(697,\"Tyrantrum\",\"Rock\",\"Dragon\",521,82,121,119,69,59,71);\n        // createBaseStatPokemon(698,\"Amaura\",\"Rock\",\"Ice\",362,77,59,50,67,63,46);\n        // createBaseStatPokemon(699,\"Aurorus\",\"Rock\",\"Ice\",521,123,77,72,99,92,58);\n        // createBaseStatPokemon(700,\"Sylveon\",\"Fairy\",\"None\",525,95,65,65,110,130,60);\n        // createBaseStatPokemon(701,\"Hawlucha\",\"Fighting\",\"Flying\",500,78,92,75,74,63,118);\n        // createBaseStatPokemon(702,\"Dedenne\",\"Electric\",\"Fairy\",431,67,58,57,81,67,101);\n        // createBaseStatPokemon(703,\"Carbink\",\"Rock\",\"Fairy\",500,50,50,150,50,150,50);\n        // createBaseStatPokemon(704,\"Goomy\",\"Dragon\",\"None\",300,45,50,35,55,75,40);\n        // createBaseStatPokemon(705,\"Sliggoo\",\"Dragon\",\"None\",452,68,75,53,83,113,60);\n        // createBaseStatPokemon(706,\"Goodra\",\"Dragon\",\"None\",600,90,100,70,110,150,80);\n        // createBaseStatPokemon(707,\"Klefki\",\"Steel\",\"Fairy\",470,57,80,91,80,87,75);\n        // createBaseStatPokemon(708,\"Phantump\",\"Ghost\",\"Grass\",309,43,70,48,50,60,38);\n        // createBaseStatPokemon(709,\"Trevenant\",\"Ghost\",\"Grass\",474,85,110,76,65,82,56);\n        // createBaseStatPokemon(710,\"Pumpkaboo Average Size\",\"Ghost\",\"Grass\",335,49,66,70,44,55,51);\n        // createBaseStatPokemon(710,\"Pumpkaboo Small Size\",\"Ghost\",\"Grass\",335,44,66,70,44,55,56);\n        // createBaseStatPokemon(710,\"Pumpkaboo Large Size\",\"Ghost\",\"Grass\",335,54,66,70,44,55,46);\n        // createBaseStatPokemon(710,\"Pumpkaboo Super Size\",\"Ghost\",\"Grass\",335,59,66,70,44,55,41);\n        // createBaseStatPokemon(711,\"Gourgeist Average Size\",\"Ghost\",\"Grass\",494,65,90,122,58,75,84);\n        // createBaseStatPokemon(711,\"Gourgeist Small Size\",\"Ghost\",\"Grass\",494,55,85,122,58,75,99);\n        // createBaseStatPokemon(711,\"Gourgeist Large Size\",\"Ghost\",\"Grass\",494,75,95,122,58,75,69);\n        // createBaseStatPokemon(711,\"Gourgeist Super Size\",\"Ghost\",\"Grass\",494,85,100,122,58,75,54);\n        // createBaseStatPokemon(712,\"Bergmite\",\"Ice\",\"None\",304,55,69,85,32,35,28);\n        // createBaseStatPokemon(713,\"Avalugg\",\"Ice\",\"None\",514,95,117,184,44,46,28);\n        // createBaseStatPokemon(714,\"Noibat\",\"Flying\",\"Dragon\",245,40,30,35,45,40,55);\n        // createBaseStatPokemon(715,\"Noivern\",\"Flying\",\"Dragon\",535,85,70,80,97,80,123);\n        // createBaseStatPokemon(716,\"Xerneas\",\"Fairy\",\"None\",680,126,131,95,131,98,99);\n        // createBaseStatPokemon(717,\"Yveltal\",\"Dark\",\"Flying\",680,126,131,95,131,98,99);\n        // createBaseStatPokemon(718,\"Zygarde 10% Forme\",\"Dragon\",\"Ground\",486,54,100,71,61,85,115);\n        // createBaseStatPokemon(718,\"Zygarde 50% Forme\",\"Dragon\",\"Ground\",600,108,100,121,81,95,95);\n        // createBaseStatPokemon(718,\"Zygarde Complete Forme\",\"Dragon\",\"Ground\",708,216,100,121,91,95,85);\n        // createBaseStatPokemon(719,\"Diancie\",\"Rock\",\"Fairy\",600,50,100,150,100,150,50);\n        // createBaseStatPokemon(719,\"Mega Diancie\",\"Rock\",\"Fairy\",700,50,160,110,160,110,110);\n        // createBaseStatPokemon(720,\"Hoopa Confined\",\"Psychic\",\"Ghost\",600,80,110,60,150,130,70);\n        // createBaseStatPokemon(720,\"Hoopa Unbound\",\"Psychic\",\"Dark\",680,80,160,60,170,130,80);\n        // createBaseStatPokemon(721,\"Volcanion\",\"Fire\",\"Water\",600,80,110,120,130,90,70);\n        // createBaseStatPokemon(722,\"Rowlet\",\"Grass\",\"Flying\",320,68,55,55,50,50,42);\n        // createBaseStatPokemon(723,\"Dartrix\",\"Grass\",\"Flying\",420,78,75,75,70,70,52);\n        // createBaseStatPokemon(724,\"Decidueye\",\"Grass\",\"Ghost\",530,78,107,75,100,100,70);\n        // createBaseStatPokemon(725,\"Litten\",\"Fire\",\"None\",320,45,65,40,60,40,70);\n        // createBaseStatPokemon(726,\"Torracat\",\"Fire\",\"None\",420,65,85,50,80,50,90);\n        // createBaseStatPokemon(727,\"Incineroar\",\"Fire\",\"Dark\",530,95,115,90,80,90,60);\n        // createBaseStatPokemon(728,\"Popplio\",\"Water\",\"None\",320,50,54,54,66,56,40);\n        // createBaseStatPokemon(729,\"Brionne\",\"Water\",\"None\",420,60,69,69,91,81,50);\n        // createBaseStatPokemon(730,\"Primarina\",\"Water\",\"Fairy\",530,80,74,74,126,116,60);\n        // createBaseStatPokemon(731,\"Pikipek\",\"Normal\",\"Flying\",265,35,75,30,30,30,65);\n        // createBaseStatPokemon(732,\"Trumbeak\",\"Normal\",\"Flying\",355,55,85,50,40,50,75);\n        // createBaseStatPokemon(733,\"Toucannon\",\"Normal\",\"Flying\",485,80,120,75,75,75,60);\n        // createBaseStatPokemon(734,\"Yungoos\",\"Normal\",\"None\",253,48,70,30,30,30,45);\n        // createBaseStatPokemon(735,\"Gumshoos\",\"Normal\",\"None\",418,88,110,60,55,60,45);\n        // createBaseStatPokemon(736,\"Grubbin\",\"Bug\",\"None\",300,47,62,45,55,45,46);\n        // createBaseStatPokemon(737,\"Charjabug\",\"Bug\",\"Electric\",400,57,82,95,55,75,36);\n        // createBaseStatPokemon(738,\"Vikavolt\",\"Bug\",\"Electric\",500,77,70,90,145,75,43);\n        // createBaseStatPokemon(739,\"Crabrawler\",\"Fighting\",\"None\",338,47,82,57,42,47,63);\n        // createBaseStatPokemon(740,\"Crabominable\",\"Fighting\",\"Ice\",478,97,132,77,62,67,43);\n        // createBaseStatPokemon(741,\"Oricorio Baile Style\",\"Fire\",\"Flying\",476,75,70,70,98,70,93);\n        // createBaseStatPokemon(741,\"Oricorio Pom-Pom Style\",\"Electric\",\"Flying\",476,75,70,70,98,70,93);\n        // createBaseStatPokemon(741,\"Oricorio P'au Style\",\"Psychic\",\"Flying\",476,75,70,70,98,70,93);\n        // createBaseStatPokemon(741,\"Oricorio Sensu Style\",\"Ghost\",\"Flying\",476,75,70,70,98,70,93);\n        // createBaseStatPokemon(742,\"Cutiefly\",\"Bug\",\"Fairy\",304,40,45,40,55,40,84);\n        // createBaseStatPokemon(743,\"Ribombee\",\"Bug\",\"Fairy\",464,60,55,60,95,70,124);\n        // createBaseStatPokemon(744,\"Rockruff\",\"Rock\",\"None\",280,45,65,40,30,40,60);\n        // createBaseStatPokemon(745,\"Lycanroc Midday Forme\",\"Rock\",\"None\",487,75,115,65,55,65,112);\n        // createBaseStatPokemon(745,\"Lycanroc Midnight Forme\",\"Rock\",\"None\",487,85,115,75,55,75,82);\n        // createBaseStatPokemon(745,\"Lycanroc Dusk Forme\",\"Rock\",\"None\",487,75,117,65,55,65,110);\n        // createBaseStatPokemon(746,\"Wishiwashi Solo Forme\",\"Water\",\"None\",175,45,20,20,25,25,40);\n        // createBaseStatPokemon(746,\"Wishiwashi School Forme\",\"Water\",\"None\",620,45,140,130,140,135,30);\n        // createBaseStatPokemon(747,\"Mareanie\",\"Poison\",\"Water\",305,50,53,62,43,52,45);\n        // createBaseStatPokemon(748,\"Toxapex\",\"Poison\",\"Water\",495,50,63,152,53,142,35);\n        // createBaseStatPokemon(749,\"Mudbray\",\"Ground\",\"None\",385,70,100,70,45,55,45);\n        // createBaseStatPokemon(750,\"Mudsdale\",\"Ground\",\"None\",500,100,125,100,55,85,35);\n        // createBaseStatPokemon(751,\"Dewpider\",\"Water\",\"Bug\",269,38,40,52,40,72,27);\n        // createBaseStatPokemon(752,\"Araquanid\",\"Water\",\"Bug\",454,68,70,92,50,132,42);\n        // createBaseStatPokemon(753,\"Fomantis\",\"Grass\",\"None\",250,40,55,35,50,35,35);\n        // createBaseStatPokemon(754,\"Lurantis\",\"Grass\",\"None\",480,70,105,90,80,90,45);\n        // createBaseStatPokemon(755,\"Morelull\",\"Grass\",\"Fairy\",285,40,35,55,65,75,15);\n        // createBaseStatPokemon(756,\"Shiinotic\",\"Grass\",\"Fairy\",405,60,45,80,90,100,30);\n        // createBaseStatPokemon(757,\"Salandit\",\"Poison\",\"Fire\",320,48,44,40,71,40,77);\n        // createBaseStatPokemon(758,\"Salazzle\",\"Poison\",\"Fire\",480,68,64,60,111,60,117);\n        // createBaseStatPokemon(759,\"Stufful\",\"Normal\",\"Fighting\",340,70,75,50,45,50,50);\n        // createBaseStatPokemon(760,\"Bewear\",\"Normal\",\"Fighting\",500,120,125,80,55,60,60);\n        // createBaseStatPokemon(761,\"Bounsweet\",\"Grass\",\"None\",210,42,30,38,30,38,32);\n        // createBaseStatPokemon(762,\"Steenee\",\"Grass\",\"None\",290,52,40,48,40,48,62);\n        // createBaseStatPokemon(763,\"Tsareena\",\"Grass\",\"None\",510,72,120,98,50,98,72);\n        // createBaseStatPokemon(764,\"Comfey\",\"Fairy\",\"None\",485,51,52,90,82,110,100);\n        // createBaseStatPokemon(765,\"Oranguru\",\"Normal\",\"Psychic\",490,90,60,80,90,110,60);\n        // createBaseStatPokemon(766,\"Passimian\",\"Fighting\",\"None\",490,100,120,90,40,60,80);\n        // createBaseStatPokemon(767,\"Wimpod\",\"Bug\",\"Water\",230,25,35,40,20,30,80);\n        // createBaseStatPokemon(768,\"Golisopod\",\"Bug\",\"Water\",530,75,125,140,60,90,40);\n        // createBaseStatPokemon(769,\"Sandygast\",\"Ghost\",\"Ground\",320,55,55,80,70,45,15);\n        // createBaseStatPokemon(770,\"Palossand\",\"Ghost\",\"Ground\",480,85,75,110,100,75,35);\n        // createBaseStatPokemon(771,\"Pyukumuku\",\"Water\",\"None\",410,55,60,130,30,130,5);\n        // createBaseStatPokemon(772,\"Type: Null\",\"Normal\",\"None\",534,95,95,95,95,95,59);\n        // createBaseStatPokemon(773,\"Silvally\",\"Normal\",\"None\",570,95,95,95,95,95,95);\n        // createBaseStatPokemon(774,\"Minior Meteor Forme\",\"Rock\",\"Flying\",440,60,60,100,60,100,60);\n        // createBaseStatPokemon(774,\"Minior Core Forme\",\"Rock\",\"Flying\",500,60,100,60,100,60,120);\n        // createBaseStatPokemon(775,\"Komala\",\"Normal\",\"None\",480,65,115,65,75,95,65);\n        // createBaseStatPokemon(776,\"Turtonator\",\"Fire\",\"Dragon\",485,60,78,135,91,85,36);\n        // createBaseStatPokemon(777,\"Togedemaru\",\"Electric\",\"Steel\",435,65,98,63,40,73,96);\n        // createBaseStatPokemon(778,\"Mimikyu\",\"Ghost\",\"Fairy\",476,55,90,80,50,105,96);\n        // createBaseStatPokemon(779,\"Bruxish\",\"Water\",\"Psychic\",475,68,105,70,70,70,92);\n        // createBaseStatPokemon(780,\"Drampa\",\"Normal\",\"Dragon\",485,78,60,85,135,91,36);\n        // createBaseStatPokemon(781,\"Dhelmise\",\"Ghost\",\"Grass\",517,70,131,100,86,90,40);\n        // createBaseStatPokemon(782,\"Jangmo-o\",\"Dragon\",\"None\",300,45,55,65,45,45,45);\n        // createBaseStatPokemon(783,\"Hakamo-o\",\"Dragon\",\"Fighting\",420,55,75,90,65,70,65);\n        // createBaseStatPokemon(784,\"Kommo-o\",\"Dragon\",\"Fighting\",600,75,110,125,100,105,85);\n        // createBaseStatPokemon(785,\"Tapu Koko\",\"Electric\",\"Fairy\",570,70,115,85,95,75,130);\n        // createBaseStatPokemon(786,\"Tapu Lele\",\"Psychic\",\"Fairy\",570,70,85,75,130,115,95);\n        // createBaseStatPokemon(787,\"Tapu Bulu\",\"Grass\",\"Fairy\",570,70,130,115,85,95,75);\n        // createBaseStatPokemon(788,\"Tapu Fini\",\"Water\",\"Fairy\",570,70,75,115,95,130,85);\n        // createBaseStatPokemon(789,\"Cosmog\",\"Psychic\",\"None\",200,43,29,31,29,31,37);\n        // createBaseStatPokemon(790,\"Cosmoem\",\"Psychic\",\"None\",400,43,29,131,29,131,37);\n        // createBaseStatPokemon(791,\"Solgaleo\",\"Psychic\",\"Steel\",680,137,137,107,113,89,97);\n        // createBaseStatPokemon(792,\"Lunala\",\"Psychic\",\"Ghost\",680,137,113,89,137,107,97);\n        // createBaseStatPokemon(793,\"Nihilego\",\"Rock\",\"Poison\",570,109,53,47,127,131,103);\n        // createBaseStatPokemon(794,\"Buzzwole\",\"Bug\",\"Fighting\",570,107,139,139,53,53,79);\n        // createBaseStatPokemon(795,\"Pheromosa\",\"Bug\",\"Fighting\",570,71,137,37,137,37,151);\n        // createBaseStatPokemon(796,\"Xurkitree\",\"Electric\",\"None\",570,83,89,71,173,71,83);\n        // createBaseStatPokemon(797,\"Celesteela\",\"Steel\",\"Flying\",570,97,101,103,107,101,61);\n        // createBaseStatPokemon(798,\"Kartana\",\"Grass\",\"Steel\",570,59,181,131,59,31,109);\n        // createBaseStatPokemon(799,\"Guzzlord\",\"Dark\",\"Dragon\",570,223,101,53,97,53,43);\n        // createBaseStatPokemon(800,\"Necrozma\",\"Psychic\",\"None\",600,97,107,101,127,89,79);\n        // createBaseStatPokemon(800,\"Dusk Mane Necrozma\",\"Psychic\",\"Steel\",680,97,157,127,113,109,77);\n        // createBaseStatPokemon(800,\"Dawn Wings Necrozma\",\"Psychic\",\"Ghost\",680,97,113,109,157,127,77);\n        // createBaseStatPokemon(800,\"Ultra Necrozma\",\"Psychic\",\"Dragon\",754,97,167,97,167,97,129);\n        // createBaseStatPokemon(801,\"Magearna\",\"Steel\",\"Fairy\",600,80,95,115,130,115,65);\n        // createBaseStatPokemon(802,\"Marshadow\",\"Fighting\",\"Ghost\",600,90,125,80,90,90,125);\n        // createBaseStatPokemon(803,\"Poipole\",\"Poison\",\"None\",420,67,73,67,73,67,73);\n        // createBaseStatPokemon(804,\"Naganadel\",\"Poison\",\"Dragon\",540,73,73,73,127,73,121);\n        // createBaseStatPokemon(805,\"Stakataka\",\"Rock\",\"Steel\",570,61,131,211,53,101,13);\n        // createBaseStatPokemon(806,\"Blacephalon\",\"Fire\",\"Ghost\",570,53,127,53,151,79,107);\n        // createBaseStatPokemon(807,\"Zeraora\",\"Electric\",\"None\",600,88,112,75,102,80,143);\n        // createBaseStatPokemon(808,\"Meltan\",\"Steel\",\"None\",300,46,65,65,55,35,34);\n        // createBaseStatPokemon(809,\"Melmetal\",\"Steel\",\"None\",600,135,143,143,80,65,34);\n        // createBaseStatPokemon(809,\"Gigantamax Melmetal\",\"Steel\",\"None\",600,135,143,143,80,65,34);\n        // createBaseStatPokemon(810,\"Grookey\",\"Grass\",\"None\",310,50,65,50,40,40,65);\n        // createBaseStatPokemon(811,\"Thwackey\",\"Grass\",\"None\",420,70,85,70,55,60,80);\n        // createBaseStatPokemon(812,\"Rillaboom\",\"Grass\",\"None\",530,100,125,90,60,70,85);\n        // createBaseStatPokemon(812,\"Gigantamax Rillaboom\",\"Grass\",\"None\",530,100,125,90,60,70,85);\n        // createBaseStatPokemon(813,\"Scorbunny\",\"Fire\",\"None\",310,50,71,40,40,40,69);\n        // createBaseStatPokemon(814,\"Raboot\",\"Fire\",\"None\",420,65,86,60,55,60,94);\n        // createBaseStatPokemon(815,\"Cinderace\",\"Fire\",\"None\",530,80,116,75,65,75,119);\n        // createBaseStatPokemon(815,\"Gigantamax Cinderace\",\"Fire\",\"None\",530,80,116,75,65,75,119);\n        // createBaseStatPokemon(816,\"Sobble\",\"Water\",\"None\",310,50,40,40,70,40,70);\n        // createBaseStatPokemon(817,\"Drizzile\",\"Water\",\"None\",420,65,60,55,95,55,90);\n        // createBaseStatPokemon(818,\"Inteleon\",\"Water\",\"None\",530,70,85,65,125,65,120);\n        // createBaseStatPokemon(818,\"Gigantamax Inteleon\",\"Water\",\"None\",530,70,85,65,125,65,120);\n        // createBaseStatPokemon(819,\"Skwovet\",\"Normal\",\"None\",275,70,55,55,35,35,25);\n        // createBaseStatPokemon(820,\"Greedent\",\"Normal\",\"None\",460,120,95,95,55,75,20);\n        // createBaseStatPokemon(821,\"Rookidee\",\"Flying\",\"None\",245,38,47,35,33,35,57);\n        // createBaseStatPokemon(822,\"Corvisquire\",\"Flying\",\"None\",365,68,67,55,43,55,77);\n        // createBaseStatPokemon(823,\"Corviknight\",\"Flying\",\"Steel\",495,98,87,105,53,85,67);\n        // createBaseStatPokemon(823,\"Gigantamax Corviknight\",\"Flying\",\"Steel\",495,98,87,105,53,85,67);\n        // createBaseStatPokemon(824,\"Blipbug\",\"Bug\",\"None\",180,25,20,20,25,45,45);\n        // createBaseStatPokemon(825,\"Dottler\",\"Bug\",\"Psychic\",335,50,35,80,50,90,30);\n        // createBaseStatPokemon(826,\"Orbeetle\",\"Bug\",\"Psychic\",505,60,45,110,80,120,90);\n        // createBaseStatPokemon(826,\"Gigantamax Orbeetle\",\"Bug\",\"Psychic\",505,60,45,110,80,120,90);\n        // createBaseStatPokemon(827,\"Nickit\",\"Dark\",\"None\",245,40,28,28,47,52,50);\n        // createBaseStatPokemon(828,\"Thievul\",\"Dark\",\"None\",455,70,58,58,87,92,90);\n        // createBaseStatPokemon(829,\"Gossifleur\",\"Grass\",\"None\",250,40,40,60,40,60,10);\n        // createBaseStatPokemon(830,\"Eldegoss\",\"Graass\",\"None\",460,60,50,90,80,120,60);\n        // createBaseStatPokemon(831,\"Wooloo\",\"Normal\",\"None\",270,42,40,55,40,45,48);\n        // createBaseStatPokemon(832,\"Dubwool\",\"Normal\",\"None\",490,72,80,100,60,90,88);\n        // createBaseStatPokemon(833,\"Chewtle\",\"Water\",\"None\",284,50,64,50,38,38,44);\n        // createBaseStatPokemon(834,\"Drednaw\",\"Water\",\"Rock\",485,90,115,90,48,68,74);\n        // createBaseStatPokemon(834,\"Gigantamax Drednaw\",\"Water\",\"Rock\",485,90,115,90,48,68,74);\n        // createBaseStatPokemon(835,\"Yamper\",\"Electric\",\"None\",270,59,45,50,40,50,26);\n        // createBaseStatPokemon(836,\"Boltund\",\"Electric\",\"None\",490,69,90,60,90,60,121);\n        // createBaseStatPokemon(837,\"Rolycoly\",\"Rock\",\"None\",240,30,40,50,40,50,30);\n        // createBaseStatPokemon(838,\"Carkol\",\"Rock\",\"Fire\",410,80,60,90,60,70,50);\n        // createBaseStatPokemon(839,\"Coalossal\",\"Rock\",\"Fire\",510,110,80,120,80,90,30);\n        // createBaseStatPokemon(839,\"Gigantamax Coalossal\",\"Rock\",\"Fire\",510,110,80,120,80,90,30);\n        // createBaseStatPokemon(840,\"Applin\",\"Grass\",\"Dragon\",260,40,40,80,40,40,20);\n        // createBaseStatPokemon(841,\"Flapple\",\"Grass\",\"Dragon\",485,70,110,80,95,60,70);\n        // createBaseStatPokemon(841,\"Gigantamax Flapple\",\"Grass\",\"Dragon\",485,70,110,80,95,60,70);\n        // createBaseStatPokemon(842,\"Appletun\",\"Grass\",\"Dragon\",485,110,85,80,100,80,30);\n        // createBaseStatPokemon(842,\"Gigantamax Appletun\",\"Grass\",\"Dragon\",485,110,85,80,100,80,30);\n        // createBaseStatPokemon(843,\"Silicobra\",\"Ground\",\"None\",315,52,57,75,35,50,46);\n        // createBaseStatPokemon(844,\"Sandaconda\",\"Ground\",\"None\",510,72,107,125,65,70,71);\n        // createBaseStatPokemon(844,\"Gigantamax Sandaconda\",\"Ground\",\"None\",510,72,107,125,65,70,71);\n        // createBaseStatPokemon(845,\"Cramorant\",\"Flying\",\"Water\",475,70,85,55,85,95,85);\n        // createBaseStatPokemon(846,\"Arrokuda\",\"Water\",\"None\",280,41,63,40,40,30,66);\n        // createBaseStatPokemon(847,\"Barraskewda\",\"Water\",\"None\",490,61,123,60,60,50,136);\n        // createBaseStatPokemon(848,\"Toxel\",\"Electric\",\"Poison\",242,40,38,35,54,35,40);\n        // createBaseStatPokemon(849,\"Toxtricity Amped Forme\",\"Electric\",\"Poison\",502,75,98,70,114,70,75);\n        // createBaseStatPokemon(849,\"Toxitricity Low Key Forme\",\"Electric\",\"Poison\",502,75,98,70,114,70,75);\n        // createBaseStatPokemon(849,\"Gigantamax Toxitricity\",\"Electric\",\"Poison\",502,75,98,70,114,70,75);\n        // createBaseStatPokemon(850,\"Sizzlipede\",\"Fire\",\"Bug\",305,50,65,45,50,50,45);\n        // createBaseStatPokemon(851,\"Centiskorch\",\"Fire\",\"Bug\",525,100,115,65,90,90,65);\n        // createBaseStatPokemon(851,\"Gigantamax Centiskorch\",\"Fire\",\"Bug\",525,100,115,65,90,90,65);\n        // createBaseStatPokemon(852,\"Clobbopus\",\"Fighting\",\"None\",310,50,68,60,50,50,32);\n        // createBaseStatPokemon(853,\"Grapploct\",\"Fighting\",\"None\",480,80,118,90,70,80,42);\n        // createBaseStatPokemon(854,\"Sinistea\",\"Ghost\",\"None\",308,40,45,45,74,54,50);\n        // createBaseStatPokemon(855,\"Polteageist\",\"Ghost\",\"None\",508,60,65,65,134,114,70);\n        // createBaseStatPokemon(856,\"Hatenna\",\"Psychic\",\"None\",265,42,30,45,56,53,39);\n        // createBaseStatPokemon(857,\"Hattrem\",\"Psychic\",\"None\",370,57,40,65,86,73,49);\n        // createBaseStatPokemon(858,\"Hatterene\",\"Psychic\",\"Fairy\",510,57,90,95,136,103,29);\n        // createBaseStatPokemon(858,\"Gigantamax Hatterene\",\"Psychic\",\"Fairy\",510,57,90,95,136,103,29);\n        // createBaseStatPokemon(859,\"Impidimp\",\"Dark\",\"Fairy\",265,45,45,30,55,40,50);\n        // createBaseStatPokemon(860,\"Morgrem\",\"Dark\",\"Fairy\",370,65,60,45,75,55,70);\n        // createBaseStatPokemon(861,\"Grimmsnarl\",\"Dark\",\"Fairy\",510,95,120,65,95,75,60);\n        // createBaseStatPokemon(861,\"Gigantamax Grimmsnarl\",\"Dark\",\"Fairy\",510,95,120,65,95,75,60);\n        // createBaseStatPokemon(862,\"Obstagoon\",\"Dark\",\"Normal\",520,93,90,101,60,81,95);\n        // createBaseStatPokemon(863,\"Perrserker\",\"Steel\",\"None\",440,70,110,100,50,60,50);\n        // createBaseStatPokemon(864,\"Cursola\",\"Ghost\",\"None\",510,60,95,50,145,130,30);\n        // createBaseStatPokemon(865,\"Sirfetch'd\",\"Fighting\",\"None\",507,62,135,95,68,82,65);\n        // createBaseStatPokemon(866,\"Mr. Rime\",\"Ice\",\"Psychic\",520,80,85,75,110,100,70);\n        // createBaseStatPokemon(867,\"Runerigus\",\"Ground\",\"Ghost\",483,58,95,145,50,105,30);\n        // createBaseStatPokemon(868,\"Milcery\",\"Fairy\",\"None\",270,45,40,40,50,61,34);\n        // createBaseStatPokemon(869,\"Alcremie\",\"Fairy\",\"None\",495,65,60,75,110,121,64);\n        // createBaseStatPokemon(869,\"Gigantamax Alcremie\",\"Fairy\",\"None\",495,65,60,75,110,121,64);\n        // createBaseStatPokemon(870,\"Falinks\",\"Fighting\",\"None\",470,65,100,100,70,60,75);\n        // createBaseStatPokemon(871,\"Pincurchin\",\"Electric\",\"None\",435,48,101,95,91,85,15);\n        // createBaseStatPokemon(872,\"Snom\",\"Ice\",\"Bug\",185,30,25,35,45,30,20);\n        // createBaseStatPokemon(873,\"Frosmoth\",\"Ice\",\"Bug\",475,70,65,60,125,90,65);\n        // createBaseStatPokemon(874,\"Stonjourner\",\"Rock\",\"None\",470,100,125,135,20,20,70);\n        // createBaseStatPokemon(875,\"Eiscue Ice Face\",\"Ice\",\"None\",470,75,80,110,65,90,50);\n        // createBaseStatPokemon(875,\"Eiscue Noice Face\",\"Ice\",\"None\",470,75,80,70,65,50,130);\n        // createBaseStatPokemon(876,\"Indeedee Male\",\"Psychic\",\"Normal\",475,60,65,55,105,95,95);\n        // createBaseStatPokemon(876,\"Indeedee Female\",\"Psychic\",\"Normal\",475,70,55,65,95,105,85);\n        // createBaseStatPokemon(877,\"Morpeko Full Belly Mode\",\"Electric\",\"Dark\",436,58,95,58,70,58,97);\n        // createBaseStatPokemon(877,\"Morpeko Hangry Mode\",\"Electric\",\"Dark\",436,58,95,58,70,58,97);\n        // createBaseStatPokemon(878,\"Cufant\",\"Steel\",\"None\",330,72,80,49,40,49,40);\n        // createBaseStatPokemon(879,\"Copperajah\",\"Steel\",\"None\",500,122,130,69,80,69,30);\n        // createBaseStatPokemon(879,\"Gigantamax Copperajah\",\"Steel\",\"None\",500,122,130,69,80,69,30);\n        // createBaseStatPokemon(880,\"Dracozolt\",\"Electric\",\"Dragon\",505,90,100,90,80,70,75);\n        // createBaseStatPokemon(881,\"Arctozolt\",\"Electric\",\"Ice\",505,90,100,90,90,80,55);\n        // createBaseStatPokemon(882,\"Dracovish\",\"Water\",\"Dragon\",505,90,90,100,70,80,75);\n        // createBaseStatPokemon(883,\"Arctovish\",\"Water\",\"Ice\",505,90,90,100,80,90,55);\n        // createBaseStatPokemon(884,\"Duraludon\",\"Steel\",\"Dragon\",535,70,95,115,120,50,85);\n        // createBaseStatPokemon(884,\"Gigantamax Duraludon\",\"Steel\",\"Dragon\",535,70,95,115,120,50,85);\n        // createBaseStatPokemon(885,\"Dreepy\",\"Dragon\",\"Ghost\",270,28,60,30,40,30,82);\n        // createBaseStatPokemon(886,\"Drakloak\",\"Dragon\",\"Ghost\",410,68,80,50,60,50,102);\n        // createBaseStatPokemon(887,\"Dragapult\",\"Dragon\",\"Ghost\",600,88,120,75,100,75,142);\n        // createBaseStatPokemon(888,\"Zacian Hero of Many Battles\",\"Fairy\",\"None\",670,92,130,115,80,115,138);\n        // createBaseStatPokemon(888,\"Zacian Crowned Sword Forme\",\"Fairy\",\"Steel\",720,92,170,115,80,115,148);\n        // createBaseStatPokemon(889,\"Zamazenta Hero of Many Battles\",\"Fighting\",\"None\",670,92,130,115,80,115,138);\n        // createBaseStatPokemon(889,\"Zamazenta Crowned Sheild Forme\",\"Fighting\",\"Steel\",720,92,130,145,80,145,128);\n        // createBaseStatPokemon(890,\"Eternatus\",\"Poison\",\"Dragon\",690,140,85,95,145,95,130);\n        // createBaseStatPokemon(890,\"Eternamax Eternatus\",\"Poison\",\"Dragon\",1125,255,115,250,125,250,130);\n        // createBaseStatPokemon(891,\"Kubfu\",\"Fighting\",\"None\",385,60,90,60,53,50,72);\n        // createBaseStatPokemon(892,\"Urshifu Single Strike Style\",\"Fighting\",\"Dark\",550,100,130,100,63,60,97);\n        // createBaseStatPokemon(892,\"Gigantamax Urshifu Single Strike Style\",\"Fighting\",\"Dark\",550,100,130,100,63,60,97);\n        // createBaseStatPokemon(892,\"Urshifu Rapid Strike Style\",\"Fighting\",\"Water\",550,100,130,100,63,60,97);\n        // createBaseStatPokemon(892,\"Gigantamax Urshifu Rapid Strike Style\",\"Fighting\",\"Water\",550,100,130,100,63,60,97);\n        // createBaseStatPokemon(893,\"Zarude\",\"Dark\",\"Grass\",600,105,120,105,70,95,105);\n        // createBaseStatPokemon(893,\"Dada Zarude\",\"Dark\",\"Grass\",600,105,120,105,70,95,105);\n        // createBaseStatPokemon(894,\"Regieleki\",\"Electric\",\"None\",580,80,100,50,100,50,200);\n        // createBaseStatPokemon(895,\"Regidrago\",\"Dragon\",\"None\",580,200,100,50,100,50,80);\n        // createBaseStatPokemon(896,\"Glastrier\",\"Ice\",\"None\",580,100,145,130,65,110,30);\n        // createBaseStatPokemon(897,\"Spectrier\",\"Ghost\",\"None\",580,100,65,60,145,80,130);\n        // createBaseStatPokemon(898,\"Calyrex\",\"Psychic\",\"Grass\",500,100,80,80,80,80,80);\n        // createBaseStatPokemon(898,\"Ice Rider Calyrex\",\"Psychic\",\"Ice\",680,100,165,150,85,130,50);\n        // createBaseStatPokemon(898,\"Shadow Rider Calyrex\",\"Psychic\",\"Ghost\",680,100,85,80,165,100,150);\n    }\n\n    function createBaseStatPokemon(uint256 number, string memory pokemonName, string memory type1, string memory type2, uint256 _, uint256 hp, uint256 atk, uint256 def, uint256 spa, uint256 spd, uint256 spe) public onlyOwner {\n        // require(notAdded(pokemonName), \"Pokemon has already been added))\n        PokemonBaseStats storage baseStats = pokemonNameToPokemonBaseStats[pokemonName];\n        baseStats.pokemonName = pokemonName;\n        baseStats.type1 = type1;\n        baseStats.type2 = type2;\n        baseStats.number = number;\n        baseStats.hp = hp; \n        baseStats.def = def;\n        baseStats.atk = atk;\n        baseStats.spa = spa;\n        baseStats.spd = spd;\n        baseStats.spe = spe;\n        listOfPokemonNames.push(pokemonName);\n    }\n}\n",
  "sourcePath": "contracts/PokemonBaseStatData.sol",
  "type": "contract"
}